{
  "_format": "hh-sol-artifact-1",
  "contractName": "InstrumentDeedToken",
  "sourceName": "contracts/InstrumentDeedToken.sol",
  "abi": [
    {
      "inputs": [],
      "stateMutability": "nonpayable",
      "type": "constructor"
    },
    {
      "anonymous": false,
      "inputs": [
        {
          "indexed": true,
          "internalType": "address",
          "name": "owner",
          "type": "address"
        },
        {
          "indexed": true,
          "internalType": "address",
          "name": "approved",
          "type": "address"
        },
        {
          "indexed": true,
          "internalType": "uint256",
          "name": "tokenId",
          "type": "uint256"
        }
      ],
      "name": "Approval",
      "type": "event"
    },
    {
      "anonymous": false,
      "inputs": [
        {
          "indexed": true,
          "internalType": "address",
          "name": "owner",
          "type": "address"
        },
        {
          "indexed": true,
          "internalType": "address",
          "name": "operator",
          "type": "address"
        },
        {
          "indexed": false,
          "internalType": "bool",
          "name": "approved",
          "type": "bool"
        }
      ],
      "name": "ApprovalForAll",
      "type": "event"
    },
    {
      "anonymous": false,
      "inputs": [
        {
          "indexed": true,
          "internalType": "address",
          "name": "previousOwner",
          "type": "address"
        },
        {
          "indexed": true,
          "internalType": "address",
          "name": "newOwner",
          "type": "address"
        }
      ],
      "name": "OwnershipTransferred",
      "type": "event"
    },
    {
      "anonymous": false,
      "inputs": [
        {
          "indexed": false,
          "internalType": "address",
          "name": "tokenOwner",
          "type": "address"
        },
        {
          "indexed": false,
          "internalType": "uint256",
          "name": "tokenId",
          "type": "uint256"
        }
      ],
      "name": "TokenCreated",
      "type": "event"
    },
    {
      "anonymous": false,
      "inputs": [
        {
          "indexed": true,
          "internalType": "address",
          "name": "from",
          "type": "address"
        },
        {
          "indexed": true,
          "internalType": "address",
          "name": "to",
          "type": "address"
        },
        {
          "indexed": true,
          "internalType": "uint256",
          "name": "tokenId",
          "type": "uint256"
        }
      ],
      "name": "Transfer",
      "type": "event"
    },
    {
      "inputs": [
        {
          "internalType": "address",
          "name": "to",
          "type": "address"
        },
        {
          "internalType": "uint256",
          "name": "tokenId",
          "type": "uint256"
        }
      ],
      "name": "approve",
      "outputs": [],
      "stateMutability": "nonpayable",
      "type": "function"
    },
    {
      "inputs": [
        {
          "internalType": "address",
          "name": "owner",
          "type": "address"
        }
      ],
      "name": "balanceOf",
      "outputs": [
        {
          "internalType": "uint256",
          "name": "",
          "type": "uint256"
        }
      ],
      "stateMutability": "view",
      "type": "function"
    },
    {
      "inputs": [
        {
          "internalType": "uint256",
          "name": "_amount",
          "type": "uint256"
        },
        {
          "internalType": "string",
          "name": "hash",
          "type": "string"
        }
      ],
      "name": "batchMint",
      "outputs": [],
      "stateMutability": "nonpayable",
      "type": "function"
    },
    {
      "inputs": [
        {
          "internalType": "uint256",
          "name": "tokenId",
          "type": "uint256"
        }
      ],
      "name": "getApproved",
      "outputs": [
        {
          "internalType": "address",
          "name": "",
          "type": "address"
        }
      ],
      "stateMutability": "view",
      "type": "function"
    },
    {
      "inputs": [
        {
          "internalType": "address",
          "name": "owner",
          "type": "address"
        },
        {
          "internalType": "address",
          "name": "operator",
          "type": "address"
        }
      ],
      "name": "isApprovedForAll",
      "outputs": [
        {
          "internalType": "bool",
          "name": "",
          "type": "bool"
        }
      ],
      "stateMutability": "view",
      "type": "function"
    },
    {
      "inputs": [],
      "name": "name",
      "outputs": [
        {
          "internalType": "string",
          "name": "",
          "type": "string"
        }
      ],
      "stateMutability": "view",
      "type": "function"
    },
    {
      "inputs": [],
      "name": "owner",
      "outputs": [
        {
          "internalType": "address",
          "name": "",
          "type": "address"
        }
      ],
      "stateMutability": "view",
      "type": "function"
    },
    {
      "inputs": [
        {
          "internalType": "uint256",
          "name": "tokenId",
          "type": "uint256"
        }
      ],
      "name": "ownerOf",
      "outputs": [
        {
          "internalType": "address",
          "name": "",
          "type": "address"
        }
      ],
      "stateMutability": "view",
      "type": "function"
    },
    {
      "inputs": [],
      "name": "renounceOwnership",
      "outputs": [],
      "stateMutability": "nonpayable",
      "type": "function"
    },
    {
      "inputs": [
        {
          "internalType": "address",
          "name": "to",
          "type": "address"
        },
        {
          "internalType": "string",
          "name": "uri",
          "type": "string"
        }
      ],
      "name": "safeMint",
      "outputs": [
        {
          "internalType": "uint256",
          "name": "",
          "type": "uint256"
        }
      ],
      "stateMutability": "nonpayable",
      "type": "function"
    },
    {
      "inputs": [
        {
          "internalType": "address",
          "name": "from",
          "type": "address"
        },
        {
          "internalType": "address",
          "name": "to",
          "type": "address"
        },
        {
          "internalType": "uint256",
          "name": "tokenId",
          "type": "uint256"
        }
      ],
      "name": "safeTransferFrom",
      "outputs": [],
      "stateMutability": "nonpayable",
      "type": "function"
    },
    {
      "inputs": [
        {
          "internalType": "address",
          "name": "from",
          "type": "address"
        },
        {
          "internalType": "address",
          "name": "to",
          "type": "address"
        },
        {
          "internalType": "uint256",
          "name": "tokenId",
          "type": "uint256"
        },
        {
          "internalType": "bytes",
          "name": "_data",
          "type": "bytes"
        }
      ],
      "name": "safeTransferFrom",
      "outputs": [],
      "stateMutability": "nonpayable",
      "type": "function"
    },
    {
      "inputs": [
        {
          "internalType": "address",
          "name": "operator",
          "type": "address"
        },
        {
          "internalType": "bool",
          "name": "approved",
          "type": "bool"
        }
      ],
      "name": "setApprovalForAll",
      "outputs": [],
      "stateMutability": "nonpayable",
      "type": "function"
    },
    {
      "inputs": [
        {
          "internalType": "bytes4",
          "name": "interfaceId",
          "type": "bytes4"
        }
      ],
      "name": "supportsInterface",
      "outputs": [
        {
          "internalType": "bool",
          "name": "",
          "type": "bool"
        }
      ],
      "stateMutability": "view",
      "type": "function"
    },
    {
      "inputs": [],
      "name": "symbol",
      "outputs": [
        {
          "internalType": "string",
          "name": "",
          "type": "string"
        }
      ],
      "stateMutability": "view",
      "type": "function"
    },
    {
      "inputs": [
        {
          "internalType": "uint256",
          "name": "index",
          "type": "uint256"
        }
      ],
      "name": "tokenByIndex",
      "outputs": [
        {
          "internalType": "uint256",
          "name": "",
          "type": "uint256"
        }
      ],
      "stateMutability": "view",
      "type": "function"
    },
    {
      "inputs": [
        {
          "internalType": "address",
          "name": "owner",
          "type": "address"
        },
        {
          "internalType": "uint256",
          "name": "index",
          "type": "uint256"
        }
      ],
      "name": "tokenOfOwnerByIndex",
      "outputs": [
        {
          "internalType": "uint256",
          "name": "",
          "type": "uint256"
        }
      ],
      "stateMutability": "view",
      "type": "function"
    },
    {
      "inputs": [
        {
          "internalType": "uint256",
          "name": "tokenId",
          "type": "uint256"
        }
      ],
      "name": "tokenURI",
      "outputs": [
        {
          "internalType": "string",
          "name": "",
          "type": "string"
        }
      ],
      "stateMutability": "view",
      "type": "function"
    },
    {
      "inputs": [
        {
          "internalType": "address",
          "name": "_owner",
          "type": "address"
        }
      ],
      "name": "tokensOfOwner",
      "outputs": [
        {
          "internalType": "uint256[]",
          "name": "",
          "type": "uint256[]"
        }
      ],
      "stateMutability": "view",
      "type": "function"
    },
    {
      "inputs": [],
      "name": "totalSupply",
      "outputs": [
        {
          "internalType": "uint256",
          "name": "",
          "type": "uint256"
        }
      ],
      "stateMutability": "view",
      "type": "function"
    },
    {
      "inputs": [
        {
          "internalType": "address",
          "name": "from",
          "type": "address"
        },
        {
          "internalType": "address",
          "name": "to",
          "type": "address"
        },
        {
          "internalType": "uint256",
          "name": "tokenId",
          "type": "uint256"
        }
      ],
      "name": "transferFrom",
      "outputs": [],
      "stateMutability": "nonpayable",
      "type": "function"
    },
    {
      "inputs": [
        {
          "internalType": "address",
          "name": "newOwner",
          "type": "address"
        }
      ],
      "name": "transferOwnership",
      "outputs": [],
      "stateMutability": "nonpayable",
      "type": "function"
    }
  ],
  "bytecode": "0x60806040523480156200001157600080fd5b50604080518082018252601381527f496e737472756d656e7444656564546f6b656e0000000000000000000000000060208083019182528351808501909452600384526212511560ea1b908401528151919291620000729160009162000101565b5080516200008890600190602084019062000101565b505050620000a56200009f620000ab60201b60201c565b620000af565b620001e4565b3390565b600b80546001600160a01b038381166001600160a01b0319831681179093556040519116919082907f8be0079c531659141344cd1fd0a4f28419497f9722a3daafe3b4186f6b6457e090600090a35050565b8280546200010f90620001a7565b90600052602060002090601f0160209004810192826200013357600085556200017e565b82601f106200014e57805160ff19168380011785556200017e565b828001600101855582156200017e579182015b828111156200017e57825182559160200191906001019062000161565b506200018c92915062000190565b5090565b5b808211156200018c576000815560010162000191565b600181811c90821680620001bc57607f821691505b60208210811415620001de57634e487b7160e01b600052602260045260246000fd5b50919050565b611f0480620001f46000396000f3fe608060405234801561001057600080fd5b50600436106101425760003560e01c8063715018a6116100b8578063b88d4fde1161007c578063b88d4fde1461029c578063c87b56dd146102af578063d204c45e146102c2578063e985e9c5146102d5578063f12a856214610311578063f2fde38b1461032457600080fd5b8063715018a6146102485780638462151c146102505780638da5cb5b1461027057806395d89b4114610281578063a22cb4651461028957600080fd5b806323b872dd1161010a57806323b872dd146101d65780632f745c59146101e957806342842e0e146101fc5780634f6ccce71461020f5780636352211e1461022257806370a082311461023557600080fd5b806301ffc9a71461014757806306fdde031461016f578063081812fc14610184578063095ea7b3146101af57806318160ddd146101c4575b600080fd5b61015a610155366004611905565b610337565b60405190151581526020015b60405180910390f35b610177610348565b604051610166919061197a565b61019761019236600461198d565b6103da565b6040516001600160a01b039091168152602001610166565b6101c26101bd3660046119c2565b610467565b005b6008545b604051908152602001610166565b6101c26101e43660046119ec565b61057d565b6101c86101f73660046119c2565b6105ae565b6101c261020a3660046119ec565b610644565b6101c861021d36600461198d565b61065f565b61019761023036600461198d565b6106f2565b6101c8610243366004611a28565b610769565b6101c26107f0565b61026361025e366004611a28565b610856565b6040516101669190611a43565b600b546001600160a01b0316610197565b6101776108f8565b6101c2610297366004611a87565b610907565b6101c26102aa366004611b4f565b610916565b6101776102bd36600461198d565b61094e565b6101c86102d0366004611beb565b610959565b61015a6102e3366004611c39565b6001600160a01b03918216600090815260056020908152604080832093909416825291909152205460ff1690565b6101c261031f366004611c6c565b6109d2565b6101c2610332366004611a28565b6109f9565b600061034282610ac4565b92915050565b60606000805461035790611c9d565b80601f016020809104026020016040519081016040528092919081815260200182805461038390611c9d565b80156103d05780601f106103a5576101008083540402835291602001916103d0565b820191906000526020600020905b8154815290600101906020018083116103b357829003601f168201915b5050505050905090565b60006103e582610ae9565b61044b5760405162461bcd60e51b815260206004820152602c60248201527f4552433732313a20617070726f76656420717565727920666f72206e6f6e657860448201526b34b9ba32b73a103a37b5b2b760a11b60648201526084015b60405180910390fd5b506000908152600460205260409020546001600160a01b031690565b6000610472826106f2565b9050806001600160a01b0316836001600160a01b031614156104e05760405162461bcd60e51b815260206004820152602160248201527f4552433732313a20617070726f76616c20746f2063757272656e74206f776e656044820152603960f91b6064820152608401610442565b336001600160a01b03821614806104fc57506104fc81336102e3565b61056e5760405162461bcd60e51b815260206004820152603860248201527f4552433732313a20617070726f76652063616c6c6572206973206e6f74206f7760448201527f6e6572206e6f7220617070726f76656420666f7220616c6c00000000000000006064820152608401610442565b6105788383610b06565b505050565b6105873382610b74565b6105a35760405162461bcd60e51b815260040161044290611cd8565b610578838383610c5e565b60006105b983610769565b821061061b5760405162461bcd60e51b815260206004820152602b60248201527f455243373231456e756d657261626c653a206f776e657220696e646578206f7560448201526a74206f6620626f756e647360a81b6064820152608401610442565b506001600160a01b03919091166000908152600660209081526040808320938352929052205490565b61057883838360405180602001604052806000815250610916565b600061066a60085490565b82106106cd5760405162461bcd60e51b815260206004820152602c60248201527f455243373231456e756d657261626c653a20676c6f62616c20696e646578206f60448201526b7574206f6620626f756e647360a01b6064820152608401610442565b600882815481106106e0576106e0611d29565b90600052602060002001549050919050565b6000818152600260205260408120546001600160a01b0316806103425760405162461bcd60e51b815260206004820152602960248201527f4552433732313a206f776e657220717565727920666f72206e6f6e657869737460448201526832b73a103a37b5b2b760b91b6064820152608401610442565b60006001600160a01b0382166107d45760405162461bcd60e51b815260206004820152602a60248201527f4552433732313a2062616c616e636520717565727920666f7220746865207a65604482015269726f206164647265737360b01b6064820152608401610442565b506001600160a01b031660009081526003602052604090205490565b600b546001600160a01b0316331461084a5760405162461bcd60e51b815260206004820181905260248201527f4f776e61626c653a2063616c6c6572206973206e6f7420746865206f776e65726044820152606401610442565b6108546000610e05565b565b6060600061086383610769565b905060008167ffffffffffffffff81111561088057610880611ac3565b6040519080825280602002602001820160405280156108a9578160200160208202803683370190505b50905060005b828110156108f0576108c185826105ae565b8282815181106108d3576108d3611d29565b6020908102919091010152806108e881611d55565b9150506108af565b509392505050565b60606001805461035790611c9d565b610912338383610e57565b5050565b6109203383610b74565b61093c5760405162461bcd60e51b815260040161044290611cd8565b61094884848484610f26565b50505050565b606061034282610f59565b600080610965600c5490565b9050610975600c80546001019055565b61097f84826110c8565b61098981846110e2565b604080516001600160a01b0386168152602081018390527f1cef2b4ec7f129e441c961eb4fae22fd3131868db6be990c6f065f35b6b53cf3910160405180910390a19392505050565b60005b828111610578576109e63383610959565b50806109f181611d55565b9150506109d5565b600b546001600160a01b03163314610a535760405162461bcd60e51b815260206004820181905260248201527f4f776e61626c653a2063616c6c6572206973206e6f7420746865206f776e65726044820152606401610442565b6001600160a01b038116610ab85760405162461bcd60e51b815260206004820152602660248201527f4f776e61626c653a206e6577206f776e657220697320746865207a65726f206160448201526564647265737360d01b6064820152608401610442565b610ac181610e05565b50565b60006001600160e01b0319821663780e9d6360e01b148061034257506103428261116d565b6000908152600260205260409020546001600160a01b0316151590565b600081815260046020526040902080546001600160a01b0319166001600160a01b0384169081179091558190610b3b826106f2565b6001600160a01b03167f8c5be1e5ebec7d5bd14f71427d1e84f3dd0314c0f7b2291e5b200ac8c7c3b92560405160405180910390a45050565b6000610b7f82610ae9565b610be05760405162461bcd60e51b815260206004820152602c60248201527f4552433732313a206f70657261746f7220717565727920666f72206e6f6e657860448201526b34b9ba32b73a103a37b5b2b760a11b6064820152608401610442565b6000610beb836106f2565b9050806001600160a01b0316846001600160a01b03161480610c3257506001600160a01b0380821660009081526005602090815260408083209388168352929052205460ff165b80610c565750836001600160a01b0316610c4b846103da565b6001600160a01b0316145b949350505050565b826001600160a01b0316610c71826106f2565b6001600160a01b031614610cd55760405162461bcd60e51b815260206004820152602560248201527f4552433732313a207472616e736665722066726f6d20696e636f72726563742060448201526437bbb732b960d91b6064820152608401610442565b6001600160a01b038216610d375760405162461bcd60e51b8152602060048201526024808201527f4552433732313a207472616e7366657220746f20746865207a65726f206164646044820152637265737360e01b6064820152608401610442565b610d428383836111bd565b610d4d600082610b06565b6001600160a01b0383166000908152600360205260408120805460019290610d76908490611d70565b90915550506001600160a01b0382166000908152600360205260408120805460019290610da4908490611d87565b909155505060008181526002602052604080822080546001600160a01b0319166001600160a01b0386811691821790925591518493918716917fddf252ad1be2c89b69c2b068fc378daa952ba7f163c4a11628f55a4df523b3ef91a4505050565b600b80546001600160a01b038381166001600160a01b0319831681179093556040519116919082907f8be0079c531659141344cd1fd0a4f28419497f9722a3daafe3b4186f6b6457e090600090a35050565b816001600160a01b0316836001600160a01b03161415610eb95760405162461bcd60e51b815260206004820152601960248201527f4552433732313a20617070726f766520746f2063616c6c6572000000000000006044820152606401610442565b6001600160a01b03838116600081815260056020908152604080832094871680845294825291829020805460ff191686151590811790915591519182527f17307eab39ab6107e8899845ad3d59bd9653f200f220920489ca2b5937696c31910160405180910390a3505050565b610f31848484610c5e565b610f3d848484846111c8565b6109485760405162461bcd60e51b815260040161044290611d9f565b6060610f6482610ae9565b610fca5760405162461bcd60e51b815260206004820152603160248201527f45524337323155524953746f726167653a2055524920717565727920666f72206044820152703737b732bc34b9ba32b73a103a37b5b2b760791b6064820152608401610442565b6000828152600a602052604081208054610fe390611c9d565b80601f016020809104026020016040519081016040528092919081815260200182805461100f90611c9d565b801561105c5780601f106110315761010080835404028352916020019161105c565b820191906000526020600020905b81548152906001019060200180831161103f57829003601f168201915b50505050509050600061107a60408051602081019091526000815290565b905080516000141561108d575092915050565b8151156110bf5780826040516020016110a7929190611df1565b60405160208183030381529060405292505050919050565b610c56846112c6565b61091282826040518060200160405280600081525061139e565b6110eb82610ae9565b61114e5760405162461bcd60e51b815260206004820152602e60248201527f45524337323155524953746f726167653a2055524920736574206f66206e6f6e60448201526d32bc34b9ba32b73a103a37b5b2b760911b6064820152608401610442565b6000828152600a60209081526040909120825161057892840190611856565b60006001600160e01b031982166380ac58cd60e01b148061119e57506001600160e01b03198216635b5e139f60e01b145b8061034257506301ffc9a760e01b6001600160e01b0319831614610342565b6105788383836113d1565b60006001600160a01b0384163b156112bb57604051630a85bd0160e11b81526001600160a01b0385169063150b7a029061120c903390899088908890600401611e20565b6020604051808303816000875af1925050508015611247575060408051601f3d908101601f1916820190925261124491810190611e5d565b60015b6112a1573d808015611275576040519150601f19603f3d011682016040523d82523d6000602084013e61127a565b606091505b5080516112995760405162461bcd60e51b815260040161044290611d9f565b805181602001fd5b6001600160e01b031916630a85bd0160e11b149050610c56565b506001949350505050565b60606112d182610ae9565b6113355760405162461bcd60e51b815260206004820152602f60248201527f4552433732314d657461646174613a2055524920717565727920666f72206e6f60448201526e3732bc34b9ba32b73a103a37b5b2b760891b6064820152608401610442565b600061134c60408051602081019091526000815290565b9050600081511161136c5760405180602001604052806000815250611397565b8061137684611489565b604051602001611387929190611df1565b6040516020818303038152906040525b9392505050565b6113a88383611587565b6113b560008484846111c8565b6105785760405162461bcd60e51b815260040161044290611d9f565b6001600160a01b03831661142c5761142781600880546000838152600960205260408120829055600182018355919091527ff3f7a9fe364faab93b216da50a3214154f22a0a2b415b23a84c8169e8b636ee30155565b61144f565b816001600160a01b0316836001600160a01b03161461144f5761144f83826116c6565b6001600160a01b0382166114665761057881611763565b826001600160a01b0316826001600160a01b031614610578576105788282611812565b6060816114ad5750506040805180820190915260018152600360fc1b602082015290565b8160005b81156114d757806114c181611d55565b91506114d09050600a83611e90565b91506114b1565b60008167ffffffffffffffff8111156114f2576114f2611ac3565b6040519080825280601f01601f19166020018201604052801561151c576020820181803683370190505b5090505b8415610c5657611531600183611d70565b915061153e600a86611ea4565b611549906030611d87565b60f81b81838151811061155e5761155e611d29565b60200101906001600160f81b031916908160001a905350611580600a86611e90565b9450611520565b6001600160a01b0382166115dd5760405162461bcd60e51b815260206004820181905260248201527f4552433732313a206d696e7420746f20746865207a65726f20616464726573736044820152606401610442565b6115e681610ae9565b156116335760405162461bcd60e51b815260206004820152601c60248201527f4552433732313a20746f6b656e20616c7265616479206d696e746564000000006044820152606401610442565b61163f600083836111bd565b6001600160a01b0382166000908152600360205260408120805460019290611668908490611d87565b909155505060008181526002602052604080822080546001600160a01b0319166001600160a01b03861690811790915590518392907fddf252ad1be2c89b69c2b068fc378daa952ba7f163c4a11628f55a4df523b3ef908290a45050565b600060016116d384610769565b6116dd9190611d70565b600083815260076020526040902054909150808214611730576001600160a01b03841660009081526006602090815260408083208584528252808320548484528184208190558352600790915290208190555b5060009182526007602090815260408084208490556001600160a01b039094168352600681528383209183525290812055565b60085460009061177590600190611d70565b6000838152600960205260408120546008805493945090928490811061179d5761179d611d29565b9060005260206000200154905080600883815481106117be576117be611d29565b60009182526020808320909101929092558281526009909152604080822084905585825281205560088054806117f6576117f6611eb8565b6001900381819060005260206000200160009055905550505050565b600061181d83610769565b6001600160a01b039093166000908152600660209081526040808320868452825280832085905593825260079052919091209190915550565b82805461186290611c9d565b90600052602060002090601f01602090048101928261188457600085556118ca565b82601f1061189d57805160ff19168380011785556118ca565b828001600101855582156118ca579182015b828111156118ca5782518255916020019190600101906118af565b506118d69291506118da565b5090565b5b808211156118d657600081556001016118db565b6001600160e01b031981168114610ac157600080fd5b60006020828403121561191757600080fd5b8135611397816118ef565b60005b8381101561193d578181015183820152602001611925565b838111156109485750506000910152565b60008151808452611966816020860160208601611922565b601f01601f19169290920160200192915050565b602081526000611397602083018461194e565b60006020828403121561199f57600080fd5b5035919050565b80356001600160a01b03811681146119bd57600080fd5b919050565b600080604083850312156119d557600080fd5b6119de836119a6565b946020939093013593505050565b600080600060608486031215611a0157600080fd5b611a0a846119a6565b9250611a18602085016119a6565b9150604084013590509250925092565b600060208284031215611a3a57600080fd5b611397826119a6565b6020808252825182820181905260009190848201906040850190845b81811015611a7b57835183529284019291840191600101611a5f565b50909695505050505050565b60008060408385031215611a9a57600080fd5b611aa3836119a6565b915060208301358015158114611ab857600080fd5b809150509250929050565b634e487b7160e01b600052604160045260246000fd5b600067ffffffffffffffff80841115611af457611af4611ac3565b604051601f8501601f19908116603f01168101908282118183101715611b1c57611b1c611ac3565b81604052809350858152868686011115611b3557600080fd5b858560208301376000602087830101525050509392505050565b60008060008060808587031215611b6557600080fd5b611b6e856119a6565b9350611b7c602086016119a6565b925060408501359150606085013567ffffffffffffffff811115611b9f57600080fd5b8501601f81018713611bb057600080fd5b611bbf87823560208401611ad9565b91505092959194509250565b600082601f830112611bdc57600080fd5b61139783833560208501611ad9565b60008060408385031215611bfe57600080fd5b611c07836119a6565b9150602083013567ffffffffffffffff811115611c2357600080fd5b611c2f85828601611bcb565b9150509250929050565b60008060408385031215611c4c57600080fd5b611c55836119a6565b9150611c63602084016119a6565b90509250929050565b60008060408385031215611c7f57600080fd5b82359150602083013567ffffffffffffffff811115611c2357600080fd5b600181811c90821680611cb157607f821691505b60208210811415611cd257634e487b7160e01b600052602260045260246000fd5b50919050565b60208082526031908201527f4552433732313a207472616e736665722063616c6c6572206973206e6f74206f6040820152701ddb995c881b9bdc88185c1c1c9bdd9959607a1b606082015260800190565b634e487b7160e01b600052603260045260246000fd5b634e487b7160e01b600052601160045260246000fd5b6000600019821415611d6957611d69611d3f565b5060010190565b600082821015611d8257611d82611d3f565b500390565b60008219821115611d9a57611d9a611d3f565b500190565b60208082526032908201527f4552433732313a207472616e7366657220746f206e6f6e20455243373231526560408201527131b2b4bb32b91034b6b83632b6b2b73a32b960711b606082015260800190565b60008351611e03818460208801611922565b835190830190611e17818360208801611922565b01949350505050565b6001600160a01b0385811682528416602082015260408101839052608060608201819052600090611e539083018461194e565b9695505050505050565b600060208284031215611e6f57600080fd5b8151611397816118ef565b634e487b7160e01b600052601260045260246000fd5b600082611e9f57611e9f611e7a565b500490565b600082611eb357611eb3611e7a565b500690565b634e487b7160e01b600052603160045260246000fdfea2646970667358221220697ac473187d0c4921b085f76a081790711ecb2749a692ba4dccf60422db8b2f64736f6c634300080a0033",
  "linkReferences": {},
  "deployedLinkReferences": {}
}