{
  "_format": "hh-sol-artifact-1",
  "contractName": "InstrumentDeedToken",
  "sourceName": "contracts/InstrumentDeedToken.sol",
  "abi": [
    {
      "inputs": [],
      "stateMutability": "nonpayable",
      "type": "constructor"
    },
    {
      "anonymous": false,
      "inputs": [
        {
          "indexed": true,
          "internalType": "address",
          "name": "owner",
          "type": "address"
        },
        {
          "indexed": true,
          "internalType": "address",
          "name": "approved",
          "type": "address"
        },
        {
          "indexed": true,
          "internalType": "uint256",
          "name": "tokenId",
          "type": "uint256"
        }
      ],
      "name": "Approval",
      "type": "event"
    },
    {
      "anonymous": false,
      "inputs": [
        {
          "indexed": true,
          "internalType": "address",
          "name": "owner",
          "type": "address"
        },
        {
          "indexed": true,
          "internalType": "address",
          "name": "operator",
          "type": "address"
        },
        {
          "indexed": false,
          "internalType": "bool",
          "name": "approved",
          "type": "bool"
        }
      ],
      "name": "ApprovalForAll",
      "type": "event"
    },
    {
      "anonymous": false,
      "inputs": [
        {
          "indexed": true,
          "internalType": "address",
          "name": "previousOwner",
          "type": "address"
        },
        {
          "indexed": true,
          "internalType": "address",
          "name": "newOwner",
          "type": "address"
        }
      ],
      "name": "OwnershipTransferred",
      "type": "event"
    },
    {
      "anonymous": false,
      "inputs": [
        {
          "indexed": false,
          "internalType": "address",
          "name": "tokenOwner",
          "type": "address"
        },
        {
          "indexed": false,
          "internalType": "uint256",
          "name": "tokenId",
          "type": "uint256"
        }
      ],
      "name": "TokenCreated",
      "type": "event"
    },
    {
      "anonymous": false,
      "inputs": [
        {
          "indexed": true,
          "internalType": "address",
          "name": "from",
          "type": "address"
        },
        {
          "indexed": true,
          "internalType": "address",
          "name": "to",
          "type": "address"
        },
        {
          "indexed": true,
          "internalType": "uint256",
          "name": "tokenId",
          "type": "uint256"
        }
      ],
      "name": "Transfer",
      "type": "event"
    },
    {
      "inputs": [
        {
          "internalType": "address",
          "name": "to",
          "type": "address"
        },
        {
          "internalType": "uint256",
          "name": "tokenId",
          "type": "uint256"
        }
      ],
      "name": "approve",
      "outputs": [],
      "stateMutability": "nonpayable",
      "type": "function"
    },
    {
      "inputs": [
        {
          "internalType": "address",
          "name": "owner",
          "type": "address"
        }
      ],
      "name": "balanceOf",
      "outputs": [
        {
          "internalType": "uint256",
          "name": "",
          "type": "uint256"
        }
      ],
      "stateMutability": "view",
      "type": "function"
    },
    {
      "inputs": [
        {
          "internalType": "uint256",
          "name": "tokenId",
          "type": "uint256"
        }
      ],
      "name": "getApproved",
      "outputs": [
        {
          "internalType": "address",
          "name": "",
          "type": "address"
        }
      ],
      "stateMutability": "view",
      "type": "function"
    },
    {
      "inputs": [
        {
          "internalType": "address",
          "name": "owner",
          "type": "address"
        },
        {
          "internalType": "address",
          "name": "operator",
          "type": "address"
        }
      ],
      "name": "isApprovedForAll",
      "outputs": [
        {
          "internalType": "bool",
          "name": "",
          "type": "bool"
        }
      ],
      "stateMutability": "view",
      "type": "function"
    },
    {
      "inputs": [],
      "name": "name",
      "outputs": [
        {
          "internalType": "string",
          "name": "",
          "type": "string"
        }
      ],
      "stateMutability": "view",
      "type": "function"
    },
    {
      "inputs": [],
      "name": "owner",
      "outputs": [
        {
          "internalType": "address",
          "name": "",
          "type": "address"
        }
      ],
      "stateMutability": "view",
      "type": "function"
    },
    {
      "inputs": [
        {
          "internalType": "uint256",
          "name": "tokenId",
          "type": "uint256"
        }
      ],
      "name": "ownerOf",
      "outputs": [
        {
          "internalType": "address",
          "name": "",
          "type": "address"
        }
      ],
      "stateMutability": "view",
      "type": "function"
    },
    {
      "inputs": [],
      "name": "renounceOwnership",
      "outputs": [],
      "stateMutability": "nonpayable",
      "type": "function"
    },
    {
      "inputs": [
        {
          "internalType": "address",
          "name": "to",
          "type": "address"
        },
        {
          "internalType": "string",
          "name": "uri",
          "type": "string"
        }
      ],
      "name": "safeMint",
      "outputs": [
        {
          "internalType": "uint256",
          "name": "",
          "type": "uint256"
        }
      ],
      "stateMutability": "nonpayable",
      "type": "function"
    },
    {
      "inputs": [
        {
          "internalType": "address",
          "name": "from",
          "type": "address"
        },
        {
          "internalType": "address",
          "name": "to",
          "type": "address"
        },
        {
          "internalType": "uint256",
          "name": "tokenId",
          "type": "uint256"
        }
      ],
      "name": "safeTransferFrom",
      "outputs": [],
      "stateMutability": "nonpayable",
      "type": "function"
    },
    {
      "inputs": [
        {
          "internalType": "address",
          "name": "from",
          "type": "address"
        },
        {
          "internalType": "address",
          "name": "to",
          "type": "address"
        },
        {
          "internalType": "uint256",
          "name": "tokenId",
          "type": "uint256"
        },
        {
          "internalType": "bytes",
          "name": "_data",
          "type": "bytes"
        }
      ],
      "name": "safeTransferFrom",
      "outputs": [],
      "stateMutability": "nonpayable",
      "type": "function"
    },
    {
      "inputs": [
        {
          "internalType": "address",
          "name": "operator",
          "type": "address"
        },
        {
          "internalType": "bool",
          "name": "approved",
          "type": "bool"
        }
      ],
      "name": "setApprovalForAll",
      "outputs": [],
      "stateMutability": "nonpayable",
      "type": "function"
    },
    {
      "inputs": [
        {
          "internalType": "bytes4",
          "name": "interfaceId",
          "type": "bytes4"
        }
      ],
      "name": "supportsInterface",
      "outputs": [
        {
          "internalType": "bool",
          "name": "",
          "type": "bool"
        }
      ],
      "stateMutability": "view",
      "type": "function"
    },
    {
      "inputs": [],
      "name": "symbol",
      "outputs": [
        {
          "internalType": "string",
          "name": "",
          "type": "string"
        }
      ],
      "stateMutability": "view",
      "type": "function"
    },
    {
      "inputs": [
        {
          "internalType": "uint256",
          "name": "index",
          "type": "uint256"
        }
      ],
      "name": "tokenByIndex",
      "outputs": [
        {
          "internalType": "uint256",
          "name": "",
          "type": "uint256"
        }
      ],
      "stateMutability": "view",
      "type": "function"
    },
    {
      "inputs": [
        {
          "internalType": "address",
          "name": "owner",
          "type": "address"
        },
        {
          "internalType": "uint256",
          "name": "index",
          "type": "uint256"
        }
      ],
      "name": "tokenOfOwnerByIndex",
      "outputs": [
        {
          "internalType": "uint256",
          "name": "",
          "type": "uint256"
        }
      ],
      "stateMutability": "view",
      "type": "function"
    },
    {
      "inputs": [
        {
          "internalType": "uint256",
          "name": "tokenId",
          "type": "uint256"
        }
      ],
      "name": "tokenURI",
      "outputs": [
        {
          "internalType": "string",
          "name": "",
          "type": "string"
        }
      ],
      "stateMutability": "view",
      "type": "function"
    },
    {
      "inputs": [
        {
          "internalType": "address",
          "name": "_owner",
          "type": "address"
        }
      ],
      "name": "tokensOfOwner",
      "outputs": [
        {
          "internalType": "uint256[]",
          "name": "",
          "type": "uint256[]"
        }
      ],
      "stateMutability": "view",
      "type": "function"
    },
    {
      "inputs": [],
      "name": "totalSupply",
      "outputs": [
        {
          "internalType": "uint256",
          "name": "",
          "type": "uint256"
        }
      ],
      "stateMutability": "view",
      "type": "function"
    },
    {
      "inputs": [
        {
          "internalType": "address",
          "name": "from",
          "type": "address"
        },
        {
          "internalType": "address",
          "name": "to",
          "type": "address"
        },
        {
          "internalType": "uint256",
          "name": "tokenId",
          "type": "uint256"
        }
      ],
      "name": "transferFrom",
      "outputs": [],
      "stateMutability": "nonpayable",
      "type": "function"
    },
    {
      "inputs": [
        {
          "internalType": "address",
          "name": "newOwner",
          "type": "address"
        }
      ],
      "name": "transferOwnership",
      "outputs": [],
      "stateMutability": "nonpayable",
      "type": "function"
    }
  ],
  "bytecode": "0x60806040523480156200001157600080fd5b506040518060400160405280601381526020017f496e737472756d656e7444656564546f6b656e000000000000000000000000008152506040518060400160405280600381526020017f4944540000000000000000000000000000000000000000000000000000000000815250816000908051906020019062000096929190620001a6565b508060019080519060200190620000af929190620001a6565b505050620000d2620000c6620000d860201b60201c565b620000e060201b60201c565b620002bb565b600033905090565b6000600b60009054906101000a900473ffffffffffffffffffffffffffffffffffffffff16905081600b60006101000a81548173ffffffffffffffffffffffffffffffffffffffff021916908373ffffffffffffffffffffffffffffffffffffffff1602179055508173ffffffffffffffffffffffffffffffffffffffff168173ffffffffffffffffffffffffffffffffffffffff167f8be0079c531659141344cd1fd0a4f28419497f9722a3daafe3b4186f6b6457e060405160405180910390a35050565b828054620001b49062000285565b90600052602060002090601f016020900481019282620001d8576000855562000224565b82601f10620001f357805160ff191683800117855562000224565b8280016001018555821562000224579182015b828111156200022357825182559160200191906001019062000206565b5b50905062000233919062000237565b5090565b5b808211156200025257600081600090555060010162000238565b5090565b7f4e487b7100000000000000000000000000000000000000000000000000000000600052602260045260246000fd5b600060028204905060018216806200029e57607f821691505b60208210811415620002b557620002b462000256565b5b50919050565b613a1580620002cb6000396000f3fe608060405234801561001057600080fd5b50600436106101375760003560e01c806370a08231116100b8578063a22cb4651161007c578063a22cb46514610362578063b88d4fde1461037e578063c87b56dd1461039a578063d204c45e146103ca578063e985e9c5146103fa578063f2fde38b1461042a57610137565b806370a08231146102bc578063715018a6146102ec5780638462151c146102f65780638da5cb5b1461032657806395d89b411461034457610137565b806323b872dd116100ff57806323b872dd146101f45780632f745c591461021057806342842e0e146102405780634f6ccce71461025c5780636352211e1461028c57610137565b806301ffc9a71461013c57806306fdde031461016c578063081812fc1461018a578063095ea7b3146101ba57806318160ddd146101d6575b600080fd5b6101566004803603810190610151919061241d565b610446565b6040516101639190612465565b60405180910390f35b610174610458565b6040516101819190612519565b60405180910390f35b6101a4600480360381019061019f9190612571565b6104ea565b6040516101b191906125df565b60405180910390f35b6101d460048036038101906101cf9190612626565b61056f565b005b6101de610687565b6040516101eb9190612675565b60405180910390f35b61020e60048036038101906102099190612690565b610694565b005b61022a60048036038101906102259190612626565b6106f4565b6040516102379190612675565b60405180910390f35b61025a60048036038101906102559190612690565b610799565b005b61027660048036038101906102719190612571565b6107b9565b6040516102839190612675565b60405180910390f35b6102a660048036038101906102a19190612571565b61082a565b6040516102b391906125df565b60405180910390f35b6102d660048036038101906102d191906126e3565b6108dc565b6040516102e39190612675565b60405180910390f35b6102f4610994565b005b610310600480360381019061030b91906126e3565b610a1c565b60405161031d91906127ce565b60405180910390f35b61032e610aca565b60405161033b91906125df565b60405180910390f35b61034c610af4565b6040516103599190612519565b60405180910390f35b61037c6004803603810190610377919061281c565b610b86565b005b61039860048036038101906103939190612991565b610b9c565b005b6103b460048036038101906103af9190612571565b610bfe565b6040516103c19190612519565b60405180910390f35b6103e460048036038101906103df9190612ab5565b610c10565b6040516103f19190612675565b60405180910390f35b610414600480360381019061040f9190612b11565b610c80565b6040516104219190612465565b60405180910390f35b610444600480360381019061043f91906126e3565b610d14565b005b600061045182610e0c565b9050919050565b60606000805461046790612b80565b80601f016020809104026020016040519081016040528092919081815260200182805461049390612b80565b80156104e05780601f106104b5576101008083540402835291602001916104e0565b820191906000526020600020905b8154815290600101906020018083116104c357829003601f168201915b5050505050905090565b60006104f582610e86565b610534576040517f08c379a000000000000000000000000000000000000000000000000000000000815260040161052b90612c24565b60405180910390fd5b6004600083815260200190815260200160002060009054906101000a900473ffffffffffffffffffffffffffffffffffffffff169050919050565b600061057a8261082a565b90508073ffffffffffffffffffffffffffffffffffffffff168373ffffffffffffffffffffffffffffffffffffffff1614156105eb576040517f08c379a00000000000000000000000000000000000000000000000000000000081526004016105e290612cb6565b60405180910390fd5b8073ffffffffffffffffffffffffffffffffffffffff1661060a610ef2565b73ffffffffffffffffffffffffffffffffffffffff161480610639575061063881610633610ef2565b610c80565b5b610678576040517f08c379a000000000000000000000000000000000000000000000000000000000815260040161066f90612d48565b60405180910390fd5b6106828383610efa565b505050565b6000600880549050905090565b6106a561069f610ef2565b82610fb3565b6106e4576040517f08c379a00000000000000000000000000000000000000000000000000000000081526004016106db90612dda565b60405180910390fd5b6106ef838383611091565b505050565b60006106ff836108dc565b8210610740576040517f08c379a000000000000000000000000000000000000000000000000000000000815260040161073790612e6c565b60405180910390fd5b600660008473ffffffffffffffffffffffffffffffffffffffff1673ffffffffffffffffffffffffffffffffffffffff168152602001908152602001600020600083815260200190815260200160002054905092915050565b6107b483838360405180602001604052806000815250610b9c565b505050565b60006107c3610687565b8210610804576040517f08c379a00000000000000000000000000000000000000000000000000000000081526004016107fb90612efe565b60405180910390fd5b6008828154811061081857610817612f1e565b5b90600052602060002001549050919050565b6000806002600084815260200190815260200160002060009054906101000a900473ffffffffffffffffffffffffffffffffffffffff169050600073ffffffffffffffffffffffffffffffffffffffff168173ffffffffffffffffffffffffffffffffffffffff1614156108d3576040517f08c379a00000000000000000000000000000000000000000000000000000000081526004016108ca90612fbf565b60405180910390fd5b80915050919050565b60008073ffffffffffffffffffffffffffffffffffffffff168273ffffffffffffffffffffffffffffffffffffffff16141561094d576040517f08c379a000000000000000000000000000000000000000000000000000000000815260040161094490613051565b60405180910390fd5b600360008373ffffffffffffffffffffffffffffffffffffffff1673ffffffffffffffffffffffffffffffffffffffff168152602001908152602001600020549050919050565b61099c610ef2565b73ffffffffffffffffffffffffffffffffffffffff166109ba610aca565b73ffffffffffffffffffffffffffffffffffffffff1614610a10576040517f08c379a0000000000000000000000000000000000000000000000000000000008152600401610a07906130bd565b60405180910390fd5b610a1a60006112f8565b565b60606000610a29836108dc565b905060008167ffffffffffffffff811115610a4757610a46612866565b5b604051908082528060200260200182016040528015610a755781602001602082028036833780820191505090505b50905060005b82811015610abf57610a8d85826106f4565b828281518110610aa057610a9f612f1e565b5b6020026020010181815250508080610ab79061310c565b915050610a7b565b508092505050919050565b6000600b60009054906101000a900473ffffffffffffffffffffffffffffffffffffffff16905090565b606060018054610b0390612b80565b80601f0160208091040260200160405190810160405280929190818152602001828054610b2f90612b80565b8015610b7c5780601f10610b5157610100808354040283529160200191610b7c565b820191906000526020600020905b815481529060010190602001808311610b5f57829003601f168201915b5050505050905090565b610b98610b91610ef2565b83836113be565b5050565b610bad610ba7610ef2565b83610fb3565b610bec576040517f08c379a0000000000000000000000000000000000000000000000000000000008152600401610be390612dda565b60405180910390fd5b610bf88484848461152b565b50505050565b6060610c0982611587565b9050919050565b600080610c1d600c6116d9565b9050610c29600c6116e7565b610c3384826116fd565b610c3d818461171b565b7f1cef2b4ec7f129e441c961eb4fae22fd3131868db6be990c6f065f35b6b53cf38482604051610c6e929190613155565b60405180910390a18091505092915050565b6000600560008473ffffffffffffffffffffffffffffffffffffffff1673ffffffffffffffffffffffffffffffffffffffff16815260200190815260200160002060008373ffffffffffffffffffffffffffffffffffffffff1673ffffffffffffffffffffffffffffffffffffffff16815260200190815260200160002060009054906101000a900460ff16905092915050565b610d1c610ef2565b73ffffffffffffffffffffffffffffffffffffffff16610d3a610aca565b73ffffffffffffffffffffffffffffffffffffffff1614610d90576040517f08c379a0000000000000000000000000000000000000000000000000000000008152600401610d87906130bd565b60405180910390fd5b600073ffffffffffffffffffffffffffffffffffffffff168173ffffffffffffffffffffffffffffffffffffffff161415610e00576040517f08c379a0000000000000000000000000000000000000000000000000000000008152600401610df7906131f0565b60405180910390fd5b610e09816112f8565b50565b60007f780e9d63000000000000000000000000000000000000000000000000000000007bffffffffffffffffffffffffffffffffffffffffffffffffffffffff1916827bffffffffffffffffffffffffffffffffffffffffffffffffffffffff19161480610e7f5750610e7e8261178f565b5b9050919050565b60008073ffffffffffffffffffffffffffffffffffffffff166002600084815260200190815260200160002060009054906101000a900473ffffffffffffffffffffffffffffffffffffffff1673ffffffffffffffffffffffffffffffffffffffff1614159050919050565b600033905090565b816004600083815260200190815260200160002060006101000a81548173ffffffffffffffffffffffffffffffffffffffff021916908373ffffffffffffffffffffffffffffffffffffffff160217905550808273ffffffffffffffffffffffffffffffffffffffff16610f6d8361082a565b73ffffffffffffffffffffffffffffffffffffffff167f8c5be1e5ebec7d5bd14f71427d1e84f3dd0314c0f7b2291e5b200ac8c7c3b92560405160405180910390a45050565b6000610fbe82610e86565b610ffd576040517f08c379a0000000000000000000000000000000000000000000000000000000008152600401610ff490613282565b60405180910390fd5b60006110088361082a565b90508073ffffffffffffffffffffffffffffffffffffffff168473ffffffffffffffffffffffffffffffffffffffff16148061107757508373ffffffffffffffffffffffffffffffffffffffff1661105f846104ea565b73ffffffffffffffffffffffffffffffffffffffff16145b8061108857506110878185610c80565b5b91505092915050565b8273ffffffffffffffffffffffffffffffffffffffff166110b18261082a565b73ffffffffffffffffffffffffffffffffffffffff1614611107576040517f08c379a00000000000000000000000000000000000000000000000000000000081526004016110fe90613314565b60405180910390fd5b600073ffffffffffffffffffffffffffffffffffffffff168273ffffffffffffffffffffffffffffffffffffffff161415611177576040517f08c379a000000000000000000000000000000000000000000000000000000000815260040161116e906133a6565b60405180910390fd5b611182838383611871565b61118d600082610efa565b6001600360008573ffffffffffffffffffffffffffffffffffffffff1673ffffffffffffffffffffffffffffffffffffffff16815260200190815260200160002060008282546111dd91906133c6565b925050819055506001600360008473ffffffffffffffffffffffffffffffffffffffff1673ffffffffffffffffffffffffffffffffffffffff168152602001908152602001600020600082825461123491906133fa565b92505081905550816002600083815260200190815260200160002060006101000a81548173ffffffffffffffffffffffffffffffffffffffff021916908373ffffffffffffffffffffffffffffffffffffffff160217905550808273ffffffffffffffffffffffffffffffffffffffff168473ffffffffffffffffffffffffffffffffffffffff167fddf252ad1be2c89b69c2b068fc378daa952ba7f163c4a11628f55a4df523b3ef60405160405180910390a46112f3838383611881565b505050565b6000600b60009054906101000a900473ffffffffffffffffffffffffffffffffffffffff16905081600b60006101000a81548173ffffffffffffffffffffffffffffffffffffffff021916908373ffffffffffffffffffffffffffffffffffffffff1602179055508173ffffffffffffffffffffffffffffffffffffffff168173ffffffffffffffffffffffffffffffffffffffff167f8be0079c531659141344cd1fd0a4f28419497f9722a3daafe3b4186f6b6457e060405160405180910390a35050565b8173ffffffffffffffffffffffffffffffffffffffff168373ffffffffffffffffffffffffffffffffffffffff16141561142d576040517f08c379a00000000000000000000000000000000000000000000000000000000081526004016114249061349c565b60405180910390fd5b80600560008573ffffffffffffffffffffffffffffffffffffffff1673ffffffffffffffffffffffffffffffffffffffff16815260200190815260200160002060008473ffffffffffffffffffffffffffffffffffffffff1673ffffffffffffffffffffffffffffffffffffffff16815260200190815260200160002060006101000a81548160ff0219169083151502179055508173ffffffffffffffffffffffffffffffffffffffff168373ffffffffffffffffffffffffffffffffffffffff167f17307eab39ab6107e8899845ad3d59bd9653f200f220920489ca2b5937696c318360405161151e9190612465565b60405180910390a3505050565b611536848484611091565b61154284848484611886565b611581576040517f08c379a00000000000000000000000000000000000000000000000000000000081526004016115789061352e565b60405180910390fd5b50505050565b606061159282610e86565b6115d1576040517f08c379a00000000000000000000000000000000000000000000000000000000081526004016115c8906135c0565b60405180910390fd5b6000600a600084815260200190815260200160002080546115f190612b80565b80601f016020809104026020016040519081016040528092919081815260200182805461161d90612b80565b801561166a5780601f1061163f5761010080835404028352916020019161166a565b820191906000526020600020905b81548152906001019060200180831161164d57829003601f168201915b50505050509050600061167b611a0e565b90506000815114156116915781925050506116d4565b6000825111156116c65780826040516020016116ae92919061361c565b604051602081830303815290604052925050506116d4565b6116cf84611a25565b925050505b919050565b600081600001549050919050565b6001816000016000828254019250508190555050565b611717828260405180602001604052806000815250611acc565b5050565b61172482610e86565b611763576040517f08c379a000000000000000000000000000000000000000000000000000000000815260040161175a906136b2565b60405180910390fd5b80600a6000848152602001908152602001600020908051906020019061178a92919061230e565b505050565b60007f80ac58cd000000000000000000000000000000000000000000000000000000007bffffffffffffffffffffffffffffffffffffffffffffffffffffffff1916827bffffffffffffffffffffffffffffffffffffffffffffffffffffffff1916148061185a57507f5b5e139f000000000000000000000000000000000000000000000000000000007bffffffffffffffffffffffffffffffffffffffffffffffffffffffff1916827bffffffffffffffffffffffffffffffffffffffffffffffffffffffff1916145b8061186a575061186982611b27565b5b9050919050565b61187c838383611b91565b505050565b505050565b60006118a78473ffffffffffffffffffffffffffffffffffffffff16611ca5565b15611a01578373ffffffffffffffffffffffffffffffffffffffff1663150b7a026118d0610ef2565b8786866040518563ffffffff1660e01b81526004016118f29493929190613727565b6020604051808303816000875af192505050801561192e57506040513d601f19601f8201168201806040525081019061192b9190613788565b60015b6119b1573d806000811461195e576040519150601f19603f3d011682016040523d82523d6000602084013e611963565b606091505b506000815114156119a9576040517f08c379a00000000000000000000000000000000000000000000000000000000081526004016119a09061352e565b60405180910390fd5b805181602001fd5b63150b7a0260e01b7bffffffffffffffffffffffffffffffffffffffffffffffffffffffff1916817bffffffffffffffffffffffffffffffffffffffffffffffffffffffff191614915050611a06565b600190505b949350505050565b606060405180602001604052806000815250905090565b6060611a3082610e86565b611a6f576040517f08c379a0000000000000000000000000000000000000000000000000000000008152600401611a6690613827565b60405180910390fd5b6000611a79611a0e565b90506000815111611a995760405180602001604052806000815250611ac4565b80611aa384611cc8565b604051602001611ab492919061361c565b6040516020818303038152906040525b915050919050565b611ad68383611e29565b611ae36000848484611886565b611b22576040517f08c379a0000000000000000000000000000000000000000000000000000000008152600401611b199061352e565b60405180910390fd5b505050565b60007f01ffc9a7000000000000000000000000000000000000000000000000000000007bffffffffffffffffffffffffffffffffffffffffffffffffffffffff1916827bffffffffffffffffffffffffffffffffffffffffffffffffffffffff1916149050919050565b611b9c838383612003565b600073ffffffffffffffffffffffffffffffffffffffff168373ffffffffffffffffffffffffffffffffffffffff161415611bdf57611bda81612008565b611c1e565b8173ffffffffffffffffffffffffffffffffffffffff168373ffffffffffffffffffffffffffffffffffffffff1614611c1d57611c1c8382612051565b5b5b600073ffffffffffffffffffffffffffffffffffffffff168273ffffffffffffffffffffffffffffffffffffffff161415611c6157611c5c816121be565b611ca0565b8273ffffffffffffffffffffffffffffffffffffffff168273ffffffffffffffffffffffffffffffffffffffff1614611c9f57611c9e828261228f565b5b5b505050565b6000808273ffffffffffffffffffffffffffffffffffffffff163b119050919050565b60606000821415611d10576040518060400160405280600181526020017f30000000000000000000000000000000000000000000000000000000000000008152509050611e24565b600082905060005b60008214611d42578080611d2b9061310c565b915050600a82611d3b9190613876565b9150611d18565b60008167ffffffffffffffff811115611d5e57611d5d612866565b5b6040519080825280601f01601f191660200182016040528015611d905781602001600182028036833780820191505090505b5090505b60008514611e1d57600182611da991906133c6565b9150600a85611db891906138a7565b6030611dc491906133fa565b60f81b818381518110611dda57611dd9612f1e565b5b60200101907effffffffffffffffffffffffffffffffffffffffffffffffffffffffffffff1916908160001a905350600a85611e169190613876565b9450611d94565b8093505050505b919050565b600073ffffffffffffffffffffffffffffffffffffffff168273ffffffffffffffffffffffffffffffffffffffff161415611e99576040517f08c379a0000000000000000000000000000000000000000000000000000000008152600401611e9090613924565b60405180910390fd5b611ea281610e86565b15611ee2576040517f08c379a0000000000000000000000000000000000000000000000000000000008152600401611ed990613990565b60405180910390fd5b611eee60008383611871565b6001600360008473ffffffffffffffffffffffffffffffffffffffff1673ffffffffffffffffffffffffffffffffffffffff1681526020019081526020016000206000828254611f3e91906133fa565b92505081905550816002600083815260200190815260200160002060006101000a81548173ffffffffffffffffffffffffffffffffffffffff021916908373ffffffffffffffffffffffffffffffffffffffff160217905550808273ffffffffffffffffffffffffffffffffffffffff16600073ffffffffffffffffffffffffffffffffffffffff167fddf252ad1be2c89b69c2b068fc378daa952ba7f163c4a11628f55a4df523b3ef60405160405180910390a4611fff60008383611881565b5050565b505050565b6008805490506009600083815260200190815260200160002081905550600881908060018154018082558091505060019003906000526020600020016000909190919091505550565b6000600161205e846108dc565b61206891906133c6565b905060006007600084815260200190815260200160002054905081811461214d576000600660008673ffffffffffffffffffffffffffffffffffffffff1673ffffffffffffffffffffffffffffffffffffffff168152602001908152602001600020600084815260200190815260200160002054905080600660008773ffffffffffffffffffffffffffffffffffffffff1673ffffffffffffffffffffffffffffffffffffffff168152602001908152602001600020600084815260200190815260200160002081905550816007600083815260200190815260200160002081905550505b6007600084815260200190815260200160002060009055600660008573ffffffffffffffffffffffffffffffffffffffff1673ffffffffffffffffffffffffffffffffffffffff16815260200190815260200160002060008381526020019081526020016000206000905550505050565b600060016008805490506121d291906133c6565b905060006009600084815260200190815260200160002054905060006008838154811061220257612201612f1e565b5b90600052602060002001549050806008838154811061222457612223612f1e565b5b906000526020600020018190555081600960008381526020019081526020016000208190555060096000858152602001908152602001600020600090556008805480612273576122726139b0565b5b6001900381819060005260206000200160009055905550505050565b600061229a836108dc565b905081600660008573ffffffffffffffffffffffffffffffffffffffff1673ffffffffffffffffffffffffffffffffffffffff168152602001908152602001600020600083815260200190815260200160002081905550806007600084815260200190815260200160002081905550505050565b82805461231a90612b80565b90600052602060002090601f01602090048101928261233c5760008555612383565b82601f1061235557805160ff1916838001178555612383565b82800160010185558215612383579182015b82811115612382578251825591602001919060010190612367565b5b5090506123909190612394565b5090565b5b808211156123ad576000816000905550600101612395565b5090565b6000604051905090565b600080fd5b600080fd5b60007fffffffff0000000000000000000000000000000000000000000000000000000082169050919050565b6123fa816123c5565b811461240557600080fd5b50565b600081359050612417816123f1565b92915050565b600060208284031215612433576124326123bb565b5b600061244184828501612408565b91505092915050565b60008115159050919050565b61245f8161244a565b82525050565b600060208201905061247a6000830184612456565b92915050565b600081519050919050565b600082825260208201905092915050565b60005b838110156124ba57808201518184015260208101905061249f565b838111156124c9576000848401525b50505050565b6000601f19601f8301169050919050565b60006124eb82612480565b6124f5818561248b565b935061250581856020860161249c565b61250e816124cf565b840191505092915050565b6000602082019050818103600083015261253381846124e0565b905092915050565b6000819050919050565b61254e8161253b565b811461255957600080fd5b50565b60008135905061256b81612545565b92915050565b600060208284031215612587576125866123bb565b5b60006125958482850161255c565b91505092915050565b600073ffffffffffffffffffffffffffffffffffffffff82169050919050565b60006125c98261259e565b9050919050565b6125d9816125be565b82525050565b60006020820190506125f460008301846125d0565b92915050565b612603816125be565b811461260e57600080fd5b50565b600081359050612620816125fa565b92915050565b6000806040838503121561263d5761263c6123bb565b5b600061264b85828601612611565b925050602061265c8582860161255c565b9150509250929050565b61266f8161253b565b82525050565b600060208201905061268a6000830184612666565b92915050565b6000806000606084860312156126a9576126a86123bb565b5b60006126b786828701612611565b93505060206126c886828701612611565b92505060406126d98682870161255c565b9150509250925092565b6000602082840312156126f9576126f86123bb565b5b600061270784828501612611565b91505092915050565b600081519050919050565b600082825260208201905092915050565b6000819050602082019050919050565b6127458161253b565b82525050565b6000612757838361273c565b60208301905092915050565b6000602082019050919050565b600061277b82612710565b612785818561271b565b93506127908361272c565b8060005b838110156127c15781516127a8888261274b565b97506127b383612763565b925050600181019050612794565b5085935050505092915050565b600060208201905081810360008301526127e88184612770565b905092915050565b6127f98161244a565b811461280457600080fd5b50565b600081359050612816816127f0565b92915050565b60008060408385031215612833576128326123bb565b5b600061284185828601612611565b925050602061285285828601612807565b9150509250929050565b600080fd5b600080fd5b7f4e487b7100000000000000000000000000000000000000000000000000000000600052604160045260246000fd5b61289e826124cf565b810181811067ffffffffffffffff821117156128bd576128bc612866565b5b80604052505050565b60006128d06123b1565b90506128dc8282612895565b919050565b600067ffffffffffffffff8211156128fc576128fb612866565b5b612905826124cf565b9050602081019050919050565b82818337600083830152505050565b600061293461292f846128e1565b6128c6565b9050828152602081018484840111156129505761294f612861565b5b61295b848285612912565b509392505050565b600082601f8301126129785761297761285c565b5b8135612988848260208601612921565b91505092915050565b600080600080608085870312156129ab576129aa6123bb565b5b60006129b987828801612611565b94505060206129ca87828801612611565b93505060406129db8782880161255c565b925050606085013567ffffffffffffffff8111156129fc576129fb6123c0565b5b612a0887828801612963565b91505092959194509250565b600067ffffffffffffffff821115612a2f57612a2e612866565b5b612a38826124cf565b9050602081019050919050565b6000612a58612a5384612a14565b6128c6565b905082815260208101848484011115612a7457612a73612861565b5b612a7f848285612912565b509392505050565b600082601f830112612a9c57612a9b61285c565b5b8135612aac848260208601612a45565b91505092915050565b60008060408385031215612acc57612acb6123bb565b5b6000612ada85828601612611565b925050602083013567ffffffffffffffff811115612afb57612afa6123c0565b5b612b0785828601612a87565b9150509250929050565b60008060408385031215612b2857612b276123bb565b5b6000612b3685828601612611565b9250506020612b4785828601612611565b9150509250929050565b7f4e487b7100000000000000000000000000000000000000000000000000000000600052602260045260246000fd5b60006002820490506001821680612b9857607f821691505b60208210811415612bac57612bab612b51565b5b50919050565b7f4552433732313a20617070726f76656420717565727920666f72206e6f6e657860008201527f697374656e7420746f6b656e0000000000000000000000000000000000000000602082015250565b6000612c0e602c8361248b565b9150612c1982612bb2565b604082019050919050565b60006020820190508181036000830152612c3d81612c01565b9050919050565b7f4552433732313a20617070726f76616c20746f2063757272656e74206f776e6560008201527f7200000000000000000000000000000000000000000000000000000000000000602082015250565b6000612ca060218361248b565b9150612cab82612c44565b604082019050919050565b60006020820190508181036000830152612ccf81612c93565b9050919050565b7f4552433732313a20617070726f76652063616c6c6572206973206e6f74206f7760008201527f6e6572206e6f7220617070726f76656420666f7220616c6c0000000000000000602082015250565b6000612d3260388361248b565b9150612d3d82612cd6565b604082019050919050565b60006020820190508181036000830152612d6181612d25565b9050919050565b7f4552433732313a207472616e736665722063616c6c6572206973206e6f74206f60008201527f776e6572206e6f7220617070726f766564000000000000000000000000000000602082015250565b6000612dc460318361248b565b9150612dcf82612d68565b604082019050919050565b60006020820190508181036000830152612df381612db7565b9050919050565b7f455243373231456e756d657261626c653a206f776e657220696e646578206f7560008201527f74206f6620626f756e6473000000000000000000000000000000000000000000602082015250565b6000612e56602b8361248b565b9150612e6182612dfa565b604082019050919050565b60006020820190508181036000830152612e8581612e49565b9050919050565b7f455243373231456e756d657261626c653a20676c6f62616c20696e646578206f60008201527f7574206f6620626f756e64730000000000000000000000000000000000000000602082015250565b6000612ee8602c8361248b565b9150612ef382612e8c565b604082019050919050565b60006020820190508181036000830152612f1781612edb565b9050919050565b7f4e487b7100000000000000000000000000000000000000000000000000000000600052603260045260246000fd5b7f4552433732313a206f776e657220717565727920666f72206e6f6e657869737460008201527f656e7420746f6b656e0000000000000000000000000000000000000000000000602082015250565b6000612fa960298361248b565b9150612fb482612f4d565b604082019050919050565b60006020820190508181036000830152612fd881612f9c565b9050919050565b7f4552433732313a2062616c616e636520717565727920666f7220746865207a6560008201527f726f206164647265737300000000000000000000000000000000000000000000602082015250565b600061303b602a8361248b565b915061304682612fdf565b604082019050919050565b6000602082019050818103600083015261306a8161302e565b9050919050565b7f4f776e61626c653a2063616c6c6572206973206e6f7420746865206f776e6572600082015250565b60006130a760208361248b565b91506130b282613071565b602082019050919050565b600060208201905081810360008301526130d68161309a565b9050919050565b7f4e487b7100000000000000000000000000000000000000000000000000000000600052601160045260246000fd5b60006131178261253b565b91507fffffffffffffffffffffffffffffffffffffffffffffffffffffffffffffffff82141561314a576131496130dd565b5b600182019050919050565b600060408201905061316a60008301856125d0565b6131776020830184612666565b9392505050565b7f4f776e61626c653a206e6577206f776e657220697320746865207a65726f206160008201527f6464726573730000000000000000000000000000000000000000000000000000602082015250565b60006131da60268361248b565b91506131e58261317e565b604082019050919050565b60006020820190508181036000830152613209816131cd565b9050919050565b7f4552433732313a206f70657261746f7220717565727920666f72206e6f6e657860008201527f697374656e7420746f6b656e0000000000000000000000000000000000000000602082015250565b600061326c602c8361248b565b915061327782613210565b604082019050919050565b6000602082019050818103600083015261329b8161325f565b9050919050565b7f4552433732313a207472616e736665722066726f6d20696e636f72726563742060008201527f6f776e6572000000000000000000000000000000000000000000000000000000602082015250565b60006132fe60258361248b565b9150613309826132a2565b604082019050919050565b6000602082019050818103600083015261332d816132f1565b9050919050565b7f4552433732313a207472616e7366657220746f20746865207a65726f2061646460008201527f7265737300000000000000000000000000000000000000000000000000000000602082015250565b600061339060248361248b565b915061339b82613334565b604082019050919050565b600060208201905081810360008301526133bf81613383565b9050919050565b60006133d18261253b565b91506133dc8361253b565b9250828210156133ef576133ee6130dd565b5b828203905092915050565b60006134058261253b565b91506134108361253b565b9250827fffffffffffffffffffffffffffffffffffffffffffffffffffffffffffffffff03821115613445576134446130dd565b5b828201905092915050565b7f4552433732313a20617070726f766520746f2063616c6c657200000000000000600082015250565b600061348660198361248b565b915061349182613450565b602082019050919050565b600060208201905081810360008301526134b581613479565b9050919050565b7f4552433732313a207472616e7366657220746f206e6f6e20455243373231526560008201527f63656976657220696d706c656d656e7465720000000000000000000000000000602082015250565b600061351860328361248b565b9150613523826134bc565b604082019050919050565b600060208201905081810360008301526135478161350b565b9050919050565b7f45524337323155524953746f726167653a2055524920717565727920666f722060008201527f6e6f6e6578697374656e7420746f6b656e000000000000000000000000000000602082015250565b60006135aa60318361248b565b91506135b58261354e565b604082019050919050565b600060208201905081810360008301526135d98161359d565b9050919050565b600081905092915050565b60006135f682612480565b61360081856135e0565b935061361081856020860161249c565b80840191505092915050565b600061362882856135eb565b915061363482846135eb565b91508190509392505050565b7f45524337323155524953746f726167653a2055524920736574206f66206e6f6e60008201527f6578697374656e7420746f6b656e000000000000000000000000000000000000602082015250565b600061369c602e8361248b565b91506136a782613640565b604082019050919050565b600060208201905081810360008301526136cb8161368f565b9050919050565b600081519050919050565b600082825260208201905092915050565b60006136f9826136d2565b61370381856136dd565b935061371381856020860161249c565b61371c816124cf565b840191505092915050565b600060808201905061373c60008301876125d0565b61374960208301866125d0565b6137566040830185612666565b818103606083015261376881846136ee565b905095945050505050565b600081519050613782816123f1565b92915050565b60006020828403121561379e5761379d6123bb565b5b60006137ac84828501613773565b91505092915050565b7f4552433732314d657461646174613a2055524920717565727920666f72206e6f60008201527f6e6578697374656e7420746f6b656e0000000000000000000000000000000000602082015250565b6000613811602f8361248b565b915061381c826137b5565b604082019050919050565b6000602082019050818103600083015261384081613804565b9050919050565b7f4e487b7100000000000000000000000000000000000000000000000000000000600052601260045260246000fd5b60006138818261253b565b915061388c8361253b565b92508261389c5761389b613847565b5b828204905092915050565b60006138b28261253b565b91506138bd8361253b565b9250826138cd576138cc613847565b5b828206905092915050565b7f4552433732313a206d696e7420746f20746865207a65726f2061646472657373600082015250565b600061390e60208361248b565b9150613919826138d8565b602082019050919050565b6000602082019050818103600083015261393d81613901565b9050919050565b7f4552433732313a20746f6b656e20616c7265616479206d696e74656400000000600082015250565b600061397a601c8361248b565b915061398582613944565b602082019050919050565b600060208201905081810360008301526139a98161396d565b9050919050565b7f4e487b7100000000000000000000000000000000000000000000000000000000600052603160045260246000fdfea2646970667358221220820f9edca1e1be8f26efeac0f8b9f3e6e1cdc015ef5254a13ad7c6c8ccba4d3164736f6c634300080a0033",
  "linkReferences": {},
  "deployedLinkReferences": {}
}