{
  "_format": "hh-sol-artifact-1",
  "contractName": "InstrumentDeedToken",
  "sourceName": "contracts/InstrumentDeedToken.sol",
  "abi": [
    {
      "inputs": [],
      "stateMutability": "nonpayable",
      "type": "constructor"
    },
    {
      "anonymous": false,
      "inputs": [
        {
          "indexed": true,
          "internalType": "address",
          "name": "owner",
          "type": "address"
        },
        {
          "indexed": true,
          "internalType": "address",
          "name": "approved",
          "type": "address"
        },
        {
          "indexed": true,
          "internalType": "uint256",
          "name": "tokenId",
          "type": "uint256"
        }
      ],
      "name": "Approval",
      "type": "event"
    },
    {
      "anonymous": false,
      "inputs": [
        {
          "indexed": true,
          "internalType": "address",
          "name": "owner",
          "type": "address"
        },
        {
          "indexed": true,
          "internalType": "address",
          "name": "operator",
          "type": "address"
        },
        {
          "indexed": false,
          "internalType": "bool",
          "name": "approved",
          "type": "bool"
        }
      ],
      "name": "ApprovalForAll",
      "type": "event"
    },
    {
      "anonymous": false,
      "inputs": [
        {
          "indexed": true,
          "internalType": "address",
          "name": "previousOwner",
          "type": "address"
        },
        {
          "indexed": true,
          "internalType": "address",
          "name": "newOwner",
          "type": "address"
        }
      ],
      "name": "OwnershipTransferred",
      "type": "event"
    },
    {
      "anonymous": false,
      "inputs": [
        {
          "indexed": false,
          "internalType": "address",
          "name": "tokenOwner",
          "type": "address"
        },
        {
          "indexed": false,
          "internalType": "uint256",
          "name": "tokenId",
          "type": "uint256"
        }
      ],
      "name": "TokenCreated",
      "type": "event"
    },
    {
      "anonymous": false,
      "inputs": [
        {
          "indexed": true,
          "internalType": "address",
          "name": "from",
          "type": "address"
        },
        {
          "indexed": true,
          "internalType": "address",
          "name": "to",
          "type": "address"
        },
        {
          "indexed": true,
          "internalType": "uint256",
          "name": "tokenId",
          "type": "uint256"
        }
      ],
      "name": "Transfer",
      "type": "event"
    },
    {
      "inputs": [
        {
          "internalType": "address",
          "name": "to",
          "type": "address"
        },
        {
          "internalType": "uint256",
          "name": "tokenId",
          "type": "uint256"
        }
      ],
      "name": "approve",
      "outputs": [],
      "stateMutability": "nonpayable",
      "type": "function"
    },
    {
      "inputs": [
        {
          "internalType": "address",
          "name": "owner",
          "type": "address"
        }
      ],
      "name": "balanceOf",
      "outputs": [
        {
          "internalType": "uint256",
          "name": "",
          "type": "uint256"
        }
      ],
      "stateMutability": "view",
      "type": "function"
    },
    {
      "inputs": [
        {
          "internalType": "uint256",
          "name": "tokenId",
          "type": "uint256"
        }
      ],
      "name": "getApproved",
      "outputs": [
        {
          "internalType": "address",
          "name": "",
          "type": "address"
        }
      ],
      "stateMutability": "view",
      "type": "function"
    },
    {
      "inputs": [
        {
          "internalType": "address",
          "name": "owner",
          "type": "address"
        },
        {
          "internalType": "address",
          "name": "operator",
          "type": "address"
        }
      ],
      "name": "isApprovedForAll",
      "outputs": [
        {
          "internalType": "bool",
          "name": "",
          "type": "bool"
        }
      ],
      "stateMutability": "view",
      "type": "function"
    },
    {
      "inputs": [],
      "name": "name",
      "outputs": [
        {
          "internalType": "string",
          "name": "",
          "type": "string"
        }
      ],
      "stateMutability": "view",
      "type": "function"
    },
    {
      "inputs": [],
      "name": "owner",
      "outputs": [
        {
          "internalType": "address",
          "name": "",
          "type": "address"
        }
      ],
      "stateMutability": "view",
      "type": "function"
    },
    {
      "inputs": [
        {
          "internalType": "uint256",
          "name": "tokenId",
          "type": "uint256"
        }
      ],
      "name": "ownerOf",
      "outputs": [
        {
          "internalType": "address",
          "name": "",
          "type": "address"
        }
      ],
      "stateMutability": "view",
      "type": "function"
    },
    {
      "inputs": [],
      "name": "renounceOwnership",
      "outputs": [],
      "stateMutability": "nonpayable",
      "type": "function"
    },
    {
      "inputs": [
        {
          "internalType": "address",
          "name": "to",
          "type": "address"
        },
        {
          "internalType": "string",
          "name": "uri",
          "type": "string"
        }
      ],
      "name": "safeMint",
      "outputs": [
        {
          "internalType": "uint256",
          "name": "",
          "type": "uint256"
        }
      ],
      "stateMutability": "nonpayable",
      "type": "function"
    },
    {
      "inputs": [
        {
          "internalType": "address",
          "name": "from",
          "type": "address"
        },
        {
          "internalType": "address",
          "name": "to",
          "type": "address"
        },
        {
          "internalType": "uint256",
          "name": "tokenId",
          "type": "uint256"
        }
      ],
      "name": "safeTransferFrom",
      "outputs": [],
      "stateMutability": "nonpayable",
      "type": "function"
    },
    {
      "inputs": [
        {
          "internalType": "address",
          "name": "from",
          "type": "address"
        },
        {
          "internalType": "address",
          "name": "to",
          "type": "address"
        },
        {
          "internalType": "uint256",
          "name": "tokenId",
          "type": "uint256"
        },
        {
          "internalType": "bytes",
          "name": "_data",
          "type": "bytes"
        }
      ],
      "name": "safeTransferFrom",
      "outputs": [],
      "stateMutability": "nonpayable",
      "type": "function"
    },
    {
      "inputs": [
        {
          "internalType": "address",
          "name": "operator",
          "type": "address"
        },
        {
          "internalType": "bool",
          "name": "approved",
          "type": "bool"
        }
      ],
      "name": "setApprovalForAll",
      "outputs": [],
      "stateMutability": "nonpayable",
      "type": "function"
    },
    {
      "inputs": [
        {
          "internalType": "bytes4",
          "name": "interfaceId",
          "type": "bytes4"
        }
      ],
      "name": "supportsInterface",
      "outputs": [
        {
          "internalType": "bool",
          "name": "",
          "type": "bool"
        }
      ],
      "stateMutability": "view",
      "type": "function"
    },
    {
      "inputs": [],
      "name": "symbol",
      "outputs": [
        {
          "internalType": "string",
          "name": "",
          "type": "string"
        }
      ],
      "stateMutability": "view",
      "type": "function"
    },
    {
      "inputs": [
        {
          "internalType": "uint256",
          "name": "index",
          "type": "uint256"
        }
      ],
      "name": "tokenByIndex",
      "outputs": [
        {
          "internalType": "uint256",
          "name": "",
          "type": "uint256"
        }
      ],
      "stateMutability": "view",
      "type": "function"
    },
    {
      "inputs": [
        {
          "internalType": "address",
          "name": "owner",
          "type": "address"
        },
        {
          "internalType": "uint256",
          "name": "index",
          "type": "uint256"
        }
      ],
      "name": "tokenOfOwnerByIndex",
      "outputs": [
        {
          "internalType": "uint256",
          "name": "",
          "type": "uint256"
        }
      ],
      "stateMutability": "view",
      "type": "function"
    },
    {
      "inputs": [
        {
          "internalType": "uint256",
          "name": "tokenId",
          "type": "uint256"
        }
      ],
      "name": "tokenURI",
      "outputs": [
        {
          "internalType": "string",
          "name": "",
          "type": "string"
        }
      ],
      "stateMutability": "view",
      "type": "function"
    },
    {
      "inputs": [
        {
          "internalType": "address",
          "name": "_owner",
          "type": "address"
        }
      ],
      "name": "tokensOfOwner",
      "outputs": [
        {
          "internalType": "uint256[]",
          "name": "",
          "type": "uint256[]"
        }
      ],
      "stateMutability": "view",
      "type": "function"
    },
    {
      "inputs": [],
      "name": "totalSupply",
      "outputs": [
        {
          "internalType": "uint256",
          "name": "",
          "type": "uint256"
        }
      ],
      "stateMutability": "view",
      "type": "function"
    },
    {
      "inputs": [
        {
          "internalType": "address",
          "name": "from",
          "type": "address"
        },
        {
          "internalType": "address",
          "name": "to",
          "type": "address"
        },
        {
          "internalType": "uint256",
          "name": "tokenId",
          "type": "uint256"
        }
      ],
      "name": "transferFrom",
      "outputs": [],
      "stateMutability": "nonpayable",
      "type": "function"
    },
    {
      "inputs": [
        {
          "internalType": "address",
          "name": "newOwner",
          "type": "address"
        }
      ],
      "name": "transferOwnership",
      "outputs": [],
      "stateMutability": "nonpayable",
      "type": "function"
    }
  ],
  "bytecode": "0x60806040523480156200001157600080fd5b50604080518082018252601381527f496e737472756d656e7444656564546f6b656e0000000000000000000000000060208083019182528351808501909452600384526212511560ea1b908401528151919291620000729160009162000101565b5080516200008890600190602084019062000101565b505050620000a56200009f620000ab60201b60201c565b620000af565b620001e4565b3390565b600b80546001600160a01b038381166001600160a01b0319831681179093556040519116919082907f8be0079c531659141344cd1fd0a4f28419497f9722a3daafe3b4186f6b6457e090600090a35050565b8280546200010f90620001a7565b90600052602060002090601f0160209004810192826200013357600085556200017e565b82601f106200014e57805160ff19168380011785556200017e565b828001600101855582156200017e579182015b828111156200017e57825182559160200191906001019062000161565b506200018c92915062000190565b5090565b5b808211156200018c576000815560010162000191565b600181811c90821680620001bc57607f821691505b60208210811415620001de57634e487b7160e01b600052602260045260246000fd5b50919050565b611e8280620001f46000396000f3fe608060405234801561001057600080fd5b50600436106101375760003560e01c806370a08231116100b8578063a22cb4651161007c578063a22cb4651461027e578063b88d4fde14610291578063c87b56dd146102a4578063d204c45e146102b7578063e985e9c5146102ca578063f2fde38b1461030657600080fd5b806370a082311461022a578063715018a61461023d5780638462151c146102455780638da5cb5b1461026557806395d89b411461027657600080fd5b806323b872dd116100ff57806323b872dd146101cb5780632f745c59146101de57806342842e0e146101f15780634f6ccce7146102045780636352211e1461021757600080fd5b806301ffc9a71461013c57806306fdde0314610164578063081812fc14610179578063095ea7b3146101a457806318160ddd146101b9575b600080fd5b61014f61014a3660046118c0565b610319565b60405190151581526020015b60405180910390f35b61016c61032a565b60405161015b9190611935565b61018c610187366004611948565b6103bc565b6040516001600160a01b03909116815260200161015b565b6101b76101b236600461197d565b610449565b005b6008545b60405190815260200161015b565b6101b76101d93660046119a7565b61055f565b6101bd6101ec36600461197d565b610590565b6101b76101ff3660046119a7565b610626565b6101bd610212366004611948565b610641565b61018c610225366004611948565b6106d4565b6101bd6102383660046119e3565b61074b565b6101b76107d2565b6102586102533660046119e3565b610838565b60405161015b91906119fe565b600b546001600160a01b031661018c565b61016c6108da565b6101b761028c366004611a42565b6108e9565b6101b761029f366004611b0a565b6108f8565b61016c6102b2366004611948565b610930565b6101bd6102c5366004611b86565b61093b565b61014f6102d8366004611be8565b6001600160a01b03918216600090815260056020908152604080832093909416825291909152205460ff1690565b6101b76103143660046119e3565b6109b4565b600061032482610a7f565b92915050565b60606000805461033990611c1b565b80601f016020809104026020016040519081016040528092919081815260200182805461036590611c1b565b80156103b25780601f10610387576101008083540402835291602001916103b2565b820191906000526020600020905b81548152906001019060200180831161039557829003601f168201915b5050505050905090565b60006103c782610aa4565b61042d5760405162461bcd60e51b815260206004820152602c60248201527f4552433732313a20617070726f76656420717565727920666f72206e6f6e657860448201526b34b9ba32b73a103a37b5b2b760a11b60648201526084015b60405180910390fd5b506000908152600460205260409020546001600160a01b031690565b6000610454826106d4565b9050806001600160a01b0316836001600160a01b031614156104c25760405162461bcd60e51b815260206004820152602160248201527f4552433732313a20617070726f76616c20746f2063757272656e74206f776e656044820152603960f91b6064820152608401610424565b336001600160a01b03821614806104de57506104de81336102d8565b6105505760405162461bcd60e51b815260206004820152603860248201527f4552433732313a20617070726f76652063616c6c6572206973206e6f74206f7760448201527f6e6572206e6f7220617070726f76656420666f7220616c6c00000000000000006064820152608401610424565b61055a8383610ac1565b505050565b6105693382610b2f565b6105855760405162461bcd60e51b815260040161042490611c56565b61055a838383610c19565b600061059b8361074b565b82106105fd5760405162461bcd60e51b815260206004820152602b60248201527f455243373231456e756d657261626c653a206f776e657220696e646578206f7560448201526a74206f6620626f756e647360a81b6064820152608401610424565b506001600160a01b03919091166000908152600660209081526040808320938352929052205490565b61055a838383604051806020016040528060008152506108f8565b600061064c60085490565b82106106af5760405162461bcd60e51b815260206004820152602c60248201527f455243373231456e756d657261626c653a20676c6f62616c20696e646578206f60448201526b7574206f6620626f756e647360a01b6064820152608401610424565b600882815481106106c2576106c2611ca7565b90600052602060002001549050919050565b6000818152600260205260408120546001600160a01b0316806103245760405162461bcd60e51b815260206004820152602960248201527f4552433732313a206f776e657220717565727920666f72206e6f6e657869737460448201526832b73a103a37b5b2b760b91b6064820152608401610424565b60006001600160a01b0382166107b65760405162461bcd60e51b815260206004820152602a60248201527f4552433732313a2062616c616e636520717565727920666f7220746865207a65604482015269726f206164647265737360b01b6064820152608401610424565b506001600160a01b031660009081526003602052604090205490565b600b546001600160a01b0316331461082c5760405162461bcd60e51b815260206004820181905260248201527f4f776e61626c653a2063616c6c6572206973206e6f7420746865206f776e65726044820152606401610424565b6108366000610dc0565b565b606060006108458361074b565b905060008167ffffffffffffffff81111561086257610862611a7e565b60405190808252806020026020018201604052801561088b578160200160208202803683370190505b50905060005b828110156108d2576108a38582610590565b8282815181106108b5576108b5611ca7565b6020908102919091010152806108ca81611cd3565b915050610891565b509392505050565b60606001805461033990611c1b565b6108f4338383610e12565b5050565b6109023383610b2f565b61091e5760405162461bcd60e51b815260040161042490611c56565b61092a84848484610ee1565b50505050565b606061032482610f14565b600080610947600c5490565b9050610957600c80546001019055565b6109618482611083565b61096b818461109d565b604080516001600160a01b0386168152602081018390527f1cef2b4ec7f129e441c961eb4fae22fd3131868db6be990c6f065f35b6b53cf3910160405180910390a19392505050565b600b546001600160a01b03163314610a0e5760405162461bcd60e51b815260206004820181905260248201527f4f776e61626c653a2063616c6c6572206973206e6f7420746865206f776e65726044820152606401610424565b6001600160a01b038116610a735760405162461bcd60e51b815260206004820152602660248201527f4f776e61626c653a206e6577206f776e657220697320746865207a65726f206160448201526564647265737360d01b6064820152608401610424565b610a7c81610dc0565b50565b60006001600160e01b0319821663780e9d6360e01b1480610324575061032482611128565b6000908152600260205260409020546001600160a01b0316151590565b600081815260046020526040902080546001600160a01b0319166001600160a01b0384169081179091558190610af6826106d4565b6001600160a01b03167f8c5be1e5ebec7d5bd14f71427d1e84f3dd0314c0f7b2291e5b200ac8c7c3b92560405160405180910390a45050565b6000610b3a82610aa4565b610b9b5760405162461bcd60e51b815260206004820152602c60248201527f4552433732313a206f70657261746f7220717565727920666f72206e6f6e657860448201526b34b9ba32b73a103a37b5b2b760a11b6064820152608401610424565b6000610ba6836106d4565b9050806001600160a01b0316846001600160a01b03161480610be15750836001600160a01b0316610bd6846103bc565b6001600160a01b0316145b80610c1157506001600160a01b0380821660009081526005602090815260408083209388168352929052205460ff165b949350505050565b826001600160a01b0316610c2c826106d4565b6001600160a01b031614610c905760405162461bcd60e51b815260206004820152602560248201527f4552433732313a207472616e736665722066726f6d20696e636f72726563742060448201526437bbb732b960d91b6064820152608401610424565b6001600160a01b038216610cf25760405162461bcd60e51b8152602060048201526024808201527f4552433732313a207472616e7366657220746f20746865207a65726f206164646044820152637265737360e01b6064820152608401610424565b610cfd838383611178565b610d08600082610ac1565b6001600160a01b0383166000908152600360205260408120805460019290610d31908490611cee565b90915550506001600160a01b0382166000908152600360205260408120805460019290610d5f908490611d05565b909155505060008181526002602052604080822080546001600160a01b0319166001600160a01b0386811691821790925591518493918716917fddf252ad1be2c89b69c2b068fc378daa952ba7f163c4a11628f55a4df523b3ef91a4505050565b600b80546001600160a01b038381166001600160a01b0319831681179093556040519116919082907f8be0079c531659141344cd1fd0a4f28419497f9722a3daafe3b4186f6b6457e090600090a35050565b816001600160a01b0316836001600160a01b03161415610e745760405162461bcd60e51b815260206004820152601960248201527f4552433732313a20617070726f766520746f2063616c6c6572000000000000006044820152606401610424565b6001600160a01b03838116600081815260056020908152604080832094871680845294825291829020805460ff191686151590811790915591519182527f17307eab39ab6107e8899845ad3d59bd9653f200f220920489ca2b5937696c31910160405180910390a3505050565b610eec848484610c19565b610ef884848484611183565b61092a5760405162461bcd60e51b815260040161042490611d1d565b6060610f1f82610aa4565b610f855760405162461bcd60e51b815260206004820152603160248201527f45524337323155524953746f726167653a2055524920717565727920666f72206044820152703737b732bc34b9ba32b73a103a37b5b2b760791b6064820152608401610424565b6000828152600a602052604081208054610f9e90611c1b565b80601f0160208091040260200160405190810160405280929190818152602001828054610fca90611c1b565b80156110175780601f10610fec57610100808354040283529160200191611017565b820191906000526020600020905b815481529060010190602001808311610ffa57829003601f168201915b50505050509050600061103560408051602081019091526000815290565b9050805160001415611048575092915050565b81511561107a578082604051602001611062929190611d6f565b60405160208183030381529060405292505050919050565b610c1184611281565b6108f4828260405180602001604052806000815250611359565b6110a682610aa4565b6111095760405162461bcd60e51b815260206004820152602e60248201527f45524337323155524953746f726167653a2055524920736574206f66206e6f6e60448201526d32bc34b9ba32b73a103a37b5b2b760911b6064820152608401610424565b6000828152600a60209081526040909120825161055a92840190611811565b60006001600160e01b031982166380ac58cd60e01b148061115957506001600160e01b03198216635b5e139f60e01b145b8061032457506301ffc9a760e01b6001600160e01b0319831614610324565b61055a83838361138c565b60006001600160a01b0384163b1561127657604051630a85bd0160e11b81526001600160a01b0385169063150b7a02906111c7903390899088908890600401611d9e565b6020604051808303816000875af1925050508015611202575060408051601f3d908101601f191682019092526111ff91810190611ddb565b60015b61125c573d808015611230576040519150601f19603f3d011682016040523d82523d6000602084013e611235565b606091505b5080516112545760405162461bcd60e51b815260040161042490611d1d565b805181602001fd5b6001600160e01b031916630a85bd0160e11b149050610c11565b506001949350505050565b606061128c82610aa4565b6112f05760405162461bcd60e51b815260206004820152602f60248201527f4552433732314d657461646174613a2055524920717565727920666f72206e6f60448201526e3732bc34b9ba32b73a103a37b5b2b760891b6064820152608401610424565b600061130760408051602081019091526000815290565b905060008151116113275760405180602001604052806000815250611352565b8061133184611444565b604051602001611342929190611d6f565b6040516020818303038152906040525b9392505050565b6113638383611542565b6113706000848484611183565b61055a5760405162461bcd60e51b815260040161042490611d1d565b6001600160a01b0383166113e7576113e281600880546000838152600960205260408120829055600182018355919091527ff3f7a9fe364faab93b216da50a3214154f22a0a2b415b23a84c8169e8b636ee30155565b61140a565b816001600160a01b0316836001600160a01b03161461140a5761140a8382611681565b6001600160a01b0382166114215761055a8161171e565b826001600160a01b0316826001600160a01b03161461055a5761055a82826117cd565b6060816114685750506040805180820190915260018152600360fc1b602082015290565b8160005b8115611492578061147c81611cd3565b915061148b9050600a83611e0e565b915061146c565b60008167ffffffffffffffff8111156114ad576114ad611a7e565b6040519080825280601f01601f1916602001820160405280156114d7576020820181803683370190505b5090505b8415610c11576114ec600183611cee565b91506114f9600a86611e22565b611504906030611d05565b60f81b81838151811061151957611519611ca7565b60200101906001600160f81b031916908160001a90535061153b600a86611e0e565b94506114db565b6001600160a01b0382166115985760405162461bcd60e51b815260206004820181905260248201527f4552433732313a206d696e7420746f20746865207a65726f20616464726573736044820152606401610424565b6115a181610aa4565b156115ee5760405162461bcd60e51b815260206004820152601c60248201527f4552433732313a20746f6b656e20616c7265616479206d696e746564000000006044820152606401610424565b6115fa60008383611178565b6001600160a01b0382166000908152600360205260408120805460019290611623908490611d05565b909155505060008181526002602052604080822080546001600160a01b0319166001600160a01b03861690811790915590518392907fddf252ad1be2c89b69c2b068fc378daa952ba7f163c4a11628f55a4df523b3ef908290a45050565b6000600161168e8461074b565b6116989190611cee565b6000838152600760205260409020549091508082146116eb576001600160a01b03841660009081526006602090815260408083208584528252808320548484528184208190558352600790915290208190555b5060009182526007602090815260408084208490556001600160a01b039094168352600681528383209183525290812055565b60085460009061173090600190611cee565b6000838152600960205260408120546008805493945090928490811061175857611758611ca7565b90600052602060002001549050806008838154811061177957611779611ca7565b60009182526020808320909101929092558281526009909152604080822084905585825281205560088054806117b1576117b1611e36565b6001900381819060005260206000200160009055905550505050565b60006117d88361074b565b6001600160a01b039093166000908152600660209081526040808320868452825280832085905593825260079052919091209190915550565b82805461181d90611c1b565b90600052602060002090601f01602090048101928261183f5760008555611885565b82601f1061185857805160ff1916838001178555611885565b82800160010185558215611885579182015b8281111561188557825182559160200191906001019061186a565b50611891929150611895565b5090565b5b808211156118915760008155600101611896565b6001600160e01b031981168114610a7c57600080fd5b6000602082840312156118d257600080fd5b8135611352816118aa565b60005b838110156118f85781810151838201526020016118e0565b8381111561092a5750506000910152565b600081518084526119218160208601602086016118dd565b601f01601f19169290920160200192915050565b6020815260006113526020830184611909565b60006020828403121561195a57600080fd5b5035919050565b80356001600160a01b038116811461197857600080fd5b919050565b6000806040838503121561199057600080fd5b61199983611961565b946020939093013593505050565b6000806000606084860312156119bc57600080fd5b6119c584611961565b92506119d360208501611961565b9150604084013590509250925092565b6000602082840312156119f557600080fd5b61135282611961565b6020808252825182820181905260009190848201906040850190845b81811015611a3657835183529284019291840191600101611a1a565b50909695505050505050565b60008060408385031215611a5557600080fd5b611a5e83611961565b915060208301358015158114611a7357600080fd5b809150509250929050565b634e487b7160e01b600052604160045260246000fd5b600067ffffffffffffffff80841115611aaf57611aaf611a7e565b604051601f8501601f19908116603f01168101908282118183101715611ad757611ad7611a7e565b81604052809350858152868686011115611af057600080fd5b858560208301376000602087830101525050509392505050565b60008060008060808587031215611b2057600080fd5b611b2985611961565b9350611b3760208601611961565b925060408501359150606085013567ffffffffffffffff811115611b5a57600080fd5b8501601f81018713611b6b57600080fd5b611b7a87823560208401611a94565b91505092959194509250565b60008060408385031215611b9957600080fd5b611ba283611961565b9150602083013567ffffffffffffffff811115611bbe57600080fd5b8301601f81018513611bcf57600080fd5b611bde85823560208401611a94565b9150509250929050565b60008060408385031215611bfb57600080fd5b611c0483611961565b9150611c1260208401611961565b90509250929050565b600181811c90821680611c2f57607f821691505b60208210811415611c5057634e487b7160e01b600052602260045260246000fd5b50919050565b60208082526031908201527f4552433732313a207472616e736665722063616c6c6572206973206e6f74206f6040820152701ddb995c881b9bdc88185c1c1c9bdd9959607a1b606082015260800190565b634e487b7160e01b600052603260045260246000fd5b634e487b7160e01b600052601160045260246000fd5b6000600019821415611ce757611ce7611cbd565b5060010190565b600082821015611d0057611d00611cbd565b500390565b60008219821115611d1857611d18611cbd565b500190565b60208082526032908201527f4552433732313a207472616e7366657220746f206e6f6e20455243373231526560408201527131b2b4bb32b91034b6b83632b6b2b73a32b960711b606082015260800190565b60008351611d818184602088016118dd565b835190830190611d958183602088016118dd565b01949350505050565b6001600160a01b0385811682528416602082015260408101839052608060608201819052600090611dd190830184611909565b9695505050505050565b600060208284031215611ded57600080fd5b8151611352816118aa565b634e487b7160e01b600052601260045260246000fd5b600082611e1d57611e1d611df8565b500490565b600082611e3157611e31611df8565b500690565b634e487b7160e01b600052603160045260246000fdfea2646970667358221220cb47de20516cacc8bb4a8a12d84fd876b35f5014c64bb963dc117c0501ee97d964736f6c634300080a0033",
  "linkReferences": {},
  "deployedLinkReferences": {}
}