{
  "_format": "hh-sol-artifact-1",
  "contractName": "Mothership",
  "sourceName": "contracts/Mothership.sol",
  "abi": [
    {
      "inputs": [
        {
          "internalType": "address",
          "name": "_tokenAddress",
          "type": "address"
        }
      ],
      "stateMutability": "nonpayable",
      "type": "constructor"
    },
    {
      "anonymous": false,
      "inputs": [
        {
          "indexed": true,
          "internalType": "address",
          "name": "previousOwner",
          "type": "address"
        },
        {
          "indexed": true,
          "internalType": "address",
          "name": "newOwner",
          "type": "address"
        }
      ],
      "name": "OwnershipTransferred",
      "type": "event"
    },
    {
      "anonymous": false,
      "inputs": [
        {
          "indexed": false,
          "internalType": "enum Provenance.Types",
          "name": "_enumType",
          "type": "uint8"
        },
        {
          "indexed": false,
          "internalType": "address",
          "name": "childAddress",
          "type": "address"
        },
        {
          "indexed": false,
          "internalType": "string",
          "name": "serial",
          "type": "string"
        },
        {
          "indexed": false,
          "internalType": "string",
          "name": "brand",
          "type": "string"
        },
        {
          "indexed": false,
          "internalType": "string",
          "name": "model",
          "type": "string"
        },
        {
          "indexed": false,
          "internalType": "uint16",
          "name": "year",
          "type": "uint16"
        },
        {
          "indexed": false,
          "internalType": "uint256",
          "name": "instrumentDeedToken",
          "type": "uint256"
        },
        {
          "indexed": false,
          "internalType": "string",
          "name": "verificationPhotoHash",
          "type": "string"
        },
        {
          "indexed": false,
          "internalType": "string",
          "name": "firstOwner",
          "type": "string"
        },
        {
          "indexed": false,
          "internalType": "string[]",
          "name": "instrumentPhotoHashes",
          "type": "string[]"
        }
      ],
      "name": "ProvenanceCreated",
      "type": "event"
    },
    {
      "anonymous": false,
      "inputs": [
        {
          "indexed": false,
          "internalType": "address",
          "name": "seller",
          "type": "address"
        },
        {
          "indexed": false,
          "internalType": "address",
          "name": "buyer",
          "type": "address"
        },
        {
          "indexed": false,
          "internalType": "address",
          "name": "provenanaceAddress",
          "type": "address"
        }
      ],
      "name": "ProvenanceSale",
      "type": "event"
    },
    {
      "inputs": [
        {
          "internalType": "enum Provenance.Types",
          "name": "_enumType",
          "type": "uint8"
        },
        {
          "internalType": "string",
          "name": "_serial",
          "type": "string"
        },
        {
          "internalType": "string",
          "name": "_brand",
          "type": "string"
        },
        {
          "internalType": "string",
          "name": "_model",
          "type": "string"
        },
        {
          "internalType": "uint16",
          "name": "_year",
          "type": "uint16"
        },
        {
          "internalType": "uint256",
          "name": "_instrumentDeedToken",
          "type": "uint256"
        },
        {
          "internalType": "string",
          "name": "_verificationPhotoHash",
          "type": "string"
        },
        {
          "internalType": "string",
          "name": "_firstOwner",
          "type": "string"
        },
        {
          "internalType": "string[]",
          "name": "_instrumentPhotoHashes",
          "type": "string[]"
        }
      ],
      "name": "createNewProvenance",
      "outputs": [
        {
          "internalType": "address",
          "name": "",
          "type": "address"
        }
      ],
      "stateMutability": "nonpayable",
      "type": "function"
    },
    {
      "inputs": [],
      "name": "getOwners",
      "outputs": [
        {
          "internalType": "address[]",
          "name": "",
          "type": "address[]"
        }
      ],
      "stateMutability": "view",
      "type": "function"
    },
    {
      "inputs": [],
      "name": "getOwnersInstruments",
      "outputs": [
        {
          "internalType": "contract Provenance[]",
          "name": "",
          "type": "address[]"
        }
      ],
      "stateMutability": "view",
      "type": "function"
    },
    {
      "inputs": [],
      "name": "instrumentDeedTokenContract",
      "outputs": [
        {
          "internalType": "contract InstrumentDeedToken",
          "name": "",
          "type": "address"
        }
      ],
      "stateMutability": "view",
      "type": "function"
    },
    {
      "inputs": [],
      "name": "owner",
      "outputs": [
        {
          "internalType": "address",
          "name": "",
          "type": "address"
        }
      ],
      "stateMutability": "view",
      "type": "function"
    },
    {
      "inputs": [
        {
          "internalType": "uint256",
          "name": "",
          "type": "uint256"
        }
      ],
      "name": "ownerArray",
      "outputs": [
        {
          "internalType": "address",
          "name": "",
          "type": "address"
        }
      ],
      "stateMutability": "view",
      "type": "function"
    },
    {
      "inputs": [
        {
          "internalType": "address",
          "name": "",
          "type": "address"
        },
        {
          "internalType": "uint256",
          "name": "",
          "type": "uint256"
        }
      ],
      "name": "ownersToAxes",
      "outputs": [
        {
          "internalType": "contract Provenance",
          "name": "",
          "type": "address"
        }
      ],
      "stateMutability": "view",
      "type": "function"
    },
    {
      "inputs": [
        {
          "internalType": "address",
          "name": "",
          "type": "address"
        }
      ],
      "name": "provenanceVerify",
      "outputs": [
        {
          "internalType": "bool",
          "name": "",
          "type": "bool"
        }
      ],
      "stateMutability": "view",
      "type": "function"
    },
    {
      "inputs": [],
      "name": "removeDuplicateProvenance",
      "outputs": [],
      "stateMutability": "nonpayable",
      "type": "function"
    },
    {
      "inputs": [],
      "name": "renounceOwnership",
      "outputs": [],
      "stateMutability": "nonpayable",
      "type": "function"
    },
    {
      "inputs": [],
      "name": "setExistingProvenance",
      "outputs": [],
      "stateMutability": "nonpayable",
      "type": "function"
    },
    {
      "inputs": [
        {
          "internalType": "address",
          "name": "newOwner",
          "type": "address"
        }
      ],
      "name": "transferOwnership",
      "outputs": [],
      "stateMutability": "nonpayable",
      "type": "function"
    },
    {
      "inputs": [
        {
          "internalType": "address",
          "name": "seller",
          "type": "address"
        },
        {
          "internalType": "address",
          "name": "buyer",
          "type": "address"
        },
        {
          "internalType": "contract Provenance",
          "name": "provenanceSold",
          "type": "address"
        }
      ],
      "name": "updateOnProvenanceSale",
      "outputs": [],
      "stateMutability": "nonpayable",
      "type": "function"
    }
  ],
  "bytecode": "0x60806040523480156200001157600080fd5b5060405162004c4838038062004c488339818101604052810190620000379190620001d5565b620000576200004b6200009f60201b60201c565b620000a760201b60201c565b80600460006101000a81548173ffffffffffffffffffffffffffffffffffffffff021916908373ffffffffffffffffffffffffffffffffffffffff1602179055505062000207565b600033905090565b60008060009054906101000a900473ffffffffffffffffffffffffffffffffffffffff169050816000806101000a81548173ffffffffffffffffffffffffffffffffffffffff021916908373ffffffffffffffffffffffffffffffffffffffff1602179055508173ffffffffffffffffffffffffffffffffffffffff168173ffffffffffffffffffffffffffffffffffffffff167f8be0079c531659141344cd1fd0a4f28419497f9722a3daafe3b4186f6b6457e060405160405180910390a35050565b600080fd5b600073ffffffffffffffffffffffffffffffffffffffff82169050919050565b60006200019d8262000170565b9050919050565b620001af8162000190565b8114620001bb57600080fd5b50565b600081519050620001cf81620001a4565b92915050565b600060208284031215620001ee57620001ed6200016b565b5b6000620001fe84828501620001be565b91505092915050565b614a3180620002176000396000f3fe60806040523480156200001157600080fd5b5060043610620000e25760003560e01c8063715018a6116200009957806396a5f1f6116200006f57806396a5f1f6146200023b57806399288e7b146200025d578063a0e67e2b1462000269578063f2fde38b146200028b57620000e2565b8063715018a614620001d757806380fedcd414620001e35780638da5cb5b146200021957620000e2565b806312bdb2b214620000e75780631fc45b0014620000f357806346811b83146200011557806352c0ece3146200013557806353d01fcb146200016b578063686cfb9e14620001a1575b600080fd5b620000f1620002ab565b005b620000fd62000330565b6040516200010c9190620010eb565b60405180910390f35b6200013360048036038101906200012d9190620011a6565b62000356565b005b6200015360048036038101906200014d91906200123d565b62000455565b604051620001629190620012a9565b60405180910390f35b620001896004803603810190620001839190620012c6565b620004a4565b60405162000198919062001315565b60405180910390f35b620001bf6004803603810190620001b9919062001332565b620004c4565b604051620001ce919062001375565b60405180910390f35b620001e162000504565b005b620002016004803603810190620001fb919062001657565b62000595565b60405162000210919062001375565b60405180910390f35b62000223620008d2565b60405162000232919062001375565b60405180910390f35b62000245620008fb565b604051620002549190620018be565b60405180910390f35b62000267620009c8565b005b6200027362000a4d565b6040516200028291906200199f565b60405180910390f35b620002a96004803603810190620002a39190620012c6565b62000add565b005b620002b562000be1565b73ffffffffffffffffffffffffffffffffffffffff16620002d5620008d2565b73ffffffffffffffffffffffffffffffffffffffff16146200032e576040517f08c379a0000000000000000000000000000000000000000000000000000000008152600401620003259062001a24565b60405180910390fd5b565b600460009054906101000a900473ffffffffffffffffffffffffffffffffffffffff1681565b600160008373ffffffffffffffffffffffffffffffffffffffff1673ffffffffffffffffffffffffffffffffffffffff168152602001908152602001600020819080600181540180825580915050600190039060005260206000200160009091909190916101000a81548173ffffffffffffffffffffffffffffffffffffffff021916908373ffffffffffffffffffffffffffffffffffffffff160217905550600062000404338362000be9565b905062000412848262000d12565b7f219ab701cf630c14b116816a2bd4b015a969f12b6a8304029b6979c707ba4652338484604051620004479392919062001a46565b60405180910390a150505050565b600160205281600052604060002081815481106200047257600080fd5b906000526020600020016000915091509054906101000a900473ffffffffffffffffffffffffffffffffffffffff1681565b60026020528060005260406000206000915054906101000a900460ff1681565b60038181548110620004d557600080fd5b906000526020600020016000915054906101000a900473ffffffffffffffffffffffffffffffffffffffff1681565b6200050e62000be1565b73ffffffffffffffffffffffffffffffffffffffff166200052e620008d2565b73ffffffffffffffffffffffffffffffffffffffff161462000587576040517f08c379a00000000000000000000000000000000000000000000000000000000081526004016200057e9062001a24565b60405180910390fd5b62000593600062000f8e565b565b6000600460009054906101000a900473ffffffffffffffffffffffffffffffffffffffff1673ffffffffffffffffffffffffffffffffffffffff16636352211e866040518263ffffffff1660e01b8152600401620005f4919062001a94565b602060405180830381865afa15801562000612573d6000803e3d6000fd5b505050506040513d601f19601f8201168201806040525081019062000638919062001ac8565b73ffffffffffffffffffffffffffffffffffffffff163373ffffffffffffffffffffffffffffffffffffffff1614620006a8576040517f08c379a00000000000000000000000000000000000000000000000000000000081526004016200069f9062001b70565b60405180910390fd5b60008a8a8a8a8a8a8a8a8a30600460009054906101000a900473ffffffffffffffffffffffffffffffffffffffff16604051620006e59062001052565b620006fb9b9a9998979695949392919062001dc7565b604051809103906000f08015801562000718573d6000803e3d6000fd5b509050600160003373ffffffffffffffffffffffffffffffffffffffff1673ffffffffffffffffffffffffffffffffffffffff168152602001908152602001600020819080600181540180825580915050600190039060005260206000200160009091909190916101000a81548173ffffffffffffffffffffffffffffffffffffffff021916908373ffffffffffffffffffffffffffffffffffffffff1602179055506003339080600181540180825580915050600190039060005260206000200160009091909190916101000a81548173ffffffffffffffffffffffffffffffffffffffff021916908373ffffffffffffffffffffffffffffffffffffffff1602179055506001600260008373ffffffffffffffffffffffffffffffffffffffff1673ffffffffffffffffffffffffffffffffffffffff16815260200190815260200160002060006101000a81548160ff0219169083151502179055507f84ece05d4f03373bb3cbb663d2a48969c9c26a2e8107596f37cafb622c0e0d268b828c8c8c8c8c8c8c8c604051620008b99a9998979695949392919062001eb2565b60405180910390a1809150509998505050505050505050565b60008060009054906101000a900473ffffffffffffffffffffffffffffffffffffffff16905090565b6060600160003373ffffffffffffffffffffffffffffffffffffffff1673ffffffffffffffffffffffffffffffffffffffff168152602001908152602001600020805480602002602001604051908101604052809291908181526020018280548015620009be57602002820191906000526020600020905b8160009054906101000a900473ffffffffffffffffffffffffffffffffffffffff1673ffffffffffffffffffffffffffffffffffffffff168152602001906001019080831162000973575b5050505050905090565b620009d262000be1565b73ffffffffffffffffffffffffffffffffffffffff16620009f2620008d2565b73ffffffffffffffffffffffffffffffffffffffff161462000a4b576040517f08c379a000000000000000000000000000000000000000000000000000000000815260040162000a429062001a24565b60405180910390fd5b565b6060600380548060200260200160405190810160405280929190818152602001828054801562000ad357602002820191906000526020600020905b8160009054906101000a900473ffffffffffffffffffffffffffffffffffffffff1673ffffffffffffffffffffffffffffffffffffffff168152602001906001019080831162000a88575b5050505050905090565b62000ae762000be1565b73ffffffffffffffffffffffffffffffffffffffff1662000b07620008d2565b73ffffffffffffffffffffffffffffffffffffffff161462000b60576040517f08c379a000000000000000000000000000000000000000000000000000000000815260040162000b579062001a24565b60405180910390fd5b600073ffffffffffffffffffffffffffffffffffffffff168173ffffffffffffffffffffffffffffffffffffffff16141562000bd3576040517f08c379a000000000000000000000000000000000000000000000000000000000815260040162000bca9062002002565b60405180910390fd5b62000bde8162000f8e565b50565b600033905090565b60008060005b600160008673ffffffffffffffffffffffffffffffffffffffff1673ffffffffffffffffffffffffffffffffffffffff1681526020019081526020016000208054905081101562000d07578373ffffffffffffffffffffffffffffffffffffffff16600160008773ffffffffffffffffffffffffffffffffffffffff1673ffffffffffffffffffffffffffffffffffffffff168152602001908152602001600020828154811062000ca55762000ca462002024565b5b9060005260206000200160009054906101000a900473ffffffffffffffffffffffffffffffffffffffff1673ffffffffffffffffffffffffffffffffffffffff16141562000cf1578091505b808062000cfe9062002082565b91505062000bef565b508091505092915050565b600160008373ffffffffffffffffffffffffffffffffffffffff1673ffffffffffffffffffffffffffffffffffffffff16815260200190815260200160002080549050811062000d99576040517f08c379a000000000000000000000000000000000000000000000000000000000815260040162000d909062002120565b60405180910390fd5b600160008373ffffffffffffffffffffffffffffffffffffffff1673ffffffffffffffffffffffffffffffffffffffff16815260200190815260200160002060018060008573ffffffffffffffffffffffffffffffffffffffff1673ffffffffffffffffffffffffffffffffffffffff1681526020019081526020016000208054905062000e28919062002142565b8154811062000e3c5762000e3b62002024565b5b9060005260206000200160009054906101000a900473ffffffffffffffffffffffffffffffffffffffff16600160008473ffffffffffffffffffffffffffffffffffffffff1673ffffffffffffffffffffffffffffffffffffffff168152602001908152602001600020828154811062000ebb5762000eba62002024565b5b9060005260206000200160006101000a81548173ffffffffffffffffffffffffffffffffffffffff021916908373ffffffffffffffffffffffffffffffffffffffff160217905550600160008373ffffffffffffffffffffffffffffffffffffffff1673ffffffffffffffffffffffffffffffffffffffff16815260200190815260200160002080548062000f555762000f546200217d565b5b6001900381819060005260206000200160006101000a81549073ffffffffffffffffffffffffffffffffffffffff021916905590555050565b60008060009054906101000a900473ffffffffffffffffffffffffffffffffffffffff169050816000806101000a81548173ffffffffffffffffffffffffffffffffffffffff021916908373ffffffffffffffffffffffffffffffffffffffff1602179055508173ffffffffffffffffffffffffffffffffffffffff168173ffffffffffffffffffffffffffffffffffffffff167f8be0079c531659141344cd1fd0a4f28419497f9722a3daafe3b4186f6b6457e060405160405180910390a35050565b61284f80620021ad83390190565b600073ffffffffffffffffffffffffffffffffffffffff82169050919050565b6000819050919050565b6000620010ab620010a56200109f8462001060565b62001080565b62001060565b9050919050565b6000620010bf826200108a565b9050919050565b6000620010d382620010b2565b9050919050565b620010e581620010c6565b82525050565b6000602082019050620011026000830184620010da565b92915050565b6000604051905090565b600080fd5b600080fd5b6000620011298262001060565b9050919050565b6200113b816200111c565b81146200114757600080fd5b50565b6000813590506200115b8162001130565b92915050565b60006200116e826200111c565b9050919050565b620011808162001161565b81146200118c57600080fd5b50565b600081359050620011a08162001175565b92915050565b600080600060608486031215620011c257620011c162001112565b5b6000620011d2868287016200114a565b9350506020620011e5868287016200114a565b9250506040620011f8868287016200118f565b9150509250925092565b6000819050919050565b620012178162001202565b81146200122357600080fd5b50565b60008135905062001237816200120c565b92915050565b6000806040838503121562001257576200125662001112565b5b600062001267858286016200114a565b92505060206200127a8582860162001226565b9150509250929050565b60006200129182620010b2565b9050919050565b620012a38162001284565b82525050565b6000602082019050620012c0600083018462001298565b92915050565b600060208284031215620012df57620012de62001112565b5b6000620012ef848285016200114a565b91505092915050565b60008115159050919050565b6200130f81620012f8565b82525050565b60006020820190506200132c600083018462001304565b92915050565b6000602082840312156200134b576200134a62001112565b5b60006200135b8482850162001226565b91505092915050565b6200136f816200111c565b82525050565b60006020820190506200138c600083018462001364565b92915050565b60038110620013a057600080fd5b50565b600081359050620013b48162001392565b92915050565b600080fd5b600080fd5b6000601f19601f8301169050919050565b7f4e487b7100000000000000000000000000000000000000000000000000000000600052604160045260246000fd5b6200140f82620013c4565b810181811067ffffffffffffffff82111715620014315762001430620013d5565b5b80604052505050565b60006200144662001108565b905062001454828262001404565b919050565b600067ffffffffffffffff821115620014775762001476620013d5565b5b6200148282620013c4565b9050602081019050919050565b82818337600083830152505050565b6000620014b5620014af8462001459565b6200143a565b905082815260208101848484011115620014d457620014d3620013bf565b5b620014e18482856200148f565b509392505050565b600082601f830112620015015762001500620013ba565b5b8135620015138482602086016200149e565b91505092915050565b600061ffff82169050919050565b62001535816200151c565b81146200154157600080fd5b50565b60008135905062001555816200152a565b92915050565b600067ffffffffffffffff821115620015795762001578620013d5565b5b602082029050602081019050919050565b600080fd5b6000620015a6620015a0846200155b565b6200143a565b90508083825260208201905060208402830185811115620015cc57620015cb6200158a565b5b835b818110156200161a57803567ffffffffffffffff811115620015f557620015f4620013ba565b5b808601620016048982620014e9565b85526020850194505050602081019050620015ce565b5050509392505050565b600082601f8301126200163c576200163b620013ba565b5b81356200164e8482602086016200158f565b91505092915050565b60008060008060008060008060006101208a8c0312156200167d576200167c62001112565b5b60006200168d8c828d01620013a3565b99505060208a013567ffffffffffffffff811115620016b157620016b062001117565b5b620016bf8c828d01620014e9565b98505060408a013567ffffffffffffffff811115620016e357620016e262001117565b5b620016f18c828d01620014e9565b97505060608a013567ffffffffffffffff81111562001715576200171462001117565b5b620017238c828d01620014e9565b9650506080620017368c828d0162001544565b95505060a0620017498c828d0162001226565b94505060c08a013567ffffffffffffffff8111156200176d576200176c62001117565b5b6200177b8c828d01620014e9565b93505060e08a013567ffffffffffffffff8111156200179f576200179e62001117565b5b620017ad8c828d01620014e9565b9250506101008a013567ffffffffffffffff811115620017d257620017d162001117565b5b620017e08c828d0162001624565b9150509295985092959850929598565b600081519050919050565b600082825260208201905092915050565b6000819050602082019050919050565b620018278162001284565b82525050565b60006200183b83836200181c565b60208301905092915050565b6000602082019050919050565b60006200186182620017f0565b6200186d8185620017fb565b93506200187a836200180c565b8060005b83811015620018b15781516200189588826200182d565b9750620018a28362001847565b9250506001810190506200187e565b5085935050505092915050565b60006020820190508181036000830152620018da818462001854565b905092915050565b600081519050919050565b6000819050602082019050919050565b62001908816200111c565b82525050565b60006200191c8383620018fd565b60208301905092915050565b6000602082019050919050565b60006200194282620018e2565b6200194e8185620017fb565b93506200195b83620018ed565b8060005b83811015620019925781516200197688826200190e565b9750620019838362001928565b9250506001810190506200195f565b5085935050505092915050565b60006020820190508181036000830152620019bb818462001935565b905092915050565b600082825260208201905092915050565b7f4f776e61626c653a2063616c6c6572206973206e6f7420746865206f776e6572600082015250565b600062001a0c602083620019c3565b915062001a1982620019d4565b602082019050919050565b6000602082019050818103600083015262001a3f81620019fd565b9050919050565b600060608201905062001a5d600083018662001364565b62001a6c602083018562001364565b62001a7b604083018462001364565b949350505050565b62001a8e8162001202565b82525050565b600060208201905062001aab600083018462001a83565b92915050565b60008151905062001ac28162001130565b92915050565b60006020828403121562001ae15762001ae062001112565b5b600062001af18482850162001ab1565b91505092915050565b7f596f7520617265206e6f7420746865206f776e6572206f66207468652044656560008201527f6420546f6b656e20666f72207468697320696e737472756d656e740000000000602082015250565b600062001b58603b83620019c3565b915062001b658262001afa565b604082019050919050565b6000602082019050818103600083015262001b8b8162001b49565b9050919050565b7f4e487b7100000000000000000000000000000000000000000000000000000000600052602160045260246000fd5b6003811062001bd55762001bd462001b92565b5b50565b600081905062001be88262001bc1565b919050565b600062001bfa8262001bd8565b9050919050565b62001c0c8162001bed565b82525050565b600081519050919050565b60005b8381101562001c3d57808201518184015260208101905062001c20565b8381111562001c4d576000848401525b50505050565b600062001c608262001c12565b62001c6c8185620019c3565b935062001c7e81856020860162001c1d565b62001c8981620013c4565b840191505092915050565b62001c9f816200151c565b82525050565b600081519050919050565b600082825260208201905092915050565b6000819050602082019050919050565b600082825260208201905092915050565b600062001cef8262001c12565b62001cfb818562001cd1565b935062001d0d81856020860162001c1d565b62001d1881620013c4565b840191505092915050565b600062001d31838362001ce2565b905092915050565b6000602082019050919050565b600062001d538262001ca5565b62001d5f818562001cb0565b93508360208202850162001d738562001cc1565b8060005b8581101562001db5578484038952815162001d93858262001d23565b945062001da08362001d39565b925060208a0199505060018101905062001d77565b50829750879550505050505092915050565b60006101608201905062001ddf600083018e62001c01565b818103602083015262001df3818d62001c53565b9050818103604083015262001e09818c62001c53565b9050818103606083015262001e1f818b62001c53565b905062001e30608083018a62001c94565b62001e3f60a083018962001a83565b81810360c083015262001e53818862001c53565b905081810360e083015262001e69818762001c53565b905081810361010083015262001e80818662001d46565b905062001e9261012083018562001364565b62001ea261014083018462001364565b9c9b505050505050505050505050565b60006101408201905062001eca600083018d62001c01565b62001ed9602083018c62001364565b818103604083015262001eed818b62001c53565b9050818103606083015262001f03818a62001c53565b9050818103608083015262001f19818962001c53565b905062001f2a60a083018862001c94565b62001f3960c083018762001a83565b81810360e083015262001f4d818662001c53565b905081810361010083015262001f64818562001c53565b905081810361012083015262001f7b818462001d46565b90509b9a5050505050505050505050565b7f4f776e61626c653a206e6577206f776e657220697320746865207a65726f206160008201527f6464726573730000000000000000000000000000000000000000000000000000602082015250565b600062001fea602683620019c3565b915062001ff78262001f8c565b604082019050919050565b600060208201905081810360008301526200201d8162001fdb565b9050919050565b7f4e487b7100000000000000000000000000000000000000000000000000000000600052603260045260246000fd5b7f4e487b7100000000000000000000000000000000000000000000000000000000600052601160045260246000fd5b60006200208f8262001202565b91507fffffffffffffffffffffffffffffffffffffffffffffffffffffffffffffffff821415620020c557620020c462002053565b5b600182019050919050565b7f6275726e206661696c656420696e207265717569726500000000000000000000600082015250565b600062002108601683620019c3565b91506200211582620020d0565b602082019050919050565b600060208201905081810360008301526200213b81620020f9565b9050919050565b60006200214f8262001202565b91506200215c8362001202565b92508282101562002172576200217162002053565b5b828203905092915050565b7f4e487b7100000000000000000000000000000000000000000000000000000000600052603160045260246000fdfe60806040523480156200001157600080fd5b506040516200284f3803806200284f833981810160405281019062000037919062000981565b620000576200004b6200039060201b60201c565b6200039860201b60201c565b81600e60006101000a81548173ffffffffffffffffffffffffffffffffffffffff021916908373ffffffffffffffffffffffffffffffffffffffff16021790555080600d60016101000a81548173ffffffffffffffffffffffffffffffffffffffff021916908373ffffffffffffffffffffffffffffffffffffffff1602179055508a600360000160006101000a81548160ff0219169083600281111562000104576200010362000b48565b5b02179055508960036001019080519060200190620001249291906200045c565b508860036002019080519060200190620001409291906200045c565b50876003800190805190602001906200015b9291906200045c565b5086600360040160006101000a81548161ffff021916908361ffff160217905550856003600501819055508260036006019080519060200190620001a1929190620004ed565b506001600d60006101000a81548160ff021916908360ff1602179055506040518060800160405280600d60009054906101000a900460ff1660ff1661ffff168152602001600d60019054906101000a900473ffffffffffffffffffffffffffffffffffffffff1673ffffffffffffffffffffffffffffffffffffffff16636352211e896040518263ffffffff1660e01b815260040162000242919062000b88565b602060405180830381865afa15801562000260573d6000803e3d6000fd5b505050506040513d601f19601f8201168201806040525081019062000286919062000ba5565b73ffffffffffffffffffffffffffffffffffffffff1681526020018581526020018681525060016000600d60009054906101000a900460ff1660ff1661ffff16815260200190815260200160002060008201518160000160006101000a81548161ffff021916908361ffff16021790555060208201518160000160026101000a81548173ffffffffffffffffffffffffffffffffffffffff021916908373ffffffffffffffffffffffffffffffffffffffff16021790555060408201518160010190805190602001906200035c9291906200045c565b5060608201518160020190805190602001906200037b9291906200045c565b50905050505050505050505050505062000c3c565b600033905090565b60008060009054906101000a900473ffffffffffffffffffffffffffffffffffffffff169050816000806101000a81548173ffffffffffffffffffffffffffffffffffffffff021916908373ffffffffffffffffffffffffffffffffffffffff1602179055508173ffffffffffffffffffffffffffffffffffffffff168173ffffffffffffffffffffffffffffffffffffffff167f8be0079c531659141344cd1fd0a4f28419497f9722a3daafe3b4186f6b6457e060405160405180910390a35050565b8280546200046a9062000c06565b90600052602060002090601f0160209004810192826200048e5760008555620004da565b82601f10620004a957805160ff1916838001178555620004da565b82800160010185558215620004da579182015b82811115620004d9578251825591602001919060010190620004bc565b5b509050620004e9919062000554565b5090565b82805482825590600052602060002090810192821562000541579160200282015b82811115620005405782518290805190602001906200052f9291906200045c565b50916020019190600101906200050e565b5b50905062000550919062000573565b5090565b5b808211156200056f57600081600090555060010162000555565b5090565b5b808211156200059757600081816200058d91906200059b565b5060010162000574565b5090565b508054620005a99062000c06565b6000825580601f10620005bd5750620005de565b601f016020900490600052602060002090810190620005dd919062000554565b5b50565b6000604051905090565b600080fd5b600080fd5b600381106200060357600080fd5b50565b6000815190506200061781620005f5565b92915050565b600080fd5b600080fd5b6000601f19601f8301169050919050565b7f4e487b7100000000000000000000000000000000000000000000000000000000600052604160045260246000fd5b620006728262000627565b810181811067ffffffffffffffff8211171562000694576200069362000638565b5b80604052505050565b6000620006a9620005e1565b9050620006b7828262000667565b919050565b600067ffffffffffffffff821115620006da57620006d962000638565b5b620006e58262000627565b9050602081019050919050565b60005b8381101562000712578082015181840152602081019050620006f5565b8381111562000722576000848401525b50505050565b60006200073f6200073984620006bc565b6200069d565b9050828152602081018484840111156200075e576200075d62000622565b5b6200076b848285620006f2565b509392505050565b600082601f8301126200078b576200078a6200061d565b5b81516200079d84826020860162000728565b91505092915050565b600061ffff82169050919050565b620007bf81620007a6565b8114620007cb57600080fd5b50565b600081519050620007df81620007b4565b92915050565b6000819050919050565b620007fa81620007e5565b81146200080657600080fd5b50565b6000815190506200081a81620007ef565b92915050565b600067ffffffffffffffff8211156200083e576200083d62000638565b5b602082029050602081019050919050565b600080fd5b60006200086b620008658462000820565b6200069d565b905080838252602082019050602084028301858111156200089157620008906200084f565b5b835b81811015620008df57805167ffffffffffffffff811115620008ba57620008b96200061d565b5b808601620008c9898262000773565b8552602085019450505060208101905062000893565b5050509392505050565b600082601f8301126200090157620009006200061d565b5b81516200091384826020860162000854565b91505092915050565b600073ffffffffffffffffffffffffffffffffffffffff82169050919050565b600062000949826200091c565b9050919050565b6200095b816200093c565b81146200096757600080fd5b50565b6000815190506200097b8162000950565b92915050565b60008060008060008060008060008060006101608c8e031215620009aa57620009a9620005eb565b5b6000620009ba8e828f0162000606565b9b505060208c015167ffffffffffffffff811115620009de57620009dd620005f0565b5b620009ec8e828f0162000773565b9a505060408c015167ffffffffffffffff81111562000a105762000a0f620005f0565b5b62000a1e8e828f0162000773565b99505060608c015167ffffffffffffffff81111562000a425762000a41620005f0565b5b62000a508e828f0162000773565b985050608062000a638e828f01620007ce565b97505060a062000a768e828f0162000809565b96505060c08c015167ffffffffffffffff81111562000a9a5762000a99620005f0565b5b62000aa88e828f0162000773565b95505060e08c015167ffffffffffffffff81111562000acc5762000acb620005f0565b5b62000ada8e828f0162000773565b9450506101008c015167ffffffffffffffff81111562000aff5762000afe620005f0565b5b62000b0d8e828f01620008e9565b93505061012062000b218e828f016200096a565b92505061014062000b358e828f016200096a565b9150509295989b509295989b9093969950565b7f4e487b7100000000000000000000000000000000000000000000000000000000600052602160045260246000fd5b62000b8281620007e5565b82525050565b600060208201905062000b9f600083018462000b77565b92915050565b60006020828403121562000bbe5762000bbd620005eb565b5b600062000bce848285016200096a565b91505092915050565b7f4e487b7100000000000000000000000000000000000000000000000000000000600052602260045260246000fd5b6000600282049050600182168062000c1f57607f821691505b6020821081141562000c365762000c3562000bd7565b5b50919050565b611c038062000c4c6000396000f3fe608060405234801561001057600080fd5b50600436106100f55760003560e01c80638da5cb5b11610097578063debc241911610066578063debc24191461021b578063f023f2221461024e578063f2fde38b1461026f578063fcf3e5551461028b576100f5565b80638da5cb5b146101a757806399e84ba2146101c55780639d55e41a146101e3578063bcb40de9146101ff576100f5565b80635767d534116100d35780635767d53414610154578063715018a6146101775780637f6f9c241461018157806388cb18fd1461018b576100f5565b80630db02622146100fa5780631fc45b00146101185780633a5e8a0614610136575b600080fd5b6101026102a9565b60405161010f919061111d565b60405180910390f35b6101206102bc565b60405161012d91906111b7565b60405180910390f35b61013e6102e2565b60405161014b9190611249565b60405180910390f35b61015c6102f5565b60405161016e96959493929190611333565b60405180910390f35b61017f6104d2565b005b61018961055a565b005b6101a560048036038101906101a091906114f2565b61055c565b005b6101af6105db565b6040516101bc919061155c565b60405180910390f35b6101cd610604565b6040516101da9190611683565b60405180910390f35b6101fd60048036038101906101f891906114f2565b6106e0565b005b610219600480360381019061021491906116d1565b61075f565b005b61023560048036038101906102309190611788565b610baa565b60405161024594939291906117b5565b60405180910390f35b610256610d18565b60405161026694939291906117b5565b60405180910390f35b61028960048036038101906102849190611808565b610e74565b005b610293610f6c565b6040516102a09190611856565b60405180910390f35b600d60009054906101000a900460ff1681565b600d60019054906101000a900473ffffffffffffffffffffffffffffffffffffffff1681565b600260009054906101000a900460ff1681565b60038060000160009054906101000a900460ff1690806001018054610319906118a0565b80601f0160208091040260200160405190810160405280929190818152602001828054610345906118a0565b80156103925780601f1061036757610100808354040283529160200191610392565b820191906000526020600020905b81548152906001019060200180831161037557829003601f168201915b5050505050908060020180546103a7906118a0565b80601f01602080910402602001604051908101604052809291908181526020018280546103d3906118a0565b80156104205780601f106103f557610100808354040283529160200191610420565b820191906000526020600020905b81548152906001019060200180831161040357829003601f168201915b505050505090806003018054610435906118a0565b80601f0160208091040260200160405190810160405280929190818152602001828054610461906118a0565b80156104ae5780601f10610483576101008083540402835291602001916104ae565b820191906000526020600020905b81548152906001019060200180831161049157829003601f168201915b5050505050908060040160009054906101000a900461ffff16908060050154905086565b6104da610f92565b73ffffffffffffffffffffffffffffffffffffffff166104f86105db565b73ffffffffffffffffffffffffffffffffffffffff161461054e576040517f08c379a00000000000000000000000000000000000000000000000000000000081526004016105459061191e565b60405180910390fd5b6105586000610f9a565b565b565b610564610f92565b73ffffffffffffffffffffffffffffffffffffffff166105826105db565b73ffffffffffffffffffffffffffffffffffffffff16146105d8576040517f08c379a00000000000000000000000000000000000000000000000000000000081526004016105cf9061191e565b60405180910390fd5b50565b60008060009054906101000a900473ffffffffffffffffffffffffffffffffffffffff16905090565b60606003600601805480602002602001604051908101604052809291908181526020016000905b828210156106d757838290600052602060002001805461064a906118a0565b80601f0160208091040260200160405190810160405280929190818152602001828054610676906118a0565b80156106c35780601f10610698576101008083540402835291602001916106c3565b820191906000526020600020905b8154815290600101906020018083116106a657829003601f168201915b50505050508152602001906001019061062b565b50505050905090565b6106e8610f92565b73ffffffffffffffffffffffffffffffffffffffff166107066105db565b73ffffffffffffffffffffffffffffffffffffffff161461075c576040517f08c379a00000000000000000000000000000000000000000000000000000000081526004016107539061191e565b60405180910390fd5b50565b3373ffffffffffffffffffffffffffffffffffffffff1660016000600d60009054906101000a900460ff1660ff1661ffff16815260200190815260200160002060000160029054906101000a900473ffffffffffffffffffffffffffffffffffffffff1673ffffffffffffffffffffffffffffffffffffffff16148061081757503373ffffffffffffffffffffffffffffffffffffffff166107ff6105db565b73ffffffffffffffffffffffffffffffffffffffff16145b61082057600080fd5b600d60019054906101000a900473ffffffffffffffffffffffffffffffffffffffff1673ffffffffffffffffffffffffffffffffffffffff16636352211e6003600501546040518263ffffffff1660e01b8152600401610880919061193e565b602060405180830381865afa15801561089d573d6000803e3d6000fd5b505050506040513d601f19601f820116820180604052508101906108c1919061196e565b73ffffffffffffffffffffffffffffffffffffffff163373ffffffffffffffffffffffffffffffffffffffff161461092e576040517f08c379a000000000000000000000000000000000000000000000000000000000815260040161092590611a33565b60405180910390fd5b600e60009054906101000a900473ffffffffffffffffffffffffffffffffffffffff1673ffffffffffffffffffffffffffffffffffffffff166346811b833385306040518463ffffffff1660e01b815260040161098d93929190611a74565b600060405180830381600087803b1580156109a757600080fd5b505af11580156109bb573d6000803e3d6000fd5b50505050600d600081819054906101000a900460ff166109da90611ada565b91906101000a81548160ff021916908360ff1602179055506040518060800160405280600d60009054906101000a900460ff1660ff1661ffff1681526020018473ffffffffffffffffffffffffffffffffffffffff1681526020018381526020018281525060016000600d60009054906101000a900460ff1660ff1661ffff16815260200190815260200160002060008201518160000160006101000a81548161ffff021916908361ffff16021790555060208201518160000160026101000a81548173ffffffffffffffffffffffffffffffffffffffff021916908373ffffffffffffffffffffffffffffffffffffffff1602179055506040820151816001019080519060200190610aee92919061105e565b506060820151816002019080519060200190610b0b92919061105e565b50905050600d60019054906101000a900473ffffffffffffffffffffffffffffffffffffffff1673ffffffffffffffffffffffffffffffffffffffff166342842e0e33856003600501546040518463ffffffff1660e01b8152600401610b7393929190611b04565b600060405180830381600087803b158015610b8d57600080fd5b505af1158015610ba1573d6000803e3d6000fd5b50505050505050565b60016020528060005260406000206000915090508060000160009054906101000a900461ffff16908060000160029054906101000a900473ffffffffffffffffffffffffffffffffffffffff1690806001018054610c07906118a0565b80601f0160208091040260200160405190810160405280929190818152602001828054610c33906118a0565b8015610c805780601f10610c5557610100808354040283529160200191610c80565b820191906000526020600020905b815481529060010190602001808311610c6357829003601f168201915b505050505090806002018054610c95906118a0565b80601f0160208091040260200160405190810160405280929190818152602001828054610cc1906118a0565b8015610d0e5780601f10610ce357610100808354040283529160200191610d0e565b820191906000526020600020905b815481529060010190602001808311610cf157829003601f168201915b5050505050905084565b600a8060000160009054906101000a900461ffff16908060000160029054906101000a900473ffffffffffffffffffffffffffffffffffffffff1690806001018054610d63906118a0565b80601f0160208091040260200160405190810160405280929190818152602001828054610d8f906118a0565b8015610ddc5780601f10610db157610100808354040283529160200191610ddc565b820191906000526020600020905b815481529060010190602001808311610dbf57829003601f168201915b505050505090806002018054610df1906118a0565b80601f0160208091040260200160405190810160405280929190818152602001828054610e1d906118a0565b8015610e6a5780601f10610e3f57610100808354040283529160200191610e6a565b820191906000526020600020905b815481529060010190602001808311610e4d57829003601f168201915b5050505050905084565b610e7c610f92565b73ffffffffffffffffffffffffffffffffffffffff16610e9a6105db565b73ffffffffffffffffffffffffffffffffffffffff1614610ef0576040517f08c379a0000000000000000000000000000000000000000000000000000000008152600401610ee79061191e565b60405180910390fd5b600073ffffffffffffffffffffffffffffffffffffffff168173ffffffffffffffffffffffffffffffffffffffff161415610f60576040517f08c379a0000000000000000000000000000000000000000000000000000000008152600401610f5790611bad565b60405180910390fd5b610f6981610f9a565b50565b600e60009054906101000a900473ffffffffffffffffffffffffffffffffffffffff1681565b600033905090565b60008060009054906101000a900473ffffffffffffffffffffffffffffffffffffffff169050816000806101000a81548173ffffffffffffffffffffffffffffffffffffffff021916908373ffffffffffffffffffffffffffffffffffffffff1602179055508173ffffffffffffffffffffffffffffffffffffffff168173ffffffffffffffffffffffffffffffffffffffff167f8be0079c531659141344cd1fd0a4f28419497f9722a3daafe3b4186f6b6457e060405160405180910390a35050565b82805461106a906118a0565b90600052602060002090601f01602090048101928261108c57600085556110d3565b82601f106110a557805160ff19168380011785556110d3565b828001600101855582156110d3579182015b828111156110d25782518255916020019190600101906110b7565b5b5090506110e091906110e4565b5090565b5b808211156110fd5760008160009055506001016110e5565b5090565b600060ff82169050919050565b61111781611101565b82525050565b6000602082019050611132600083018461110e565b92915050565b600073ffffffffffffffffffffffffffffffffffffffff82169050919050565b6000819050919050565b600061117d61117861117384611138565b611158565b611138565b9050919050565b600061118f82611162565b9050919050565b60006111a182611184565b9050919050565b6111b181611196565b82525050565b60006020820190506111cc60008301846111a8565b92915050565b7f4e487b7100000000000000000000000000000000000000000000000000000000600052602160045260246000fd5b60038110611212576112116111d2565b5b50565b600081905061122382611201565b919050565b600061123382611215565b9050919050565b61124381611228565b82525050565b600060208201905061125e600083018461123a565b92915050565b600081519050919050565b600082825260208201905092915050565b60005b8381101561129e578082015181840152602081019050611283565b838111156112ad576000848401525b50505050565b6000601f19601f8301169050919050565b60006112cf82611264565b6112d9818561126f565b93506112e9818560208601611280565b6112f2816112b3565b840191505092915050565b600061ffff82169050919050565b611314816112fd565b82525050565b6000819050919050565b61132d8161131a565b82525050565b600060c082019050611348600083018961123a565b818103602083015261135a81886112c4565b9050818103604083015261136e81876112c4565b9050818103606083015261138281866112c4565b9050611391608083018561130b565b61139e60a0830184611324565b979650505050505050565b6000604051905090565b600080fd5b600080fd5b600080fd5b600080fd5b7f4e487b7100000000000000000000000000000000000000000000000000000000600052604160045260246000fd5b6113ff826112b3565b810181811067ffffffffffffffff8211171561141e5761141d6113c7565b5b80604052505050565b60006114316113a9565b905061143d82826113f6565b919050565b600067ffffffffffffffff82111561145d5761145c6113c7565b5b611466826112b3565b9050602081019050919050565b82818337600083830152505050565b600061149561149084611442565b611427565b9050828152602081018484840111156114b1576114b06113c2565b5b6114bc848285611473565b509392505050565b600082601f8301126114d9576114d86113bd565b5b81356114e9848260208601611482565b91505092915050565b600060208284031215611508576115076113b3565b5b600082013567ffffffffffffffff811115611526576115256113b8565b5b611532848285016114c4565b91505092915050565b600061154682611138565b9050919050565b6115568161153b565b82525050565b6000602082019050611571600083018461154d565b92915050565b600081519050919050565b600082825260208201905092915050565b6000819050602082019050919050565b600082825260208201905092915050565b60006115bf82611264565b6115c981856115a3565b93506115d9818560208601611280565b6115e2816112b3565b840191505092915050565b60006115f983836115b4565b905092915050565b6000602082019050919050565b600061161982611577565b6116238185611582565b93508360208202850161163585611593565b8060005b85811015611671578484038952815161165285826115ed565b945061165d83611601565b925060208a01995050600181019050611639565b50829750879550505050505092915050565b6000602082019050818103600083015261169d818461160e565b905092915050565b6116ae8161153b565b81146116b957600080fd5b50565b6000813590506116cb816116a5565b92915050565b6000806000606084860312156116ea576116e96113b3565b5b60006116f8868287016116bc565b935050602084013567ffffffffffffffff811115611719576117186113b8565b5b611725868287016114c4565b925050604084013567ffffffffffffffff811115611746576117456113b8565b5b611752868287016114c4565b9150509250925092565b611765816112fd565b811461177057600080fd5b50565b6000813590506117828161175c565b92915050565b60006020828403121561179e5761179d6113b3565b5b60006117ac84828501611773565b91505092915050565b60006080820190506117ca600083018761130b565b6117d7602083018661154d565b81810360408301526117e981856112c4565b905081810360608301526117fd81846112c4565b905095945050505050565b60006020828403121561181e5761181d6113b3565b5b600061182c848285016116bc565b91505092915050565b600061184082611184565b9050919050565b61185081611835565b82525050565b600060208201905061186b6000830184611847565b92915050565b7f4e487b7100000000000000000000000000000000000000000000000000000000600052602260045260246000fd5b600060028204905060018216806118b857607f821691505b602082108114156118cc576118cb611871565b5b50919050565b7f4f776e61626c653a2063616c6c6572206973206e6f7420746865206f776e6572600082015250565b600061190860208361126f565b9150611913826118d2565b602082019050919050565b60006020820190508181036000830152611937816118fb565b9050919050565b60006020820190506119536000830184611324565b92915050565b600081519050611968816116a5565b92915050565b600060208284031215611984576119836113b3565b5b600061199284828501611959565b91505092915050565b7f596f7520617265206e6f7420746865206f776e6572206f66207468652044656560008201527f6420546f6b656e20666f72207468697320696e737472756d656e7420616e642060208201527f7468657265666f72652063616e6e6f742073656c6c2069740000000000000000604082015250565b6000611a1d60588361126f565b9150611a288261199b565b606082019050919050565b60006020820190508181036000830152611a4c81611a10565b9050919050565b6000611a5e82611184565b9050919050565b611a6e81611a53565b82525050565b6000606082019050611a89600083018661154d565b611a96602083018561154d565b611aa36040830184611a65565b949350505050565b7f4e487b7100000000000000000000000000000000000000000000000000000000600052601160045260246000fd5b6000611ae582611101565b915060ff821415611af957611af8611aab565b5b600182019050919050565b6000606082019050611b19600083018661154d565b611b26602083018561154d565b611b336040830184611324565b949350505050565b7f4f776e61626c653a206e6577206f776e657220697320746865207a65726f206160008201527f6464726573730000000000000000000000000000000000000000000000000000602082015250565b6000611b9760268361126f565b9150611ba282611b3b565b604082019050919050565b60006020820190508181036000830152611bc681611b8a565b905091905056fea2646970667358221220ea0977ebc7bab273223a706e7550e72cc4c907025a16872a33898f3308074b6964736f6c634300080a0033a26469706673582212203c8e4eaf702cf41a34d148e10d7e33ffdead14e75c95f0fed1aa15e4af44c8ab64736f6c634300080a0033",
  "linkReferences": {},
  "deployedLinkReferences": {}
}