{
  "_format": "hh-sol-artifact-1",
  "contractName": "Mothership",
  "sourceName": "contracts/Mothership.sol",
  "abi": [
    {
      "inputs": [
        {
          "internalType": "address",
          "name": "_tokenAddress",
          "type": "address"
        }
      ],
      "stateMutability": "nonpayable",
      "type": "constructor"
    },
    {
      "anonymous": false,
      "inputs": [
        {
          "indexed": true,
          "internalType": "address",
          "name": "previousOwner",
          "type": "address"
        },
        {
          "indexed": true,
          "internalType": "address",
          "name": "newOwner",
          "type": "address"
        }
      ],
      "name": "OwnershipTransferred",
      "type": "event"
    },
    {
      "anonymous": false,
      "inputs": [
        {
          "indexed": false,
          "internalType": "enum Provenance.Types",
          "name": "_enumType",
          "type": "uint8"
        },
        {
          "indexed": false,
          "internalType": "address",
          "name": "childAddress",
          "type": "address"
        },
        {
          "indexed": false,
          "internalType": "bytes32",
          "name": "serial",
          "type": "bytes32"
        },
        {
          "indexed": false,
          "internalType": "bytes32",
          "name": "brand",
          "type": "bytes32"
        },
        {
          "indexed": false,
          "internalType": "bytes32",
          "name": "model",
          "type": "bytes32"
        },
        {
          "indexed": false,
          "internalType": "uint16",
          "name": "year",
          "type": "uint16"
        },
        {
          "indexed": false,
          "internalType": "uint16",
          "name": "instrumentDeedToken",
          "type": "uint16"
        },
        {
          "indexed": false,
          "internalType": "bytes32",
          "name": "date",
          "type": "bytes32"
        },
        {
          "indexed": false,
          "internalType": "bytes32",
          "name": "verificationPhotoHash",
          "type": "bytes32"
        },
        {
          "indexed": false,
          "internalType": "bytes[]",
          "name": "instrumentPhotoHashes",
          "type": "bytes[]"
        }
      ],
      "name": "ProvenanceCreated",
      "type": "event"
    },
    {
      "anonymous": false,
      "inputs": [
        {
          "indexed": false,
          "internalType": "address",
          "name": "seller",
          "type": "address"
        },
        {
          "indexed": false,
          "internalType": "address",
          "name": "buyer",
          "type": "address"
        },
        {
          "indexed": false,
          "internalType": "address",
          "name": "provenanaceAddress",
          "type": "address"
        },
        {
          "indexed": false,
          "internalType": "bytes32",
          "name": "date",
          "type": "bytes32"
        }
      ],
      "name": "ProvenanceSale",
      "type": "event"
    },
    {
      "inputs": [
        {
          "internalType": "uint256",
          "name": "",
          "type": "uint256"
        }
      ],
      "name": "allProvenanceArray",
      "outputs": [
        {
          "internalType": "contract Provenance",
          "name": "",
          "type": "address"
        }
      ],
      "stateMutability": "view",
      "type": "function"
    },
    {
      "inputs": [
        {
          "internalType": "enum Provenance.Types",
          "name": "_enumType",
          "type": "uint8"
        },
        {
          "internalType": "bytes32",
          "name": "_serial",
          "type": "bytes32"
        },
        {
          "internalType": "bytes32",
          "name": "_brand",
          "type": "bytes32"
        },
        {
          "internalType": "bytes32",
          "name": "_model",
          "type": "bytes32"
        },
        {
          "internalType": "uint16",
          "name": "_year",
          "type": "uint16"
        },
        {
          "internalType": "uint16",
          "name": "_instrumentDeedToken",
          "type": "uint16"
        },
        {
          "internalType": "bytes32",
          "name": "_date",
          "type": "bytes32"
        },
        {
          "internalType": "bytes32",
          "name": "_verificationPhotoHash",
          "type": "bytes32"
        },
        {
          "internalType": "bytes[]",
          "name": "_instrumentPhotoHashes",
          "type": "bytes[]"
        }
      ],
      "name": "createBatchProvenances",
      "outputs": [],
      "stateMutability": "nonpayable",
      "type": "function"
    },
    {
      "inputs": [
        {
          "internalType": "enum Provenance.Types",
          "name": "_enumType",
          "type": "uint8"
        },
        {
          "internalType": "bytes32",
          "name": "_serial",
          "type": "bytes32"
        },
        {
          "internalType": "bytes32",
          "name": "_brand",
          "type": "bytes32"
        },
        {
          "internalType": "bytes32",
          "name": "_model",
          "type": "bytes32"
        },
        {
          "internalType": "uint16",
          "name": "_year",
          "type": "uint16"
        },
        {
          "internalType": "uint16",
          "name": "_instrumentDeedToken",
          "type": "uint16"
        },
        {
          "internalType": "bytes32",
          "name": "_date",
          "type": "bytes32"
        },
        {
          "internalType": "bytes32",
          "name": "_verificationPhotoHash",
          "type": "bytes32"
        },
        {
          "internalType": "bytes[]",
          "name": "_instrumentPhotoHashes",
          "type": "bytes[]"
        }
      ],
      "name": "createNewProvenance",
      "outputs": [
        {
          "internalType": "address",
          "name": "",
          "type": "address"
        }
      ],
      "stateMutability": "nonpayable",
      "type": "function"
    },
    {
      "inputs": [
        {
          "internalType": "enum Provenance.Types",
          "name": "_enumType",
          "type": "uint8"
        },
        {
          "internalType": "bytes32",
          "name": "_serial",
          "type": "bytes32"
        },
        {
          "internalType": "bytes32",
          "name": "_brand",
          "type": "bytes32"
        },
        {
          "internalType": "bytes32",
          "name": "_model",
          "type": "bytes32"
        },
        {
          "internalType": "uint16",
          "name": "_year",
          "type": "uint16"
        },
        {
          "internalType": "uint16",
          "name": "_instrumentDeedToken",
          "type": "uint16"
        },
        {
          "internalType": "bytes32",
          "name": "_date",
          "type": "bytes32"
        },
        {
          "internalType": "bytes32",
          "name": "_verificationPhotoHash",
          "type": "bytes32"
        },
        {
          "internalType": "bytes[]",
          "name": "_instrumentPhotoHashes",
          "type": "bytes[]"
        }
      ],
      "name": "createPracticeProvenance",
      "outputs": [
        {
          "internalType": "address",
          "name": "",
          "type": "address"
        }
      ],
      "stateMutability": "nonpayable",
      "type": "function"
    },
    {
      "inputs": [],
      "name": "getAllProvenances",
      "outputs": [
        {
          "internalType": "contract Provenance[]",
          "name": "",
          "type": "address[]"
        }
      ],
      "stateMutability": "view",
      "type": "function"
    },
    {
      "inputs": [],
      "name": "getOwners",
      "outputs": [
        {
          "internalType": "address[]",
          "name": "",
          "type": "address[]"
        }
      ],
      "stateMutability": "view",
      "type": "function"
    },
    {
      "inputs": [],
      "name": "getOwnersInstruments",
      "outputs": [
        {
          "internalType": "contract Provenance[]",
          "name": "",
          "type": "address[]"
        }
      ],
      "stateMutability": "view",
      "type": "function"
    },
    {
      "inputs": [
        {
          "internalType": "address",
          "name": "buyer",
          "type": "address"
        }
      ],
      "name": "getPendingTransfersOfBuyer",
      "outputs": [
        {
          "internalType": "address[]",
          "name": "",
          "type": "address[]"
        }
      ],
      "stateMutability": "view",
      "type": "function"
    },
    {
      "inputs": [],
      "name": "instrumentDeedTokenContract",
      "outputs": [
        {
          "internalType": "contract InstrumentDeedToken",
          "name": "",
          "type": "address"
        }
      ],
      "stateMutability": "view",
      "type": "function"
    },
    {
      "inputs": [],
      "name": "owner",
      "outputs": [
        {
          "internalType": "address",
          "name": "",
          "type": "address"
        }
      ],
      "stateMutability": "view",
      "type": "function"
    },
    {
      "inputs": [
        {
          "internalType": "uint256",
          "name": "",
          "type": "uint256"
        }
      ],
      "name": "ownerArray",
      "outputs": [
        {
          "internalType": "address",
          "name": "",
          "type": "address"
        }
      ],
      "stateMutability": "view",
      "type": "function"
    },
    {
      "inputs": [
        {
          "internalType": "address",
          "name": "",
          "type": "address"
        },
        {
          "internalType": "uint256",
          "name": "",
          "type": "uint256"
        }
      ],
      "name": "ownersToAxes",
      "outputs": [
        {
          "internalType": "contract Provenance",
          "name": "",
          "type": "address"
        }
      ],
      "stateMutability": "view",
      "type": "function"
    },
    {
      "inputs": [
        {
          "internalType": "address",
          "name": "",
          "type": "address"
        },
        {
          "internalType": "uint256",
          "name": "",
          "type": "uint256"
        }
      ],
      "name": "pendingTransfers",
      "outputs": [
        {
          "internalType": "address",
          "name": "",
          "type": "address"
        }
      ],
      "stateMutability": "view",
      "type": "function"
    },
    {
      "inputs": [
        {
          "internalType": "address",
          "name": "",
          "type": "address"
        }
      ],
      "name": "provenanceVerify",
      "outputs": [
        {
          "internalType": "bool",
          "name": "",
          "type": "bool"
        }
      ],
      "stateMutability": "view",
      "type": "function"
    },
    {
      "inputs": [],
      "name": "removeDuplicateProvenance",
      "outputs": [],
      "stateMutability": "nonpayable",
      "type": "function"
    },
    {
      "inputs": [
        {
          "internalType": "address",
          "name": "buyer",
          "type": "address"
        },
        {
          "internalType": "address",
          "name": "provenance",
          "type": "address"
        }
      ],
      "name": "removePendingTransfer",
      "outputs": [],
      "stateMutability": "nonpayable",
      "type": "function"
    },
    {
      "inputs": [],
      "name": "renounceOwnership",
      "outputs": [],
      "stateMutability": "nonpayable",
      "type": "function"
    },
    {
      "inputs": [],
      "name": "setExistingProvenance",
      "outputs": [],
      "stateMutability": "nonpayable",
      "type": "function"
    },
    {
      "inputs": [
        {
          "internalType": "address",
          "name": "buyer",
          "type": "address"
        },
        {
          "internalType": "address",
          "name": "provenanceAddress",
          "type": "address"
        }
      ],
      "name": "setPendingTransfer",
      "outputs": [],
      "stateMutability": "nonpayable",
      "type": "function"
    },
    {
      "inputs": [
        {
          "internalType": "address",
          "name": "newOwner",
          "type": "address"
        }
      ],
      "name": "transferOwnership",
      "outputs": [],
      "stateMutability": "nonpayable",
      "type": "function"
    },
    {
      "inputs": [
        {
          "internalType": "address",
          "name": "seller",
          "type": "address"
        },
        {
          "internalType": "address",
          "name": "buyer",
          "type": "address"
        },
        {
          "internalType": "contract Provenance",
          "name": "provenanceSold",
          "type": "address"
        },
        {
          "internalType": "bytes32",
          "name": "date",
          "type": "bytes32"
        }
      ],
      "name": "updateOnProvenanceSale",
      "outputs": [],
      "stateMutability": "nonpayable",
      "type": "function"
    }
  ],
  "bytecode": "0x608060405234801561001057600080fd5b50604051612b3e380380612b3e83398101604081905261002f916100ad565b6100383361005d565b600680546001600160a01b0319166001600160a01b03929092169190911790556100dd565b600080546001600160a01b038381166001600160a01b0319831681178455604051919092169283917f8be0079c531659141344cd1fd0a4f28419497f9722a3daafe3b4186f6b6457e09190a35050565b6000602082840312156100bf57600080fd5b81516001600160a01b03811681146100d657600080fd5b9392505050565b612a52806100ec6000396000f3fe60806040523480156200001157600080fd5b5060043610620001515760003560e01c80637674e40811620000c757806396a5f1f6116200008657806396a5f1f614620002d357806399288e7b146200016f5780639ec67aca14620002dd578063a0e67e2b14620002f4578063f2fde38b14620002fe578063fceceb9e146200031557600080fd5b80637674e40814620002655780637bcd0138146200027c578063829851cc14620002935780638da5cb5b14620002aa578063923ae89d14620002bc57600080fd5b806352c0ece3116200011457806352c0ece314620001df57806353d01fcb14620001f6578063686cfb9e146200022d5780636f235e081462000244578063715018a6146200025b57600080fd5b8063054f2612146200015657806312bdb2b2146200016f5780631694d95e14620001795780631fc45b00146200019b57806320c9085514620001c8575b600080fd5b6200016d6200016736600462000fd7565b62000364565b005b6200016d62000412565b620001836200044a565b6040516200019291906200102f565b60405180910390f35b600654620001af906001600160a01b031681565b6040516001600160a01b03909116815260200162000192565b62000183620001d93660046200107e565b620004ae565b620001af620001f0366004620010a5565b62000526565b6200021c620002073660046200107e565b60026020526000908152604090205460ff1681565b604051901515815260200162000192565b620001af6200023e366004620010d4565b6200055f565b620001af6200025536600462001150565b6200058a565b6200016d620007cf565b620001af6200027636600462001150565b62000808565b620001af6200028d366004620010d4565b62000992565b6200016d620002a436600462001150565b620009a3565b6000546001600160a01b0316620001af565b6200016d620002cd36600462001333565b620009e4565b6200018362000a6f565b620001af620002ee366004620010a5565b62000ada565b6200018362000af7565b6200016d6200030f3660046200107e565b62000b59565b6200016d6200032636600462001333565b6001600160a01b0391821660009081526003602090815260408220805460018101825590835291200180546001600160a01b03191691909216179055565b6001600160a01b038381166000908152600160208181526040832080549283018155835282200180546001600160a01b03191692851692909217909155620003ad858462000bfb565b9050620003bb858262000c91565b604080513381526001600160a01b0386811660208301528516818301526060810184905290517f398fe58587df897ff852c7189d2caf6550e3c4667eaa2f798fca06ac8fb5a80b9181900360800190a15050505050565b6000546001600160a01b03163314620004485760405162461bcd60e51b81526004016200043f9062001371565b60405180910390fd5b565b60606005805480602002602001604051908101604052809291908181526020018280548015620004a457602002820191906000526020600020905b81546001600160a01b0316815260019091019060200180831162000485575b5050505050905090565b6001600160a01b0381166000908152600360209081526040918290208054835181840281018401909452808452606093928301828280156200051a57602002820191906000526020600020905b81546001600160a01b03168152600190910190602001808311620004fb575b50505050509050919050565b600160205281600052604060002081815481106200054357600080fd5b6000918252602090912001546001600160a01b03169150829050565b600481815481106200057057600080fd5b6000918252602090912001546001600160a01b0316905081565b6006546040516331a9108f60e11b815261ffff861660048201526000916001600160a01b031690636352211e90602401602060405180830381865afa158015620005d8573d6000803e3d6000fd5b505050506040513d601f19601f82011682018060405250810190620005fe9190620013a6565b6001600160a01b0316336001600160a01b031614620006865760405162461bcd60e51b815260206004820152603b60248201527f596f7520617265206e6f7420746865206f776e6572206f66207468652044656560448201527f6420546f6b656e20666f72207468697320696e737472756d656e74000000000060648201526084016200043f565b60008a8a8a8a8a8a8a8a8a30600660009054906101000a90046001600160a01b0316604051620006b69062000fb3565b620006cc9b9a999897969594939291906200147c565b604051809103906000f080158015620006e9573d6000803e3d6000fd5b50336000818152600160208181526040808420805480850182559085528285200180546001600160a01b0388166001600160a01b03199182168117909255600480548087019091557f8a35acfbc15ff81a39ae7d344fd709f28e8600b4aa8c65c6b64bfe7fe36bd19b0180549091169096179095559383526002905290829020805460ff19169091179055519091507f0ac83a3ba0e82a6435d1ec5030d496d5b64d35ce85102fe815874d85e013edfb90620007b9908d9084908e908e908e908e908e908e908e908e9062001502565b60405180910390a19a9950505050505050505050565b6000546001600160a01b03163314620007fc5760405162461bcd60e51b81526004016200043f9062001371565b62000448600062000dde565b6000808a8a8a8a8a8a8a8a8a30600660009054906101000a90046001600160a01b0316604051620008399062000fb3565b6200084f9b9a999897969594939291906200147c565b604051809103906000f0801580156200086c573d6000803e3d6000fd5b5033600090815260016020526040902054909150620008c857600480546001810182556000919091527f8a35acfbc15ff81a39ae7d344fd709f28e8600b4aa8c65c6b64bfe7fe36bd19b0180546001600160a01b031916331790555b336000908152600160208181526040808420805480850182559085528285200180546001600160a01b0387166001600160a01b03199182168117909255600580548087019091557f036b6384b5eca791c62761152d0c79bb0604c104a5fb6f4eb0703f3154bb3db0018054909116821790558452600290915291829020805460ff19169091179055517f0ac83a3ba0e82a6435d1ec5030d496d5b64d35ce85102fe815874d85e013edfb90620007b9908d9084908e908e908e908e908e908e908e908e9062001502565b600581815481106200057057600080fd5b60005b600a8111620009d857620009c28a8a8a8a8a8a8a8a8a62000808565b5080620009cf8162001590565b915050620009a6565b50505050505050505050565b6001600160a01b0382166000908152600360209081526040808320805482518185028101850190935280835262000a5c9383018282801562000a5057602002820191906000526020600020905b81546001600160a01b0316815260019091019060200180831162000a31575b50505050508362000e2e565b905062000a6a838262000e8e565b505050565b33600090815260016020908152604091829020805483518184028101840190945280845260609392830182828015620004a4576020028201919060005260206000209081546001600160a01b0316815260019091019060200180831162000485575050505050905090565b600360205281600052604060002081815481106200054357600080fd5b60606004805480602002602001604051908101604052809291908181526020018280548015620004a4576020028201919060005260206000209081546001600160a01b0316815260019091019060200180831162000485575050505050905090565b6000546001600160a01b0316331462000b865760405162461bcd60e51b81526004016200043f9062001371565b6001600160a01b03811662000bed5760405162461bcd60e51b815260206004820152602660248201527f4f776e61626c653a206e6577206f776e657220697320746865207a65726f206160448201526564647265737360d01b60648201526084016200043f565b62000bf88162000dde565b50565b60008060005b6001600160a01b03851660009081526001602052604090205481101562000c89576001600160a01b0385811660009081526001602052604090208054918616918390811062000c545762000c54620015ae565b6000918252602090912001546001600160a01b0316141562000c74578091505b8062000c808162001590565b91505062000c01565b509392505050565b6001600160a01b038216600090815260016020526040902054811062000cf35760405162461bcd60e51b81526020600482015260166024820152756275726e206661696c656420696e207265717569726560501b60448201526064016200043f565b6001600160a01b03821660009081526001602081905260409091208054909162000d1d91620015c4565b8154811062000d305762000d30620015ae565b60009182526020808320909101546001600160a01b0385811684526001909252604090922080549190921691908390811062000d705762000d70620015ae565b600091825260208083209190910180546001600160a01b0319166001600160a01b03948516179055918416815260019091526040902080548062000db85762000db8620015de565b600082815260209020810160001990810180546001600160a01b03191690550190555050565b600080546001600160a01b038381166001600160a01b0319831681178455604051919092169283917f8be0079c531659141344cd1fd0a4f28419497f9722a3daafe3b4186f6b6457e09190a35050565b60008060005b845181101562000c8957836001600160a01b031685828151811062000e5d5762000e5d620015ae565b60200260200101516001600160a01b0316141562000e79578091505b8062000e858162001590565b91505062000e34565b6001600160a01b038216600090815260036020526040902054811062000ef05760405162461bcd60e51b81526020600482015260166024820152756275726e206661696c656420696e207265717569726560501b60448201526064016200043f565b6001600160a01b0382166000908152600360205260409020805462000f1890600190620015c4565b8154811062000f2b5762000f2b620015ae565b60009182526020808320909101546001600160a01b0385811684526003909252604090922080549190921691908390811062000f6b5762000f6b620015ae565b600091825260208083209190910180546001600160a01b0319166001600160a01b03948516179055918416815260039091526040902080548062000db85762000db8620015de565b61142880620015f583390190565b6001600160a01b038116811462000bf857600080fd5b6000806000806080858703121562000fee57600080fd5b843562000ffb8162000fc1565b935060208501356200100d8162000fc1565b925060408501356200101f8162000fc1565b9396929550929360600135925050565b6020808252825182820181905260009190848201906040850190845b81811015620010725783516001600160a01b0316835292840192918401916001016200104b565b50909695505050505050565b6000602082840312156200109157600080fd5b81356200109e8162000fc1565b9392505050565b60008060408385031215620010b957600080fd5b8235620010c68162000fc1565b946020939093013593505050565b600060208284031215620010e757600080fd5b5035919050565b803561ffff811681146200110157600080fd5b919050565b634e487b7160e01b600052604160045260246000fd5b604051601f8201601f1916810167ffffffffffffffff8111828210171562001148576200114862001106565b604052919050565b60008060008060008060008060006101208a8c0312156200117057600080fd5b60038a35106200117f57600080fd5b8935985060208a0135975060408a0135965060608a01359550620011a660808b01620010ee565b9450620011b660a08b01620010ee565b935060c08a0135925060e08a0135915067ffffffffffffffff6101008b01351115620011e157600080fd5b6101008a01358a018b601f820112620011f957600080fd5b67ffffffffffffffff8135111562001215576200121562001106565b620012276020823560051b016200111c565b81358082526020808301929160051b8401018e10156200124657600080fd5b602083015b6020843560051b8501018110156200131f5767ffffffffffffffff813511156200127457600080fd5b8e603f8235860101126200128757600080fd5b67ffffffffffffffff60208235860101351115620012a957620012a962001106565b620012c56020601f19601f60208535890101350116016200111c565b602082358601013581528f604060208435880101358435880101011115620012ec57600080fd5b8135850160208181013591604001908301376000602083358701810135830181019190915290845292830192016200124b565b508093505050509295985092959850929598565b600080604083850312156200134757600080fd5b8235620013548162000fc1565b91506020830135620013668162000fc1565b809150509250929050565b6020808252818101527f4f776e61626c653a2063616c6c6572206973206e6f7420746865206f776e6572604082015260600190565b600060208284031215620013b957600080fd5b81516200109e8162000fc1565b60038110620013e557634e487b7160e01b600052602160045260246000fd5b9052565b600081518084526020808501808196508360051b810191508286016000805b868110156200146e578385038a5282518051808752835b818110156200143c578281018901518882018a015288016200141f565b818111156200144d578489838a0101525b509a87019a601f01601f191695909501860194509185019160010162001408565b509298975050505050505050565b60006101606200148d838f620013c6565b8c60208401528b60408401528a606084015261ffff808b166080850152808a1660a0850152508760c08401528660e084015280610100840152620014d481840187620013e9565b6001600160a01b039586166101208501529390941661014090920191909152509a9950505050505050505050565b600061014062001513838e620013c6565b60018060a01b038c1660208401528a604084015289606084015288608084015261ffff80891660a085015280881660c0850152508560e084015284610100840152806101208401526200156981840185620013e9565b9d9c50505050505050505050505050565b634e487b7160e01b600052601160045260246000fd5b6000600019821415620015a757620015a76200157a565b5060010190565b634e487b7160e01b600052603260045260246000fd5b600082821015620015d957620015d96200157a565b500390565b634e487b7160e01b600052603160045260246000fdfe60806040523480156200001157600080fd5b50604051620014283803806200142883398101604081905262000034916200055a565b6200003f3362000202565b600e80546001600160a01b038085166001600160a01b031992831617909255600d805492841692909116919091179055600380548c919060ff1916600183600281111562000091576200009162000634565b021790555060048a9055600589905560068890556007805461ffff888116620100000263ffffffff19909216908a16171790558251620000d990600890602086019062000252565b50600c805463ffffffff60a01b1916600160a01b179055604080516080810191829052600d546331a9108f60e11b90925261ffff881660848201529081906001600160a01b0316636352211e60a48301602060405180830381865afa15801562000147573d6000803e3d6000fd5b505050506040513d601f19601f820116820180604052508101906200016d91906200064a565b6001600160a01b039081168252600c5463ffffffff600160a01b918290048116602080860182905260408087019b909b5260609586019b909b5260009081526001808c52908a9020865181549c8801519093169093026001600160c01b0319909b16919093161798909817885595820151958701959095559093015160029094019390935550620006ac975050505050505050565b600080546001600160a01b038381166001600160a01b0319831681178455604051919092169283917f8be0079c531659141344cd1fd0a4f28419497f9722a3daafe3b4186f6b6457e09190a35050565b828054828255906000526020600020908101928215620002a4579160200282015b82811115620002a4578251805162000293918491602090910190620002b6565b509160200191906001019062000273565b50620002b292915062000341565b5090565b828054620002c4906200066f565b90600052602060002090601f016020900481019282620002e8576000855562000333565b82601f106200030357805160ff191683800117855562000333565b8280016001018555821562000333579182015b828111156200033357825182559160200191906001019062000316565b50620002b292915062000362565b80821115620002b257600062000358828262000379565b5060010162000341565b5b80821115620002b2576000815560010162000363565b50805462000387906200066f565b6000825580601f1062000398575050565b601f016020900490600052602060002090810190620003b8919062000362565b50565b805161ffff81168114620003ce57600080fd5b919050565b634e487b7160e01b600052604160045260246000fd5b604051601f8201601f191681016001600160401b0381118282101715620004145762000414620003d3565b604052919050565b6000601f83818401126200042f57600080fd5b825160206001600160401b03808311156200044e576200044e620003d3565b8260051b6200045f838201620003e9565b93845286810183019383810190898611156200047a57600080fd5b84890192505b8583101562000535578251848111156200049a5760008081fd5b8901603f81018b13620004ad5760008081fd5b8581015185811115620004c457620004c4620003d3565b620004d7818a01601f19168801620003e9565b81815260408d81848601011115620004ef5760008081fd5b60005b838110156200050f578481018201518382018b01528901620004f2565b83811115620005215760008a85850101525b505084525050918401919084019062000480565b9998505050505050505050565b80516001600160a01b0381168114620003ce57600080fd5b60008060008060008060008060008060006101608c8e0312156200057d57600080fd5b8b51600381106200058d57600080fd5b809b505060208c0151995060408c0151985060608c01519750620005b460808d01620003bb565b9650620005c460a08d01620003bb565b60c08d015160e08e01516101008f015192985090965094506001600160401b03811115620005f157600080fd5b620005ff8e828f016200041c565b935050620006116101208d0162000542565b9150620006226101408d0162000542565b90509295989b509295989b9093969950565b634e487b7160e01b600052602160045260246000fd5b6000602082840312156200065d57600080fd5b620006688262000542565b9392505050565b600181811c908216806200068457607f821691505b60208210811415620006a657634e487b7160e01b600052602260045260246000fd5b50919050565b610d6c80620006bc6000396000f3fe608060405234801561001057600080fd5b50600436106100f55760003560e01c80638da5cb5b11610097578063e30c397811610066578063e30c39781461028f578063f023f222146102a2578063f2fde38b146102cc578063fcf3e555146102df57600080fd5b80638da5cb5b1461024357806399e84ba214610254578063c0d62b3014610269578063c42069ec1461027c57600080fd5b80633a5e8a06116100d35780633a5e8a06146101cd5780635767d534146101e75780636f4cf18314610224578063715018a61461023957600080fd5b80630db02622146100fa5780630ee2c4481461012b5780631fc45b00146101a2575b600080fd5b600c5461011190600160a01b900463ffffffff1681565b60405163ffffffff90911681526020015b60405180910390f35b610173610139366004610a43565b60016020819052600091825260409091208054918101546002909101546001600160a01b03831692600160a01b900463ffffffff16919084565b604080516001600160a01b03909516855263ffffffff9093166020850152918301526060820152608001610122565b600d546101b5906001600160a01b031681565b6040516001600160a01b039091168152602001610122565b6002546101da9060ff1681565b6040516101229190610a92565b6003546004546005546006546007546102129460ff169392919061ffff808216916201000090041686565b60405161012296959493929190610aa6565b61022c6102f2565b6040516101229190610ae3565b610241610430565b005b6000546001600160a01b03166101b5565b61025c61049b565b6040516101229190610b56565b610241610277366004610c0d565b610577565b61024161028a366004610c40565b610818565b600c546101b5906001600160a01b031681565b600954600a54600b54610173926001600160a01b03811692600160a01b90910463ffffffff169184565b6102416102da366004610c40565b610928565b600e546101b5906001600160a01b031681565b600c5460609060009061031390600160a01b900463ffffffff166001610c71565b63ffffffff1667ffffffffffffffff81111561033157610331610c99565b60405190808252806020026020018201604052801561038357816020015b60408051608081018252600080825260208083018290529282018190526060820152825260001990920191018161034f5790505b50905060015b600c54600160a01b900463ffffffff1661ffff82161161042a5761ffff8116600081815260016020818152604092839020835160808101855281546001600160a01b0381168252600160a01b900463ffffffff16928101929092529182015492810192909252600201546060820152835190918491811061040c5761040c610caf565b6020026020010181905250808061042290610cc5565b915050610389565b50919050565b6000546001600160a01b0316331461048f5760405162461bcd60e51b815260206004820181905260248201527f4f776e61626c653a2063616c6c6572206973206e6f7420746865206f776e657260448201526064015b60405180910390fd5b61049960006109f3565b565b60606003600501805480602002602001604051908101604052809291908181526020016000905b8282101561056e5783829060005260206000200180546104e190610ce7565b80601f016020809104026020016040519081016040528092919081815260200182805461050d90610ce7565b801561055a5780601f1061052f5761010080835404028352916020019161055a565b820191906000526020600020905b81548152906001019060200180831161053d57829003601f168201915b5050505050815260200190600101906104c2565b50505050905090565b600c546001600160a01b031633146106075760405162461bcd60e51b815260206004820152604760248201527f596f7520617265206e6f74207468652070656e64696e674f776e6572206f662060448201527f74686973206974656d20616e64207468657265666f72652063616e6e6f7420636064820152661b185a5b481a5d60ca1b608482015260a401610486565b600e546040516302a7930960e11b81526001600160a01b038581166004830152336024830152306044830152606482018490529091169063054f261290608401600060405180830381600087803b15801561066157600080fd5b505af1158015610675573d6000803e3d6000fd5b5050600e5460405163923ae89d60e01b81523360048201523060248201526001600160a01b03909116925063923ae89d9150604401600060405180830381600087803b1580156106c457600080fd5b505af11580156106d8573d6000803e3d6000fd5b5050600c80546001600160a01b0319168082559092506014915061070890600160a01b900463ffffffff16610d1c565b82546101009290920a63ffffffff8181021990931691831602179091556040805160808101825233808252600c54600160a01b90819004851660208085018281528587018a8152606087018a81526000948552600193849052938890209651875492516001600160a01b039182166001600160c01b0319909416939093179290991690940217855591519184019190915551600290920191909155600d546007549251632142170760e11b8152878516600482015260248101929092526201000090920461ffff1660448201529116906342842e0e90606401600060405180830381600087803b1580156107fb57600080fd5b505af115801561080f573d6000803e3d6000fd5b50505050505050565b600c5463ffffffff600160a01b909104166000908152600160205260409020546001600160a01b031633148061086757503361085c6000546001600160a01b031690565b6001600160a01b0316145b6108a95760405162461bcd60e51b81526020600482015260136024820152721bdb9b1e505d5d1a1bdc9a5e99590819985a5b606a1b6044820152606401610486565b600c80546001600160a01b0319166001600160a01b03838116918217909255600e54604051637e7675cf60e11b815260048101929092523060248301529091169063fceceb9e90604401600060405180830381600087803b15801561090d57600080fd5b505af1158015610921573d6000803e3d6000fd5b5050505050565b6000546001600160a01b031633146109825760405162461bcd60e51b815260206004820181905260248201527f4f776e61626c653a2063616c6c6572206973206e6f7420746865206f776e65726044820152606401610486565b6001600160a01b0381166109e75760405162461bcd60e51b815260206004820152602660248201527f4f776e61626c653a206e6577206f776e657220697320746865207a65726f206160448201526564647265737360d01b6064820152608401610486565b6109f0816109f3565b50565b600080546001600160a01b038381166001600160a01b0319831681178455604051919092169283917f8be0079c531659141344cd1fd0a4f28419497f9722a3daafe3b4186f6b6457e09190a35050565b600060208284031215610a5557600080fd5b813563ffffffff81168114610a6957600080fd5b9392505050565b60038110610a8e57634e487b7160e01b600052602160045260246000fd5b9052565b60208101610aa08284610a70565b92915050565b60c08101610ab48289610a70565b60208201969096526040810194909452606084019290925261ffff90811660808401521660a090910152919050565b602080825282518282018190526000919060409081850190868401855b82811015610b4957815180516001600160a01b031685528681015163ffffffff168786015285810151868601526060908101519085015260809093019290850190600101610b00565b5091979650505050505050565b6000602080830181845280855180835260408601915060408160051b87010192508387016000805b83811015610be357888603603f1901855282518051808852835b81811015610bb3578281018a01518982018b01528901610b98565b81811115610bc357848a838b0101525b50601f01601f191696909601870195509386019391860191600101610b7e565b509398975050505050505050565b80356001600160a01b0381168114610c0857600080fd5b919050565b600080600060608486031215610c2257600080fd5b610c2b84610bf1565b95602085013595506040909401359392505050565b600060208284031215610c5257600080fd5b610a6982610bf1565b634e487b7160e01b600052601160045260246000fd5b600063ffffffff808316818516808303821115610c9057610c90610c5b565b01949350505050565b634e487b7160e01b600052604160045260246000fd5b634e487b7160e01b600052603260045260246000fd5b600061ffff80831681811415610cdd57610cdd610c5b565b6001019392505050565b600181811c90821680610cfb57607f821691505b6020821081141561042a57634e487b7160e01b600052602260045260246000fd5b600063ffffffff80831681811415610cdd57610cdd610c5b56fea2646970667358221220eb531dc6398b99f7810470dea3ea1de7778926f3056b7bc6aa5600937575917964736f6c634300080a0033a26469706673582212206008a8668c9c38dd96dd59c9fddbbbed38cbc9fbc868f1d4a993cbe71b2ffda464736f6c634300080a0033",
  "linkReferences": {},
  "deployedLinkReferences": {}
}