{
  "_format": "hh-sol-artifact-1",
  "contractName": "Mothership",
  "sourceName": "contracts/Mothership.sol",
  "abi": [
    {
      "inputs": [
        {
          "internalType": "address",
          "name": "_tokenAddress",
          "type": "address"
        }
      ],
      "stateMutability": "nonpayable",
      "type": "constructor"
    },
    {
      "anonymous": false,
      "inputs": [
        {
          "indexed": true,
          "internalType": "address",
          "name": "previousOwner",
          "type": "address"
        },
        {
          "indexed": true,
          "internalType": "address",
          "name": "newOwner",
          "type": "address"
        }
      ],
      "name": "OwnershipTransferred",
      "type": "event"
    },
    {
      "anonymous": false,
      "inputs": [
        {
          "indexed": false,
          "internalType": "enum Provenance.Types",
          "name": "_enumType",
          "type": "uint8"
        },
        {
          "indexed": false,
          "internalType": "address",
          "name": "childAddress",
          "type": "address"
        },
        {
          "indexed": false,
          "internalType": "string",
          "name": "serial",
          "type": "string"
        },
        {
          "indexed": false,
          "internalType": "string",
          "name": "brand",
          "type": "string"
        },
        {
          "indexed": false,
          "internalType": "string",
          "name": "model",
          "type": "string"
        },
        {
          "indexed": false,
          "internalType": "uint16",
          "name": "year",
          "type": "uint16"
        },
        {
          "indexed": false,
          "internalType": "uint256",
          "name": "instrumentDeedToken",
          "type": "uint256"
        },
        {
          "indexed": false,
          "internalType": "string",
          "name": "date",
          "type": "string"
        },
        {
          "indexed": false,
          "internalType": "string",
          "name": "verificationPhotoHash",
          "type": "string"
        },
        {
          "indexed": false,
          "internalType": "string[]",
          "name": "instrumentPhotoHashes",
          "type": "string[]"
        }
      ],
      "name": "ProvenanceCreated",
      "type": "event"
    },
    {
      "anonymous": false,
      "inputs": [
        {
          "indexed": false,
          "internalType": "address",
          "name": "seller",
          "type": "address"
        },
        {
          "indexed": false,
          "internalType": "address",
          "name": "buyer",
          "type": "address"
        },
        {
          "indexed": false,
          "internalType": "address",
          "name": "provenanaceAddress",
          "type": "address"
        },
        {
          "indexed": false,
          "internalType": "string",
          "name": "date",
          "type": "string"
        }
      ],
      "name": "ProvenanceSale",
      "type": "event"
    },
    {
      "inputs": [
        {
          "internalType": "enum Provenance.Types",
          "name": "_enumType",
          "type": "uint8"
        },
        {
          "internalType": "string",
          "name": "_serial",
          "type": "string"
        },
        {
          "internalType": "string",
          "name": "_brand",
          "type": "string"
        },
        {
          "internalType": "string",
          "name": "_model",
          "type": "string"
        },
        {
          "internalType": "uint16",
          "name": "_year",
          "type": "uint16"
        },
        {
          "internalType": "uint256",
          "name": "_instrumentDeedToken",
          "type": "uint256"
        },
        {
          "internalType": "string",
          "name": "_date",
          "type": "string"
        },
        {
          "internalType": "string",
          "name": "_verificationPhotoHash",
          "type": "string"
        },
        {
          "internalType": "string[]",
          "name": "_instrumentPhotoHashes",
          "type": "string[]"
        }
      ],
      "name": "createNewProvenance",
      "outputs": [
        {
          "internalType": "address",
          "name": "",
          "type": "address"
        }
      ],
      "stateMutability": "nonpayable",
      "type": "function"
    },
    {
      "inputs": [],
      "name": "getOwners",
      "outputs": [
        {
          "internalType": "address[]",
          "name": "",
          "type": "address[]"
        }
      ],
      "stateMutability": "view",
      "type": "function"
    },
    {
      "inputs": [],
      "name": "getOwnersInstruments",
      "outputs": [
        {
          "internalType": "contract Provenance[]",
          "name": "",
          "type": "address[]"
        }
      ],
      "stateMutability": "view",
      "type": "function"
    },
    {
      "inputs": [
        {
          "internalType": "address",
          "name": "buyer",
          "type": "address"
        }
      ],
      "name": "getPendingTransfersOfBuyer",
      "outputs": [
        {
          "internalType": "address[]",
          "name": "",
          "type": "address[]"
        }
      ],
      "stateMutability": "view",
      "type": "function"
    },
    {
      "inputs": [],
      "name": "instrumentDeedTokenContract",
      "outputs": [
        {
          "internalType": "contract InstrumentDeedToken",
          "name": "",
          "type": "address"
        }
      ],
      "stateMutability": "view",
      "type": "function"
    },
    {
      "inputs": [],
      "name": "owner",
      "outputs": [
        {
          "internalType": "address",
          "name": "",
          "type": "address"
        }
      ],
      "stateMutability": "view",
      "type": "function"
    },
    {
      "inputs": [
        {
          "internalType": "uint256",
          "name": "",
          "type": "uint256"
        }
      ],
      "name": "ownerArray",
      "outputs": [
        {
          "internalType": "address",
          "name": "",
          "type": "address"
        }
      ],
      "stateMutability": "view",
      "type": "function"
    },
    {
      "inputs": [
        {
          "internalType": "address",
          "name": "",
          "type": "address"
        },
        {
          "internalType": "uint256",
          "name": "",
          "type": "uint256"
        }
      ],
      "name": "ownersToAxes",
      "outputs": [
        {
          "internalType": "contract Provenance",
          "name": "",
          "type": "address"
        }
      ],
      "stateMutability": "view",
      "type": "function"
    },
    {
      "inputs": [
        {
          "internalType": "address",
          "name": "",
          "type": "address"
        },
        {
          "internalType": "uint256",
          "name": "",
          "type": "uint256"
        }
      ],
      "name": "pendingTransfers",
      "outputs": [
        {
          "internalType": "address",
          "name": "",
          "type": "address"
        }
      ],
      "stateMutability": "view",
      "type": "function"
    },
    {
      "inputs": [
        {
          "internalType": "address",
          "name": "",
          "type": "address"
        }
      ],
      "name": "provenanceVerify",
      "outputs": [
        {
          "internalType": "bool",
          "name": "",
          "type": "bool"
        }
      ],
      "stateMutability": "view",
      "type": "function"
    },
    {
      "inputs": [],
      "name": "removeDuplicateProvenance",
      "outputs": [],
      "stateMutability": "nonpayable",
      "type": "function"
    },
    {
      "inputs": [
        {
          "internalType": "address",
          "name": "buyer",
          "type": "address"
        },
        {
          "internalType": "address",
          "name": "provenance",
          "type": "address"
        }
      ],
      "name": "removePendingTransfer",
      "outputs": [],
      "stateMutability": "nonpayable",
      "type": "function"
    },
    {
      "inputs": [],
      "name": "renounceOwnership",
      "outputs": [],
      "stateMutability": "nonpayable",
      "type": "function"
    },
    {
      "inputs": [],
      "name": "setExistingProvenance",
      "outputs": [],
      "stateMutability": "nonpayable",
      "type": "function"
    },
    {
      "inputs": [
        {
          "internalType": "address",
          "name": "buyer",
          "type": "address"
        },
        {
          "internalType": "address",
          "name": "provenanceAddress",
          "type": "address"
        }
      ],
      "name": "setPendingTransfer",
      "outputs": [],
      "stateMutability": "nonpayable",
      "type": "function"
    },
    {
      "inputs": [
        {
          "internalType": "address",
          "name": "newOwner",
          "type": "address"
        }
      ],
      "name": "transferOwnership",
      "outputs": [],
      "stateMutability": "nonpayable",
      "type": "function"
    },
    {
      "inputs": [
        {
          "internalType": "address",
          "name": "seller",
          "type": "address"
        },
        {
          "internalType": "address",
          "name": "buyer",
          "type": "address"
        },
        {
          "internalType": "contract Provenance",
          "name": "provenanceSold",
          "type": "address"
        },
        {
          "internalType": "string",
          "name": "date",
          "type": "string"
        }
      ],
      "name": "updateOnProvenanceSale",
      "outputs": [],
      "stateMutability": "nonpayable",
      "type": "function"
    }
  ],
  "bytecode": "0x60806040523480156200001157600080fd5b5060405162005c6638038062005c668339818101604052810190620000379190620001d5565b620000576200004b6200009f60201b60201c565b620000a760201b60201c565b80600560006101000a81548173ffffffffffffffffffffffffffffffffffffffff021916908373ffffffffffffffffffffffffffffffffffffffff1602179055505062000207565b600033905090565b60008060009054906101000a900473ffffffffffffffffffffffffffffffffffffffff169050816000806101000a81548173ffffffffffffffffffffffffffffffffffffffff021916908373ffffffffffffffffffffffffffffffffffffffff1602179055508173ffffffffffffffffffffffffffffffffffffffff168173ffffffffffffffffffffffffffffffffffffffff167f8be0079c531659141344cd1fd0a4f28419497f9722a3daafe3b4186f6b6457e060405160405180910390a35050565b600080fd5b600073ffffffffffffffffffffffffffffffffffffffff82169050919050565b60006200019d8262000170565b9050919050565b620001af8162000190565b8114620001bb57600080fd5b50565b600081519050620001cf81620001a4565b92915050565b600060208284031215620001ee57620001ed6200016b565b5b6000620001fe84828501620001be565b91505092915050565b615a4f80620002176000396000f3fe60806040523480156200001157600080fd5b5060043610620001245760003560e01c80638da5cb5b11620000b15780639ec67aca116200007b5780639ec67aca14620002e1578063a0e67e2b1462000317578063f2fde38b1462000339578063f62ef2f31462000359578063fceceb9e14620003795762000124565b80638da5cb5b1462000271578063923ae89d146200029357806396a5f1f614620002b357806399288e7b14620002d55762000124565b806353d01fcb11620000f357806353d01fcb14620001c3578063686cfb9e14620001f9578063715018a6146200022f57806380fedcd4146200023b5762000124565b806312bdb2b214620001295780631fc45b00146200013557806320c90855146200015757806352c0ece3146200018d575b600080fd5b6200013362000399565b005b6200013f6200041e565b6040516200014e919062001788565b60405180910390f35b6200017560048036038101906200016f9190620017fe565b62000444565b604051620001849190620018fe565b60405180910390f35b620001ab6004803603810190620001a591906200195d565b62000513565b604051620001ba9190620019c9565b60405180910390f35b620001e16004803603810190620001db9190620017fe565b62000562565b604051620001f0919062001a03565b60405180910390f35b62000217600480360381019062000211919062001a20565b62000582565b60405162000226919062001a63565b60405180910390f35b62000239620005c2565b005b62000259600480360381019062000253919062001d45565b62000653565b60405162000268919062001a63565b60405180910390f35b6200027b62000990565b6040516200028a919062001a63565b60405180910390f35b620002b16004803603810190620002ab919062001ede565b620009b9565b005b620002bd62000a9f565b604051620002cc919062001fe2565b60405180910390f35b620002df62000b6c565b005b620002ff6004803603810190620002f991906200195d565b62000bf1565b6040516200030e919062001a63565b60405180910390f35b6200032162000c40565b604051620003309190620018fe565b60405180910390f35b620003576004803603810190620003519190620017fe565b62000cd0565b005b6200037760048036038101906200037191906200204b565b62000dd4565b005b62000397600480360381019062000391919062001ede565b62000ed6565b005b620003a362000f7a565b73ffffffffffffffffffffffffffffffffffffffff16620003c362000990565b73ffffffffffffffffffffffffffffffffffffffff16146200041c576040517f08c379a000000000000000000000000000000000000000000000000000000000815260040162000413906200213d565b60405180910390fd5b565b600560009054906101000a900473ffffffffffffffffffffffffffffffffffffffff1681565b6060600360008373ffffffffffffffffffffffffffffffffffffffff1673ffffffffffffffffffffffffffffffffffffffff1681526020019081526020016000208054806020026020016040519081016040528092919081815260200182805480156200050757602002820191906000526020600020905b8160009054906101000a900473ffffffffffffffffffffffffffffffffffffffff1673ffffffffffffffffffffffffffffffffffffffff1681526020019060010190808311620004bc575b50505050509050919050565b600160205281600052604060002081815481106200053057600080fd5b906000526020600020016000915091509054906101000a900473ffffffffffffffffffffffffffffffffffffffff1681565b60026020528060005260406000206000915054906101000a900460ff1681565b600481815481106200059357600080fd5b906000526020600020016000915054906101000a900473ffffffffffffffffffffffffffffffffffffffff1681565b620005cc62000f7a565b73ffffffffffffffffffffffffffffffffffffffff16620005ec62000990565b73ffffffffffffffffffffffffffffffffffffffff161462000645576040517f08c379a00000000000000000000000000000000000000000000000000000000081526004016200063c906200213d565b60405180910390fd5b62000651600062000f82565b565b6000600560009054906101000a900473ffffffffffffffffffffffffffffffffffffffff1673ffffffffffffffffffffffffffffffffffffffff16636352211e866040518263ffffffff1660e01b8152600401620006b2919062002170565b602060405180830381865afa158015620006d0573d6000803e3d6000fd5b505050506040513d601f19601f82011682018060405250810190620006f69190620021a4565b73ffffffffffffffffffffffffffffffffffffffff163373ffffffffffffffffffffffffffffffffffffffff161462000766576040517f08c379a00000000000000000000000000000000000000000000000000000000081526004016200075d906200224c565b60405180910390fd5b60008a8a8a8a8a8a8a8a8a30600560009054906101000a900473ffffffffffffffffffffffffffffffffffffffff16604051620007a390620016ef565b620007b99b9a99989796959493929190620024a3565b604051809103906000f080158015620007d6573d6000803e3d6000fd5b509050600160003373ffffffffffffffffffffffffffffffffffffffff1673ffffffffffffffffffffffffffffffffffffffff168152602001908152602001600020819080600181540180825580915050600190039060005260206000200160009091909190916101000a81548173ffffffffffffffffffffffffffffffffffffffff021916908373ffffffffffffffffffffffffffffffffffffffff1602179055506004339080600181540180825580915050600190039060005260206000200160009091909190916101000a81548173ffffffffffffffffffffffffffffffffffffffff021916908373ffffffffffffffffffffffffffffffffffffffff1602179055506001600260008373ffffffffffffffffffffffffffffffffffffffff1673ffffffffffffffffffffffffffffffffffffffff16815260200190815260200160002060006101000a81548160ff0219169083151502179055507f84ece05d4f03373bb3cbb663d2a48969c9c26a2e8107596f37cafb622c0e0d268b828c8c8c8c8c8c8c8c604051620009779a999897969594939291906200258e565b60405180910390a1809150509998505050505050505050565b60008060009054906101000a900473ffffffffffffffffffffffffffffffffffffffff16905090565b600062000a8c600360008573ffffffffffffffffffffffffffffffffffffffff1673ffffffffffffffffffffffffffffffffffffffff16815260200190815260200160002080548060200260200160405190810160405280929190818152602001828054801562000a8057602002820191906000526020600020905b8160009054906101000a900473ffffffffffffffffffffffffffffffffffffffff1673ffffffffffffffffffffffffffffffffffffffff168152602001906001019080831162000a35575b50505050508362001046565b905062000a9a8382620010cd565b505050565b6060600160003373ffffffffffffffffffffffffffffffffffffffff1673ffffffffffffffffffffffffffffffffffffffff16815260200190815260200160002080548060200260200160405190810160405280929190818152602001828054801562000b6257602002820191906000526020600020905b8160009054906101000a900473ffffffffffffffffffffffffffffffffffffffff1673ffffffffffffffffffffffffffffffffffffffff168152602001906001019080831162000b17575b5050505050905090565b62000b7662000f7a565b73ffffffffffffffffffffffffffffffffffffffff1662000b9662000990565b73ffffffffffffffffffffffffffffffffffffffff161462000bef576040517f08c379a000000000000000000000000000000000000000000000000000000000815260040162000be6906200213d565b60405180910390fd5b565b6003602052816000526040600020818154811062000c0e57600080fd5b906000526020600020016000915091509054906101000a900473ffffffffffffffffffffffffffffffffffffffff1681565b6060600480548060200260200160405190810160405280929190818152602001828054801562000cc657602002820191906000526020600020905b8160009054906101000a900473ffffffffffffffffffffffffffffffffffffffff1673ffffffffffffffffffffffffffffffffffffffff168152602001906001019080831162000c7b575b5050505050905090565b62000cda62000f7a565b73ffffffffffffffffffffffffffffffffffffffff1662000cfa62000990565b73ffffffffffffffffffffffffffffffffffffffff161462000d53576040517f08c379a000000000000000000000000000000000000000000000000000000000815260040162000d4a906200213d565b60405180910390fd5b600073ffffffffffffffffffffffffffffffffffffffff168173ffffffffffffffffffffffffffffffffffffffff16141562000dc6576040517f08c379a000000000000000000000000000000000000000000000000000000000815260040162000dbd90620026de565b60405180910390fd5b62000dd18162000f82565b50565b600160008473ffffffffffffffffffffffffffffffffffffffff1673ffffffffffffffffffffffffffffffffffffffff168152602001908152602001600020829080600181540180825580915050600190039060005260206000200160009091909190916101000a81548173ffffffffffffffffffffffffffffffffffffffff021916908373ffffffffffffffffffffffffffffffffffffffff160217905550600062000e8285846200134a565b905062000e90858262001473565b7f8c668468f058d750d3baa9e566a18d8b7d5da999586e24f37f2294af749b95fd3385858560405162000ec7949392919062002700565b60405180910390a15050505050565b600360008373ffffffffffffffffffffffffffffffffffffffff1673ffffffffffffffffffffffffffffffffffffffff168152602001908152602001600020819080600181540180825580915050600190039060005260206000200160009091909190916101000a81548173ffffffffffffffffffffffffffffffffffffffff021916908373ffffffffffffffffffffffffffffffffffffffff1602179055505050565b600033905090565b60008060009054906101000a900473ffffffffffffffffffffffffffffffffffffffff169050816000806101000a81548173ffffffffffffffffffffffffffffffffffffffff021916908373ffffffffffffffffffffffffffffffffffffffff1602179055508173ffffffffffffffffffffffffffffffffffffffff168173ffffffffffffffffffffffffffffffffffffffff167f8be0079c531659141344cd1fd0a4f28419497f9722a3daafe3b4186f6b6457e060405160405180910390a35050565b60008060005b8451811015620010c2578373ffffffffffffffffffffffffffffffffffffffff1685828151811062001083576200108262002754565b5b602002602001015173ffffffffffffffffffffffffffffffffffffffff161415620010ac578091505b8080620010b990620027b2565b9150506200104c565b508091505092915050565b600360008373ffffffffffffffffffffffffffffffffffffffff1673ffffffffffffffffffffffffffffffffffffffff16815260200190815260200160002080549050811062001154576040517f08c379a00000000000000000000000000000000000000000000000000000000081526004016200114b9062002850565b60405180910390fd5b600360008373ffffffffffffffffffffffffffffffffffffffff1673ffffffffffffffffffffffffffffffffffffffff1681526020019081526020016000206001600360008573ffffffffffffffffffffffffffffffffffffffff1673ffffffffffffffffffffffffffffffffffffffff16815260200190815260200160002080549050620011e4919062002872565b81548110620011f857620011f762002754565b5b9060005260206000200160009054906101000a900473ffffffffffffffffffffffffffffffffffffffff16600360008473ffffffffffffffffffffffffffffffffffffffff1673ffffffffffffffffffffffffffffffffffffffff168152602001908152602001600020828154811062001277576200127662002754565b5b9060005260206000200160006101000a81548173ffffffffffffffffffffffffffffffffffffffff021916908373ffffffffffffffffffffffffffffffffffffffff160217905550600360008373ffffffffffffffffffffffffffffffffffffffff1673ffffffffffffffffffffffffffffffffffffffff168152602001908152602001600020805480620013115762001310620028ad565b5b6001900381819060005260206000200160006101000a81549073ffffffffffffffffffffffffffffffffffffffff021916905590555050565b60008060005b600160008673ffffffffffffffffffffffffffffffffffffffff1673ffffffffffffffffffffffffffffffffffffffff1681526020019081526020016000208054905081101562001468578373ffffffffffffffffffffffffffffffffffffffff16600160008773ffffffffffffffffffffffffffffffffffffffff1673ffffffffffffffffffffffffffffffffffffffff168152602001908152602001600020828154811062001406576200140562002754565b5b9060005260206000200160009054906101000a900473ffffffffffffffffffffffffffffffffffffffff1673ffffffffffffffffffffffffffffffffffffffff16141562001452578091505b80806200145f90620027b2565b91505062001350565b508091505092915050565b600160008373ffffffffffffffffffffffffffffffffffffffff1673ffffffffffffffffffffffffffffffffffffffff168152602001908152602001600020805490508110620014fa576040517f08c379a0000000000000000000000000000000000000000000000000000000008152600401620014f19062002850565b60405180910390fd5b600160008373ffffffffffffffffffffffffffffffffffffffff1673ffffffffffffffffffffffffffffffffffffffff16815260200190815260200160002060018060008573ffffffffffffffffffffffffffffffffffffffff1673ffffffffffffffffffffffffffffffffffffffff1681526020019081526020016000208054905062001589919062002872565b815481106200159d576200159c62002754565b5b9060005260206000200160009054906101000a900473ffffffffffffffffffffffffffffffffffffffff16600160008473ffffffffffffffffffffffffffffffffffffffff1673ffffffffffffffffffffffffffffffffffffffff16815260200190815260200160002082815481106200161c576200161b62002754565b5b9060005260206000200160006101000a81548173ffffffffffffffffffffffffffffffffffffffff021916908373ffffffffffffffffffffffffffffffffffffffff160217905550600160008373ffffffffffffffffffffffffffffffffffffffff1673ffffffffffffffffffffffffffffffffffffffff168152602001908152602001600020805480620016b657620016b5620028ad565b5b6001900381819060005260206000200160006101000a81549073ffffffffffffffffffffffffffffffffffffffff021916905590555050565b61313d80620028dd83390190565b600073ffffffffffffffffffffffffffffffffffffffff82169050919050565b6000819050919050565b600062001748620017426200173c84620016fd565b6200171d565b620016fd565b9050919050565b60006200175c8262001727565b9050919050565b600062001770826200174f565b9050919050565b620017828162001763565b82525050565b60006020820190506200179f600083018462001777565b92915050565b6000604051905090565b600080fd5b600080fd5b6000620017c682620016fd565b9050919050565b620017d881620017b9565b8114620017e457600080fd5b50565b600081359050620017f881620017cd565b92915050565b600060208284031215620018175762001816620017af565b5b60006200182784828501620017e7565b91505092915050565b600081519050919050565b600082825260208201905092915050565b6000819050602082019050919050565b6200186781620017b9565b82525050565b60006200187b83836200185c565b60208301905092915050565b6000602082019050919050565b6000620018a18262001830565b620018ad81856200183b565b9350620018ba836200184c565b8060005b83811015620018f1578151620018d588826200186d565b9750620018e28362001887565b925050600181019050620018be565b5085935050505092915050565b600060208201905081810360008301526200191a818462001894565b905092915050565b6000819050919050565b620019378162001922565b81146200194357600080fd5b50565b60008135905062001957816200192c565b92915050565b60008060408385031215620019775762001976620017af565b5b60006200198785828601620017e7565b92505060206200199a8582860162001946565b9150509250929050565b6000620019b1826200174f565b9050919050565b620019c381620019a4565b82525050565b6000602082019050620019e06000830184620019b8565b92915050565b60008115159050919050565b620019fd81620019e6565b82525050565b600060208201905062001a1a6000830184620019f2565b92915050565b60006020828403121562001a395762001a38620017af565b5b600062001a498482850162001946565b91505092915050565b62001a5d81620017b9565b82525050565b600060208201905062001a7a600083018462001a52565b92915050565b6003811062001a8e57600080fd5b50565b60008135905062001aa28162001a80565b92915050565b600080fd5b600080fd5b6000601f19601f8301169050919050565b7f4e487b7100000000000000000000000000000000000000000000000000000000600052604160045260246000fd5b62001afd8262001ab2565b810181811067ffffffffffffffff8211171562001b1f5762001b1e62001ac3565b5b80604052505050565b600062001b34620017a5565b905062001b42828262001af2565b919050565b600067ffffffffffffffff82111562001b655762001b6462001ac3565b5b62001b708262001ab2565b9050602081019050919050565b82818337600083830152505050565b600062001ba362001b9d8462001b47565b62001b28565b90508281526020810184848401111562001bc25762001bc162001aad565b5b62001bcf84828562001b7d565b509392505050565b600082601f83011262001bef5762001bee62001aa8565b5b813562001c0184826020860162001b8c565b91505092915050565b600061ffff82169050919050565b62001c238162001c0a565b811462001c2f57600080fd5b50565b60008135905062001c438162001c18565b92915050565b600067ffffffffffffffff82111562001c675762001c6662001ac3565b5b602082029050602081019050919050565b600080fd5b600062001c9462001c8e8462001c49565b62001b28565b9050808382526020820190506020840283018581111562001cba5762001cb962001c78565b5b835b8181101562001d0857803567ffffffffffffffff81111562001ce35762001ce262001aa8565b5b80860162001cf2898262001bd7565b8552602085019450505060208101905062001cbc565b5050509392505050565b600082601f83011262001d2a5762001d2962001aa8565b5b813562001d3c84826020860162001c7d565b91505092915050565b60008060008060008060008060006101208a8c03121562001d6b5762001d6a620017af565b5b600062001d7b8c828d0162001a91565b99505060208a013567ffffffffffffffff81111562001d9f5762001d9e620017b4565b5b62001dad8c828d0162001bd7565b98505060408a013567ffffffffffffffff81111562001dd15762001dd0620017b4565b5b62001ddf8c828d0162001bd7565b97505060608a013567ffffffffffffffff81111562001e035762001e02620017b4565b5b62001e118c828d0162001bd7565b965050608062001e248c828d0162001c32565b95505060a062001e378c828d0162001946565b94505060c08a013567ffffffffffffffff81111562001e5b5762001e5a620017b4565b5b62001e698c828d0162001bd7565b93505060e08a013567ffffffffffffffff81111562001e8d5762001e8c620017b4565b5b62001e9b8c828d0162001bd7565b9250506101008a013567ffffffffffffffff81111562001ec05762001ebf620017b4565b5b62001ece8c828d0162001d12565b9150509295985092959850929598565b6000806040838503121562001ef85762001ef7620017af565b5b600062001f0885828601620017e7565b925050602062001f1b85828601620017e7565b9150509250929050565b600081519050919050565b6000819050602082019050919050565b62001f4b81620019a4565b82525050565b600062001f5f838362001f40565b60208301905092915050565b6000602082019050919050565b600062001f858262001f25565b62001f9181856200183b565b935062001f9e8362001f30565b8060005b8381101562001fd557815162001fb9888262001f51565b975062001fc68362001f6b565b92505060018101905062001fa2565b5085935050505092915050565b6000602082019050818103600083015262001ffe818462001f78565b905092915050565b60006200201382620017b9565b9050919050565b620020258162002006565b81146200203157600080fd5b50565b60008135905062002045816200201a565b92915050565b60008060008060808587031215620020685762002067620017af565b5b60006200207887828801620017e7565b94505060206200208b87828801620017e7565b93505060406200209e8782880162002034565b925050606085013567ffffffffffffffff811115620020c257620020c1620017b4565b5b620020d08782880162001bd7565b91505092959194509250565b600082825260208201905092915050565b7f4f776e61626c653a2063616c6c6572206973206e6f7420746865206f776e6572600082015250565b600062002125602083620020dc565b91506200213282620020ed565b602082019050919050565b60006020820190508181036000830152620021588162002116565b9050919050565b6200216a8162001922565b82525050565b60006020820190506200218760008301846200215f565b92915050565b6000815190506200219e81620017cd565b92915050565b600060208284031215620021bd57620021bc620017af565b5b6000620021cd848285016200218d565b91505092915050565b7f596f7520617265206e6f7420746865206f776e6572206f66207468652044656560008201527f6420546f6b656e20666f72207468697320696e737472756d656e740000000000602082015250565b600062002234603b83620020dc565b91506200224182620021d6565b604082019050919050565b60006020820190508181036000830152620022678162002225565b9050919050565b7f4e487b7100000000000000000000000000000000000000000000000000000000600052602160045260246000fd5b60038110620022b157620022b06200226e565b5b50565b6000819050620022c4826200229d565b919050565b6000620022d682620022b4565b9050919050565b620022e881620022c9565b82525050565b600081519050919050565b60005b8381101562002319578082015181840152602081019050620022fc565b8381111562002329576000848401525b50505050565b60006200233c82620022ee565b620023488185620020dc565b93506200235a818560208601620022f9565b620023658162001ab2565b840191505092915050565b6200237b8162001c0a565b82525050565b600081519050919050565b600082825260208201905092915050565b6000819050602082019050919050565b600082825260208201905092915050565b6000620023cb82620022ee565b620023d78185620023ad565b9350620023e9818560208601620022f9565b620023f48162001ab2565b840191505092915050565b60006200240d8383620023be565b905092915050565b6000602082019050919050565b60006200242f8262002381565b6200243b81856200238c565b9350836020820285016200244f856200239d565b8060005b858110156200249157848403895281516200246f8582620023ff565b94506200247c8362002415565b925060208a0199505060018101905062002453565b50829750879550505050505092915050565b600061016082019050620024bb600083018e620022dd565b8181036020830152620024cf818d6200232f565b90508181036040830152620024e5818c6200232f565b90508181036060830152620024fb818b6200232f565b90506200250c608083018a62002370565b6200251b60a08301896200215f565b81810360c08301526200252f81886200232f565b905081810360e08301526200254581876200232f565b90508181036101008301526200255c818662002422565b90506200256e61012083018562001a52565b6200257e61014083018462001a52565b9c9b505050505050505050505050565b600061014082019050620025a6600083018d620022dd565b620025b5602083018c62001a52565b8181036040830152620025c9818b6200232f565b90508181036060830152620025df818a6200232f565b90508181036080830152620025f581896200232f565b90506200260660a083018862002370565b6200261560c08301876200215f565b81810360e08301526200262981866200232f565b90508181036101008301526200264081856200232f565b905081810361012083015262002657818462002422565b90509b9a5050505050505050505050565b7f4f776e61626c653a206e6577206f776e657220697320746865207a65726f206160008201527f6464726573730000000000000000000000000000000000000000000000000000602082015250565b6000620026c6602683620020dc565b9150620026d38262002668565b604082019050919050565b60006020820190508181036000830152620026f981620026b7565b9050919050565b600060808201905062002717600083018762001a52565b62002726602083018662001a52565b62002735604083018562001a52565b81810360608301526200274981846200232f565b905095945050505050565b7f4e487b7100000000000000000000000000000000000000000000000000000000600052603260045260246000fd5b7f4e487b7100000000000000000000000000000000000000000000000000000000600052601160045260246000fd5b6000620027bf8262001922565b91507fffffffffffffffffffffffffffffffffffffffffffffffffffffffffffffffff821415620027f557620027f462002783565b5b600182019050919050565b7f6275726e206661696c656420696e207265717569726500000000000000000000600082015250565b600062002838601683620020dc565b9150620028458262002800565b602082019050919050565b600060208201905081810360008301526200286b8162002829565b9050919050565b60006200287f8262001922565b91506200288c8362001922565b925082821015620028a257620028a162002783565b5b828203905092915050565b7f4e487b7100000000000000000000000000000000000000000000000000000000600052603160045260246000fdfe60806040523480156200001157600080fd5b506040516200313d3803806200313d833981810160405281019062000037919062000981565b620000576200004b6200039060201b60201c565b6200039860201b60201c565b81600f60006101000a81548173ffffffffffffffffffffffffffffffffffffffff021916908373ffffffffffffffffffffffffffffffffffffffff16021790555080600e60006101000a81548173ffffffffffffffffffffffffffffffffffffffff021916908373ffffffffffffffffffffffffffffffffffffffff1602179055508a600360000160006101000a81548160ff0219169083600281111562000104576200010362000b48565b5b02179055508960036001019080519060200190620001249291906200045c565b508860036002019080519060200190620001409291906200045c565b50876003800190805190602001906200015b9291906200045c565b5086600360040160006101000a81548161ffff021916908361ffff160217905550856003600501819055508260036006019080519060200190620001a1929190620004ed565b506001600d60146101000a81548160ff021916908360ff1602179055506040518060800160405280600d60149054906101000a900460ff1660ff1661ffff168152602001600e60009054906101000a900473ffffffffffffffffffffffffffffffffffffffff1673ffffffffffffffffffffffffffffffffffffffff16636352211e896040518263ffffffff1660e01b815260040162000242919062000b88565b602060405180830381865afa15801562000260573d6000803e3d6000fd5b505050506040513d601f19601f8201168201806040525081019062000286919062000ba5565b73ffffffffffffffffffffffffffffffffffffffff1681526020018581526020018681525060016000600d60149054906101000a900460ff1660ff1661ffff16815260200190815260200160002060008201518160000160006101000a81548161ffff021916908361ffff16021790555060208201518160000160026101000a81548173ffffffffffffffffffffffffffffffffffffffff021916908373ffffffffffffffffffffffffffffffffffffffff16021790555060408201518160010190805190602001906200035c9291906200045c565b5060608201518160020190805190602001906200037b9291906200045c565b50905050505050505050505050505062000c3c565b600033905090565b60008060009054906101000a900473ffffffffffffffffffffffffffffffffffffffff169050816000806101000a81548173ffffffffffffffffffffffffffffffffffffffff021916908373ffffffffffffffffffffffffffffffffffffffff1602179055508173ffffffffffffffffffffffffffffffffffffffff168173ffffffffffffffffffffffffffffffffffffffff167f8be0079c531659141344cd1fd0a4f28419497f9722a3daafe3b4186f6b6457e060405160405180910390a35050565b8280546200046a9062000c06565b90600052602060002090601f0160209004810192826200048e5760008555620004da565b82601f10620004a957805160ff1916838001178555620004da565b82800160010185558215620004da579182015b82811115620004d9578251825591602001919060010190620004bc565b5b509050620004e9919062000554565b5090565b82805482825590600052602060002090810192821562000541579160200282015b82811115620005405782518290805190602001906200052f9291906200045c565b50916020019190600101906200050e565b5b50905062000550919062000573565b5090565b5b808211156200056f57600081600090555060010162000555565b5090565b5b808211156200059757600081816200058d91906200059b565b5060010162000574565b5090565b508054620005a99062000c06565b6000825580601f10620005bd5750620005de565b601f016020900490600052602060002090810190620005dd919062000554565b5b50565b6000604051905090565b600080fd5b600080fd5b600381106200060357600080fd5b50565b6000815190506200061781620005f5565b92915050565b600080fd5b600080fd5b6000601f19601f8301169050919050565b7f4e487b7100000000000000000000000000000000000000000000000000000000600052604160045260246000fd5b620006728262000627565b810181811067ffffffffffffffff8211171562000694576200069362000638565b5b80604052505050565b6000620006a9620005e1565b9050620006b7828262000667565b919050565b600067ffffffffffffffff821115620006da57620006d962000638565b5b620006e58262000627565b9050602081019050919050565b60005b8381101562000712578082015181840152602081019050620006f5565b8381111562000722576000848401525b50505050565b60006200073f6200073984620006bc565b6200069d565b9050828152602081018484840111156200075e576200075d62000622565b5b6200076b848285620006f2565b509392505050565b600082601f8301126200078b576200078a6200061d565b5b81516200079d84826020860162000728565b91505092915050565b600061ffff82169050919050565b620007bf81620007a6565b8114620007cb57600080fd5b50565b600081519050620007df81620007b4565b92915050565b6000819050919050565b620007fa81620007e5565b81146200080657600080fd5b50565b6000815190506200081a81620007ef565b92915050565b600067ffffffffffffffff8211156200083e576200083d62000638565b5b602082029050602081019050919050565b600080fd5b60006200086b620008658462000820565b6200069d565b905080838252602082019050602084028301858111156200089157620008906200084f565b5b835b81811015620008df57805167ffffffffffffffff811115620008ba57620008b96200061d565b5b808601620008c9898262000773565b8552602085019450505060208101905062000893565b5050509392505050565b600082601f8301126200090157620009006200061d565b5b81516200091384826020860162000854565b91505092915050565b600073ffffffffffffffffffffffffffffffffffffffff82169050919050565b600062000949826200091c565b9050919050565b6200095b816200093c565b81146200096757600080fd5b50565b6000815190506200097b8162000950565b92915050565b60008060008060008060008060008060006101608c8e031215620009aa57620009a9620005eb565b5b6000620009ba8e828f0162000606565b9b505060208c015167ffffffffffffffff811115620009de57620009dd620005f0565b5b620009ec8e828f0162000773565b9a505060408c015167ffffffffffffffff81111562000a105762000a0f620005f0565b5b62000a1e8e828f0162000773565b99505060608c015167ffffffffffffffff81111562000a425762000a41620005f0565b5b62000a508e828f0162000773565b985050608062000a638e828f01620007ce565b97505060a062000a768e828f0162000809565b96505060c08c015167ffffffffffffffff81111562000a9a5762000a99620005f0565b5b62000aa88e828f0162000773565b95505060e08c015167ffffffffffffffff81111562000acc5762000acb620005f0565b5b62000ada8e828f0162000773565b9450506101008c015167ffffffffffffffff81111562000aff5762000afe620005f0565b5b62000b0d8e828f01620008e9565b93505061012062000b218e828f016200096a565b92505061014062000b358e828f016200096a565b9150509295989b509295989b9093969950565b7f4e487b7100000000000000000000000000000000000000000000000000000000600052602160045260246000fd5b62000b8281620007e5565b82525050565b600060208201905062000b9f600083018462000b77565b92915050565b60006020828403121562000bbe5762000bbd620005eb565b5b600062000bce848285016200096a565b91505092915050565b7f4e487b7100000000000000000000000000000000000000000000000000000000600052602260045260246000fd5b6000600282049050600182168062000c1f57607f821691505b6020821081141562000c365762000c3562000bd7565b5b50919050565b6124f18062000c4c6000396000f3fe608060405234801561001057600080fd5b506004361061010b5760003560e01c806399e84ba2116100a2578063e30c397811610071578063e30c397814610278578063ea66eb3814610296578063f023f222146102b2578063f2fde38b146102d3578063fcf3e555146102ef5761010b565b806399e84ba2146101ef5780639d55e41a1461020d578063c42069ec14610229578063debc2419146102455761010b565b80636f4cf183116100de5780636f4cf1831461018d578063715018a6146101ab57806388cb18fd146101b55780638da5cb5b146101d15761010b565b80630db02622146101105780631fc45b001461012e5780633a5e8a061461014c5780635767d5341461016a575b600080fd5b61011861030d565b6040516101259190611784565b60405180910390f35b610136610320565b604051610143919061181e565b60405180910390f35b610154610346565b60405161016191906118b0565b60405180910390f35b610172610359565b6040516101849695949392919061199a565b60405180910390f35b610195610536565b6040516101a29190611bb6565b60405180910390f35b6101b361081a565b005b6101cf60048036038101906101ca9190611d21565b6108a2565b005b6101d9610921565b6040516101e69190611d79565b60405180910390f35b6101f761094a565b6040516102049190611e56565b60405180910390f35b61022760048036038101906102229190611d21565b610a26565b005b610243600480360381019061023e9190611ea4565b610aa5565b005b61025f600480360381019061025a9190611efd565b610c6f565b60405161026f9493929190611f2a565b60405180910390f35b610280610ddd565b60405161028d9190611d79565b60405180910390f35b6102b060048036038101906102ab9190611f7d565b610e03565b005b6102ba6111e2565b6040516102ca9493929190611f2a565b60405180910390f35b6102ed60048036038101906102e89190611ea4565b61133e565b005b6102f7611436565b6040516103049190612029565b60405180910390f35b600d60149054906101000a900460ff1681565b600e60009054906101000a900473ffffffffffffffffffffffffffffffffffffffff1681565b600260009054906101000a900460ff1681565b60038060000160009054906101000a900460ff169080600101805461037d90612073565b80601f01602080910402602001604051908101604052809291908181526020018280546103a990612073565b80156103f65780601f106103cb576101008083540402835291602001916103f6565b820191906000526020600020905b8154815290600101906020018083116103d957829003601f168201915b50505050509080600201805461040b90612073565b80601f016020809104026020016040519081016040528092919081815260200182805461043790612073565b80156104845780601f1061045957610100808354040283529160200191610484565b820191906000526020600020905b81548152906001019060200180831161046757829003601f168201915b50505050509080600301805461049990612073565b80601f01602080910402602001604051908101604052809291908181526020018280546104c590612073565b80156105125780601f106104e757610100808354040283529160200191610512565b820191906000526020600020905b8154815290600101906020018083116104f557829003601f168201915b5050505050908060040160009054906101000a900461ffff16908060050154905086565b606060006001600d60149054906101000a900460ff1661055691906120d4565b60ff1667ffffffffffffffff81111561057257610571611bf6565b5b6040519080825280602002602001820160405280156105ab57816020015b610598611683565b8152602001906001900390816105905790505b5090506000600190505b600d60149054906101000a900460ff1660ff168161ffff1611610812576106106040518060400160405280600781526020017f68697474696e670000000000000000000000000000000000000000000000000081525061145c565b600160008261ffff1661ffff1681526020019081526020016000206040518060800160405290816000820160009054906101000a900461ffff1661ffff1661ffff1681526020016000820160029054906101000a900473ffffffffffffffffffffffffffffffffffffffff1673ffffffffffffffffffffffffffffffffffffffff1673ffffffffffffffffffffffffffffffffffffffff1681526020016001820180546106bc90612073565b80601f01602080910402602001604051908101604052809291908181526020018280546106e890612073565b80156107355780601f1061070a57610100808354040283529160200191610735565b820191906000526020600020905b81548152906001019060200180831161071857829003601f168201915b5050505050815260200160028201805461074e90612073565b80601f016020809104026020016040519081016040528092919081815260200182805461077a90612073565b80156107c75780601f1061079c576101008083540402835291602001916107c7565b820191906000526020600020905b8154815290600101906020018083116107aa57829003601f168201915b505050505081525050828261ffff16815181106107e7576107e661210b565b5b60200260200101819052506107ff8161ffff166114f5565b808061080a9061213a565b9150506105b5565b508091505090565b61082261158e565b73ffffffffffffffffffffffffffffffffffffffff16610840610921565b73ffffffffffffffffffffffffffffffffffffffff1614610896576040517f08c379a000000000000000000000000000000000000000000000000000000000815260040161088d906121b1565b60405180910390fd5b6108a06000611596565b565b6108aa61158e565b73ffffffffffffffffffffffffffffffffffffffff166108c8610921565b73ffffffffffffffffffffffffffffffffffffffff161461091e576040517f08c379a0000000000000000000000000000000000000000000000000000000008152600401610915906121b1565b60405180910390fd5b50565b60008060009054906101000a900473ffffffffffffffffffffffffffffffffffffffff16905090565b60606003600601805480602002602001604051908101604052809291908181526020016000905b82821015610a1d57838290600052602060002001805461099090612073565b80601f01602080910402602001604051908101604052809291908181526020018280546109bc90612073565b8015610a095780601f106109de57610100808354040283529160200191610a09565b820191906000526020600020905b8154815290600101906020018083116109ec57829003601f168201915b505050505081526020019060010190610971565b50505050905090565b610a2e61158e565b73ffffffffffffffffffffffffffffffffffffffff16610a4c610921565b73ffffffffffffffffffffffffffffffffffffffff1614610aa2576040517f08c379a0000000000000000000000000000000000000000000000000000000008152600401610a99906121b1565b60405180910390fd5b50565b3373ffffffffffffffffffffffffffffffffffffffff1660016000600d60149054906101000a900460ff1660ff1661ffff16815260200190815260200160002060000160029054906101000a900473ffffffffffffffffffffffffffffffffffffffff1673ffffffffffffffffffffffffffffffffffffffff161480610b5d57503373ffffffffffffffffffffffffffffffffffffffff16610b45610921565b73ffffffffffffffffffffffffffffffffffffffff16145b610b9c576040517f08c379a0000000000000000000000000000000000000000000000000000000008152600401610b939061221d565b60405180910390fd5b80600d60006101000a81548173ffffffffffffffffffffffffffffffffffffffff021916908373ffffffffffffffffffffffffffffffffffffffff160217905550600f60009054906101000a900473ffffffffffffffffffffffffffffffffffffffff1673ffffffffffffffffffffffffffffffffffffffff1663fceceb9e82306040518363ffffffff1660e01b8152600401610c3a92919061223d565b600060405180830381600087803b158015610c5457600080fd5b505af1158015610c68573d6000803e3d6000fd5b5050505050565b60016020528060005260406000206000915090508060000160009054906101000a900461ffff16908060000160029054906101000a900473ffffffffffffffffffffffffffffffffffffffff1690806001018054610ccc90612073565b80601f0160208091040260200160405190810160405280929190818152602001828054610cf890612073565b8015610d455780601f10610d1a57610100808354040283529160200191610d45565b820191906000526020600020905b815481529060010190602001808311610d2857829003601f168201915b505050505090806002018054610d5a90612073565b80601f0160208091040260200160405190810160405280929190818152602001828054610d8690612073565b8015610dd35780601f10610da857610100808354040283529160200191610dd3565b820191906000526020600020905b815481529060010190602001808311610db657829003601f168201915b5050505050905084565b600d60009054906101000a900473ffffffffffffffffffffffffffffffffffffffff1681565b600d60009054906101000a900473ffffffffffffffffffffffffffffffffffffffff1673ffffffffffffffffffffffffffffffffffffffff163373ffffffffffffffffffffffffffffffffffffffff1614610e93576040517f08c379a0000000000000000000000000000000000000000000000000000000008152600401610e8a906122fe565b60405180910390fd5b600f60009054906101000a900473ffffffffffffffffffffffffffffffffffffffff1673ffffffffffffffffffffffffffffffffffffffff1663f62ef2f3843330856040518563ffffffff1660e01b8152600401610ef4949392919061233f565b600060405180830381600087803b158015610f0e57600080fd5b505af1158015610f22573d6000803e3d6000fd5b50505050600f60009054906101000a900473ffffffffffffffffffffffffffffffffffffffff1673ffffffffffffffffffffffffffffffffffffffff1663923ae89d33306040518363ffffffff1660e01b8152600401610f8392919061223d565b600060405180830381600087803b158015610f9d57600080fd5b505af1158015610fb1573d6000803e3d6000fd5b505050506000600d60006101000a81548173ffffffffffffffffffffffffffffffffffffffff021916908373ffffffffffffffffffffffffffffffffffffffff160217905550600d601481819054906101000a900460ff166110129061238b565b91906101000a81548160ff021916908360ff1602179055506040518060800160405280600d60149054906101000a900460ff1660ff1661ffff1681526020013373ffffffffffffffffffffffffffffffffffffffff1681526020018381526020018281525060016000600d60149054906101000a900460ff1660ff1661ffff16815260200190815260200160002060008201518160000160006101000a81548161ffff021916908361ffff16021790555060208201518160000160026101000a81548173ffffffffffffffffffffffffffffffffffffffff021916908373ffffffffffffffffffffffffffffffffffffffff16021790555060408201518160010190805190602001906111269291906116c5565b5060608201518160020190805190602001906111439291906116c5565b50905050600e60009054906101000a900473ffffffffffffffffffffffffffffffffffffffff1673ffffffffffffffffffffffffffffffffffffffff166342842e0e84336003600501546040518463ffffffff1660e01b81526004016111ab939291906123b5565b600060405180830381600087803b1580156111c557600080fd5b505af11580156111d9573d6000803e3d6000fd5b50505050505050565b600a8060000160009054906101000a900461ffff16908060000160029054906101000a900473ffffffffffffffffffffffffffffffffffffffff169080600101805461122d90612073565b80601f016020809104026020016040519081016040528092919081815260200182805461125990612073565b80156112a65780601f1061127b576101008083540402835291602001916112a6565b820191906000526020600020905b81548152906001019060200180831161128957829003601f168201915b5050505050908060020180546112bb90612073565b80601f01602080910402602001604051908101604052809291908181526020018280546112e790612073565b80156113345780601f1061130957610100808354040283529160200191611334565b820191906000526020600020905b81548152906001019060200180831161131757829003601f168201915b5050505050905084565b61134661158e565b73ffffffffffffffffffffffffffffffffffffffff16611364610921565b73ffffffffffffffffffffffffffffffffffffffff16146113ba576040517f08c379a00000000000000000000000000000000000000000000000000000000081526004016113b1906121b1565b60405180910390fd5b600073ffffffffffffffffffffffffffffffffffffffff168173ffffffffffffffffffffffffffffffffffffffff16141561142a576040517f08c379a00000000000000000000000000000000000000000000000000000000081526004016114219061245e565b60405180910390fd5b61143381611596565b50565b600f60009054906101000a900473ffffffffffffffffffffffffffffffffffffffff1681565b6114f281604051602401611470919061247e565b6040516020818303038152906040527f41304fac000000000000000000000000000000000000000000000000000000007bffffffffffffffffffffffffffffffffffffffffffffffffffffffff19166020820180517bffffffffffffffffffffffffffffffffffffffffffffffffffffffff838183161783525050505061165a565b50565b61158b8160405160240161150991906124a0565b6040516020818303038152906040527ff5b1bba9000000000000000000000000000000000000000000000000000000007bffffffffffffffffffffffffffffffffffffffffffffffffffffffff19166020820180517bffffffffffffffffffffffffffffffffffffffffffffffffffffffff838183161783525050505061165a565b50565b600033905090565b60008060009054906101000a900473ffffffffffffffffffffffffffffffffffffffff169050816000806101000a81548173ffffffffffffffffffffffffffffffffffffffff021916908373ffffffffffffffffffffffffffffffffffffffff1602179055508173ffffffffffffffffffffffffffffffffffffffff168173ffffffffffffffffffffffffffffffffffffffff167f8be0079c531659141344cd1fd0a4f28419497f9722a3daafe3b4186f6b6457e060405160405180910390a35050565b60008151905060006a636f6e736f6c652e6c6f679050602083016000808483855afa5050505050565b6040518060800160405280600061ffff168152602001600073ffffffffffffffffffffffffffffffffffffffff16815260200160608152602001606081525090565b8280546116d190612073565b90600052602060002090601f0160209004810192826116f3576000855561173a565b82601f1061170c57805160ff191683800117855561173a565b8280016001018555821561173a579182015b8281111561173957825182559160200191906001019061171e565b5b509050611747919061174b565b5090565b5b8082111561176457600081600090555060010161174c565b5090565b600060ff82169050919050565b61177e81611768565b82525050565b60006020820190506117996000830184611775565b92915050565b600073ffffffffffffffffffffffffffffffffffffffff82169050919050565b6000819050919050565b60006117e46117df6117da8461179f565b6117bf565b61179f565b9050919050565b60006117f6826117c9565b9050919050565b6000611808826117eb565b9050919050565b611818816117fd565b82525050565b6000602082019050611833600083018461180f565b92915050565b7f4e487b7100000000000000000000000000000000000000000000000000000000600052602160045260246000fd5b6003811061187957611878611839565b5b50565b600081905061188a82611868565b919050565b600061189a8261187c565b9050919050565b6118aa8161188f565b82525050565b60006020820190506118c560008301846118a1565b92915050565b600081519050919050565b600082825260208201905092915050565b60005b838110156119055780820151818401526020810190506118ea565b83811115611914576000848401525b50505050565b6000601f19601f8301169050919050565b6000611936826118cb565b61194081856118d6565b93506119508185602086016118e7565b6119598161191a565b840191505092915050565b600061ffff82169050919050565b61197b81611964565b82525050565b6000819050919050565b61199481611981565b82525050565b600060c0820190506119af60008301896118a1565b81810360208301526119c1818861192b565b905081810360408301526119d5818761192b565b905081810360608301526119e9818661192b565b90506119f86080830185611972565b611a0560a083018461198b565b979650505050505050565b600081519050919050565b600082825260208201905092915050565b6000819050602082019050919050565b611a4581611964565b82525050565b6000611a568261179f565b9050919050565b611a6681611a4b565b82525050565b600082825260208201905092915050565b6000611a88826118cb565b611a928185611a6c565b9350611aa28185602086016118e7565b611aab8161191a565b840191505092915050565b6000608083016000830151611ace6000860182611a3c565b506020830151611ae16020860182611a5d565b5060408301518482036040860152611af98282611a7d565b91505060608301518482036060860152611b138282611a7d565b9150508091505092915050565b6000611b2c8383611ab6565b905092915050565b6000602082019050919050565b6000611b4c82611a10565b611b568185611a1b565b935083602082028501611b6885611a2c565b8060005b85811015611ba45784840389528151611b858582611b20565b9450611b9083611b34565b925060208a01995050600181019050611b6c565b50829750879550505050505092915050565b60006020820190508181036000830152611bd08184611b41565b905092915050565b6000604051905090565b600080fd5b600080fd5b600080fd5b600080fd5b7f4e487b7100000000000000000000000000000000000000000000000000000000600052604160045260246000fd5b611c2e8261191a565b810181811067ffffffffffffffff82111715611c4d57611c4c611bf6565b5b80604052505050565b6000611c60611bd8565b9050611c6c8282611c25565b919050565b600067ffffffffffffffff821115611c8c57611c8b611bf6565b5b611c958261191a565b9050602081019050919050565b82818337600083830152505050565b6000611cc4611cbf84611c71565b611c56565b905082815260208101848484011115611ce057611cdf611bf1565b5b611ceb848285611ca2565b509392505050565b600082601f830112611d0857611d07611bec565b5b8135611d18848260208601611cb1565b91505092915050565b600060208284031215611d3757611d36611be2565b5b600082013567ffffffffffffffff811115611d5557611d54611be7565b5b611d6184828501611cf3565b91505092915050565b611d7381611a4b565b82525050565b6000602082019050611d8e6000830184611d6a565b92915050565b600081519050919050565b600082825260208201905092915050565b6000819050602082019050919050565b6000611dcc8383611a7d565b905092915050565b6000602082019050919050565b6000611dec82611d94565b611df68185611d9f565b935083602082028501611e0885611db0565b8060005b85811015611e445784840389528151611e258582611dc0565b9450611e3083611dd4565b925060208a01995050600181019050611e0c565b50829750879550505050505092915050565b60006020820190508181036000830152611e708184611de1565b905092915050565b611e8181611a4b565b8114611e8c57600080fd5b50565b600081359050611e9e81611e78565b92915050565b600060208284031215611eba57611eb9611be2565b5b6000611ec884828501611e8f565b91505092915050565b611eda81611964565b8114611ee557600080fd5b50565b600081359050611ef781611ed1565b92915050565b600060208284031215611f1357611f12611be2565b5b6000611f2184828501611ee8565b91505092915050565b6000608082019050611f3f6000830187611972565b611f4c6020830186611d6a565b8181036040830152611f5e818561192b565b90508181036060830152611f72818461192b565b905095945050505050565b600080600060608486031215611f9657611f95611be2565b5b6000611fa486828701611e8f565b935050602084013567ffffffffffffffff811115611fc557611fc4611be7565b5b611fd186828701611cf3565b925050604084013567ffffffffffffffff811115611ff257611ff1611be7565b5b611ffe86828701611cf3565b9150509250925092565b6000612013826117eb565b9050919050565b61202381612008565b82525050565b600060208201905061203e600083018461201a565b92915050565b7f4e487b7100000000000000000000000000000000000000000000000000000000600052602260045260246000fd5b6000600282049050600182168061208b57607f821691505b6020821081141561209f5761209e612044565b5b50919050565b7f4e487b7100000000000000000000000000000000000000000000000000000000600052601160045260246000fd5b60006120df82611768565b91506120ea83611768565b92508260ff03821115612100576120ff6120a5565b5b828201905092915050565b7f4e487b7100000000000000000000000000000000000000000000000000000000600052603260045260246000fd5b600061214582611964565b915061ffff82141561215a576121596120a5565b5b600182019050919050565b7f4f776e61626c653a2063616c6c6572206973206e6f7420746865206f776e6572600082015250565b600061219b6020836118d6565b91506121a682612165565b602082019050919050565b600060208201905081810360008301526121ca8161218e565b9050919050565b7f6f6e6c79417574686f72697a6564206661696c00000000000000000000000000600082015250565b60006122076013836118d6565b9150612212826121d1565b602082019050919050565b60006020820190508181036000830152612236816121fa565b9050919050565b60006040820190506122526000830185611d6a565b61225f6020830184611d6a565b9392505050565b7f596f7520617265206e6f74207468652070656e64696e674f776e6572206f662060008201527f74686973206974656d20616e64207468657265666f72652063616e6e6f74206360208201527f6c61696d20697400000000000000000000000000000000000000000000000000604082015250565b60006122e86047836118d6565b91506122f382612266565b606082019050919050565b60006020820190508181036000830152612317816122db565b9050919050565b6000612329826117eb565b9050919050565b6123398161231e565b82525050565b60006080820190506123546000830187611d6a565b6123616020830186611d6a565b61236e6040830185612330565b8181036060830152612380818461192b565b905095945050505050565b600061239682611768565b915060ff8214156123aa576123a96120a5565b5b600182019050919050565b60006060820190506123ca6000830186611d6a565b6123d76020830185611d6a565b6123e4604083018461198b565b949350505050565b7f4f776e61626c653a206e6577206f776e657220697320746865207a65726f206160008201527f6464726573730000000000000000000000000000000000000000000000000000602082015250565b60006124486026836118d6565b9150612453826123ec565b604082019050919050565b600060208201905081810360008301526124778161243b565b9050919050565b60006020820190508181036000830152612498818461192b565b905092915050565b60006020820190506124b5600083018461198b565b9291505056fea2646970667358221220ec4fa9cce960ac6f10e25c3c8d918c8c1817a72c37866598677649bb6b4e1f1c64736f6c634300080a0033a2646970667358221220782aa30eb646d95a6cd861fd8270ce0c999330bc7099c86b397595fa2da97e0564736f6c634300080a0033",
  "linkReferences": {},
  "deployedLinkReferences": {}
}