{
  "_format": "hh-sol-artifact-1",
  "contractName": "Mothership",
  "sourceName": "contracts/Mothership.sol",
  "abi": [
    {
      "inputs": [
        {
          "internalType": "address",
          "name": "_tokenAddress",
          "type": "address"
        }
      ],
      "stateMutability": "nonpayable",
      "type": "constructor"
    },
    {
      "anonymous": false,
      "inputs": [
        {
          "indexed": false,
          "internalType": "enum Provenance.Types",
          "name": "_enumType",
          "type": "uint8"
        },
        {
          "indexed": false,
          "internalType": "address",
          "name": "childAddress",
          "type": "address"
        },
        {
          "indexed": false,
          "internalType": "string",
          "name": "serial",
          "type": "string"
        },
        {
          "indexed": false,
          "internalType": "string",
          "name": "brand",
          "type": "string"
        },
        {
          "indexed": false,
          "internalType": "string",
          "name": "model",
          "type": "string"
        },
        {
          "indexed": false,
          "internalType": "uint16",
          "name": "year",
          "type": "uint16"
        },
        {
          "indexed": false,
          "internalType": "uint256",
          "name": "instrumentDeedToken",
          "type": "uint256"
        },
        {
          "indexed": false,
          "internalType": "string",
          "name": "date",
          "type": "string"
        },
        {
          "indexed": false,
          "internalType": "string",
          "name": "verificationPhotoHash",
          "type": "string"
        },
        {
          "indexed": false,
          "internalType": "string[]",
          "name": "instrumentPhotoHashes",
          "type": "string[]"
        }
      ],
      "name": "ProvenanceCreated",
      "type": "event"
    },
    {
      "anonymous": false,
      "inputs": [
        {
          "indexed": false,
          "internalType": "address",
          "name": "seller",
          "type": "address"
        },
        {
          "indexed": false,
          "internalType": "address",
          "name": "buyer",
          "type": "address"
        },
        {
          "indexed": false,
          "internalType": "address",
          "name": "provenanaceAddress",
          "type": "address"
        },
        {
          "indexed": false,
          "internalType": "string",
          "name": "date",
          "type": "string"
        }
      ],
      "name": "ProvenanceSale",
      "type": "event"
    },
    {
      "inputs": [
        {
          "internalType": "uint256",
          "name": "",
          "type": "uint256"
        }
      ],
      "name": "allProvenanceArray",
      "outputs": [
        {
          "internalType": "contract Provenance",
          "name": "",
          "type": "address"
        }
      ],
      "stateMutability": "view",
      "type": "function"
    },
    {
      "inputs": [
        {
          "internalType": "enum Provenance.Types",
          "name": "_enumType",
          "type": "uint8"
        },
        {
          "internalType": "string",
          "name": "_serial",
          "type": "string"
        },
        {
          "internalType": "string",
          "name": "_brand",
          "type": "string"
        },
        {
          "internalType": "string",
          "name": "_model",
          "type": "string"
        },
        {
          "internalType": "uint16",
          "name": "_year",
          "type": "uint16"
        },
        {
          "internalType": "uint256",
          "name": "_instrumentDeedToken",
          "type": "uint256"
        },
        {
          "internalType": "string",
          "name": "_date",
          "type": "string"
        },
        {
          "internalType": "string",
          "name": "_verificationPhotoHash",
          "type": "string"
        },
        {
          "internalType": "string[]",
          "name": "_instrumentPhotoHashes",
          "type": "string[]"
        }
      ],
      "name": "createBatchProvenances",
      "outputs": [],
      "stateMutability": "nonpayable",
      "type": "function"
    },
    {
      "inputs": [
        {
          "internalType": "enum Provenance.Types",
          "name": "_enumType",
          "type": "uint8"
        },
        {
          "internalType": "string",
          "name": "_serial",
          "type": "string"
        },
        {
          "internalType": "string",
          "name": "_brand",
          "type": "string"
        },
        {
          "internalType": "string",
          "name": "_model",
          "type": "string"
        },
        {
          "internalType": "uint16",
          "name": "_year",
          "type": "uint16"
        },
        {
          "internalType": "uint256",
          "name": "_instrumentDeedToken",
          "type": "uint256"
        },
        {
          "internalType": "string",
          "name": "_date",
          "type": "string"
        },
        {
          "internalType": "string",
          "name": "_verificationPhotoHash",
          "type": "string"
        },
        {
          "internalType": "string[]",
          "name": "_instrumentPhotoHashes",
          "type": "string[]"
        }
      ],
      "name": "createNewProvenance",
      "outputs": [
        {
          "internalType": "address",
          "name": "",
          "type": "address"
        }
      ],
      "stateMutability": "nonpayable",
      "type": "function"
    },
    {
      "inputs": [
        {
          "internalType": "enum Provenance.Types",
          "name": "_enumType",
          "type": "uint8"
        },
        {
          "internalType": "string",
          "name": "_serial",
          "type": "string"
        },
        {
          "internalType": "string",
          "name": "_brand",
          "type": "string"
        },
        {
          "internalType": "string",
          "name": "_model",
          "type": "string"
        },
        {
          "internalType": "uint16",
          "name": "_year",
          "type": "uint16"
        },
        {
          "internalType": "uint256",
          "name": "_instrumentDeedToken",
          "type": "uint256"
        },
        {
          "internalType": "string",
          "name": "_date",
          "type": "string"
        },
        {
          "internalType": "string",
          "name": "_verificationPhotoHash",
          "type": "string"
        },
        {
          "internalType": "string[]",
          "name": "_instrumentPhotoHashes",
          "type": "string[]"
        }
      ],
      "name": "createPracticeProvenance",
      "outputs": [
        {
          "internalType": "address",
          "name": "",
          "type": "address"
        }
      ],
      "stateMutability": "nonpayable",
      "type": "function"
    },
    {
      "inputs": [],
      "name": "getAllProvenances",
      "outputs": [
        {
          "internalType": "contract Provenance[]",
          "name": "",
          "type": "address[]"
        }
      ],
      "stateMutability": "view",
      "type": "function"
    },
    {
      "inputs": [],
      "name": "getOwners",
      "outputs": [
        {
          "internalType": "address[]",
          "name": "",
          "type": "address[]"
        }
      ],
      "stateMutability": "view",
      "type": "function"
    },
    {
      "inputs": [],
      "name": "getOwnersInstruments",
      "outputs": [
        {
          "internalType": "contract Provenance[]",
          "name": "",
          "type": "address[]"
        }
      ],
      "stateMutability": "view",
      "type": "function"
    },
    {
      "inputs": [
        {
          "internalType": "address",
          "name": "owner",
          "type": "address"
        }
      ],
      "name": "getOwnersToAxesOwner",
      "outputs": [
        {
          "internalType": "contract Provenance[]",
          "name": "",
          "type": "address[]"
        }
      ],
      "stateMutability": "view",
      "type": "function"
    },
    {
      "inputs": [
        {
          "internalType": "address",
          "name": "buyer",
          "type": "address"
        }
      ],
      "name": "getPendingTransfersOfBuyer",
      "outputs": [
        {
          "internalType": "address[]",
          "name": "",
          "type": "address[]"
        }
      ],
      "stateMutability": "view",
      "type": "function"
    },
    {
      "inputs": [],
      "name": "instrumentDeedTokenContract",
      "outputs": [
        {
          "internalType": "contract InstrumentDeedToken",
          "name": "",
          "type": "address"
        }
      ],
      "stateMutability": "view",
      "type": "function"
    },
    {
      "inputs": [
        {
          "internalType": "uint256",
          "name": "",
          "type": "uint256"
        }
      ],
      "name": "ownerArray",
      "outputs": [
        {
          "internalType": "address",
          "name": "",
          "type": "address"
        }
      ],
      "stateMutability": "view",
      "type": "function"
    },
    {
      "inputs": [
        {
          "internalType": "address",
          "name": "",
          "type": "address"
        },
        {
          "internalType": "uint256",
          "name": "",
          "type": "uint256"
        }
      ],
      "name": "ownersToAxes",
      "outputs": [
        {
          "internalType": "contract Provenance",
          "name": "",
          "type": "address"
        }
      ],
      "stateMutability": "view",
      "type": "function"
    },
    {
      "inputs": [
        {
          "internalType": "address",
          "name": "",
          "type": "address"
        },
        {
          "internalType": "uint256",
          "name": "",
          "type": "uint256"
        }
      ],
      "name": "pendingTransfers",
      "outputs": [
        {
          "internalType": "address",
          "name": "",
          "type": "address"
        }
      ],
      "stateMutability": "view",
      "type": "function"
    },
    {
      "inputs": [
        {
          "internalType": "address",
          "name": "",
          "type": "address"
        }
      ],
      "name": "provenanceVerify",
      "outputs": [
        {
          "internalType": "bool",
          "name": "",
          "type": "bool"
        }
      ],
      "stateMutability": "view",
      "type": "function"
    },
    {
      "inputs": [
        {
          "internalType": "address",
          "name": "buyer",
          "type": "address"
        },
        {
          "internalType": "address",
          "name": "provenance",
          "type": "address"
        }
      ],
      "name": "removePendingTransfer",
      "outputs": [],
      "stateMutability": "nonpayable",
      "type": "function"
    },
    {
      "inputs": [
        {
          "internalType": "address",
          "name": "buyer",
          "type": "address"
        },
        {
          "internalType": "address",
          "name": "provenanceAddress",
          "type": "address"
        }
      ],
      "name": "setPendingTransfer",
      "outputs": [],
      "stateMutability": "nonpayable",
      "type": "function"
    },
    {
      "inputs": [
        {
          "internalType": "address",
          "name": "seller",
          "type": "address"
        },
        {
          "internalType": "address",
          "name": "buyer",
          "type": "address"
        },
        {
          "internalType": "contract Provenance",
          "name": "provenanceSold",
          "type": "address"
        },
        {
          "internalType": "string",
          "name": "date",
          "type": "string"
        }
      ],
      "name": "updateOnProvenanceSale",
      "outputs": [],
      "stateMutability": "nonpayable",
      "type": "function"
    }
  ],
  "bytecode": "0x608060405234801561001057600080fd5b50604051613a36380380613a3683398101604081905261002f91610054565b600580546001600160a01b0319166001600160a01b0392909216919091179055610084565b60006020828403121561006657600080fd5b81516001600160a01b038116811461007d57600080fd5b9392505050565b6139a3806100936000396000f3fe60806040523480156200001157600080fd5b5060043610620001215760003560e01c80637bcd013811620000af5780639ec67aca116200007a5780639ec67aca1462000270578063a0e67e2b1462000287578063b7b03ccc1462000291578063f62ef2f314620002a8578063fceceb9e14620002bf57600080fd5b80637bcd0138146200022157806380fedcd41462000238578063923ae89d146200024f57806396a5f1f6146200026657600080fd5b806341e75ea911620000f057806341e75ea914620001a357806352c0ece314620001bc57806353d01fcb14620001d3578063686cfb9e146200020a57600080fd5b80631694d95e14620001265780631fc45b00146200014857806320c908551462000175578063407f1c0e146200018c575b600080fd5b620001306200030e565b6040516200013f919062000db5565b60405180910390f35b6005546200015c906001600160a01b031681565b6040516001600160a01b0390911681526020016200013f565b620001306200018636600462000e1d565b62000372565b620001306200019d36600462000e1d565b620003ea565b620001ba620001b436600462000fd8565b6200045e565b005b6200015c620001cd36600462001111565b6200049f565b620001f9620001e436600462000e1d565b60016020526000908152604090205460ff1681565b60405190151581526020016200013f565b6200015c6200021b36600462001140565b620004d8565b6200015c6200023236600462001140565b62000503565b6200015c6200024936600462000fd8565b62000514565b620001ba620002603660046200115a565b620007af565b620001306200083a565b6200015c6200028136600462001111565b620008a3565b62000130620008c0565b6200015c620002a236600462000fd8565b62000922565b620001ba620002b936600462001198565b62000953565b620001ba620002d03660046200115a565b6001600160a01b0391821660009081526002602090815260408220805460018101825590835291200180546001600160a01b03191691909216179055565b606060048054806020026020016040519081016040528092919081815260200182805480156200036857602002820191906000526020600020905b81546001600160a01b0316815260019091019060200180831162000349575b5050505050905090565b6001600160a01b038116600090815260026020908152604091829020805483518184028101840190945280845260609392830182828015620003de57602002820191906000526020600020905b81546001600160a01b03168152600190910190602001808311620003bf575b50505050509050919050565b6001600160a01b03811660009081526020818152604091829020805483518184028101840190945280845260609392830182828015620003de576020028201919060005260206000209081546001600160a01b03168152600190910190602001808311620003bf5750505050509050919050565b60005b600a811162000493576200047d8a8a8a8a8a8a8a8a8a62000922565b50806200048a816200122d565b91505062000461565b50505050505050505050565b60006020528160005260406000208181548110620004bc57600080fd5b6000918252602090912001546001600160a01b03169150829050565b60038181548110620004e957600080fd5b6000918252602090912001546001600160a01b0316905081565b60048181548110620004e957600080fd5b6005546040516331a9108f60e11b8152600481018690526000916001600160a01b031690636352211e90602401602060405180830381865afa1580156200055f573d6000803e3d6000fd5b505050506040513d601f19601f820116820180604052508101906200058591906200124b565b6001600160a01b0316336001600160a01b031614620006115760405162461bcd60e51b815260206004820152603b60248201527f596f7520617265206e6f7420746865206f776e6572206f66207468652044656560448201527f6420546f6b656e20666f72207468697320696e737472756d656e74000000000060648201526084015b60405180910390fd5b60008a8a8a8a8a8a8a8a8a30600560009054906101000a90046001600160a01b0316604051620006419062000da7565b620006579b9a9998979695949392919062001337565b604051809103906000f08015801562000674573d6000803e3d6000fd5b5033600090815260208190526040902054909150620006d057600380546001810182556000919091527fc2575a0e9e593c00f959f8c92f12db2869c3395a3b0502d05e2516446f71f85b0180546001600160a01b031916331790555b336000908152602081815260408083208054600181810183559185528385200180546001600160a01b0387166001600160a01b03199182168117909255600480548085019091557f8a35acfbc15ff81a39ae7d344fd709f28e8600b4aa8c65c6b64bfe7fe36bd19b0180549091168217905584529182905291829020805460ff19169091179055517f84ece05d4f03373bb3cbb663d2a48969c9c26a2e8107596f37cafb622c0e0d269062000799908d9084908e908e908e908e908e908e908e908e9062001415565b60405180910390a19a9950505050505050505050565b6001600160a01b0382166000908152600260209081526040808320805482518185028101850190935280835262000827938301828280156200081b57602002820191906000526020600020905b81546001600160a01b03168152600190910190602001808311620007fc575b50505050508362000a43565b905062000835838262000aab565b505050565b336000908152602081815260409182902080548351818402810184019094528084526060939283018282801562000368576020028201919060005260206000209081546001600160a01b0316815260019091019060200180831162000349575050505050905090565b60026020528160005260406000208181548110620004bc57600080fd5b6060600380548060200260200160405190810160405280929190818152602001828054801562000368576020028201919060005260206000209081546001600160a01b0316815260019091019060200180831162000349575050505050905090565b6000808a8a8a8a8a8a8a8a8a30600560009054906101000a90046001600160a01b0316604051620006419062000da7565b6001600160a01b03838116600090815260208181526040808320805460018101825590845291832090910180546001600160a01b031916938616939093179092553381522054620009e157600380546001810182556000919091527fc2575a0e9e593c00f959f8c92f12db2869c3395a3b0502d05e2516446f71f85b0180546001600160a01b031916331790555b6000620009ef858462000bf6565b9050620009fd858262000c84565b7f8c668468f058d750d3baa9e566a18d8b7d5da999586e24f37f2294af749b95fd3385858560405162000a349493929190620014db565b60405180910390a15050505050565b60008060005b845181101562000aa357836001600160a01b031685828151811062000a725762000a726200151b565b60200260200101516001600160a01b0316141562000a8e578091505b8062000a9a816200122d565b91505062000a49565b509392505050565b6001600160a01b038216600090815260026020526040902054811062000b0d5760405162461bcd60e51b81526020600482015260166024820152756275726e206661696c656420696e207265717569726560501b604482015260640162000608565b6001600160a01b0382166000908152600260205260409020805462000b359060019062001531565b8154811062000b485762000b486200151b565b60009182526020808320909101546001600160a01b0385811684526002909252604090922080549190921691908390811062000b885762000b886200151b565b600091825260208083209190910180546001600160a01b0319166001600160a01b03948516179055918416815260029091526040902080548062000bd05762000bd06200154b565b600082815260209020810160001990810180546001600160a01b03191690550190555050565b60008060005b6001600160a01b03851660009081526020819052604090205481101562000aa3576001600160a01b0385811660009081526020819052604090208054918616918390811062000c4f5762000c4f6200151b565b6000918252602090912001546001600160a01b0316141562000c6f578091505b8062000c7b816200122d565b91505062000bfc565b6001600160a01b038216600090815260208190526040902054811062000ce65760405162461bcd60e51b81526020600482015260166024820152756275726e206661696c656420696e207265717569726560501b604482015260640162000608565b6001600160a01b0382166000908152602081905260409020805462000d0e9060019062001531565b8154811062000d215762000d216200151b565b60009182526020808320909101546001600160a01b03858116845291839052604090922080549190921691908390811062000d605762000d606200151b565b600091825260208083209190910180546001600160a01b0319166001600160a01b039485161790559184168152908190526040902080548062000bd05762000bd06200154b565b61240c806200156283390190565b6020808252825182820181905260009190848201906040850190845b8181101562000df85783516001600160a01b03168352928401929184019160010162000dd1565b50909695505050505050565b6001600160a01b038116811462000e1a57600080fd5b50565b60006020828403121562000e3057600080fd5b813562000e3d8162000e04565b9392505050565b80356003811062000e5457600080fd5b919050565b634e487b7160e01b600052604160045260246000fd5b604051601f8201601f1916810167ffffffffffffffff8111828210171562000e9b5762000e9b62000e59565b604052919050565b600082601f83011262000eb557600080fd5b813567ffffffffffffffff81111562000ed25762000ed262000e59565b62000ee7601f8201601f191660200162000e6f565b81815284602083860101111562000efd57600080fd5b816020850160208301376000918101602001919091529392505050565b803561ffff8116811462000e5457600080fd5b600082601f83011262000f3f57600080fd5b8135602067ffffffffffffffff8083111562000f5f5762000f5f62000e59565b8260051b62000f7083820162000e6f565b938452858101830193838101908886111562000f8b57600080fd5b84880192505b8583101562000fcc5782358481111562000fab5760008081fd5b62000fbb8a87838c010162000ea3565b835250918401919084019062000f91565b98975050505050505050565b60008060008060008060008060006101208a8c03121562000ff857600080fd5b620010038a62000e44565b985060208a013567ffffffffffffffff808211156200102157600080fd5b6200102f8d838e0162000ea3565b995060408c01359150808211156200104657600080fd5b620010548d838e0162000ea3565b985060608c01359150808211156200106b57600080fd5b620010798d838e0162000ea3565b97506200108960808d0162000f1a565b965060a08c0135955060c08c0135915080821115620010a757600080fd5b620010b58d838e0162000ea3565b945060e08c0135915080821115620010cc57600080fd5b620010da8d838e0162000ea3565b93506101008c0135915080821115620010f257600080fd5b50620011018c828d0162000f2d565b9150509295985092959850929598565b600080604083850312156200112557600080fd5b8235620011328162000e04565b946020939093013593505050565b6000602082840312156200115357600080fd5b5035919050565b600080604083850312156200116e57600080fd5b82356200117b8162000e04565b915060208301356200118d8162000e04565b809150509250929050565b60008060008060808587031215620011af57600080fd5b8435620011bc8162000e04565b93506020850135620011ce8162000e04565b92506040850135620011e08162000e04565b9150606085013567ffffffffffffffff811115620011fd57600080fd5b6200120b8782880162000ea3565b91505092959194509250565b634e487b7160e01b600052601160045260246000fd5b600060001982141562001244576200124462001217565b5060010190565b6000602082840312156200125e57600080fd5b815162000e3d8162000e04565b600381106200128a57634e487b7160e01b600052602160045260246000fd5b9052565b6000815180845260005b81811015620012b65760208185018101518683018201520162001298565b81811115620012c9576000602083870101525b50601f01601f19169290920160200192915050565b600081518084526020808501808196508360051b8101915082860160005b858110156200132a578284038952620013178483516200128e565b98850198935090840190600101620012fc565b5091979650505050505050565b600061016062001348838f6200126b565b8060208401526200135c8184018e6200128e565b9050828103604084015262001372818d6200128e565b9050828103606084015262001388818c6200128e565b905061ffff8a1660808401528860a084015282810360c0840152620013ae81896200128e565b905082810360e0840152620013c481886200128e565b9050828103610100840152620013db8187620012de565b915050620013f56101208301856001600160a01b03169052565b6001600160a01b0383166101408301529c9b505050505050505050505050565b600061014062001426838e6200126b565b6001600160a01b038c166020840152604083018190526200144a8184018c6200128e565b9050828103606084015262001460818b6200128e565b9050828103608084015262001476818a6200128e565b905061ffff881660a08401528660c084015282810360e08401526200149c81876200128e565b9050828103610100840152620014b381866200128e565b9050828103610120840152620014ca8185620012de565b9d9c50505050505050505050505050565b6001600160a01b03858116825284811660208301528316604082015260806060820181905260009062001511908301846200128e565b9695505050505050565b634e487b7160e01b600052603260045260246000fd5b60008282101562001546576200154662001217565b500390565b634e487b7160e01b600052603160045260246000fdfe60806040523480156200001157600080fd5b506040516200240c3803806200240c8339810160408190526200003491620005d0565b6200003f336200024f565b600d80546001600160a01b0319166001600160a01b0384811691909117909155600c8054610100600160a81b03191661010092841692909202919091179055600180548c919060ff1916818360028111156200009f576200009f62000756565b02179055508951620000b99060029060208d01906200029f565b508851620000cf9060039060208c01906200029f565b508751620000e59060049060208b01906200029f565b506005805461ffff191661ffff891617905560068690558251620001119060079060208601906200032e565b50600c8054600160ff1990911681179182905560408051608081018252918252516331a9108f60e11b815260048101899052909160208301916101009091046001600160a01b031690636352211e90602401602060405180830381865afa15801562000181573d6000803e3d6000fd5b505050506040513d601f19601f82011682018060405250810190620001a791906200076c565b6001600160a01b03908116825260208083018890526040928301899052600c5460ff166000908152600b8252839020845181548684015190941662010000026001600160b01b031990941661ffff919091161792909217825591830151805191926200021c926001850192909101906200029f565b50606082015180516200023a9160028401916020909101906200029f565b509050505050505050505050505050620007ce565b600080546001600160a01b038381166001600160a01b0319831681178455604051919092169283917f8be0079c531659141344cd1fd0a4f28419497f9722a3daafe3b4186f6b6457e09190a35050565b828054620002ad9062000791565b90600052602060002090601f016020900481019282620002d157600085556200031c565b82601f10620002ec57805160ff19168380011785556200031c565b828001600101855582156200031c579182015b828111156200031c578251825591602001919060010190620002ff565b506200032a9291506200038e565b5090565b82805482825590600052602060002090810192821562000380579160200282015b828111156200038057825180516200036f9184916020909101906200029f565b50916020019190600101906200034f565b506200032a929150620003a5565b5b808211156200032a57600081556001016200038f565b808211156200032a576000620003bc8282620003c6565b50600101620003a5565b508054620003d49062000791565b6000825580601f10620003e5575050565b601f0160209004906000526020600020908101906200040591906200038e565b50565b8051600381106200041857600080fd5b919050565b634e487b7160e01b600052604160045260246000fd5b604051601f8201601f191681016001600160401b03811182821017156200045e576200045e6200041d565b604052919050565b600082601f8301126200047857600080fd5b81516001600160401b038111156200049457620004946200041d565b6020620004aa601f8301601f1916820162000433565b8281528582848701011115620004bf57600080fd5b60005b83811015620004df578581018301518282018401528201620004c2565b83811115620004f15760008385840101525b5095945050505050565b805161ffff811681146200041857600080fd5b600082601f8301126200052057600080fd5b815160206001600160401b03808311156200053f576200053f6200041d565b8260051b6200055083820162000433565b93845285810183019383810190888611156200056b57600080fd5b84880192505b85831015620005ac578251848111156200058b5760008081fd5b6200059b8a87838c010162000466565b835250918401919084019062000571565b98975050505050505050565b80516001600160a01b03811681146200041857600080fd5b60008060008060008060008060008060006101608c8e031215620005f357600080fd5b620005fe8c62000408565b60208d0151909b506001600160401b038111156200061b57600080fd5b620006298e828f0162000466565b60408e0151909b5090506001600160401b038111156200064857600080fd5b620006568e828f0162000466565b60608e0151909a5090506001600160401b038111156200067557600080fd5b620006838e828f0162000466565b9850506200069460808d01620004fb565b60a08d015160c08e015191985096506001600160401b03811115620006b857600080fd5b620006c68e828f0162000466565b60e08e015190965090506001600160401b03811115620006e557600080fd5b620006f38e828f0162000466565b6101008e015190955090506001600160401b038111156200071357600080fd5b620007218e828f016200050e565b935050620007336101208d01620005b8565b9150620007446101408d01620005b8565b90509295989b509295989b9093969950565b634e487b7160e01b600052602160045260246000fd5b6000602082840312156200077f57600080fd5b6200078a82620005b8565b9392505050565b600181811c90821680620007a657607f821691505b60208210811415620007c857634e487b7160e01b600052602260045260246000fd5b50919050565b611c2e80620007de6000396000f3fe60806040526004361061011f5760003560e01c806399e84ba2116100a0578063ea66eb3811610064578063ea66eb381461030d578063eb62df611461032d578063f2fde38b14610335578063fa4e28f614610355578063fcf3e5551461039857600080fd5b806399e84ba21461027b5780639d55e41a1461023d578063c42069ec1461029d578063debc2419146102bd578063e30c3978146102ed57600080fd5b806362d05c78116100e757806362d05c78146101f15780636f4cf18314610206578063715018a61461022857806388cb18fd1461023d5780638da5cb5b1461025d57600080fd5b80630db02622146101245780631fc45b00146101555780633a5e8a06146101925780634e1b623e146101c05780635767d534146101ca575b600080fd5b34801561013057600080fd5b50600c5461013e9060ff1681565b60405160ff90911681526020015b60405180910390f35b34801561016157600080fd5b50600c5461017a9061010090046001600160a01b031681565b6040516001600160a01b03909116815260200161014c565b34801561019e57600080fd5b506000546101b390600160a01b900460ff1681565b60405161014c919061164d565b6101c86103b8565b005b3480156101d657600080fd5b506101df61054f565b60405161014c969594939291906116ae565b3480156101fd57600080fd5b506101c8610717565b34801561021257600080fd5b5061021b61081f565b60405161014c919061170e565b34801561023457600080fd5b506101c8610a67565b34801561024957600080fd5b506101c861025836600461185c565b610a9d565b34801561026957600080fd5b506000546001600160a01b031661017a565b34801561028757600080fd5b50610290610aca565b60405161014c9190611899565b3480156102a957600080fd5b506101c86102b8366004611917565b610ba6565b3480156102c957600080fd5b506102dd6102d8366004611939565b610cb1565b60405161014c949392919061195d565b3480156102f957600080fd5b50600a5461017a906001600160a01b031681565b34801561031957600080fd5b506101c86103283660046119a8565b610dfa565b6101c86110a5565b34801561034157600080fd5b506101c8610350366004611917565b61131b565b34801561036157600080fd5b50600854600954610379916001600160a01b03169082565b604080516001600160a01b03909316835260208301919091520161014c565b3480156103a457600080fd5b50600d5461017a906001600160a01b031681565b600c5460ff166000908152600b60205260409020546201000090046001600160a01b03163314156104405760405162461bcd60e51b815260206004820152602760248201527f596f752063616e6e6f7420707572636861736520796f7572206f776e2050726f60448201526676656e616e636560c81b60648201526084015b60405180910390fd5b600034116104905760405162461bcd60e51b815260206004820152601960248201527f4f66666572206d7573742062652061626f7665203020776569000000000000006044820152606401610437565b60095434116104f85760405162461bcd60e51b815260206004820152602e60248201527f4f66666572206d7573742067726561746572207468616e2063757272656e742060448201526d39ba30b73234b7339037b33332b960911b6064820152608401610437565b600880546001600160a01b031916339081179091553460098190556040805192835260208301919091527fa0370a2f3ad08320e6280ae547e0f0d71569780fe26a66ff112424459d4f6a59910160405180910390a1565b600180546002805460ff909216929161056790611a1c565b80601f016020809104026020016040519081016040528092919081815260200182805461059390611a1c565b80156105e05780601f106105b5576101008083540402835291602001916105e0565b820191906000526020600020905b8154815290600101906020018083116105c357829003601f168201915b5050505050908060020180546105f590611a1c565b80601f016020809104026020016040519081016040528092919081815260200182805461062190611a1c565b801561066e5780601f106106435761010080835404028352916020019161066e565b820191906000526020600020905b81548152906001019060200180831161065157829003601f168201915b50505050509080600301805461068390611a1c565b80601f01602080910402602001604051908101604052809291908181526020018280546106af90611a1c565b80156106fc5780601f106106d1576101008083540402835291602001916106fc565b820191906000526020600020905b8154815290600101906020018083116106df57829003601f168201915b505050506004830154600590930154919261ffff1691905086565b6008546001600160a01b03163314806107525750600c5460ff166000908152600b60205260409020546201000090046001600160a01b031633145b61075b57600080fd5b60098054600880546001600160a01b0319811690915560009283905560405191926001600160a01b0390911691829084908381818185875af1925050503d80600081146107c4576040519150601f19603f3d011682016040523d82523d6000602084013e6107c9565b606091505b505090508061081a5760405162461bcd60e51b815260206004820152601960248201527f72657475726e207472616e73616374696f6e206661696c6564000000000000006044820152606401610437565b505050565b600c546060906000906108369060ff166001611a67565b60ff1667ffffffffffffffff811115610851576108516117b9565b6040519080825280602002602001820160405280156108a557816020015b604080516080810182526000808252602082015260609181018290528181019190915281526020019060019003908161086f5790505b50905060015b600c5460ff1661ffff821611610a615761ffff8181166000908152600b6020908152604091829020825160808101845281549485168152620100009094046001600160a01b031691840191909152600181018054919284019161090d90611a1c565b80601f016020809104026020016040519081016040528092919081815260200182805461093990611a1c565b80156109865780601f1061095b57610100808354040283529160200191610986565b820191906000526020600020905b81548152906001019060200180831161096957829003601f168201915b5050505050815260200160028201805461099f90611a1c565b80601f01602080910402602001604051908101604052809291908181526020018280546109cb90611a1c565b8015610a185780601f106109ed57610100808354040283529160200191610a18565b820191906000526020600020905b8154815290600101906020018083116109fb57829003601f168201915b505050505081525050828261ffff1681518110610a3757610a37611a8c565b6020026020010181905250610a4f8161ffff166113b3565b80610a5981611aa2565b9150506108ab565b50919050565b6000546001600160a01b03163314610a915760405162461bcd60e51b815260040161043790611ac4565b610a9b60006113f8565b565b6000546001600160a01b03163314610ac75760405162461bcd60e51b815260040161043790611ac4565b50565b60606001600601805480602002602001604051908101604052809291908181526020016000905b82821015610b9d578382906000526020600020018054610b1090611a1c565b80601f0160208091040260200160405190810160405280929190818152602001828054610b3c90611a1c565b8015610b895780601f10610b5e57610100808354040283529160200191610b89565b820191906000526020600020905b815481529060010190602001808311610b6c57829003601f168201915b505050505081526020019060010190610af1565b50505050905090565b600c5460ff166000908152600b60205260409020546201000090046001600160a01b0316331480610bf0575033610be56000546001600160a01b031690565b6001600160a01b0316145b610c325760405162461bcd60e51b81526020600482015260136024820152721bdb9b1e505d5d1a1bdc9a5e99590819985a5b606a1b6044820152606401610437565b600a80546001600160a01b0319166001600160a01b03838116918217909255600d54604051637e7675cf60e11b815260048101929092523060248301529091169063fceceb9e90604401600060405180830381600087803b158015610c9657600080fd5b505af1158015610caa573d6000803e3d6000fd5b5050505050565b600b602052600090815260409020805460018201805461ffff831693620100009093046001600160a01b0316929190610ce990611a1c565b80601f0160208091040260200160405190810160405280929190818152602001828054610d1590611a1c565b8015610d625780601f10610d3757610100808354040283529160200191610d62565b820191906000526020600020905b815481529060010190602001808311610d4557829003601f168201915b505050505090806002018054610d7790611a1c565b80601f0160208091040260200160405190810160405280929190818152602001828054610da390611a1c565b8015610df05780601f10610dc557610100808354040283529160200191610df0565b820191906000526020600020905b815481529060010190602001808311610dd357829003601f168201915b5050505050905084565b600a546001600160a01b03163314610e8a5760405162461bcd60e51b815260206004820152604760248201527f596f7520617265206e6f74207468652070656e64696e674f776e6572206f662060448201527f74686973206974656d20616e64207468657265666f72652063616e6e6f7420636064820152661b185a5b481a5d60ca1b608482015260a401610437565b600d5460405163f62ef2f360e01b81526001600160a01b039091169063f62ef2f390610ec0908690339030908790600401611af9565b600060405180830381600087803b158015610eda57600080fd5b505af1158015610eee573d6000803e3d6000fd5b5050600d5460405163923ae89d60e01b81523360048201523060248201526001600160a01b03909116925063923ae89d9150604401600060405180830381600087803b158015610f3d57600080fd5b505af1158015610f51573d6000803e3d6000fd5b5050600a80546001600160a01b03191690555050600c8054600090610f789060ff16611b37565b825460ff9182166101009390930a92830292820219169190911790915560408051608081018252600c54909216808352336020808501918252848401878152606086018790526000938452600b8252939092208451815492516001600160a01b031662010000026001600160b01b031990931661ffff91909116179190911781559151805161100d9260018501920190611592565b5060608201518051611029916002840191602090910190611592565b5050600c54600654604051632142170760e11b81526001600160a01b03878116600483015233602483015260448201929092526101009092041691506342842e0e90606401600060405180830381600087803b15801561108857600080fd5b505af115801561109c573d6000803e3d6000fd5b50505050505050565b600c5460ff166000908152600b60205260409020546201000090046001600160a01b031633146110d457600080fd5b60095461111a5760405162461bcd60e51b815260206004820152601460248201527304f666665722069732063757272656e746c7920360641b6044820152606401610437565b600d546008546001600160a01b039182169163f62ef2f3913391163061113f42611448565b6040518563ffffffff1660e01b815260040161115e9493929190611af9565b600060405180830381600087803b15801561117857600080fd5b505af115801561118c573d6000803e3d6000fd5b5050600c8054909250600091506111a59060ff16611b37565b82546101009290920a60ff81810219909316918316021790915560408051608081018252600c5490921682526008546001600160a01b03166020808401919091528151606081018352602e808252928401929091611bcb90830139815260200161120e42611448565b9052600c5460ff166000908152600b602090815260409182902083518154858401516001600160a01b031662010000026001600160b01b031990911661ffff929092169190911717815591830151805161126e9260018501920190611592565b506060820151805161128a916002840191602090910190611592565b5050600c54600854600654604051632142170760e11b81523360048201526001600160a01b03928316602482015260448101919091526101009092041691506342842e0e90606401600060405180830381600087803b1580156112ec57600080fd5b505af1158015611300573d6000803e3d6000fd5b5050600880546001600160a01b031916905550506000600955565b6000546001600160a01b031633146113455760405162461bcd60e51b815260040161043790611ac4565b6001600160a01b0381166113aa5760405162461bcd60e51b815260206004820152602660248201527f4f776e61626c653a206e6577206f776e657220697320746865207a65726f206160448201526564647265737360d01b6064820152608401610437565b610ac7816113f8565b610ac7816040516024016113c991815260200190565b60408051601f198184030181529190526020810180516001600160e01b031663f5b1bba960e01b179052611571565b600080546001600160a01b038381166001600160a01b0319831681178455604051919092169283917f8be0079c531659141344cd1fd0a4f28419497f9722a3daafe3b4186f6b6457e09190a35050565b60608161146c5750506040805180820190915260018152600360fc1b602082015290565b8160005b8115611496578061148081611b57565b915061148f9050600a83611b72565b9150611470565b60008167ffffffffffffffff8111156114b1576114b16117b9565b6040519080825280601f01601f1916602001820160405280156114db576020820181803683370190505b509050815b8515611568576114f1600182611b94565b90506000611500600a88611b72565b61150b90600a611bab565b6115159088611b94565b611520906030611a67565b905060008160f81b90508084848151811061153d5761153d611a8c565b60200101906001600160f81b031916908160001a90535061155f600a89611b72565b975050506114e0565b50949350505050565b80516a636f6e736f6c652e6c6f67602083016000808483855afa5050505050565b82805461159e90611a1c565b90600052602060002090601f0160209004810192826115c05760008555611606565b82601f106115d957805160ff1916838001178555611606565b82800160010185558215611606579182015b828111156116065782518255916020019190600101906115eb565b50611612929150611616565b5090565b5b808211156116125760008155600101611617565b6003811061164957634e487b7160e01b600052602160045260246000fd5b9052565b6020810161165b828461162b565b92915050565b6000815180845260005b818110156116875760208185018101518683018201520161166b565b81811115611699576000602083870101525b50601f01601f19169290920160200192915050565b6116b8818861162b565b60c0602082015260006116ce60c0830188611661565b82810360408401526116e08188611661565b905082810360608401526116f48187611661565b61ffff959095166080840152505060a00152949350505050565b60006020808301818452808551808352604092508286019150828160051b87010184880160005b838110156117ab57888303603f190185528151805161ffff168452878101516001600160a01b0316888501528681015160808886018190529061177a82870182611661565b915050606080830151925085820381870152506117978183611661565b968901969450505090860190600101611735565b509098975050505050505050565b634e487b7160e01b600052604160045260246000fd5b600082601f8301126117e057600080fd5b813567ffffffffffffffff808211156117fb576117fb6117b9565b604051601f8301601f19908116603f01168101908282118183101715611823576118236117b9565b8160405283815286602085880101111561183c57600080fd5b836020870160208301376000602085830101528094505050505092915050565b60006020828403121561186e57600080fd5b813567ffffffffffffffff81111561188557600080fd5b611891848285016117cf565b949350505050565b6000602080830181845280855180835260408601915060408160051b870101925083870160005b828110156118ee57603f198886030184526118dc858351611661565b945092850192908501906001016118c0565b5092979650505050505050565b80356001600160a01b038116811461191257600080fd5b919050565b60006020828403121561192957600080fd5b611932826118fb565b9392505050565b60006020828403121561194b57600080fd5b813561ffff8116811461193257600080fd5b61ffff851681526001600160a01b038416602082015260806040820181905260009061198b90830185611661565b828103606084015261199d8185611661565b979650505050505050565b6000806000606084860312156119bd57600080fd5b6119c6846118fb565b9250602084013567ffffffffffffffff808211156119e357600080fd5b6119ef878388016117cf565b93506040860135915080821115611a0557600080fd5b50611a12868287016117cf565b9150509250925092565b600181811c90821680611a3057607f821691505b60208210811415610a6157634e487b7160e01b600052602260045260246000fd5b634e487b7160e01b600052601160045260246000fd5b600060ff821660ff84168060ff03821115611a8457611a84611a51565b019392505050565b634e487b7160e01b600052603260045260246000fd5b600061ffff80831681811415611aba57611aba611a51565b6001019392505050565b6020808252818101527f4f776e61626c653a2063616c6c6572206973206e6f7420746865206f776e6572604082015260600190565b6001600160a01b038581168252848116602083015283166040820152608060608201819052600090611b2d90830184611661565b9695505050505050565b600060ff821660ff811415611b4e57611b4e611a51565b60010192915050565b6000600019821415611b6b57611b6b611a51565b5060010190565b600082611b8f57634e487b7160e01b600052601260045260246000fd5b500490565b600082821015611ba657611ba6611a51565b500390565b6000816000190483118215151615611bc557611bc5611a51565b50029056fe516d50684e6d3668696b4e5754535836416748756631426b625a6273586d4b4b456b4451526a52636477374b5a6ba26469706673582212206bbdcb6ed1451f1391e67e6d48c8be0f05ac25ceeffef37956ada71f1fd8ceea64736f6c634300080a0033a264697066735822122011484dfac9d69e9f69e01bbca64104a419456a6f2373294cb00da67fc2b0e27a64736f6c634300080a0033",
  "linkReferences": {},
  "deployedLinkReferences": {}
}