{
  "_format": "hh-sol-artifact-1",
  "contractName": "Mothership",
  "sourceName": "contracts/Mothership.sol",
  "abi": [
    {
      "inputs": [
        {
          "internalType": "address",
          "name": "_tokenAddress",
          "type": "address"
        }
      ],
      "stateMutability": "nonpayable",
      "type": "constructor"
    },
    {
      "anonymous": false,
      "inputs": [
        {
          "indexed": false,
          "internalType": "enum Provenance.Types",
          "name": "_enumType",
          "type": "uint8"
        },
        {
          "indexed": false,
          "internalType": "address",
          "name": "childAddress",
          "type": "address"
        },
        {
          "indexed": false,
          "internalType": "string",
          "name": "serial",
          "type": "string"
        },
        {
          "indexed": false,
          "internalType": "string",
          "name": "brand",
          "type": "string"
        },
        {
          "indexed": false,
          "internalType": "string",
          "name": "model",
          "type": "string"
        },
        {
          "indexed": false,
          "internalType": "uint16",
          "name": "year",
          "type": "uint16"
        },
        {
          "indexed": false,
          "internalType": "uint256",
          "name": "instrumentDeedToken",
          "type": "uint256"
        },
        {
          "indexed": false,
          "internalType": "string",
          "name": "date",
          "type": "string"
        },
        {
          "indexed": false,
          "internalType": "string",
          "name": "verificationPhotoHash",
          "type": "string"
        },
        {
          "indexed": false,
          "internalType": "string[]",
          "name": "instrumentPhotoHashes",
          "type": "string[]"
        }
      ],
      "name": "ProvenanceCreated",
      "type": "event"
    },
    {
      "anonymous": false,
      "inputs": [
        {
          "indexed": false,
          "internalType": "address",
          "name": "seller",
          "type": "address"
        },
        {
          "indexed": false,
          "internalType": "address",
          "name": "buyer",
          "type": "address"
        },
        {
          "indexed": false,
          "internalType": "address",
          "name": "provenanaceAddress",
          "type": "address"
        },
        {
          "indexed": false,
          "internalType": "string",
          "name": "date",
          "type": "string"
        }
      ],
      "name": "ProvenanceSale",
      "type": "event"
    },
    {
      "inputs": [
        {
          "internalType": "enum Provenance.Types",
          "name": "_enumType",
          "type": "uint8"
        },
        {
          "internalType": "string",
          "name": "_serial",
          "type": "string"
        },
        {
          "internalType": "string",
          "name": "_brand",
          "type": "string"
        },
        {
          "internalType": "string",
          "name": "_model",
          "type": "string"
        },
        {
          "internalType": "uint16",
          "name": "_year",
          "type": "uint16"
        },
        {
          "internalType": "uint256",
          "name": "_instrumentDeedToken",
          "type": "uint256"
        },
        {
          "internalType": "string",
          "name": "_date",
          "type": "string"
        },
        {
          "internalType": "string",
          "name": "_verificationPhotoHash",
          "type": "string"
        },
        {
          "internalType": "string[]",
          "name": "_instrumentPhotoHashes",
          "type": "string[]"
        }
      ],
      "name": "createBatchProvenances",
      "outputs": [],
      "stateMutability": "nonpayable",
      "type": "function"
    },
    {
      "inputs": [
        {
          "internalType": "enum Provenance.Types",
          "name": "_enumType",
          "type": "uint8"
        },
        {
          "internalType": "string",
          "name": "_serial",
          "type": "string"
        },
        {
          "internalType": "string",
          "name": "_brand",
          "type": "string"
        },
        {
          "internalType": "string",
          "name": "_model",
          "type": "string"
        },
        {
          "internalType": "uint16",
          "name": "_year",
          "type": "uint16"
        },
        {
          "internalType": "uint256",
          "name": "_instrumentDeedToken",
          "type": "uint256"
        },
        {
          "internalType": "string",
          "name": "_date",
          "type": "string"
        },
        {
          "internalType": "string",
          "name": "_verificationPhotoHash",
          "type": "string"
        },
        {
          "internalType": "string[]",
          "name": "_instrumentPhotoHashes",
          "type": "string[]"
        }
      ],
      "name": "createNewProvenance",
      "outputs": [
        {
          "internalType": "address",
          "name": "",
          "type": "address"
        }
      ],
      "stateMutability": "nonpayable",
      "type": "function"
    },
    {
      "inputs": [
        {
          "internalType": "enum Provenance.Types",
          "name": "_enumType",
          "type": "uint8"
        },
        {
          "internalType": "string",
          "name": "_serial",
          "type": "string"
        },
        {
          "internalType": "string",
          "name": "_brand",
          "type": "string"
        },
        {
          "internalType": "string",
          "name": "_model",
          "type": "string"
        },
        {
          "internalType": "uint16",
          "name": "_year",
          "type": "uint16"
        },
        {
          "internalType": "uint256",
          "name": "_instrumentDeedToken",
          "type": "uint256"
        },
        {
          "internalType": "string",
          "name": "_date",
          "type": "string"
        },
        {
          "internalType": "string",
          "name": "_verificationPhotoHash",
          "type": "string"
        },
        {
          "internalType": "string[]",
          "name": "_instrumentPhotoHashes",
          "type": "string[]"
        }
      ],
      "name": "createPracticeProvenance",
      "outputs": [
        {
          "internalType": "address",
          "name": "",
          "type": "address"
        }
      ],
      "stateMutability": "nonpayable",
      "type": "function"
    },
    {
      "inputs": [],
      "name": "getAllProvenances",
      "outputs": [
        {
          "internalType": "contract Provenance[]",
          "name": "",
          "type": "address[]"
        }
      ],
      "stateMutability": "view",
      "type": "function"
    },
    {
      "inputs": [],
      "name": "getOwners",
      "outputs": [
        {
          "internalType": "address[]",
          "name": "",
          "type": "address[]"
        }
      ],
      "stateMutability": "view",
      "type": "function"
    },
    {
      "inputs": [],
      "name": "getOwnersInstruments",
      "outputs": [
        {
          "internalType": "contract Provenance[]",
          "name": "",
          "type": "address[]"
        }
      ],
      "stateMutability": "view",
      "type": "function"
    },
    {
      "inputs": [
        {
          "internalType": "address",
          "name": "buyer",
          "type": "address"
        }
      ],
      "name": "getPendingTransfersOfBuyer",
      "outputs": [
        {
          "internalType": "address[]",
          "name": "",
          "type": "address[]"
        }
      ],
      "stateMutability": "view",
      "type": "function"
    },
    {
      "inputs": [],
      "name": "instrumentDeedTokenContract",
      "outputs": [
        {
          "internalType": "contract InstrumentDeedToken",
          "name": "",
          "type": "address"
        }
      ],
      "stateMutability": "view",
      "type": "function"
    },
    {
      "inputs": [
        {
          "internalType": "uint256",
          "name": "",
          "type": "uint256"
        }
      ],
      "name": "ownerArray",
      "outputs": [
        {
          "internalType": "address",
          "name": "",
          "type": "address"
        }
      ],
      "stateMutability": "view",
      "type": "function"
    },
    {
      "inputs": [
        {
          "internalType": "address",
          "name": "",
          "type": "address"
        },
        {
          "internalType": "uint256",
          "name": "",
          "type": "uint256"
        }
      ],
      "name": "ownersToAxes",
      "outputs": [
        {
          "internalType": "contract Provenance",
          "name": "",
          "type": "address"
        }
      ],
      "stateMutability": "view",
      "type": "function"
    },
    {
      "inputs": [
        {
          "internalType": "address",
          "name": "",
          "type": "address"
        },
        {
          "internalType": "uint256",
          "name": "",
          "type": "uint256"
        }
      ],
      "name": "pendingTransfers",
      "outputs": [
        {
          "internalType": "address",
          "name": "",
          "type": "address"
        }
      ],
      "stateMutability": "view",
      "type": "function"
    },
    {
      "inputs": [
        {
          "internalType": "address",
          "name": "",
          "type": "address"
        }
      ],
      "name": "provenanceVerify",
      "outputs": [
        {
          "internalType": "bool",
          "name": "",
          "type": "bool"
        }
      ],
      "stateMutability": "view",
      "type": "function"
    },
    {
      "inputs": [
        {
          "internalType": "address",
          "name": "buyer",
          "type": "address"
        },
        {
          "internalType": "address",
          "name": "provenance",
          "type": "address"
        }
      ],
      "name": "removePendingTransfer",
      "outputs": [],
      "stateMutability": "nonpayable",
      "type": "function"
    },
    {
      "inputs": [
        {
          "internalType": "address",
          "name": "buyer",
          "type": "address"
        },
        {
          "internalType": "address",
          "name": "provenanceAddress",
          "type": "address"
        }
      ],
      "name": "setPendingTransfer",
      "outputs": [],
      "stateMutability": "nonpayable",
      "type": "function"
    },
    {
      "inputs": [
        {
          "internalType": "address",
          "name": "seller",
          "type": "address"
        },
        {
          "internalType": "address",
          "name": "buyer",
          "type": "address"
        },
        {
          "internalType": "contract Provenance",
          "name": "provenanceSold",
          "type": "address"
        },
        {
          "internalType": "string",
          "name": "date",
          "type": "string"
        }
      ],
      "name": "updateOnProvenanceSale",
      "outputs": [],
      "stateMutability": "nonpayable",
      "type": "function"
    }
  ],
  "bytecode": "0x608060405234801561001057600080fd5b5060405161384d38038061384d83398101604081905261002f91610054565b600480546001600160a01b0319166001600160a01b0392909216919091179055610084565b60006020828403121561006657600080fd5b81516001600160a01b038116811461007d57600080fd5b9392505050565b6137ba806100936000396000f3fe60806040523480156200001157600080fd5b5060043610620001095760003560e01c806380fedcd411620000a3578063a0e67e2b116200006e578063a0e67e2b1462000241578063b7b03ccc146200024b578063f62ef2f31462000262578063fceceb9e146200027957600080fd5b806380fedcd414620001f2578063923ae89d146200020957806396a5f1f614620002205780639ec67aca146200022a57600080fd5b806341e75ea911620000e457806341e75ea9146200017457806352c0ece3146200018d57806353d01fcb14620001a4578063686cfb9e14620001db57600080fd5b80631694d95e146200010e5780631fc45b00146200013057806320c90855146200015d575b600080fd5b62000118620002c8565b60405162000127919062000c89565b60405180910390f35b60045462000144906001600160a01b031681565b6040516001600160a01b03909116815260200162000127565b620001186200016e36600462000cee565b62000301565b6200018b6200018536600462000ea9565b62000379565b005b620001446200019e36600462000fe2565b620003ba565b620001ca620001b536600462000cee565b60016020526000908152604090205460ff1681565b604051901515815260200162000127565b62000144620001ec36600462001011565b620003f3565b620001446200020336600462000ea9565b6200041e565b6200018b6200021a3660046200102b565b62000667565b62000118620006f2565b620001446200023b36600462000fe2565b6200075d565b620001186200077a565b620001446200025c36600462000ea9565b620007dc565b6200018b6200027336600462001069565b6200080d565b6200018b6200028a3660046200102b565b6001600160a01b0391821660009081526002602090815260408220805460018101825590835291200180546001600160a01b03191691909216179055565b60608060005b6003548111620002fb576060620002e582620008ab565b5080620002f281620010fe565b915050620002ce565b50919050565b6001600160a01b0381166000908152600260209081526040918290208054835181840281018401909452808452606093928301828280156200036d57602002820191906000526020600020905b81546001600160a01b031681526001909101906020018083116200034e575b50505050509050919050565b60005b600a8111620003ae57620003988a8a8a8a8a8a8a8a8a620007dc565b5080620003a581620010fe565b9150506200037c565b50505050505050505050565b60006020528160005260406000208181548110620003d757600080fd5b6000918252602090912001546001600160a01b03169150829050565b600381815481106200040457600080fd5b6000918252602090912001546001600160a01b0316905081565b600480546040516331a9108f60e11b81529182018690526000916001600160a01b0390911690636352211e90602401602060405180830381865afa1580156200046b573d6000803e3d6000fd5b505050506040513d601f19601f820116820180604052508101906200049191906200111c565b6001600160a01b0316336001600160a01b0316146200051d5760405162461bcd60e51b815260206004820152603b60248201527f596f7520617265206e6f7420746865206f776e6572206f66207468652044656560448201527f6420546f6b656e20666f72207468697320696e737472756d656e74000000000060648201526084015b60405180910390fd5b60008a8a8a8a8a8a8a8a8a30600460009054906101000a90046001600160a01b03166040516200054d9062000c7b565b620005639b9a9998979695949392919062001208565b604051809103906000f08015801562000580573d6000803e3d6000fd5b50336000818152602081815260408083208054600181810183559185528385200180546001600160a01b0388166001600160a01b03199182168117909255600380548085019091557fc2575a0e9e593c00f959f8c92f12db2869c3395a3b0502d05e2516446f71f85b0180549091169096179095559383529083905290819020805460ff1916909217909155519091507f84ece05d4f03373bb3cbb663d2a48969c9c26a2e8107596f37cafb622c0e0d269062000651908d9084908e908e908e908e908e908e908e908e90620012e6565b60405180910390a19a9950505050505050505050565b6001600160a01b03821660009081526002602090815260408083208054825181850281018501909352808352620006df93830182828015620006d357602002820191906000526020600020905b81546001600160a01b03168152600190910190602001808311620006b4575b505050505083620008f6565b9050620006ed83826200095e565b505050565b33600090815260208181526040918290208054835181840281018401909452808452606093928301828280156200075357602002820191906000526020600020905b81546001600160a01b0316815260019091019060200180831162000734575b5050505050905090565b60026020528160005260406000208181548110620003d757600080fd5b6060600380548060200260200160405190810160405280929190818152602001828054801562000753576020028201919060005260206000209081546001600160a01b0316815260019091019060200180831162000734575050505050905090565b6000808a8a8a8a8a8a8a8a8a30600460009054906101000a90046001600160a01b03166040516200054d9062000c7b565b6001600160a01b03838116600090815260208181526040822080546001810182559083529082200180546001600160a01b0319169285169290921790915562000857858462000aa9565b905062000865858262000b37565b7f8c668468f058d750d3baa9e566a18d8b7d5da999586e24f37f2294af749b95fd338585856040516200089c9493929190620013ac565b60405180910390a15050505050565b620008f381604051602401620008c391815260200190565b60408051601f198184030181529190526020810180516001600160e01b031663f5b1bba960e01b17905262000c5a565b50565b60008060005b84518110156200095657836001600160a01b0316858281518110620009255762000925620013ec565b60200260200101516001600160a01b0316141562000941578091505b806200094d81620010fe565b915050620008fc565b509392505050565b6001600160a01b0382166000908152600260205260409020548110620009c05760405162461bcd60e51b81526020600482015260166024820152756275726e206661696c656420696e207265717569726560501b604482015260640162000514565b6001600160a01b03821660009081526002602052604090208054620009e89060019062001402565b81548110620009fb57620009fb620013ec565b60009182526020808320909101546001600160a01b0385811684526002909252604090922080549190921691908390811062000a3b5762000a3b620013ec565b600091825260208083209190910180546001600160a01b0319166001600160a01b03948516179055918416815260029091526040902080548062000a835762000a836200141c565b600082815260209020810160001990810180546001600160a01b03191690550190555050565b60008060005b6001600160a01b03851660009081526020819052604090205481101562000956576001600160a01b0385811660009081526020819052604090208054918616918390811062000b025762000b02620013ec565b6000918252602090912001546001600160a01b0316141562000b22578091505b8062000b2e81620010fe565b91505062000aaf565b6001600160a01b038216600090815260208190526040902054811062000b995760405162461bcd60e51b81526020600482015260166024820152756275726e206661696c656420696e207265717569726560501b604482015260640162000514565b6001600160a01b0382166000908152602081905260409020805462000bc19060019062001402565b8154811062000bd45762000bd4620013ec565b60009182526020808320909101546001600160a01b03858116845291839052604090922080549190921691908390811062000c135762000c13620013ec565b600091825260208083209190910180546001600160a01b0319166001600160a01b039485161790559184168152908190526040902080548062000a835762000a836200141c565b80516a636f6e736f6c652e6c6f67602083016000808483855afa5050505050565b612352806200143383390190565b6020808252825182820181905260009190848201906040850190845b8181101562000ccc5783516001600160a01b03168352928401929184019160010162000ca5565b50909695505050505050565b6001600160a01b0381168114620008f357600080fd5b60006020828403121562000d0157600080fd5b813562000d0e8162000cd8565b9392505050565b80356003811062000d2557600080fd5b919050565b634e487b7160e01b600052604160045260246000fd5b604051601f8201601f1916810167ffffffffffffffff8111828210171562000d6c5762000d6c62000d2a565b604052919050565b600082601f83011262000d8657600080fd5b813567ffffffffffffffff81111562000da35762000da362000d2a565b62000db8601f8201601f191660200162000d40565b81815284602083860101111562000dce57600080fd5b816020850160208301376000918101602001919091529392505050565b803561ffff8116811462000d2557600080fd5b600082601f83011262000e1057600080fd5b8135602067ffffffffffffffff8083111562000e305762000e3062000d2a565b8260051b62000e4183820162000d40565b938452858101830193838101908886111562000e5c57600080fd5b84880192505b8583101562000e9d5782358481111562000e7c5760008081fd5b62000e8c8a87838c010162000d74565b835250918401919084019062000e62565b98975050505050505050565b60008060008060008060008060006101208a8c03121562000ec957600080fd5b62000ed48a62000d15565b985060208a013567ffffffffffffffff8082111562000ef257600080fd5b62000f008d838e0162000d74565b995060408c013591508082111562000f1757600080fd5b62000f258d838e0162000d74565b985060608c013591508082111562000f3c57600080fd5b62000f4a8d838e0162000d74565b975062000f5a60808d0162000deb565b965060a08c0135955060c08c013591508082111562000f7857600080fd5b62000f868d838e0162000d74565b945060e08c013591508082111562000f9d57600080fd5b62000fab8d838e0162000d74565b93506101008c013591508082111562000fc357600080fd5b5062000fd28c828d0162000dfe565b9150509295985092959850929598565b6000806040838503121562000ff657600080fd5b8235620010038162000cd8565b946020939093013593505050565b6000602082840312156200102457600080fd5b5035919050565b600080604083850312156200103f57600080fd5b82356200104c8162000cd8565b915060208301356200105e8162000cd8565b809150509250929050565b600080600080608085870312156200108057600080fd5b84356200108d8162000cd8565b935060208501356200109f8162000cd8565b92506040850135620010b18162000cd8565b9150606085013567ffffffffffffffff811115620010ce57600080fd5b620010dc8782880162000d74565b91505092959194509250565b634e487b7160e01b600052601160045260246000fd5b6000600019821415620011155762001115620010e8565b5060010190565b6000602082840312156200112f57600080fd5b815162000d0e8162000cd8565b600381106200115b57634e487b7160e01b600052602160045260246000fd5b9052565b6000815180845260005b81811015620011875760208185018101518683018201520162001169565b818111156200119a576000602083870101525b50601f01601f19169290920160200192915050565b600081518084526020808501808196508360051b8101915082860160005b85811015620011fb578284038952620011e88483516200115f565b98850198935090840190600101620011cd565b5091979650505050505050565b600061016062001219838f6200113c565b8060208401526200122d8184018e6200115f565b9050828103604084015262001243818d6200115f565b9050828103606084015262001259818c6200115f565b905061ffff8a1660808401528860a084015282810360c08401526200127f81896200115f565b905082810360e08401526200129581886200115f565b9050828103610100840152620012ac8187620011af565b915050620012c66101208301856001600160a01b03169052565b6001600160a01b0383166101408301529c9b505050505050505050505050565b6000610140620012f7838e6200113c565b6001600160a01b038c166020840152604083018190526200131b8184018c6200115f565b9050828103606084015262001331818b6200115f565b9050828103608084015262001347818a6200115f565b905061ffff881660a08401528660c084015282810360e08401526200136d81876200115f565b90508281036101008401526200138481866200115f565b90508281036101208401526200139b8185620011af565b9d9c50505050505050505050505050565b6001600160a01b038581168252848116602083015283166040820152608060608201819052600090620013e2908301846200115f565b9695505050505050565b634e487b7160e01b600052603260045260246000fd5b600082821015620014175762001417620010e8565b500390565b634e487b7160e01b600052603160045260246000fdfe60806040523480156200001157600080fd5b5060405162002352380380620023528339810160408190526200003491620005bb565b6200003f336200023a565b600d80546001600160a01b038085166001600160a01b031992831617909255600c805492841692909116919091179055600180548c919060ff19168183600281111562000090576200009062000741565b02179055508951620000aa9060029060208d01906200028a565b508851620000c09060039060208c01906200028a565b508751620000d69060049060208b01906200028a565b506005805461ffff191661ffff8916179055600686905582516200010290600790602086019062000319565b506009805460ff1916600190811790915560408051608081018252918252600c5490516331a9108f60e11b81526004810189905260208301916001600160a01b031690636352211e90602401602060405180830381865afa1580156200016c573d6000803e3d6000fd5b505050506040513d601f19601f8201168201806040525081019062000192919062000757565b6001600160a01b0390811682526020808301889052604092830189905260095460ff16600090815260088252839020845181548684015190941662010000026001600160b01b031990941661ffff9190911617929092178255918301518051919262000207926001850192909101906200028a565b5060608201518051620002259160028401916020909101906200028a565b509050505050505050505050505050620007b9565b600080546001600160a01b038381166001600160a01b0319831681178455604051919092169283917f8be0079c531659141344cd1fd0a4f28419497f9722a3daafe3b4186f6b6457e09190a35050565b82805462000298906200077c565b90600052602060002090601f016020900481019282620002bc576000855562000307565b82601f10620002d757805160ff191683800117855562000307565b8280016001018555821562000307579182015b8281111562000307578251825591602001919060010190620002ea565b506200031592915062000379565b5090565b8280548282559060005260206000209081019282156200036b579160200282015b828111156200036b57825180516200035a9184916020909101906200028a565b50916020019190600101906200033a565b506200031592915062000390565b5b808211156200031557600081556001016200037a565b8082111562000315576000620003a78282620003b1565b5060010162000390565b508054620003bf906200077c565b6000825580601f10620003d0575050565b601f016020900490600052602060002090810190620003f0919062000379565b50565b8051600381106200040357600080fd5b919050565b634e487b7160e01b600052604160045260246000fd5b604051601f8201601f191681016001600160401b038111828210171562000449576200044962000408565b604052919050565b600082601f8301126200046357600080fd5b81516001600160401b038111156200047f576200047f62000408565b602062000495601f8301601f191682016200041e565b8281528582848701011115620004aa57600080fd5b60005b83811015620004ca578581018301518282018401528201620004ad565b83811115620004dc5760008385840101525b5095945050505050565b805161ffff811681146200040357600080fd5b600082601f8301126200050b57600080fd5b815160206001600160401b03808311156200052a576200052a62000408565b8260051b6200053b8382016200041e565b93845285810183019383810190888611156200055657600080fd5b84880192505b858310156200059757825184811115620005765760008081fd5b620005868a87838c010162000451565b83525091840191908401906200055c565b98975050505050505050565b80516001600160a01b03811681146200040357600080fd5b60008060008060008060008060008060006101608c8e031215620005de57600080fd5b620005e98c620003f3565b60208d0151909b506001600160401b038111156200060657600080fd5b620006148e828f0162000451565b60408e0151909b5090506001600160401b038111156200063357600080fd5b620006418e828f0162000451565b60608e0151909a5090506001600160401b038111156200066057600080fd5b6200066e8e828f0162000451565b9850506200067f60808d01620004e6565b60a08d015160c08e015191985096506001600160401b03811115620006a357600080fd5b620006b18e828f0162000451565b60e08e015190965090506001600160401b03811115620006d057600080fd5b620006de8e828f0162000451565b6101008e015190955090506001600160401b03811115620006fe57600080fd5b6200070c8e828f01620004f9565b9350506200071e6101208d01620005a3565b91506200072f6101408d01620005a3565b90509295989b509295989b9093969950565b634e487b7160e01b600052602160045260246000fd5b6000602082840312156200076a57600080fd5b6200077582620005a3565b9392505050565b600181811c908216806200079157607f821691505b60208210811415620007b357634e487b7160e01b600052602260045260246000fd5b50919050565b611b8980620007c96000396000f3fe60806040526004361061011f5760003560e01c806399e84ba2116100a0578063ea66eb3811610064578063ea66eb381461030d578063eb62df611461032d578063f2fde38b14610335578063fa4e28f614610355578063fcf3e5551461039857600080fd5b806399e84ba2146102765780639d55e41a14610238578063c42069ec14610298578063debc2419146102b8578063e30c3978146102e857600080fd5b806362d05c78116100e757806362d05c78146101ec5780636f4cf18314610201578063715018a61461022357806388cb18fd146102385780638da5cb5b1461025857600080fd5b80630db02622146101245780631fc45b00146101555780633a5e8a061461018d5780634e1b623e146101bb5780635767d534146101c5575b600080fd5b34801561013057600080fd5b5060095461013e9060ff1681565b60405160ff90911681526020015b60405180910390f35b34801561016157600080fd5b50600c54610175906001600160a01b031681565b6040516001600160a01b03909116815260200161014c565b34801561019957600080fd5b506000546101ae90600160a01b900460ff1681565b60405161014c91906115d6565b6101c36103b8565b005b3480156101d157600080fd5b506101da610510565b60405161014c96959493929190611637565b3480156101f857600080fd5b506101c36106d8565b34801561020d57600080fd5b506102166107e0565b60405161014c9190611697565b34801561022f57600080fd5b506101c3610a28565b34801561024457600080fd5b506101c36102533660046117e5565b610a5e565b34801561026457600080fd5b506000546001600160a01b0316610175565b34801561028257600080fd5b5061028b610a8b565b60405161014c9190611822565b3480156102a457600080fd5b506101c36102b33660046118a0565b610b67565b3480156102c457600080fd5b506102d86102d33660046118c2565b610c78565b60405161014c94939291906118e6565b3480156102f457600080fd5b506009546101759061010090046001600160a01b031681565b34801561031957600080fd5b506101c3610328366004611931565b610dc1565b6101c361106c565b34801561034157600080fd5b506101c36103503660046118a0565b6112a4565b34801561036157600080fd5b50600a54600b54610379916001600160a01b03169082565b604080516001600160a01b03909316835260208301919091520161014c565b3480156103a457600080fd5b50600d54610175906001600160a01b031681565b60095460ff166000908152600860205260409020546201000090046001600160a01b03163314156104405760405162461bcd60e51b815260206004820152602760248201527f596f752063616e6e6f7420707572636861736520796f7572206f776e2050726f60448201526676656e616e636560c81b60648201526084015b60405180910390fd5b600034116104905760405162461bcd60e51b815260206004820152601960248201527f4f66666572206d7573742062652061626f7665203020776569000000000000006044820152606401610437565b600b5434116104f85760405162461bcd60e51b815260206004820152602e60248201527f4f66666572206d7573742067726561746572207468616e2063757272656e742060448201526d39ba30b73234b7339037b33332b960911b6064820152608401610437565b600a80546001600160a01b0319163317905534600b55565b600180546002805460ff9092169291610528906119a5565b80601f0160208091040260200160405190810160405280929190818152602001828054610554906119a5565b80156105a15780601f10610576576101008083540402835291602001916105a1565b820191906000526020600020905b81548152906001019060200180831161058457829003601f168201915b5050505050908060020180546105b6906119a5565b80601f01602080910402602001604051908101604052809291908181526020018280546105e2906119a5565b801561062f5780601f106106045761010080835404028352916020019161062f565b820191906000526020600020905b81548152906001019060200180831161061257829003601f168201915b505050505090806003018054610644906119a5565b80601f0160208091040260200160405190810160405280929190818152602001828054610670906119a5565b80156106bd5780601f10610692576101008083540402835291602001916106bd565b820191906000526020600020905b8154815290600101906020018083116106a057829003601f168201915b505050506004830154600590930154919261ffff1691905086565b600a546001600160a01b0316331480610713575060095460ff166000908152600860205260409020546201000090046001600160a01b031633145b61071c57600080fd5b600b8054600a80546001600160a01b0319811690915560009283905560405191926001600160a01b0390911691829084908381818185875af1925050503d8060008114610785576040519150601f19603f3d011682016040523d82523d6000602084013e61078a565b606091505b50509050806107db5760405162461bcd60e51b815260206004820152601960248201527f72657475726e207472616e73616374696f6e206661696c6564000000000000006044820152606401610437565b505050565b6009546060906000906107f79060ff1660016119f0565b60ff1667ffffffffffffffff81111561081257610812611742565b60405190808252806020026020018201604052801561086657816020015b60408051608081018252600080825260208201526060918101829052818101919091528152602001906001900390816108305790505b50905060015b60095460ff1661ffff821611610a225761ffff818116600090815260086020908152604091829020825160808101845281549485168152620100009094046001600160a01b03169184019190915260018101805491928401916108ce906119a5565b80601f01602080910402602001604051908101604052809291908181526020018280546108fa906119a5565b80156109475780601f1061091c57610100808354040283529160200191610947565b820191906000526020600020905b81548152906001019060200180831161092a57829003601f168201915b50505050508152602001600282018054610960906119a5565b80601f016020809104026020016040519081016040528092919081815260200182805461098c906119a5565b80156109d95780601f106109ae576101008083540402835291602001916109d9565b820191906000526020600020905b8154815290600101906020018083116109bc57829003601f168201915b505050505081525050828261ffff16815181106109f8576109f8611a15565b6020026020010181905250610a108161ffff1661133c565b80610a1a81611a2b565b91505061086c565b50919050565b6000546001600160a01b03163314610a525760405162461bcd60e51b815260040161043790611a4d565b610a5c6000611381565b565b6000546001600160a01b03163314610a885760405162461bcd60e51b815260040161043790611a4d565b50565b60606001600601805480602002602001604051908101604052809291908181526020016000905b82821015610b5e578382906000526020600020018054610ad1906119a5565b80601f0160208091040260200160405190810160405280929190818152602001828054610afd906119a5565b8015610b4a5780601f10610b1f57610100808354040283529160200191610b4a565b820191906000526020600020905b815481529060010190602001808311610b2d57829003601f168201915b505050505081526020019060010190610ab2565b50505050905090565b60095460ff166000908152600860205260409020546201000090046001600160a01b0316331480610bb1575033610ba66000546001600160a01b031690565b6001600160a01b0316145b610bf35760405162461bcd60e51b81526020600482015260136024820152721bdb9b1e505d5d1a1bdc9a5e99590819985a5b606a1b6044820152606401610437565b60098054610100600160a81b0319166101006001600160a01b0384811691820292909217909255600d54604051637e7675cf60e11b81526004810193909352306024840152169063fceceb9e90604401600060405180830381600087803b158015610c5d57600080fd5b505af1158015610c71573d6000803e3d6000fd5b5050505050565b6008602052600090815260409020805460018201805461ffff831693620100009093046001600160a01b0316929190610cb0906119a5565b80601f0160208091040260200160405190810160405280929190818152602001828054610cdc906119a5565b8015610d295780601f10610cfe57610100808354040283529160200191610d29565b820191906000526020600020905b815481529060010190602001808311610d0c57829003601f168201915b505050505090806002018054610d3e906119a5565b80601f0160208091040260200160405190810160405280929190818152602001828054610d6a906119a5565b8015610db75780601f10610d8c57610100808354040283529160200191610db7565b820191906000526020600020905b815481529060010190602001808311610d9a57829003601f168201915b5050505050905084565b60095461010090046001600160a01b03163314610e565760405162461bcd60e51b815260206004820152604760248201527f596f7520617265206e6f74207468652070656e64696e674f776e6572206f662060448201527f74686973206974656d20616e64207468657265666f72652063616e6e6f7420636064820152661b185a5b481a5d60ca1b608482015260a401610437565b600d5460405163f62ef2f360e01b81526001600160a01b039091169063f62ef2f390610e8c908690339030908790600401611a82565b600060405180830381600087803b158015610ea657600080fd5b505af1158015610eba573d6000803e3d6000fd5b5050600d5460405163923ae89d60e01b81523360048201523060248201526001600160a01b03909116925063923ae89d9150604401600060405180830381600087803b158015610f0957600080fd5b505af1158015610f1d573d6000803e3d6000fd5b505060098054610100600160a81b03198116825590925060009150610f449060ff16611ac0565b825460ff9182166101009390930a9283029282021916919091179091556040805160808101825260095490921680835233602080850191825284840187815260608601879052600093845260088252939092208451815492516001600160a01b031662010000026001600160b01b031990931661ffff919091161791909117815591518051610fd9926001850192019061151b565b5060608201518051610ff591600284019160209091019061151b565b5050600c54600654604051632142170760e11b81526001600160a01b0387811660048301523360248301526044820192909252911691506342842e0e90606401600060405180830381600087803b15801561104f57600080fd5b505af1158015611063573d6000803e3d6000fd5b50505050505050565b60095460ff166000908152600860205260409020546201000090046001600160a01b0316331461109b57600080fd5b600d54600a546001600160a01b039182169163f62ef2f391339116306110c0426113d1565b6040518563ffffffff1660e01b81526004016110df9493929190611a82565b600060405180830381600087803b1580156110f957600080fd5b505af115801561110d573d6000803e3d6000fd5b505060098054909250600091506111269060ff16611ac0565b82546101009290920a60ff818102199093169183160217909155604080516080810182526009549092168252600a546001600160a01b031660208084019190915281518083018352600e81526d1cdd1a5b1b081c995c5d5a5c995960921b91810191909152908201526060810161119c426113d1565b905260095460ff1660009081526008602090815260409182902083518154858401516001600160a01b031662010000026001600160b01b031990911661ffff92909216919091171781559183015180516111fc926001850192019061151b565b506060820151805161121891600284019160209091019061151b565b5050600c54600a54600654604051632142170760e11b81523360048201526001600160a01b0392831660248201526044810191909152911691506342842e0e90606401600060405180830381600087803b15801561127557600080fd5b505af1158015611289573d6000803e3d6000fd5b5050600a80546001600160a01b031916905550506000600b55565b6000546001600160a01b031633146112ce5760405162461bcd60e51b815260040161043790611a4d565b6001600160a01b0381166113335760405162461bcd60e51b815260206004820152602660248201527f4f776e61626c653a206e6577206f776e657220697320746865207a65726f206160448201526564647265737360d01b6064820152608401610437565b610a8881611381565b610a888160405160240161135291815260200190565b60408051601f198184030181529190526020810180516001600160e01b031663f5b1bba960e01b1790526114fa565b600080546001600160a01b038381166001600160a01b0319831681178455604051919092169283917f8be0079c531659141344cd1fd0a4f28419497f9722a3daafe3b4186f6b6457e09190a35050565b6060816113f55750506040805180820190915260018152600360fc1b602082015290565b8160005b811561141f578061140981611ae0565b91506114189050600a83611afb565b91506113f9565b60008167ffffffffffffffff81111561143a5761143a611742565b6040519080825280601f01601f191660200182016040528015611464576020820181803683370190505b509050815b85156114f15761147a600182611b1d565b90506000611489600a88611afb565b61149490600a611b34565b61149e9088611b1d565b6114a99060306119f0565b905060008160f81b9050808484815181106114c6576114c6611a15565b60200101906001600160f81b031916908160001a9053506114e8600a89611afb565b97505050611469565b50949350505050565b80516a636f6e736f6c652e6c6f67602083016000808483855afa5050505050565b828054611527906119a5565b90600052602060002090601f016020900481019282611549576000855561158f565b82601f1061156257805160ff191683800117855561158f565b8280016001018555821561158f579182015b8281111561158f578251825591602001919060010190611574565b5061159b92915061159f565b5090565b5b8082111561159b57600081556001016115a0565b600381106115d257634e487b7160e01b600052602160045260246000fd5b9052565b602081016115e482846115b4565b92915050565b6000815180845260005b81811015611610576020818501810151868301820152016115f4565b81811115611622576000602083870101525b50601f01601f19169290920160200192915050565b61164181886115b4565b60c06020820152600061165760c08301886115ea565b828103604084015261166981886115ea565b9050828103606084015261167d81876115ea565b61ffff959095166080840152505060a00152949350505050565b60006020808301818452808551808352604092508286019150828160051b87010184880160005b8381101561173457888303603f190185528151805161ffff168452878101516001600160a01b03168885015286810151608088860181905290611703828701826115ea565b9150506060808301519250858203818701525061172081836115ea565b9689019694505050908601906001016116be565b509098975050505050505050565b634e487b7160e01b600052604160045260246000fd5b600082601f83011261176957600080fd5b813567ffffffffffffffff8082111561178457611784611742565b604051601f8301601f19908116603f011681019082821181831017156117ac576117ac611742565b816040528381528660208588010111156117c557600080fd5b836020870160208301376000602085830101528094505050505092915050565b6000602082840312156117f757600080fd5b813567ffffffffffffffff81111561180e57600080fd5b61181a84828501611758565b949350505050565b6000602080830181845280855180835260408601915060408160051b870101925083870160005b8281101561187757603f198886030184526118658583516115ea565b94509285019290850190600101611849565b5092979650505050505050565b80356001600160a01b038116811461189b57600080fd5b919050565b6000602082840312156118b257600080fd5b6118bb82611884565b9392505050565b6000602082840312156118d457600080fd5b813561ffff811681146118bb57600080fd5b61ffff851681526001600160a01b0384166020820152608060408201819052600090611914908301856115ea565b828103606084015261192681856115ea565b979650505050505050565b60008060006060848603121561194657600080fd5b61194f84611884565b9250602084013567ffffffffffffffff8082111561196c57600080fd5b61197887838801611758565b9350604086013591508082111561198e57600080fd5b5061199b86828701611758565b9150509250925092565b600181811c908216806119b957607f821691505b60208210811415610a2257634e487b7160e01b600052602260045260246000fd5b634e487b7160e01b600052601160045260246000fd5b600060ff821660ff84168060ff03821115611a0d57611a0d6119da565b019392505050565b634e487b7160e01b600052603260045260246000fd5b600061ffff80831681811415611a4357611a436119da565b6001019392505050565b6020808252818101527f4f776e61626c653a2063616c6c6572206973206e6f7420746865206f776e6572604082015260600190565b6001600160a01b038581168252848116602083015283166040820152608060608201819052600090611ab6908301846115ea565b9695505050505050565b600060ff821660ff811415611ad757611ad76119da565b60010192915050565b6000600019821415611af457611af46119da565b5060010190565b600082611b1857634e487b7160e01b600052601260045260246000fd5b500490565b600082821015611b2f57611b2f6119da565b500390565b6000816000190483118215151615611b4e57611b4e6119da565b50029056fea2646970667358221220227f8560d3cd9a4329a16670999b5ca4d169b5c5f8cfb6142c91976cabe8c29f64736f6c634300080a0033a2646970667358221220f72e49b9aeb8f9a2bf79f8a88885a987ef2542b142b194ad8dd5a725856c73e064736f6c634300080a0033",
  "linkReferences": {},
  "deployedLinkReferences": {}
}