{
  "_format": "hh-sol-artifact-1",
  "contractName": "Mothership",
  "sourceName": "contracts/Mothership.sol",
  "abi": [
    {
      "inputs": [
        {
          "internalType": "address",
          "name": "_tokenAddress",
          "type": "address"
        }
      ],
      "stateMutability": "nonpayable",
      "type": "constructor"
    },
    {
      "anonymous": false,
      "inputs": [
        {
          "indexed": true,
          "internalType": "address",
          "name": "previousOwner",
          "type": "address"
        },
        {
          "indexed": true,
          "internalType": "address",
          "name": "newOwner",
          "type": "address"
        }
      ],
      "name": "OwnershipTransferred",
      "type": "event"
    },
    {
      "anonymous": false,
      "inputs": [
        {
          "indexed": false,
          "internalType": "enum Provenance.Types",
          "name": "_enumType",
          "type": "uint8"
        },
        {
          "indexed": false,
          "internalType": "address",
          "name": "childAddress",
          "type": "address"
        },
        {
          "indexed": false,
          "internalType": "string",
          "name": "serial",
          "type": "string"
        },
        {
          "indexed": false,
          "internalType": "string",
          "name": "brand",
          "type": "string"
        },
        {
          "indexed": false,
          "internalType": "string",
          "name": "model",
          "type": "string"
        },
        {
          "indexed": false,
          "internalType": "uint16",
          "name": "year",
          "type": "uint16"
        },
        {
          "indexed": false,
          "internalType": "uint256",
          "name": "instrumentDeedToken",
          "type": "uint256"
        },
        {
          "indexed": false,
          "internalType": "string",
          "name": "verificationPhotoHash",
          "type": "string"
        },
        {
          "indexed": false,
          "internalType": "string",
          "name": "firstOwner",
          "type": "string"
        },
        {
          "indexed": false,
          "internalType": "string[]",
          "name": "instrumentPhotoHashes",
          "type": "string[]"
        }
      ],
      "name": "ProvenanceCreated",
      "type": "event"
    },
    {
      "anonymous": false,
      "inputs": [
        {
          "indexed": false,
          "internalType": "address",
          "name": "seller",
          "type": "address"
        },
        {
          "indexed": false,
          "internalType": "address",
          "name": "buyer",
          "type": "address"
        },
        {
          "indexed": false,
          "internalType": "address",
          "name": "provenanaceAddress",
          "type": "address"
        }
      ],
      "name": "ProvenanceSale",
      "type": "event"
    },
    {
      "inputs": [
        {
          "internalType": "enum Provenance.Types",
          "name": "_enumType",
          "type": "uint8"
        },
        {
          "internalType": "string",
          "name": "_serial",
          "type": "string"
        },
        {
          "internalType": "string",
          "name": "_brand",
          "type": "string"
        },
        {
          "internalType": "string",
          "name": "_model",
          "type": "string"
        },
        {
          "internalType": "uint16",
          "name": "_year",
          "type": "uint16"
        },
        {
          "internalType": "uint256",
          "name": "_instrumentDeedToken",
          "type": "uint256"
        },
        {
          "internalType": "string",
          "name": "_verificationPhotoHash",
          "type": "string"
        },
        {
          "internalType": "string",
          "name": "_firstOwner",
          "type": "string"
        },
        {
          "internalType": "string[]",
          "name": "_instrumentPhotoHashes",
          "type": "string[]"
        }
      ],
      "name": "createNewProvenance",
      "outputs": [
        {
          "internalType": "address",
          "name": "",
          "type": "address"
        }
      ],
      "stateMutability": "nonpayable",
      "type": "function"
    },
    {
      "inputs": [],
      "name": "getOwners",
      "outputs": [
        {
          "internalType": "address[]",
          "name": "",
          "type": "address[]"
        }
      ],
      "stateMutability": "view",
      "type": "function"
    },
    {
      "inputs": [],
      "name": "getOwnersInstruments",
      "outputs": [
        {
          "internalType": "contract Provenance[]",
          "name": "",
          "type": "address[]"
        }
      ],
      "stateMutability": "view",
      "type": "function"
    },
    {
      "inputs": [
        {
          "internalType": "address",
          "name": "buyer",
          "type": "address"
        }
      ],
      "name": "getPendingTransfersOfBuyer",
      "outputs": [
        {
          "internalType": "address[]",
          "name": "",
          "type": "address[]"
        }
      ],
      "stateMutability": "view",
      "type": "function"
    },
    {
      "inputs": [],
      "name": "instrumentDeedTokenContract",
      "outputs": [
        {
          "internalType": "contract InstrumentDeedToken",
          "name": "",
          "type": "address"
        }
      ],
      "stateMutability": "view",
      "type": "function"
    },
    {
      "inputs": [],
      "name": "owner",
      "outputs": [
        {
          "internalType": "address",
          "name": "",
          "type": "address"
        }
      ],
      "stateMutability": "view",
      "type": "function"
    },
    {
      "inputs": [
        {
          "internalType": "uint256",
          "name": "",
          "type": "uint256"
        }
      ],
      "name": "ownerArray",
      "outputs": [
        {
          "internalType": "address",
          "name": "",
          "type": "address"
        }
      ],
      "stateMutability": "view",
      "type": "function"
    },
    {
      "inputs": [
        {
          "internalType": "address",
          "name": "",
          "type": "address"
        },
        {
          "internalType": "uint256",
          "name": "",
          "type": "uint256"
        }
      ],
      "name": "ownersToAxes",
      "outputs": [
        {
          "internalType": "contract Provenance",
          "name": "",
          "type": "address"
        }
      ],
      "stateMutability": "view",
      "type": "function"
    },
    {
      "inputs": [
        {
          "internalType": "address",
          "name": "",
          "type": "address"
        },
        {
          "internalType": "uint256",
          "name": "",
          "type": "uint256"
        }
      ],
      "name": "pendingTransfers",
      "outputs": [
        {
          "internalType": "address",
          "name": "",
          "type": "address"
        }
      ],
      "stateMutability": "view",
      "type": "function"
    },
    {
      "inputs": [
        {
          "internalType": "address",
          "name": "",
          "type": "address"
        }
      ],
      "name": "provenanceVerify",
      "outputs": [
        {
          "internalType": "bool",
          "name": "",
          "type": "bool"
        }
      ],
      "stateMutability": "view",
      "type": "function"
    },
    {
      "inputs": [],
      "name": "removeDuplicateProvenance",
      "outputs": [],
      "stateMutability": "nonpayable",
      "type": "function"
    },
    {
      "inputs": [
        {
          "internalType": "address",
          "name": "buyer",
          "type": "address"
        },
        {
          "internalType": "address",
          "name": "provenance",
          "type": "address"
        }
      ],
      "name": "removePendingTransfer",
      "outputs": [],
      "stateMutability": "nonpayable",
      "type": "function"
    },
    {
      "inputs": [],
      "name": "renounceOwnership",
      "outputs": [],
      "stateMutability": "nonpayable",
      "type": "function"
    },
    {
      "inputs": [],
      "name": "setExistingProvenance",
      "outputs": [],
      "stateMutability": "nonpayable",
      "type": "function"
    },
    {
      "inputs": [
        {
          "internalType": "address",
          "name": "buyer",
          "type": "address"
        },
        {
          "internalType": "address",
          "name": "provenanceAddress",
          "type": "address"
        }
      ],
      "name": "setPendingTransfer",
      "outputs": [],
      "stateMutability": "nonpayable",
      "type": "function"
    },
    {
      "inputs": [
        {
          "internalType": "address",
          "name": "newOwner",
          "type": "address"
        }
      ],
      "name": "transferOwnership",
      "outputs": [],
      "stateMutability": "nonpayable",
      "type": "function"
    },
    {
      "inputs": [
        {
          "internalType": "address",
          "name": "seller",
          "type": "address"
        },
        {
          "internalType": "address",
          "name": "buyer",
          "type": "address"
        },
        {
          "internalType": "contract Provenance",
          "name": "provenanceSold",
          "type": "address"
        }
      ],
      "name": "updateOnProvenanceSale",
      "outputs": [],
      "stateMutability": "nonpayable",
      "type": "function"
    }
  ],
  "bytecode": "0x60806040523480156200001157600080fd5b5060405162005538380380620055388339818101604052810190620000379190620001d5565b620000576200004b6200009f60201b60201c565b620000a760201b60201c565b80600560006101000a81548173ffffffffffffffffffffffffffffffffffffffff021916908373ffffffffffffffffffffffffffffffffffffffff1602179055505062000207565b600033905090565b60008060009054906101000a900473ffffffffffffffffffffffffffffffffffffffff169050816000806101000a81548173ffffffffffffffffffffffffffffffffffffffff021916908373ffffffffffffffffffffffffffffffffffffffff1602179055508173ffffffffffffffffffffffffffffffffffffffff168173ffffffffffffffffffffffffffffffffffffffff167f8be0079c531659141344cd1fd0a4f28419497f9722a3daafe3b4186f6b6457e060405160405180910390a35050565b600080fd5b600073ffffffffffffffffffffffffffffffffffffffff82169050919050565b60006200019d8262000170565b9050919050565b620001af8162000190565b8114620001bb57600080fd5b50565b600081519050620001cf81620001a4565b92915050565b600060208284031215620001ee57620001ed6200016b565b5b6000620001fe84828501620001be565b91505092915050565b61532180620002176000396000f3fe60806040523480156200001157600080fd5b5060043610620001245760003560e01c806380fedcd411620000b157806399288e7b116200007b57806399288e7b14620002f55780639ec67aca1462000301578063a0e67e2b1462000337578063f2fde38b1462000359578063fceceb9e14620003795762000124565b806380fedcd4146200025b5780638da5cb5b1462000291578063923ae89d14620002b357806396a5f1f614620002d35762000124565b806352c0ece311620000f357806352c0ece314620001ad57806353d01fcb14620001e3578063686cfb9e1462000219578063715018a6146200024f5762000124565b806312bdb2b214620001295780631fc45b00146200013557806320c90855146200015757806346811b83146200018d575b600080fd5b6200013362000399565b005b6200013f6200041e565b6040516200014e919062001785565b60405180910390f35b6200017560048036038101906200016f9190620017fb565b62000444565b604051620001849190620018fb565b60405180910390f35b620001ab6004803603810190620001a5919062001964565b62000513565b005b620001cb6004803603810190620001c59190620019fb565b62000612565b604051620001da919062001a67565b60405180910390f35b620002016004803603810190620001fb9190620017fb565b62000661565b60405162000210919062001aa1565b60405180910390f35b62000237600480360381019062000231919062001abe565b62000681565b60405162000246919062001b01565b60405180910390f35b62000259620006c1565b005b62000279600480360381019062000273919062001de3565b62000752565b60405162000288919062001b01565b60405180910390f35b6200029b62000a8f565b604051620002aa919062001b01565b60405180910390f35b620002d16004803603810190620002cb919062001f7c565b62000ab8565b005b620002dd62000b9e565b604051620002ec919062002080565b60405180910390f35b620002ff62000c6b565b005b6200031f6004803603810190620003199190620019fb565b62000cf0565b6040516200032e919062001b01565b60405180910390f35b6200034162000d3f565b604051620003509190620018fb565b60405180910390f35b620003776004803603810190620003719190620017fb565b62000dcf565b005b62000397600480360381019062000391919062001f7c565b62000ed3565b005b620003a362000f77565b73ffffffffffffffffffffffffffffffffffffffff16620003c362000a8f565b73ffffffffffffffffffffffffffffffffffffffff16146200041c576040517f08c379a0000000000000000000000000000000000000000000000000000000008152600401620004139062002105565b60405180910390fd5b565b600560009054906101000a900473ffffffffffffffffffffffffffffffffffffffff1681565b6060600360008373ffffffffffffffffffffffffffffffffffffffff1673ffffffffffffffffffffffffffffffffffffffff1681526020019081526020016000208054806020026020016040519081016040528092919081815260200182805480156200050757602002820191906000526020600020905b8160009054906101000a900473ffffffffffffffffffffffffffffffffffffffff1673ffffffffffffffffffffffffffffffffffffffff1681526020019060010190808311620004bc575b50505050509050919050565b600160008373ffffffffffffffffffffffffffffffffffffffff1673ffffffffffffffffffffffffffffffffffffffff168152602001908152602001600020819080600181540180825580915050600190039060005260206000200160009091909190916101000a81548173ffffffffffffffffffffffffffffffffffffffff021916908373ffffffffffffffffffffffffffffffffffffffff1602179055506000620005c1848362000f7f565b9050620005cf8482620010a8565b7f219ab701cf630c14b116816a2bd4b015a969f12b6a8304029b6979c707ba4652338484604051620006049392919062002127565b60405180910390a150505050565b600160205281600052604060002081815481106200062f57600080fd5b906000526020600020016000915091509054906101000a900473ffffffffffffffffffffffffffffffffffffffff1681565b60026020528060005260406000206000915054906101000a900460ff1681565b600481815481106200069257600080fd5b906000526020600020016000915054906101000a900473ffffffffffffffffffffffffffffffffffffffff1681565b620006cb62000f77565b73ffffffffffffffffffffffffffffffffffffffff16620006eb62000a8f565b73ffffffffffffffffffffffffffffffffffffffff161462000744576040517f08c379a00000000000000000000000000000000000000000000000000000000081526004016200073b9062002105565b60405180910390fd5b62000750600062001324565b565b6000600560009054906101000a900473ffffffffffffffffffffffffffffffffffffffff1673ffffffffffffffffffffffffffffffffffffffff16636352211e866040518263ffffffff1660e01b8152600401620007b1919062002175565b602060405180830381865afa158015620007cf573d6000803e3d6000fd5b505050506040513d601f19601f82011682018060405250810190620007f59190620021a9565b73ffffffffffffffffffffffffffffffffffffffff163373ffffffffffffffffffffffffffffffffffffffff161462000865576040517f08c379a00000000000000000000000000000000000000000000000000000000081526004016200085c9062002251565b60405180910390fd5b60008a8a8a8a8a8a8a8a8a30600560009054906101000a900473ffffffffffffffffffffffffffffffffffffffff16604051620008a290620016ec565b620008b89b9a99989796959493929190620024a8565b604051809103906000f080158015620008d5573d6000803e3d6000fd5b509050600160003373ffffffffffffffffffffffffffffffffffffffff1673ffffffffffffffffffffffffffffffffffffffff168152602001908152602001600020819080600181540180825580915050600190039060005260206000200160009091909190916101000a81548173ffffffffffffffffffffffffffffffffffffffff021916908373ffffffffffffffffffffffffffffffffffffffff1602179055506004339080600181540180825580915050600190039060005260206000200160009091909190916101000a81548173ffffffffffffffffffffffffffffffffffffffff021916908373ffffffffffffffffffffffffffffffffffffffff1602179055506001600260008373ffffffffffffffffffffffffffffffffffffffff1673ffffffffffffffffffffffffffffffffffffffff16815260200190815260200160002060006101000a81548160ff0219169083151502179055507f84ece05d4f03373bb3cbb663d2a48969c9c26a2e8107596f37cafb622c0e0d268b828c8c8c8c8c8c8c8c60405162000a769a9998979695949392919062002593565b60405180910390a1809150509998505050505050505050565b60008060009054906101000a900473ffffffffffffffffffffffffffffffffffffffff16905090565b600062000b8b600360008573ffffffffffffffffffffffffffffffffffffffff1673ffffffffffffffffffffffffffffffffffffffff16815260200190815260200160002080548060200260200160405190810160405280929190818152602001828054801562000b7f57602002820191906000526020600020905b8160009054906101000a900473ffffffffffffffffffffffffffffffffffffffff1673ffffffffffffffffffffffffffffffffffffffff168152602001906001019080831162000b34575b505050505083620013e8565b905062000b9983826200146f565b505050565b6060600160003373ffffffffffffffffffffffffffffffffffffffff1673ffffffffffffffffffffffffffffffffffffffff16815260200190815260200160002080548060200260200160405190810160405280929190818152602001828054801562000c6157602002820191906000526020600020905b8160009054906101000a900473ffffffffffffffffffffffffffffffffffffffff1673ffffffffffffffffffffffffffffffffffffffff168152602001906001019080831162000c16575b5050505050905090565b62000c7562000f77565b73ffffffffffffffffffffffffffffffffffffffff1662000c9562000a8f565b73ffffffffffffffffffffffffffffffffffffffff161462000cee576040517f08c379a000000000000000000000000000000000000000000000000000000000815260040162000ce59062002105565b60405180910390fd5b565b6003602052816000526040600020818154811062000d0d57600080fd5b906000526020600020016000915091509054906101000a900473ffffffffffffffffffffffffffffffffffffffff1681565b6060600480548060200260200160405190810160405280929190818152602001828054801562000dc557602002820191906000526020600020905b8160009054906101000a900473ffffffffffffffffffffffffffffffffffffffff1673ffffffffffffffffffffffffffffffffffffffff168152602001906001019080831162000d7a575b5050505050905090565b62000dd962000f77565b73ffffffffffffffffffffffffffffffffffffffff1662000df962000a8f565b73ffffffffffffffffffffffffffffffffffffffff161462000e52576040517f08c379a000000000000000000000000000000000000000000000000000000000815260040162000e499062002105565b60405180910390fd5b600073ffffffffffffffffffffffffffffffffffffffff168173ffffffffffffffffffffffffffffffffffffffff16141562000ec5576040517f08c379a000000000000000000000000000000000000000000000000000000000815260040162000ebc90620026e3565b60405180910390fd5b62000ed08162001324565b50565b600360008373ffffffffffffffffffffffffffffffffffffffff1673ffffffffffffffffffffffffffffffffffffffff168152602001908152602001600020819080600181540180825580915050600190039060005260206000200160009091909190916101000a81548173ffffffffffffffffffffffffffffffffffffffff021916908373ffffffffffffffffffffffffffffffffffffffff1602179055505050565b600033905090565b60008060005b600160008673ffffffffffffffffffffffffffffffffffffffff1673ffffffffffffffffffffffffffffffffffffffff168152602001908152602001600020805490508110156200109d578373ffffffffffffffffffffffffffffffffffffffff16600160008773ffffffffffffffffffffffffffffffffffffffff1673ffffffffffffffffffffffffffffffffffffffff16815260200190815260200160002082815481106200103b576200103a62002705565b5b9060005260206000200160009054906101000a900473ffffffffffffffffffffffffffffffffffffffff1673ffffffffffffffffffffffffffffffffffffffff16141562001087578091505b8080620010949062002763565b91505062000f85565b508091505092915050565b600160008373ffffffffffffffffffffffffffffffffffffffff1673ffffffffffffffffffffffffffffffffffffffff1681526020019081526020016000208054905081106200112f576040517f08c379a0000000000000000000000000000000000000000000000000000000008152600401620011269062002801565b60405180910390fd5b600160008373ffffffffffffffffffffffffffffffffffffffff1673ffffffffffffffffffffffffffffffffffffffff16815260200190815260200160002060018060008573ffffffffffffffffffffffffffffffffffffffff1673ffffffffffffffffffffffffffffffffffffffff16815260200190815260200160002080549050620011be919062002823565b81548110620011d257620011d162002705565b5b9060005260206000200160009054906101000a900473ffffffffffffffffffffffffffffffffffffffff16600160008473ffffffffffffffffffffffffffffffffffffffff1673ffffffffffffffffffffffffffffffffffffffff168152602001908152602001600020828154811062001251576200125062002705565b5b9060005260206000200160006101000a81548173ffffffffffffffffffffffffffffffffffffffff021916908373ffffffffffffffffffffffffffffffffffffffff160217905550600160008373ffffffffffffffffffffffffffffffffffffffff1673ffffffffffffffffffffffffffffffffffffffff168152602001908152602001600020805480620012eb57620012ea6200285e565b5b6001900381819060005260206000200160006101000a81549073ffffffffffffffffffffffffffffffffffffffff021916905590555050565b60008060009054906101000a900473ffffffffffffffffffffffffffffffffffffffff169050816000806101000a81548173ffffffffffffffffffffffffffffffffffffffff021916908373ffffffffffffffffffffffffffffffffffffffff1602179055508173ffffffffffffffffffffffffffffffffffffffff168173ffffffffffffffffffffffffffffffffffffffff167f8be0079c531659141344cd1fd0a4f28419497f9722a3daafe3b4186f6b6457e060405160405180910390a35050565b60008060005b845181101562001464578373ffffffffffffffffffffffffffffffffffffffff1685828151811062001425576200142462002705565b5b602002602001015173ffffffffffffffffffffffffffffffffffffffff1614156200144e578091505b80806200145b9062002763565b915050620013ee565b508091505092915050565b600360008373ffffffffffffffffffffffffffffffffffffffff1673ffffffffffffffffffffffffffffffffffffffff168152602001908152602001600020805490508110620014f6576040517f08c379a0000000000000000000000000000000000000000000000000000000008152600401620014ed9062002801565b60405180910390fd5b600360008373ffffffffffffffffffffffffffffffffffffffff1673ffffffffffffffffffffffffffffffffffffffff1681526020019081526020016000206001600360008573ffffffffffffffffffffffffffffffffffffffff1673ffffffffffffffffffffffffffffffffffffffff1681526020019081526020016000208054905062001586919062002823565b815481106200159a576200159962002705565b5b9060005260206000200160009054906101000a900473ffffffffffffffffffffffffffffffffffffffff16600360008473ffffffffffffffffffffffffffffffffffffffff1673ffffffffffffffffffffffffffffffffffffffff168152602001908152602001600020828154811062001619576200161862002705565b5b9060005260206000200160006101000a81548173ffffffffffffffffffffffffffffffffffffffff021916908373ffffffffffffffffffffffffffffffffffffffff160217905550600360008373ffffffffffffffffffffffffffffffffffffffff1673ffffffffffffffffffffffffffffffffffffffff168152602001908152602001600020805480620016b357620016b26200285e565b5b6001900381819060005260206000200160006101000a81549073ffffffffffffffffffffffffffffffffffffffff021916905590555050565b612a5e806200288e83390190565b600073ffffffffffffffffffffffffffffffffffffffff82169050919050565b6000819050919050565b6000620017456200173f6200173984620016fa565b6200171a565b620016fa565b9050919050565b6000620017598262001724565b9050919050565b60006200176d826200174c565b9050919050565b6200177f8162001760565b82525050565b60006020820190506200179c600083018462001774565b92915050565b6000604051905090565b600080fd5b600080fd5b6000620017c382620016fa565b9050919050565b620017d581620017b6565b8114620017e157600080fd5b50565b600081359050620017f581620017ca565b92915050565b600060208284031215620018145762001813620017ac565b5b60006200182484828501620017e4565b91505092915050565b600081519050919050565b600082825260208201905092915050565b6000819050602082019050919050565b6200186481620017b6565b82525050565b600062001878838362001859565b60208301905092915050565b6000602082019050919050565b60006200189e826200182d565b620018aa818562001838565b9350620018b78362001849565b8060005b83811015620018ee578151620018d288826200186a565b9750620018df8362001884565b925050600181019050620018bb565b5085935050505092915050565b6000602082019050818103600083015262001917818462001891565b905092915050565b60006200192c82620017b6565b9050919050565b6200193e816200191f565b81146200194a57600080fd5b50565b6000813590506200195e8162001933565b92915050565b60008060006060848603121562001980576200197f620017ac565b5b60006200199086828701620017e4565b9350506020620019a386828701620017e4565b9250506040620019b6868287016200194d565b9150509250925092565b6000819050919050565b620019d581620019c0565b8114620019e157600080fd5b50565b600081359050620019f581620019ca565b92915050565b6000806040838503121562001a155762001a14620017ac565b5b600062001a2585828601620017e4565b925050602062001a3885828601620019e4565b9150509250929050565b600062001a4f826200174c565b9050919050565b62001a618162001a42565b82525050565b600060208201905062001a7e600083018462001a56565b92915050565b60008115159050919050565b62001a9b8162001a84565b82525050565b600060208201905062001ab8600083018462001a90565b92915050565b60006020828403121562001ad75762001ad6620017ac565b5b600062001ae784828501620019e4565b91505092915050565b62001afb81620017b6565b82525050565b600060208201905062001b18600083018462001af0565b92915050565b6003811062001b2c57600080fd5b50565b60008135905062001b408162001b1e565b92915050565b600080fd5b600080fd5b6000601f19601f8301169050919050565b7f4e487b7100000000000000000000000000000000000000000000000000000000600052604160045260246000fd5b62001b9b8262001b50565b810181811067ffffffffffffffff8211171562001bbd5762001bbc62001b61565b5b80604052505050565b600062001bd2620017a2565b905062001be0828262001b90565b919050565b600067ffffffffffffffff82111562001c035762001c0262001b61565b5b62001c0e8262001b50565b9050602081019050919050565b82818337600083830152505050565b600062001c4162001c3b8462001be5565b62001bc6565b90508281526020810184848401111562001c605762001c5f62001b4b565b5b62001c6d84828562001c1b565b509392505050565b600082601f83011262001c8d5762001c8c62001b46565b5b813562001c9f84826020860162001c2a565b91505092915050565b600061ffff82169050919050565b62001cc18162001ca8565b811462001ccd57600080fd5b50565b60008135905062001ce18162001cb6565b92915050565b600067ffffffffffffffff82111562001d055762001d0462001b61565b5b602082029050602081019050919050565b600080fd5b600062001d3262001d2c8462001ce7565b62001bc6565b9050808382526020820190506020840283018581111562001d585762001d5762001d16565b5b835b8181101562001da657803567ffffffffffffffff81111562001d815762001d8062001b46565b5b80860162001d90898262001c75565b8552602085019450505060208101905062001d5a565b5050509392505050565b600082601f83011262001dc85762001dc762001b46565b5b813562001dda84826020860162001d1b565b91505092915050565b60008060008060008060008060006101208a8c03121562001e095762001e08620017ac565b5b600062001e198c828d0162001b2f565b99505060208a013567ffffffffffffffff81111562001e3d5762001e3c620017b1565b5b62001e4b8c828d0162001c75565b98505060408a013567ffffffffffffffff81111562001e6f5762001e6e620017b1565b5b62001e7d8c828d0162001c75565b97505060608a013567ffffffffffffffff81111562001ea15762001ea0620017b1565b5b62001eaf8c828d0162001c75565b965050608062001ec28c828d0162001cd0565b95505060a062001ed58c828d01620019e4565b94505060c08a013567ffffffffffffffff81111562001ef95762001ef8620017b1565b5b62001f078c828d0162001c75565b93505060e08a013567ffffffffffffffff81111562001f2b5762001f2a620017b1565b5b62001f398c828d0162001c75565b9250506101008a013567ffffffffffffffff81111562001f5e5762001f5d620017b1565b5b62001f6c8c828d0162001db0565b9150509295985092959850929598565b6000806040838503121562001f965762001f95620017ac565b5b600062001fa685828601620017e4565b925050602062001fb985828601620017e4565b9150509250929050565b600081519050919050565b6000819050602082019050919050565b62001fe98162001a42565b82525050565b600062001ffd838362001fde565b60208301905092915050565b6000602082019050919050565b6000620020238262001fc3565b6200202f818562001838565b93506200203c8362001fce565b8060005b838110156200207357815162002057888262001fef565b9750620020648362002009565b92505060018101905062002040565b5085935050505092915050565b600060208201905081810360008301526200209c818462002016565b905092915050565b600082825260208201905092915050565b7f4f776e61626c653a2063616c6c6572206973206e6f7420746865206f776e6572600082015250565b6000620020ed602083620020a4565b9150620020fa82620020b5565b602082019050919050565b600060208201905081810360008301526200212081620020de565b9050919050565b60006060820190506200213e600083018662001af0565b6200214d602083018562001af0565b6200215c604083018462001af0565b949350505050565b6200216f81620019c0565b82525050565b60006020820190506200218c600083018462002164565b92915050565b600081519050620021a381620017ca565b92915050565b600060208284031215620021c257620021c1620017ac565b5b6000620021d28482850162002192565b91505092915050565b7f596f7520617265206e6f7420746865206f776e6572206f66207468652044656560008201527f6420546f6b656e20666f72207468697320696e737472756d656e740000000000602082015250565b600062002239603b83620020a4565b91506200224682620021db565b604082019050919050565b600060208201905081810360008301526200226c816200222a565b9050919050565b7f4e487b7100000000000000000000000000000000000000000000000000000000600052602160045260246000fd5b60038110620022b657620022b562002273565b5b50565b6000819050620022c982620022a2565b919050565b6000620022db82620022b9565b9050919050565b620022ed81620022ce565b82525050565b600081519050919050565b60005b838110156200231e57808201518184015260208101905062002301565b838111156200232e576000848401525b50505050565b60006200234182620022f3565b6200234d8185620020a4565b93506200235f818560208601620022fe565b6200236a8162001b50565b840191505092915050565b620023808162001ca8565b82525050565b600081519050919050565b600082825260208201905092915050565b6000819050602082019050919050565b600082825260208201905092915050565b6000620023d082620022f3565b620023dc8185620023b2565b9350620023ee818560208601620022fe565b620023f98162001b50565b840191505092915050565b6000620024128383620023c3565b905092915050565b6000602082019050919050565b6000620024348262002386565b62002440818562002391565b9350836020820285016200245485620023a2565b8060005b8581101562002496578484038952815162002474858262002404565b945062002481836200241a565b925060208a0199505060018101905062002458565b50829750879550505050505092915050565b600061016082019050620024c0600083018e620022e2565b8181036020830152620024d4818d62002334565b90508181036040830152620024ea818c62002334565b9050818103606083015262002500818b62002334565b905062002511608083018a62002375565b6200252060a083018962002164565b81810360c083015262002534818862002334565b905081810360e08301526200254a818762002334565b905081810361010083015262002561818662002427565b90506200257361012083018562001af0565b6200258361014083018462001af0565b9c9b505050505050505050505050565b600061014082019050620025ab600083018d620022e2565b620025ba602083018c62001af0565b8181036040830152620025ce818b62002334565b90508181036060830152620025e4818a62002334565b90508181036080830152620025fa818962002334565b90506200260b60a083018862002375565b6200261a60c083018762002164565b81810360e08301526200262e818662002334565b905081810361010083015262002645818562002334565b90508181036101208301526200265c818462002427565b90509b9a5050505050505050505050565b7f4f776e61626c653a206e6577206f776e657220697320746865207a65726f206160008201527f6464726573730000000000000000000000000000000000000000000000000000602082015250565b6000620026cb602683620020a4565b9150620026d8826200266d565b604082019050919050565b60006020820190508181036000830152620026fe81620026bc565b9050919050565b7f4e487b7100000000000000000000000000000000000000000000000000000000600052603260045260246000fd5b7f4e487b7100000000000000000000000000000000000000000000000000000000600052601160045260246000fd5b60006200277082620019c0565b91507fffffffffffffffffffffffffffffffffffffffffffffffffffffffffffffffff821415620027a657620027a562002734565b5b600182019050919050565b7f6275726e206661696c656420696e207265717569726500000000000000000000600082015250565b6000620027e9601683620020a4565b9150620027f682620027b1565b602082019050919050565b600060208201905081810360008301526200281c81620027da565b9050919050565b60006200283082620019c0565b91506200283d83620019c0565b92508282101562002853576200285262002734565b5b828203905092915050565b7f4e487b7100000000000000000000000000000000000000000000000000000000600052603160045260246000fdfe60806040523480156200001157600080fd5b5060405162002a5e38038062002a5e833981810160405281019062000037919062000981565b620000576200004b6200039060201b60201c565b6200039860201b60201c565b81600f60006101000a81548173ffffffffffffffffffffffffffffffffffffffff021916908373ffffffffffffffffffffffffffffffffffffffff16021790555080600e60006101000a81548173ffffffffffffffffffffffffffffffffffffffff021916908373ffffffffffffffffffffffffffffffffffffffff1602179055508a600360000160006101000a81548160ff0219169083600281111562000104576200010362000b48565b5b02179055508960036001019080519060200190620001249291906200045c565b508860036002019080519060200190620001409291906200045c565b50876003800190805190602001906200015b9291906200045c565b5086600360040160006101000a81548161ffff021916908361ffff160217905550856003600501819055508260036006019080519060200190620001a1929190620004ed565b506001600d60146101000a81548160ff021916908360ff1602179055506040518060800160405280600d60149054906101000a900460ff1660ff1661ffff168152602001600e60009054906101000a900473ffffffffffffffffffffffffffffffffffffffff1673ffffffffffffffffffffffffffffffffffffffff16636352211e896040518263ffffffff1660e01b815260040162000242919062000b88565b602060405180830381865afa15801562000260573d6000803e3d6000fd5b505050506040513d601f19601f8201168201806040525081019062000286919062000ba5565b73ffffffffffffffffffffffffffffffffffffffff1681526020018581526020018681525060016000600d60149054906101000a900460ff1660ff1661ffff16815260200190815260200160002060008201518160000160006101000a81548161ffff021916908361ffff16021790555060208201518160000160026101000a81548173ffffffffffffffffffffffffffffffffffffffff021916908373ffffffffffffffffffffffffffffffffffffffff16021790555060408201518160010190805190602001906200035c9291906200045c565b5060608201518160020190805190602001906200037b9291906200045c565b50905050505050505050505050505062000c3c565b600033905090565b60008060009054906101000a900473ffffffffffffffffffffffffffffffffffffffff169050816000806101000a81548173ffffffffffffffffffffffffffffffffffffffff021916908373ffffffffffffffffffffffffffffffffffffffff1602179055508173ffffffffffffffffffffffffffffffffffffffff168173ffffffffffffffffffffffffffffffffffffffff167f8be0079c531659141344cd1fd0a4f28419497f9722a3daafe3b4186f6b6457e060405160405180910390a35050565b8280546200046a9062000c06565b90600052602060002090601f0160209004810192826200048e5760008555620004da565b82601f10620004a957805160ff1916838001178555620004da565b82800160010185558215620004da579182015b82811115620004d9578251825591602001919060010190620004bc565b5b509050620004e9919062000554565b5090565b82805482825590600052602060002090810192821562000541579160200282015b82811115620005405782518290805190602001906200052f9291906200045c565b50916020019190600101906200050e565b5b50905062000550919062000573565b5090565b5b808211156200056f57600081600090555060010162000555565b5090565b5b808211156200059757600081816200058d91906200059b565b5060010162000574565b5090565b508054620005a99062000c06565b6000825580601f10620005bd5750620005de565b601f016020900490600052602060002090810190620005dd919062000554565b5b50565b6000604051905090565b600080fd5b600080fd5b600381106200060357600080fd5b50565b6000815190506200061781620005f5565b92915050565b600080fd5b600080fd5b6000601f19601f8301169050919050565b7f4e487b7100000000000000000000000000000000000000000000000000000000600052604160045260246000fd5b620006728262000627565b810181811067ffffffffffffffff8211171562000694576200069362000638565b5b80604052505050565b6000620006a9620005e1565b9050620006b7828262000667565b919050565b600067ffffffffffffffff821115620006da57620006d962000638565b5b620006e58262000627565b9050602081019050919050565b60005b8381101562000712578082015181840152602081019050620006f5565b8381111562000722576000848401525b50505050565b60006200073f6200073984620006bc565b6200069d565b9050828152602081018484840111156200075e576200075d62000622565b5b6200076b848285620006f2565b509392505050565b600082601f8301126200078b576200078a6200061d565b5b81516200079d84826020860162000728565b91505092915050565b600061ffff82169050919050565b620007bf81620007a6565b8114620007cb57600080fd5b50565b600081519050620007df81620007b4565b92915050565b6000819050919050565b620007fa81620007e5565b81146200080657600080fd5b50565b6000815190506200081a81620007ef565b92915050565b600067ffffffffffffffff8211156200083e576200083d62000638565b5b602082029050602081019050919050565b600080fd5b60006200086b620008658462000820565b6200069d565b905080838252602082019050602084028301858111156200089157620008906200084f565b5b835b81811015620008df57805167ffffffffffffffff811115620008ba57620008b96200061d565b5b808601620008c9898262000773565b8552602085019450505060208101905062000893565b5050509392505050565b600082601f8301126200090157620009006200061d565b5b81516200091384826020860162000854565b91505092915050565b600073ffffffffffffffffffffffffffffffffffffffff82169050919050565b600062000949826200091c565b9050919050565b6200095b816200093c565b81146200096757600080fd5b50565b6000815190506200097b8162000950565b92915050565b60008060008060008060008060008060006101608c8e031215620009aa57620009a9620005eb565b5b6000620009ba8e828f0162000606565b9b505060208c015167ffffffffffffffff811115620009de57620009dd620005f0565b5b620009ec8e828f0162000773565b9a505060408c015167ffffffffffffffff81111562000a105762000a0f620005f0565b5b62000a1e8e828f0162000773565b99505060608c015167ffffffffffffffff81111562000a425762000a41620005f0565b5b62000a508e828f0162000773565b985050608062000a638e828f01620007ce565b97505060a062000a768e828f0162000809565b96505060c08c015167ffffffffffffffff81111562000a9a5762000a99620005f0565b5b62000aa88e828f0162000773565b95505060e08c015167ffffffffffffffff81111562000acc5762000acb620005f0565b5b62000ada8e828f0162000773565b9450506101008c015167ffffffffffffffff81111562000aff5762000afe620005f0565b5b62000b0d8e828f01620008e9565b93505061012062000b218e828f016200096a565b92505061014062000b358e828f016200096a565b9150509295989b509295989b9093969950565b7f4e487b7100000000000000000000000000000000000000000000000000000000600052602160045260246000fd5b62000b8281620007e5565b82525050565b600060208201905062000b9f600083018462000b77565b92915050565b60006020828403121562000bbe5762000bbd620005eb565b5b600062000bce848285016200096a565b91505092915050565b7f4e487b7100000000000000000000000000000000000000000000000000000000600052602260045260246000fd5b6000600282049050600182168062000c1f57607f821691505b6020821081141562000c365762000c3562000bd7565b5b50919050565b611e128062000c4c6000396000f3fe608060405234801561001057600080fd5b506004361061010b5760003560e01c806399e84ba2116100a2578063debc241911610071578063debc24191461024d578063e30c397814610280578063f023f2221461029e578063f2fde38b146102bf578063fcf3e555146102db5761010b565b806399e84ba2146101db5780639d55e41a146101f9578063a60913c514610215578063c42069ec146102315761010b565b8063715018a6116100de578063715018a61461018d5780637f6f9c241461019757806388cb18fd146101a15780638da5cb5b146101bd5761010b565b80630db02622146101105780631fc45b001461012e5780633a5e8a061461014c5780635767d5341461016a575b600080fd5b6101186102f9565b6040516101259190611323565b60405180910390f35b61013661030c565b60405161014391906113bd565b60405180910390f35b610154610332565b604051610161919061144f565b60405180910390f35b610172610345565b60405161018496959493929190611539565b60405180910390f35b610195610522565b005b61019f6105aa565b005b6101bb60048036038101906101b691906116f8565b6105ac565b005b6101c561062b565b6040516101d29190611762565b60405180910390f35b6101e3610654565b6040516101f09190611889565b60405180910390f35b610213600480360381019061020e91906116f8565b610730565b005b61022f600480360381019061022a91906118d7565b6107af565b005b61024b60048036038101906102469190611933565b610bc0565b005b6102676004803603810190610262919061198c565b610d8a565b60405161027794939291906119b9565b60405180910390f35b610288610ef8565b6040516102959190611762565b60405180910390f35b6102a6610f1e565b6040516102b694939291906119b9565b60405180910390f35b6102d960048036038101906102d49190611933565b61107a565b005b6102e3611172565b6040516102f09190611a2d565b60405180910390f35b600d60149054906101000a900460ff1681565b600e60009054906101000a900473ffffffffffffffffffffffffffffffffffffffff1681565b600260009054906101000a900460ff1681565b60038060000160009054906101000a900460ff169080600101805461036990611a77565b80601f016020809104026020016040519081016040528092919081815260200182805461039590611a77565b80156103e25780601f106103b7576101008083540402835291602001916103e2565b820191906000526020600020905b8154815290600101906020018083116103c557829003601f168201915b5050505050908060020180546103f790611a77565b80601f016020809104026020016040519081016040528092919081815260200182805461042390611a77565b80156104705780601f1061044557610100808354040283529160200191610470565b820191906000526020600020905b81548152906001019060200180831161045357829003601f168201915b50505050509080600301805461048590611a77565b80601f01602080910402602001604051908101604052809291908181526020018280546104b190611a77565b80156104fe5780601f106104d3576101008083540402835291602001916104fe565b820191906000526020600020905b8154815290600101906020018083116104e157829003601f168201915b5050505050908060040160009054906101000a900461ffff16908060050154905086565b61052a611198565b73ffffffffffffffffffffffffffffffffffffffff1661054861062b565b73ffffffffffffffffffffffffffffffffffffffff161461059e576040517f08c379a000000000000000000000000000000000000000000000000000000000815260040161059590611af5565b60405180910390fd5b6105a860006111a0565b565b565b6105b4611198565b73ffffffffffffffffffffffffffffffffffffffff166105d261062b565b73ffffffffffffffffffffffffffffffffffffffff1614610628576040517f08c379a000000000000000000000000000000000000000000000000000000000815260040161061f90611af5565b60405180910390fd5b50565b60008060009054906101000a900473ffffffffffffffffffffffffffffffffffffffff16905090565b60606003600601805480602002602001604051908101604052809291908181526020016000905b8282101561072757838290600052602060002001805461069a90611a77565b80601f01602080910402602001604051908101604052809291908181526020018280546106c690611a77565b80156107135780601f106106e857610100808354040283529160200191610713565b820191906000526020600020905b8154815290600101906020018083116106f657829003601f168201915b50505050508152602001906001019061067b565b50505050905090565b610738611198565b73ffffffffffffffffffffffffffffffffffffffff1661075661062b565b73ffffffffffffffffffffffffffffffffffffffff16146107ac576040517f08c379a00000000000000000000000000000000000000000000000000000000081526004016107a390611af5565b60405180910390fd5b50565b600d60009054906101000a900473ffffffffffffffffffffffffffffffffffffffff1673ffffffffffffffffffffffffffffffffffffffff163373ffffffffffffffffffffffffffffffffffffffff161461083f576040517f08c379a000000000000000000000000000000000000000000000000000000000815260040161083690611bad565b60405180910390fd5b600f60009054906101000a900473ffffffffffffffffffffffffffffffffffffffff1673ffffffffffffffffffffffffffffffffffffffff166346811b838333306040518463ffffffff1660e01b815260040161089e93929190611bee565b600060405180830381600087803b1580156108b857600080fd5b505af11580156108cc573d6000803e3d6000fd5b50505050600f60009054906101000a900473ffffffffffffffffffffffffffffffffffffffff1673ffffffffffffffffffffffffffffffffffffffff1663923ae89d33306040518363ffffffff1660e01b815260040161092d929190611c25565b600060405180830381600087803b15801561094757600080fd5b505af115801561095b573d6000803e3d6000fd5b505050506000600d60006101000a81548173ffffffffffffffffffffffffffffffffffffffff021916908373ffffffffffffffffffffffffffffffffffffffff160217905550600d601481819054906101000a900460ff166109bc90611c7d565b91906101000a81548160ff021916908360ff1602179055506040518060800160405280600d60149054906101000a900460ff1660ff1661ffff1681526020013373ffffffffffffffffffffffffffffffffffffffff1681526020016040518060400160405280601081526020017f706c616365686f6c646572206e616d650000000000000000000000000000000081525081526020018281525060016000600d60149054906101000a900460ff1660ff1661ffff16815260200190815260200160002060008201518160000160006101000a81548161ffff021916908361ffff16021790555060208201518160000160026101000a81548173ffffffffffffffffffffffffffffffffffffffff021916908373ffffffffffffffffffffffffffffffffffffffff1602179055506040820151816001019080519060200190610b05929190611264565b506060820151816002019080519060200190610b22929190611264565b50905050600e60009054906101000a900473ffffffffffffffffffffffffffffffffffffffff1673ffffffffffffffffffffffffffffffffffffffff166342842e0e83336003600501546040518463ffffffff1660e01b8152600401610b8a93929190611ca7565b600060405180830381600087803b158015610ba457600080fd5b505af1158015610bb8573d6000803e3d6000fd5b505050505050565b3373ffffffffffffffffffffffffffffffffffffffff1660016000600d60149054906101000a900460ff1660ff1661ffff16815260200190815260200160002060000160029054906101000a900473ffffffffffffffffffffffffffffffffffffffff1673ffffffffffffffffffffffffffffffffffffffff161480610c7857503373ffffffffffffffffffffffffffffffffffffffff16610c6061062b565b73ffffffffffffffffffffffffffffffffffffffff16145b610cb7576040517f08c379a0000000000000000000000000000000000000000000000000000000008152600401610cae90611d2a565b60405180910390fd5b80600d60006101000a81548173ffffffffffffffffffffffffffffffffffffffff021916908373ffffffffffffffffffffffffffffffffffffffff160217905550600f60009054906101000a900473ffffffffffffffffffffffffffffffffffffffff1673ffffffffffffffffffffffffffffffffffffffff1663fceceb9e82306040518363ffffffff1660e01b8152600401610d55929190611c25565b600060405180830381600087803b158015610d6f57600080fd5b505af1158015610d83573d6000803e3d6000fd5b5050505050565b60016020528060005260406000206000915090508060000160009054906101000a900461ffff16908060000160029054906101000a900473ffffffffffffffffffffffffffffffffffffffff1690806001018054610de790611a77565b80601f0160208091040260200160405190810160405280929190818152602001828054610e1390611a77565b8015610e605780601f10610e3557610100808354040283529160200191610e60565b820191906000526020600020905b815481529060010190602001808311610e4357829003601f168201915b505050505090806002018054610e7590611a77565b80601f0160208091040260200160405190810160405280929190818152602001828054610ea190611a77565b8015610eee5780601f10610ec357610100808354040283529160200191610eee565b820191906000526020600020905b815481529060010190602001808311610ed157829003601f168201915b5050505050905084565b600d60009054906101000a900473ffffffffffffffffffffffffffffffffffffffff1681565b600a8060000160009054906101000a900461ffff16908060000160029054906101000a900473ffffffffffffffffffffffffffffffffffffffff1690806001018054610f6990611a77565b80601f0160208091040260200160405190810160405280929190818152602001828054610f9590611a77565b8015610fe25780601f10610fb757610100808354040283529160200191610fe2565b820191906000526020600020905b815481529060010190602001808311610fc557829003601f168201915b505050505090806002018054610ff790611a77565b80601f016020809104026020016040519081016040528092919081815260200182805461102390611a77565b80156110705780601f1061104557610100808354040283529160200191611070565b820191906000526020600020905b81548152906001019060200180831161105357829003601f168201915b5050505050905084565b611082611198565b73ffffffffffffffffffffffffffffffffffffffff166110a061062b565b73ffffffffffffffffffffffffffffffffffffffff16146110f6576040517f08c379a00000000000000000000000000000000000000000000000000000000081526004016110ed90611af5565b60405180910390fd5b600073ffffffffffffffffffffffffffffffffffffffff168173ffffffffffffffffffffffffffffffffffffffff161415611166576040517f08c379a000000000000000000000000000000000000000000000000000000000815260040161115d90611dbc565b60405180910390fd5b61116f816111a0565b50565b600f60009054906101000a900473ffffffffffffffffffffffffffffffffffffffff1681565b600033905090565b60008060009054906101000a900473ffffffffffffffffffffffffffffffffffffffff169050816000806101000a81548173ffffffffffffffffffffffffffffffffffffffff021916908373ffffffffffffffffffffffffffffffffffffffff1602179055508173ffffffffffffffffffffffffffffffffffffffff168173ffffffffffffffffffffffffffffffffffffffff167f8be0079c531659141344cd1fd0a4f28419497f9722a3daafe3b4186f6b6457e060405160405180910390a35050565b82805461127090611a77565b90600052602060002090601f01602090048101928261129257600085556112d9565b82601f106112ab57805160ff19168380011785556112d9565b828001600101855582156112d9579182015b828111156112d85782518255916020019190600101906112bd565b5b5090506112e691906112ea565b5090565b5b808211156113035760008160009055506001016112eb565b5090565b600060ff82169050919050565b61131d81611307565b82525050565b60006020820190506113386000830184611314565b92915050565b600073ffffffffffffffffffffffffffffffffffffffff82169050919050565b6000819050919050565b600061138361137e6113798461133e565b61135e565b61133e565b9050919050565b600061139582611368565b9050919050565b60006113a78261138a565b9050919050565b6113b78161139c565b82525050565b60006020820190506113d260008301846113ae565b92915050565b7f4e487b7100000000000000000000000000000000000000000000000000000000600052602160045260246000fd5b60038110611418576114176113d8565b5b50565b600081905061142982611407565b919050565b60006114398261141b565b9050919050565b6114498161142e565b82525050565b60006020820190506114646000830184611440565b92915050565b600081519050919050565b600082825260208201905092915050565b60005b838110156114a4578082015181840152602081019050611489565b838111156114b3576000848401525b50505050565b6000601f19601f8301169050919050565b60006114d58261146a565b6114df8185611475565b93506114ef818560208601611486565b6114f8816114b9565b840191505092915050565b600061ffff82169050919050565b61151a81611503565b82525050565b6000819050919050565b61153381611520565b82525050565b600060c08201905061154e6000830189611440565b818103602083015261156081886114ca565b9050818103604083015261157481876114ca565b9050818103606083015261158881866114ca565b90506115976080830185611511565b6115a460a083018461152a565b979650505050505050565b6000604051905090565b600080fd5b600080fd5b600080fd5b600080fd5b7f4e487b7100000000000000000000000000000000000000000000000000000000600052604160045260246000fd5b611605826114b9565b810181811067ffffffffffffffff82111715611624576116236115cd565b5b80604052505050565b60006116376115af565b905061164382826115fc565b919050565b600067ffffffffffffffff821115611663576116626115cd565b5b61166c826114b9565b9050602081019050919050565b82818337600083830152505050565b600061169b61169684611648565b61162d565b9050828152602081018484840111156116b7576116b66115c8565b5b6116c2848285611679565b509392505050565b600082601f8301126116df576116de6115c3565b5b81356116ef848260208601611688565b91505092915050565b60006020828403121561170e5761170d6115b9565b5b600082013567ffffffffffffffff81111561172c5761172b6115be565b5b611738848285016116ca565b91505092915050565b600061174c8261133e565b9050919050565b61175c81611741565b82525050565b60006020820190506117776000830184611753565b92915050565b600081519050919050565b600082825260208201905092915050565b6000819050602082019050919050565b600082825260208201905092915050565b60006117c58261146a565b6117cf81856117a9565b93506117df818560208601611486565b6117e8816114b9565b840191505092915050565b60006117ff83836117ba565b905092915050565b6000602082019050919050565b600061181f8261177d565b6118298185611788565b93508360208202850161183b85611799565b8060005b85811015611877578484038952815161185885826117f3565b945061186383611807565b925060208a0199505060018101905061183f565b50829750879550505050505092915050565b600060208201905081810360008301526118a38184611814565b905092915050565b6118b481611741565b81146118bf57600080fd5b50565b6000813590506118d1816118ab565b92915050565b600080604083850312156118ee576118ed6115b9565b5b60006118fc858286016118c2565b925050602083013567ffffffffffffffff81111561191d5761191c6115be565b5b611929858286016116ca565b9150509250929050565b600060208284031215611949576119486115b9565b5b6000611957848285016118c2565b91505092915050565b61196981611503565b811461197457600080fd5b50565b60008135905061198681611960565b92915050565b6000602082840312156119a2576119a16115b9565b5b60006119b084828501611977565b91505092915050565b60006080820190506119ce6000830187611511565b6119db6020830186611753565b81810360408301526119ed81856114ca565b90508181036060830152611a0181846114ca565b905095945050505050565b6000611a178261138a565b9050919050565b611a2781611a0c565b82525050565b6000602082019050611a426000830184611a1e565b92915050565b7f4e487b7100000000000000000000000000000000000000000000000000000000600052602260045260246000fd5b60006002820490506001821680611a8f57607f821691505b60208210811415611aa357611aa2611a48565b5b50919050565b7f4f776e61626c653a2063616c6c6572206973206e6f7420746865206f776e6572600082015250565b6000611adf602083611475565b9150611aea82611aa9565b602082019050919050565b60006020820190508181036000830152611b0e81611ad2565b9050919050565b7f596f7520617265206e6f74207468652070656e64696e674f776e6572206f662060008201527f74686973206974656d20616e64207468657265666f72652063616e6e6f74206360208201527f6c61696d20697400000000000000000000000000000000000000000000000000604082015250565b6000611b97604783611475565b9150611ba282611b15565b606082019050919050565b60006020820190508181036000830152611bc681611b8a565b9050919050565b6000611bd88261138a565b9050919050565b611be881611bcd565b82525050565b6000606082019050611c036000830186611753565b611c106020830185611753565b611c1d6040830184611bdf565b949350505050565b6000604082019050611c3a6000830185611753565b611c476020830184611753565b9392505050565b7f4e487b7100000000000000000000000000000000000000000000000000000000600052601160045260246000fd5b6000611c8882611307565b915060ff821415611c9c57611c9b611c4e565b5b600182019050919050565b6000606082019050611cbc6000830186611753565b611cc96020830185611753565b611cd6604083018461152a565b949350505050565b7f6f6e6c79417574686f72697a6564206661696c00000000000000000000000000600082015250565b6000611d14601383611475565b9150611d1f82611cde565b602082019050919050565b60006020820190508181036000830152611d4381611d07565b9050919050565b7f4f776e61626c653a206e6577206f776e657220697320746865207a65726f206160008201527f6464726573730000000000000000000000000000000000000000000000000000602082015250565b6000611da6602683611475565b9150611db182611d4a565b604082019050919050565b60006020820190508181036000830152611dd581611d99565b905091905056fea2646970667358221220178781d029be06f4d4233df81a609663f4083217faa586791574c686bbe9eec964736f6c634300080a0033a2646970667358221220502f6d4a540b79566fd4b2ca142932ab02ecc8c3610141e2da400b6cd0c355f464736f6c634300080a0033",
  "linkReferences": {},
  "deployedLinkReferences": {}
}