{
  "_format": "hh-sol-artifact-1",
  "contractName": "ProvenanceOptimization",
  "sourceName": "contracts/ProvenanceOptimization.sol",
  "abi": [
    {
      "inputs": [
        {
          "internalType": "enum ProvenanceOptimization.Types",
          "name": "enumType",
          "type": "uint8"
        },
        {
          "internalType": "bytes32",
          "name": "_serial",
          "type": "bytes32"
        },
        {
          "internalType": "bytes32",
          "name": "_brand",
          "type": "bytes32"
        },
        {
          "internalType": "bytes32",
          "name": "_model",
          "type": "bytes32"
        },
        {
          "internalType": "uint16",
          "name": "_year",
          "type": "uint16"
        },
        {
          "internalType": "uint256",
          "name": "_instrumentDeedToken",
          "type": "uint256"
        },
        {
          "internalType": "bytes32",
          "name": "_date",
          "type": "bytes32"
        },
        {
          "internalType": "bytes32",
          "name": "_verificationPhotoHash",
          "type": "bytes32"
        },
        {
          "internalType": "bytes32[]",
          "name": "_instrumentPhotoHashes",
          "type": "bytes32[]"
        },
        {
          "internalType": "address",
          "name": "_mothershipAddress",
          "type": "address"
        },
        {
          "internalType": "address",
          "name": "_deedTokenAddress",
          "type": "address"
        }
      ],
      "stateMutability": "nonpayable",
      "type": "constructor"
    },
    {
      "anonymous": false,
      "inputs": [
        {
          "indexed": true,
          "internalType": "address",
          "name": "previousOwner",
          "type": "address"
        },
        {
          "indexed": true,
          "internalType": "address",
          "name": "newOwner",
          "type": "address"
        }
      ],
      "name": "OwnershipTransferred",
      "type": "event"
    },
    {
      "inputs": [
        {
          "internalType": "bytes32",
          "name": "instrumentPhotoHash",
          "type": "bytes32"
        }
      ],
      "name": "addNewInstrumentPhoto",
      "outputs": [],
      "stateMutability": "nonpayable",
      "type": "function"
    },
    {
      "inputs": [
        {
          "internalType": "address",
          "name": "_seller",
          "type": "address"
        },
        {
          "internalType": "bytes32",
          "name": "_verificationPhotoHash",
          "type": "bytes32"
        },
        {
          "internalType": "bytes32",
          "name": "date",
          "type": "bytes32"
        }
      ],
      "name": "claimOwnership",
      "outputs": [],
      "stateMutability": "nonpayable",
      "type": "function"
    },
    {
      "inputs": [],
      "name": "getItemPics",
      "outputs": [
        {
          "internalType": "bytes32[]",
          "name": "",
          "type": "bytes32[]"
        }
      ],
      "stateMutability": "view",
      "type": "function"
    },
    {
      "inputs": [],
      "name": "getOwnershipHistory",
      "outputs": [
        {
          "components": [
            {
              "internalType": "uint16",
              "name": "ownerCount",
              "type": "uint16"
            },
            {
              "internalType": "address",
              "name": "ownerAddress",
              "type": "address"
            },
            {
              "internalType": "bytes32",
              "name": "verificationPhotoHash",
              "type": "bytes32"
            },
            {
              "internalType": "bytes32",
              "name": "date",
              "type": "bytes32"
            }
          ],
          "internalType": "struct ProvenanceOptimization.Owner[]",
          "name": "",
          "type": "tuple[]"
        }
      ],
      "stateMutability": "view",
      "type": "function"
    },
    {
      "inputs": [],
      "name": "instrument",
      "outputs": [
        {
          "internalType": "enum ProvenanceOptimization.Types",
          "name": "typeOfProvenance",
          "type": "uint8"
        },
        {
          "internalType": "bytes32",
          "name": "serial",
          "type": "bytes32"
        },
        {
          "internalType": "bytes32",
          "name": "brand",
          "type": "bytes32"
        },
        {
          "internalType": "bytes32",
          "name": "model",
          "type": "bytes32"
        },
        {
          "internalType": "uint16",
          "name": "year",
          "type": "uint16"
        },
        {
          "internalType": "uint256",
          "name": "instrumentDeedToken",
          "type": "uint256"
        }
      ],
      "stateMutability": "view",
      "type": "function"
    },
    {
      "inputs": [],
      "name": "instrumentDeedTokenContract",
      "outputs": [
        {
          "internalType": "contract InstrumentDeedToken",
          "name": "",
          "type": "address"
        }
      ],
      "stateMutability": "view",
      "type": "function"
    },
    {
      "inputs": [],
      "name": "instrumentOwner",
      "outputs": [
        {
          "internalType": "uint16",
          "name": "ownerCount",
          "type": "uint16"
        },
        {
          "internalType": "address",
          "name": "ownerAddress",
          "type": "address"
        },
        {
          "internalType": "bytes32",
          "name": "verificationPhotoHash",
          "type": "bytes32"
        },
        {
          "internalType": "bytes32",
          "name": "date",
          "type": "bytes32"
        }
      ],
      "stateMutability": "view",
      "type": "function"
    },
    {
      "inputs": [],
      "name": "mothershipContract",
      "outputs": [
        {
          "internalType": "contract MothershipOptimization",
          "name": "",
          "type": "address"
        }
      ],
      "stateMutability": "view",
      "type": "function"
    },
    {
      "inputs": [],
      "name": "owner",
      "outputs": [
        {
          "internalType": "address",
          "name": "",
          "type": "address"
        }
      ],
      "stateMutability": "view",
      "type": "function"
    },
    {
      "inputs": [],
      "name": "ownerCount",
      "outputs": [
        {
          "internalType": "uint8",
          "name": "",
          "type": "uint8"
        }
      ],
      "stateMutability": "view",
      "type": "function"
    },
    {
      "inputs": [
        {
          "internalType": "uint16",
          "name": "",
          "type": "uint16"
        }
      ],
      "name": "ownerProvenance",
      "outputs": [
        {
          "internalType": "uint16",
          "name": "ownerCount",
          "type": "uint16"
        },
        {
          "internalType": "address",
          "name": "ownerAddress",
          "type": "address"
        },
        {
          "internalType": "bytes32",
          "name": "verificationPhotoHash",
          "type": "bytes32"
        },
        {
          "internalType": "bytes32",
          "name": "date",
          "type": "bytes32"
        }
      ],
      "stateMutability": "view",
      "type": "function"
    },
    {
      "inputs": [],
      "name": "pendingOwner",
      "outputs": [
        {
          "internalType": "address",
          "name": "",
          "type": "address"
        }
      ],
      "stateMutability": "view",
      "type": "function"
    },
    {
      "inputs": [],
      "name": "renounceOwnership",
      "outputs": [],
      "stateMutability": "nonpayable",
      "type": "function"
    },
    {
      "inputs": [
        {
          "internalType": "bytes32",
          "name": "verificationPhotoHash",
          "type": "bytes32"
        }
      ],
      "name": "setNewVerificationPhoto",
      "outputs": [],
      "stateMutability": "nonpayable",
      "type": "function"
    },
    {
      "inputs": [
        {
          "internalType": "address",
          "name": "buyer",
          "type": "address"
        }
      ],
      "name": "setPendingOwner",
      "outputs": [],
      "stateMutability": "nonpayable",
      "type": "function"
    },
    {
      "inputs": [
        {
          "internalType": "address",
          "name": "newOwner",
          "type": "address"
        }
      ],
      "name": "transferOwnership",
      "outputs": [],
      "stateMutability": "nonpayable",
      "type": "function"
    },
    {
      "inputs": [],
      "name": "typeOfProvenance",
      "outputs": [
        {
          "internalType": "enum ProvenanceOptimization.Types",
          "name": "",
          "type": "uint8"
        }
      ],
      "stateMutability": "view",
      "type": "function"
    }
  ],
  "bytecode": "0x60806040523480156200001157600080fd5b50604051620025c3380380620025c3833981810160405281019062000037919062000738565b620000576200004b6200033060201b60201c565b6200033860201b60201c565b81600f60006101000a81548173ffffffffffffffffffffffffffffffffffffffff021916908373ffffffffffffffffffffffffffffffffffffffff16021790555080600e60006101000a81548173ffffffffffffffffffffffffffffffffffffffff021916908373ffffffffffffffffffffffffffffffffffffffff1602179055508a600360000160006101000a81548160ff0219169083600281111562000104576200010362000864565b5b0217905550896003600101819055508860036002018190555087600380018190555086600360040160006101000a81548161ffff021916908361ffff1602179055508560036005018190555082600360060190805190602001906200016b929190620003fc565b506001600d60146101000a81548160ff021916908360ff1602179055506040518060800160405280600d60149054906101000a900460ff1660ff1661ffff168152602001600e60009054906101000a900473ffffffffffffffffffffffffffffffffffffffff1673ffffffffffffffffffffffffffffffffffffffff16636352211e896040518263ffffffff1660e01b81526004016200020c9190620008a4565b602060405180830381865afa1580156200022a573d6000803e3d6000fd5b505050506040513d601f19601f82011682018060405250810190620002509190620008c1565b73ffffffffffffffffffffffffffffffffffffffff1681526020018581526020018681525060016000600d60149054906101000a900460ff1660ff1661ffff16815260200190815260200160002060008201518160000160006101000a81548161ffff021916908361ffff16021790555060208201518160000160026101000a81548173ffffffffffffffffffffffffffffffffffffffff021916908373ffffffffffffffffffffffffffffffffffffffff16021790555060408201518160010155606082015181600201559050505050505050505050505050620008f3565b600033905090565b60008060009054906101000a900473ffffffffffffffffffffffffffffffffffffffff169050816000806101000a81548173ffffffffffffffffffffffffffffffffffffffff021916908373ffffffffffffffffffffffffffffffffffffffff1602179055508173ffffffffffffffffffffffffffffffffffffffff168173ffffffffffffffffffffffffffffffffffffffff167f8be0079c531659141344cd1fd0a4f28419497f9722a3daafe3b4186f6b6457e060405160405180910390a35050565b8280548282559060005260206000209081019282156200043b579160200282015b828111156200043a5782518255916020019190600101906200041d565b5b5090506200044a91906200044e565b5090565b5b80821115620004695760008160009055506001016200044f565b5090565b6000604051905090565b600080fd5b600080fd5b600381106200048f57600080fd5b50565b600081519050620004a38162000481565b92915050565b6000819050919050565b620004be81620004a9565b8114620004ca57600080fd5b50565b600081519050620004de81620004b3565b92915050565b600061ffff82169050919050565b620004fd81620004e4565b81146200050957600080fd5b50565b6000815190506200051d81620004f2565b92915050565b6000819050919050565b620005388162000523565b81146200054457600080fd5b50565b60008151905062000558816200052d565b92915050565b600080fd5b6000601f19601f8301169050919050565b7f4e487b7100000000000000000000000000000000000000000000000000000000600052604160045260246000fd5b620005ae8262000563565b810181811067ffffffffffffffff82111715620005d057620005cf62000574565b5b80604052505050565b6000620005e56200046d565b9050620005f38282620005a3565b919050565b600067ffffffffffffffff82111562000616576200061562000574565b5b602082029050602081019050919050565b600080fd5b6000620006436200063d84620005f8565b620005d9565b9050808382526020820190506020840283018581111562000669576200066862000627565b5b835b81811015620006965780620006818882620004cd565b8452602084019350506020810190506200066b565b5050509392505050565b600082601f830112620006b857620006b76200055e565b5b8151620006ca8482602086016200062c565b91505092915050565b600073ffffffffffffffffffffffffffffffffffffffff82169050919050565b60006200070082620006d3565b9050919050565b6200071281620006f3565b81146200071e57600080fd5b50565b600081519050620007328162000707565b92915050565b60008060008060008060008060008060006101608c8e03121562000761576200076062000477565b5b6000620007718e828f0162000492565b9b50506020620007848e828f01620004cd565b9a50506040620007978e828f01620004cd565b9950506060620007aa8e828f01620004cd565b9850506080620007bd8e828f016200050c565b97505060a0620007d08e828f0162000547565b96505060c0620007e38e828f01620004cd565b95505060e0620007f68e828f01620004cd565b9450506101008c015167ffffffffffffffff8111156200081b576200081a6200047c565b5b620008298e828f01620006a0565b9350506101206200083d8e828f0162000721565b925050610140620008518e828f0162000721565b9150509295989b509295989b9093969950565b7f4e487b7100000000000000000000000000000000000000000000000000000000600052602160045260246000fd5b6200089e8162000523565b82525050565b6000602082019050620008bb600083018462000893565b92915050565b600060208284031215620008da57620008d962000477565b5b6000620008ea8482850162000721565b91505092915050565b611cc080620009036000396000f3fe608060405234801561001057600080fd5b506004361061010b5760003560e01c806399e84ba2116100a2578063debc241911610071578063debc241914610261578063e30c397814610294578063f023f222146102b2578063f2fde38b146102d3578063fcf3e555146102ef5761010b565b806399e84ba2146101ef578063b7083ca61461020d578063c0d62b3014610229578063c42069ec146102455761010b565b80635767d534116100de5780635767d534146101865780636f4cf183146101a9578063715018a6146101c75780638da5cb5b146101d15761010b565b80630db02622146101105780631fc45b001461012e5780633a5e8a061461014c578063462f67d91461016a575b600080fd5b61011861030d565b6040516101259190611178565b60405180910390f35b610136610320565b6040516101439190611212565b60405180910390f35b610154610346565b60405161016191906112a4565b60405180910390f35b610184600480360381019061017f91906112fa565b610359565b005b61018e6103d8565b6040516101a09695949392919061136c565b60405180910390f35b6101b161041d565b6040516101be9190611510565b60405180910390f35b6101cf6105f1565b005b6101d9610679565b6040516101e69190611541565b60405180910390f35b6101f76106a2565b604051610204919061160b565b60405180910390f35b610227600480360381019061022291906112fa565b6106fd565b005b610243600480360381019061023e9190611659565b61077c565b005b61025f600480360381019061025a91906116ac565b610b35565b005b61027b60048036038101906102769190611705565b610cff565b60405161028b9493929190611732565b60405180910390f35b61029c610d5d565b6040516102a99190611541565b60405180910390f35b6102ba610d83565b6040516102ca9493929190611732565b60405180910390f35b6102ed60048036038101906102e891906116ac565b610dcf565b005b6102f7610ec7565b6040516103049190611798565b60405180910390f35b600d60149054906101000a900460ff1681565b600e60009054906101000a900473ffffffffffffffffffffffffffffffffffffffff1681565b600260009054906101000a900460ff1681565b610361610eed565b73ffffffffffffffffffffffffffffffffffffffff1661037f610679565b73ffffffffffffffffffffffffffffffffffffffff16146103d5576040517f08c379a00000000000000000000000000000000000000000000000000000000081526004016103cc90611810565b60405180910390fd5b50565b60038060000160009054906101000a900460ff16908060010154908060020154908060030154908060040160009054906101000a900461ffff16908060050154905086565b606060006001600d60149054906101000a900460ff1661043d919061185f565b60ff1667ffffffffffffffff81111561045957610458611896565b5b60405190808252806020026020018201604052801561049257816020015b61047f611114565b8152602001906001900390816104775790505b5090506000600190505b600d60149054906101000a900460ff1660ff168161ffff16116105e9576104f76040518060400160405280600781526020017f68697474696e6700000000000000000000000000000000000000000000000000815250610ef5565b600160008261ffff1661ffff1681526020019081526020016000206040518060800160405290816000820160009054906101000a900461ffff1661ffff1661ffff1681526020016000820160029054906101000a900473ffffffffffffffffffffffffffffffffffffffff1673ffffffffffffffffffffffffffffffffffffffff1673ffffffffffffffffffffffffffffffffffffffff16815260200160018201548152602001600282015481525050828261ffff16815181106105be576105bd6118c5565b5b60200260200101819052506105d68161ffff16610f8e565b80806105e1906118f4565b91505061049c565b508091505090565b6105f9610eed565b73ffffffffffffffffffffffffffffffffffffffff16610617610679565b73ffffffffffffffffffffffffffffffffffffffff161461066d576040517f08c379a000000000000000000000000000000000000000000000000000000000815260040161066490611810565b60405180910390fd5b6106776000611027565b565b60008060009054906101000a900473ffffffffffffffffffffffffffffffffffffffff16905090565b606060036006018054806020026020016040519081016040528092919081815260200182805480156106f357602002820191906000526020600020905b8154815260200190600101908083116106df575b5050505050905090565b610705610eed565b73ffffffffffffffffffffffffffffffffffffffff16610723610679565b73ffffffffffffffffffffffffffffffffffffffff1614610779576040517f08c379a000000000000000000000000000000000000000000000000000000000815260040161077090611810565b60405180910390fd5b50565b600d60009054906101000a900473ffffffffffffffffffffffffffffffffffffffff1673ffffffffffffffffffffffffffffffffffffffff163373ffffffffffffffffffffffffffffffffffffffff161461080c576040517f08c379a0000000000000000000000000000000000000000000000000000000008152600401610803906119b7565b60405180910390fd5b600f60009054906101000a900473ffffffffffffffffffffffffffffffffffffffff1673ffffffffffffffffffffffffffffffffffffffff1663054f2612843330856040518563ffffffff1660e01b815260040161086d94939291906119f8565b600060405180830381600087803b15801561088757600080fd5b505af115801561089b573d6000803e3d6000fd5b50505050600f60009054906101000a900473ffffffffffffffffffffffffffffffffffffffff1673ffffffffffffffffffffffffffffffffffffffff1663923ae89d33306040518363ffffffff1660e01b81526004016108fc929190611a3d565b600060405180830381600087803b15801561091657600080fd5b505af115801561092a573d6000803e3d6000fd5b505050506000600d60006101000a81548173ffffffffffffffffffffffffffffffffffffffff021916908373ffffffffffffffffffffffffffffffffffffffff160217905550600d601481819054906101000a900460ff1661098b90611a66565b91906101000a81548160ff021916908360ff1602179055506040518060800160405280600d60149054906101000a900460ff1660ff1661ffff1681526020013373ffffffffffffffffffffffffffffffffffffffff1681526020018381526020018281525060016000600d60149054906101000a900460ff1660ff1661ffff16815260200190815260200160002060008201518160000160006101000a81548161ffff021916908361ffff16021790555060208201518160000160026101000a81548173ffffffffffffffffffffffffffffffffffffffff021916908373ffffffffffffffffffffffffffffffffffffffff1602179055506040820151816001015560608201518160020155905050600e60009054906101000a900473ffffffffffffffffffffffffffffffffffffffff1673ffffffffffffffffffffffffffffffffffffffff166342842e0e84336003600501546040518463ffffffff1660e01b8152600401610afe93929190611a90565b600060405180830381600087803b158015610b1857600080fd5b505af1158015610b2c573d6000803e3d6000fd5b50505050505050565b3373ffffffffffffffffffffffffffffffffffffffff1660016000600d60149054906101000a900460ff1660ff1661ffff16815260200190815260200160002060000160029054906101000a900473ffffffffffffffffffffffffffffffffffffffff1673ffffffffffffffffffffffffffffffffffffffff161480610bed57503373ffffffffffffffffffffffffffffffffffffffff16610bd5610679565b73ffffffffffffffffffffffffffffffffffffffff16145b610c2c576040517f08c379a0000000000000000000000000000000000000000000000000000000008152600401610c2390611b13565b60405180910390fd5b80600d60006101000a81548173ffffffffffffffffffffffffffffffffffffffff021916908373ffffffffffffffffffffffffffffffffffffffff160217905550600f60009054906101000a900473ffffffffffffffffffffffffffffffffffffffff1673ffffffffffffffffffffffffffffffffffffffff1663fceceb9e82306040518363ffffffff1660e01b8152600401610cca929190611a3d565b600060405180830381600087803b158015610ce457600080fd5b505af1158015610cf8573d6000803e3d6000fd5b5050505050565b60016020528060005260406000206000915090508060000160009054906101000a900461ffff16908060000160029054906101000a900473ffffffffffffffffffffffffffffffffffffffff16908060010154908060020154905084565b600d60009054906101000a900473ffffffffffffffffffffffffffffffffffffffff1681565b600a8060000160009054906101000a900461ffff16908060000160029054906101000a900473ffffffffffffffffffffffffffffffffffffffff16908060010154908060020154905084565b610dd7610eed565b73ffffffffffffffffffffffffffffffffffffffff16610df5610679565b73ffffffffffffffffffffffffffffffffffffffff1614610e4b576040517f08c379a0000000000000000000000000000000000000000000000000000000008152600401610e4290611810565b60405180910390fd5b600073ffffffffffffffffffffffffffffffffffffffff168173ffffffffffffffffffffffffffffffffffffffff161415610ebb576040517f08c379a0000000000000000000000000000000000000000000000000000000008152600401610eb290611ba5565b60405180910390fd5b610ec481611027565b50565b600f60009054906101000a900473ffffffffffffffffffffffffffffffffffffffff1681565b600033905090565b610f8b81604051602401610f099190611c4d565b6040516020818303038152906040527f41304fac000000000000000000000000000000000000000000000000000000007bffffffffffffffffffffffffffffffffffffffffffffffffffffffff19166020820180517bffffffffffffffffffffffffffffffffffffffffffffffffffffffff83818316178352505050506110eb565b50565b61102481604051602401610fa29190611c6f565b6040516020818303038152906040527ff5b1bba9000000000000000000000000000000000000000000000000000000007bffffffffffffffffffffffffffffffffffffffffffffffffffffffff19166020820180517bffffffffffffffffffffffffffffffffffffffffffffffffffffffff83818316178352505050506110eb565b50565b60008060009054906101000a900473ffffffffffffffffffffffffffffffffffffffff169050816000806101000a81548173ffffffffffffffffffffffffffffffffffffffff021916908373ffffffffffffffffffffffffffffffffffffffff1602179055508173ffffffffffffffffffffffffffffffffffffffff168173ffffffffffffffffffffffffffffffffffffffff167f8be0079c531659141344cd1fd0a4f28419497f9722a3daafe3b4186f6b6457e060405160405180910390a35050565b60008151905060006a636f6e736f6c652e6c6f679050602083016000808483855afa5050505050565b6040518060800160405280600061ffff168152602001600073ffffffffffffffffffffffffffffffffffffffff16815260200160008019168152602001600080191681525090565b600060ff82169050919050565b6111728161115c565b82525050565b600060208201905061118d6000830184611169565b92915050565b600073ffffffffffffffffffffffffffffffffffffffff82169050919050565b6000819050919050565b60006111d86111d36111ce84611193565b6111b3565b611193565b9050919050565b60006111ea826111bd565b9050919050565b60006111fc826111df565b9050919050565b61120c816111f1565b82525050565b60006020820190506112276000830184611203565b92915050565b7f4e487b7100000000000000000000000000000000000000000000000000000000600052602160045260246000fd5b6003811061126d5761126c61122d565b5b50565b600081905061127e8261125c565b919050565b600061128e82611270565b9050919050565b61129e81611283565b82525050565b60006020820190506112b96000830184611295565b92915050565b600080fd5b6000819050919050565b6112d7816112c4565b81146112e257600080fd5b50565b6000813590506112f4816112ce565b92915050565b6000602082840312156113105761130f6112bf565b5b600061131e848285016112e5565b91505092915050565b611330816112c4565b82525050565b600061ffff82169050919050565b61134d81611336565b82525050565b6000819050919050565b61136681611353565b82525050565b600060c0820190506113816000830189611295565b61138e6020830188611327565b61139b6040830187611327565b6113a86060830186611327565b6113b56080830185611344565b6113c260a083018461135d565b979650505050505050565b600081519050919050565b600082825260208201905092915050565b6000819050602082019050919050565b61140281611336565b82525050565b600061141382611193565b9050919050565b61142381611408565b82525050565b611432816112c4565b82525050565b60808201600082015161144e60008501826113f9565b506020820151611461602085018261141a565b5060408201516114746040850182611429565b5060608201516114876060850182611429565b50505050565b60006114998383611438565b60808301905092915050565b6000602082019050919050565b60006114bd826113cd565b6114c781856113d8565b93506114d2836113e9565b8060005b838110156115035781516114ea888261148d565b97506114f5836114a5565b9250506001810190506114d6565b5085935050505092915050565b6000602082019050818103600083015261152a81846114b2565b905092915050565b61153b81611408565b82525050565b60006020820190506115566000830184611532565b92915050565b600081519050919050565b600082825260208201905092915050565b6000819050602082019050919050565b60006115948383611429565b60208301905092915050565b6000602082019050919050565b60006115b88261155c565b6115c28185611567565b93506115cd83611578565b8060005b838110156115fe5781516115e58882611588565b97506115f0836115a0565b9250506001810190506115d1565b5085935050505092915050565b6000602082019050818103600083015261162581846115ad565b905092915050565b61163681611408565b811461164157600080fd5b50565b6000813590506116538161162d565b92915050565b600080600060608486031215611672576116716112bf565b5b600061168086828701611644565b9350506020611691868287016112e5565b92505060406116a2868287016112e5565b9150509250925092565b6000602082840312156116c2576116c16112bf565b5b60006116d084828501611644565b91505092915050565b6116e281611336565b81146116ed57600080fd5b50565b6000813590506116ff816116d9565b92915050565b60006020828403121561171b5761171a6112bf565b5b6000611729848285016116f0565b91505092915050565b60006080820190506117476000830187611344565b6117546020830186611532565b6117616040830185611327565b61176e6060830184611327565b95945050505050565b6000611782826111df565b9050919050565b61179281611777565b82525050565b60006020820190506117ad6000830184611789565b92915050565b600082825260208201905092915050565b7f4f776e61626c653a2063616c6c6572206973206e6f7420746865206f776e6572600082015250565b60006117fa6020836117b3565b9150611805826117c4565b602082019050919050565b60006020820190508181036000830152611829816117ed565b9050919050565b7f4e487b7100000000000000000000000000000000000000000000000000000000600052601160045260246000fd5b600061186a8261115c565b91506118758361115c565b92508260ff0382111561188b5761188a611830565b5b828201905092915050565b7f4e487b7100000000000000000000000000000000000000000000000000000000600052604160045260246000fd5b7f4e487b7100000000000000000000000000000000000000000000000000000000600052603260045260246000fd5b60006118ff82611336565b915061ffff82141561191457611913611830565b5b600182019050919050565b7f596f7520617265206e6f74207468652070656e64696e674f776e6572206f662060008201527f74686973206974656d20616e64207468657265666f72652063616e6e6f74206360208201527f6c61696d20697400000000000000000000000000000000000000000000000000604082015250565b60006119a16047836117b3565b91506119ac8261191f565b606082019050919050565b600060208201905081810360008301526119d081611994565b9050919050565b60006119e2826111df565b9050919050565b6119f2816119d7565b82525050565b6000608082019050611a0d6000830187611532565b611a1a6020830186611532565b611a2760408301856119e9565b611a346060830184611327565b95945050505050565b6000604082019050611a526000830185611532565b611a5f6020830184611532565b9392505050565b6000611a718261115c565b915060ff821415611a8557611a84611830565b5b600182019050919050565b6000606082019050611aa56000830186611532565b611ab26020830185611532565b611abf604083018461135d565b949350505050565b7f6f6e6c79417574686f72697a6564206661696c00000000000000000000000000600082015250565b6000611afd6013836117b3565b9150611b0882611ac7565b602082019050919050565b60006020820190508181036000830152611b2c81611af0565b9050919050565b7f4f776e61626c653a206e6577206f776e657220697320746865207a65726f206160008201527f6464726573730000000000000000000000000000000000000000000000000000602082015250565b6000611b8f6026836117b3565b9150611b9a82611b33565b604082019050919050565b60006020820190508181036000830152611bbe81611b82565b9050919050565b600081519050919050565b60005b83811015611bee578082015181840152602081019050611bd3565b83811115611bfd576000848401525b50505050565b6000601f19601f8301169050919050565b6000611c1f82611bc5565b611c2981856117b3565b9350611c39818560208601611bd0565b611c4281611c03565b840191505092915050565b60006020820190508181036000830152611c678184611c14565b905092915050565b6000602082019050611c84600083018461135d565b9291505056fea2646970667358221220f61a564cd0cacde387a28dc21df9e899353d09cb3bdc7128e9eb76f19a99972664736f6c634300080a0033",
  "linkReferences": {},
  "deployedLinkReferences": {}
}