{
  "_format": "hh-sol-artifact-1",
  "contractName": "Provenance",
  "sourceName": "contracts/Provenance.sol",
  "abi": [
    {
      "inputs": [
        {
          "internalType": "enum Provenance.Types",
          "name": "enumType",
          "type": "uint8"
        },
        {
          "internalType": "bytes32",
          "name": "_serial",
          "type": "bytes32"
        },
        {
          "internalType": "bytes32",
          "name": "_brand",
          "type": "bytes32"
        },
        {
          "internalType": "bytes32",
          "name": "_model",
          "type": "bytes32"
        },
        {
          "internalType": "uint16",
          "name": "_year",
          "type": "uint16"
        },
        {
          "internalType": "uint16",
          "name": "_instrumentDeedToken",
          "type": "uint16"
        },
        {
          "internalType": "bytes32",
          "name": "_date",
          "type": "bytes32"
        },
        {
          "internalType": "bytes32",
          "name": "_verificationPhotoHash",
          "type": "bytes32"
        },
        {
          "internalType": "bytes[]",
          "name": "_instrumentPhotoHashes",
          "type": "bytes[]"
        },
        {
          "internalType": "address",
          "name": "_mothershipAddress",
          "type": "address"
        },
        {
          "internalType": "address",
          "name": "_deedTokenAddress",
          "type": "address"
        }
      ],
      "stateMutability": "nonpayable",
      "type": "constructor"
    },
    {
      "anonymous": false,
      "inputs": [
        {
          "indexed": true,
          "internalType": "address",
          "name": "previousOwner",
          "type": "address"
        },
        {
          "indexed": true,
          "internalType": "address",
          "name": "newOwner",
          "type": "address"
        }
      ],
      "name": "OwnershipTransferred",
      "type": "event"
    },
    {
      "inputs": [
        {
          "internalType": "address",
          "name": "_seller",
          "type": "address"
        },
        {
          "internalType": "bytes32",
          "name": "_verificationPhotoHash",
          "type": "bytes32"
        },
        {
          "internalType": "bytes32",
          "name": "date",
          "type": "bytes32"
        }
      ],
      "name": "claimOwnership",
      "outputs": [],
      "stateMutability": "nonpayable",
      "type": "function"
    },
    {
      "inputs": [],
      "name": "getItemPics",
      "outputs": [
        {
          "internalType": "bytes[]",
          "name": "",
          "type": "bytes[]"
        }
      ],
      "stateMutability": "view",
      "type": "function"
    },
    {
      "inputs": [],
      "name": "getOwnershipHistory",
      "outputs": [
        {
          "components": [
            {
              "internalType": "address",
              "name": "ownerAddress",
              "type": "address"
            },
            {
              "internalType": "uint32",
              "name": "ownerCount",
              "type": "uint32"
            },
            {
              "internalType": "bytes32",
              "name": "verificationPhotoHash",
              "type": "bytes32"
            },
            {
              "internalType": "bytes32",
              "name": "date",
              "type": "bytes32"
            }
          ],
          "internalType": "struct Provenance.Owner[]",
          "name": "",
          "type": "tuple[]"
        }
      ],
      "stateMutability": "view",
      "type": "function"
    },
    {
      "inputs": [],
      "name": "instrument",
      "outputs": [
        {
          "internalType": "enum Provenance.Types",
          "name": "typeOfProvenance",
          "type": "uint8"
        },
        {
          "internalType": "bytes32",
          "name": "serial",
          "type": "bytes32"
        },
        {
          "internalType": "bytes32",
          "name": "brand",
          "type": "bytes32"
        },
        {
          "internalType": "bytes32",
          "name": "model",
          "type": "bytes32"
        },
        {
          "internalType": "uint16",
          "name": "year",
          "type": "uint16"
        },
        {
          "internalType": "uint16",
          "name": "instrumentDeedToken",
          "type": "uint16"
        }
      ],
      "stateMutability": "view",
      "type": "function"
    },
    {
      "inputs": [],
      "name": "instrumentDeedTokenContract",
      "outputs": [
        {
          "internalType": "contract InstrumentDeedToken",
          "name": "",
          "type": "address"
        }
      ],
      "stateMutability": "view",
      "type": "function"
    },
    {
      "inputs": [],
      "name": "instrumentOwner",
      "outputs": [
        {
          "internalType": "address",
          "name": "ownerAddress",
          "type": "address"
        },
        {
          "internalType": "uint32",
          "name": "ownerCount",
          "type": "uint32"
        },
        {
          "internalType": "bytes32",
          "name": "verificationPhotoHash",
          "type": "bytes32"
        },
        {
          "internalType": "bytes32",
          "name": "date",
          "type": "bytes32"
        }
      ],
      "stateMutability": "view",
      "type": "function"
    },
    {
      "inputs": [],
      "name": "mothershipContract",
      "outputs": [
        {
          "internalType": "contract Mothership",
          "name": "",
          "type": "address"
        }
      ],
      "stateMutability": "view",
      "type": "function"
    },
    {
      "inputs": [],
      "name": "owner",
      "outputs": [
        {
          "internalType": "address",
          "name": "",
          "type": "address"
        }
      ],
      "stateMutability": "view",
      "type": "function"
    },
    {
      "inputs": [],
      "name": "ownerCount",
      "outputs": [
        {
          "internalType": "uint32",
          "name": "",
          "type": "uint32"
        }
      ],
      "stateMutability": "view",
      "type": "function"
    },
    {
      "inputs": [
        {
          "internalType": "uint32",
          "name": "",
          "type": "uint32"
        }
      ],
      "name": "ownerProvenance",
      "outputs": [
        {
          "internalType": "address",
          "name": "ownerAddress",
          "type": "address"
        },
        {
          "internalType": "uint32",
          "name": "ownerCount",
          "type": "uint32"
        },
        {
          "internalType": "bytes32",
          "name": "verificationPhotoHash",
          "type": "bytes32"
        },
        {
          "internalType": "bytes32",
          "name": "date",
          "type": "bytes32"
        }
      ],
      "stateMutability": "view",
      "type": "function"
    },
    {
      "inputs": [],
      "name": "pendingOwner",
      "outputs": [
        {
          "internalType": "address",
          "name": "",
          "type": "address"
        }
      ],
      "stateMutability": "view",
      "type": "function"
    },
    {
      "inputs": [],
      "name": "renounceOwnership",
      "outputs": [],
      "stateMutability": "nonpayable",
      "type": "function"
    },
    {
      "inputs": [
        {
          "internalType": "address",
          "name": "buyer",
          "type": "address"
        }
      ],
      "name": "setPendingOwner",
      "outputs": [],
      "stateMutability": "nonpayable",
      "type": "function"
    },
    {
      "inputs": [
        {
          "internalType": "address",
          "name": "newOwner",
          "type": "address"
        }
      ],
      "name": "transferOwnership",
      "outputs": [],
      "stateMutability": "nonpayable",
      "type": "function"
    },
    {
      "inputs": [],
      "name": "typeOfProvenance",
      "outputs": [
        {
          "internalType": "enum Provenance.Types",
          "name": "",
          "type": "uint8"
        }
      ],
      "stateMutability": "view",
      "type": "function"
    }
  ],
  "bytecode": "0x60806040523480156200001157600080fd5b50604051620014283803806200142883398101604081905262000034916200055a565b6200003f3362000202565b600e80546001600160a01b038085166001600160a01b031992831617909255600d805492841692909116919091179055600380548c919060ff1916600183600281111562000091576200009162000634565b021790555060048a9055600589905560068890556007805461ffff888116620100000263ffffffff19909216908a16171790558251620000d990600890602086019062000252565b50600c805463ffffffff60a01b1916600160a01b179055604080516080810191829052600d546331a9108f60e11b90925261ffff881660848201529081906001600160a01b0316636352211e60a48301602060405180830381865afa15801562000147573d6000803e3d6000fd5b505050506040513d601f19601f820116820180604052508101906200016d91906200064a565b6001600160a01b039081168252600c5463ffffffff600160a01b918290048116602080860182905260408087019b909b5260609586019b909b5260009081526001808c52908a9020865181549c8801519093169093026001600160c01b0319909b16919093161798909817885595820151958701959095559093015160029094019390935550620006ac975050505050505050565b600080546001600160a01b038381166001600160a01b0319831681178455604051919092169283917f8be0079c531659141344cd1fd0a4f28419497f9722a3daafe3b4186f6b6457e09190a35050565b828054828255906000526020600020908101928215620002a4579160200282015b82811115620002a4578251805162000293918491602090910190620002b6565b509160200191906001019062000273565b50620002b292915062000341565b5090565b828054620002c4906200066f565b90600052602060002090601f016020900481019282620002e8576000855562000333565b82601f106200030357805160ff191683800117855562000333565b8280016001018555821562000333579182015b828111156200033357825182559160200191906001019062000316565b50620002b292915062000362565b80821115620002b257600062000358828262000379565b5060010162000341565b5b80821115620002b2576000815560010162000363565b50805462000387906200066f565b6000825580601f1062000398575050565b601f016020900490600052602060002090810190620003b8919062000362565b50565b805161ffff81168114620003ce57600080fd5b919050565b634e487b7160e01b600052604160045260246000fd5b604051601f8201601f191681016001600160401b0381118282101715620004145762000414620003d3565b604052919050565b6000601f83818401126200042f57600080fd5b825160206001600160401b03808311156200044e576200044e620003d3565b8260051b6200045f838201620003e9565b93845286810183019383810190898611156200047a57600080fd5b84890192505b8583101562000535578251848111156200049a5760008081fd5b8901603f81018b13620004ad5760008081fd5b8581015185811115620004c457620004c4620003d3565b620004d7818a01601f19168801620003e9565b81815260408d81848601011115620004ef5760008081fd5b60005b838110156200050f578481018201518382018b01528901620004f2565b83811115620005215760008a85850101525b505084525050918401919084019062000480565b9998505050505050505050565b80516001600160a01b0381168114620003ce57600080fd5b60008060008060008060008060008060006101608c8e0312156200057d57600080fd5b8b51600381106200058d57600080fd5b809b505060208c0151995060408c0151985060608c01519750620005b460808d01620003bb565b9650620005c460a08d01620003bb565b60c08d015160e08e01516101008f015192985090965094506001600160401b03811115620005f157600080fd5b620005ff8e828f016200041c565b935050620006116101208d0162000542565b9150620006226101408d0162000542565b90509295989b509295989b9093969950565b634e487b7160e01b600052602160045260246000fd5b6000602082840312156200065d57600080fd5b620006688262000542565b9392505050565b600181811c908216806200068457607f821691505b60208210811415620006a657634e487b7160e01b600052602260045260246000fd5b50919050565b610d6c80620006bc6000396000f3fe608060405234801561001057600080fd5b50600436106100f55760003560e01c80638da5cb5b11610097578063e30c397811610066578063e30c39781461028f578063f023f222146102a2578063f2fde38b146102cc578063fcf3e555146102df57600080fd5b80638da5cb5b1461024357806399e84ba214610254578063c0d62b3014610269578063c42069ec1461027c57600080fd5b80633a5e8a06116100d35780633a5e8a06146101cd5780635767d534146101e75780636f4cf18314610224578063715018a61461023957600080fd5b80630db02622146100fa5780630ee2c4481461012b5780631fc45b00146101a2575b600080fd5b600c5461011190600160a01b900463ffffffff1681565b60405163ffffffff90911681526020015b60405180910390f35b610173610139366004610a43565b60016020819052600091825260409091208054918101546002909101546001600160a01b03831692600160a01b900463ffffffff16919084565b604080516001600160a01b03909516855263ffffffff9093166020850152918301526060820152608001610122565b600d546101b5906001600160a01b031681565b6040516001600160a01b039091168152602001610122565b6002546101da9060ff1681565b6040516101229190610a92565b6003546004546005546006546007546102129460ff169392919061ffff808216916201000090041686565b60405161012296959493929190610aa6565b61022c6102f2565b6040516101229190610ae3565b610241610430565b005b6000546001600160a01b03166101b5565b61025c61049b565b6040516101229190610b56565b610241610277366004610c0d565b610577565b61024161028a366004610c40565b610818565b600c546101b5906001600160a01b031681565b600954600a54600b54610173926001600160a01b03811692600160a01b90910463ffffffff169184565b6102416102da366004610c40565b610928565b600e546101b5906001600160a01b031681565b600c5460609060009061031390600160a01b900463ffffffff166001610c71565b63ffffffff1667ffffffffffffffff81111561033157610331610c99565b60405190808252806020026020018201604052801561038357816020015b60408051608081018252600080825260208083018290529282018190526060820152825260001990920191018161034f5790505b50905060015b600c54600160a01b900463ffffffff1661ffff82161161042a5761ffff8116600081815260016020818152604092839020835160808101855281546001600160a01b0381168252600160a01b900463ffffffff16928101929092529182015492810192909252600201546060820152835190918491811061040c5761040c610caf565b6020026020010181905250808061042290610cc5565b915050610389565b50919050565b6000546001600160a01b0316331461048f5760405162461bcd60e51b815260206004820181905260248201527f4f776e61626c653a2063616c6c6572206973206e6f7420746865206f776e657260448201526064015b60405180910390fd5b61049960006109f3565b565b60606003600501805480602002602001604051908101604052809291908181526020016000905b8282101561056e5783829060005260206000200180546104e190610ce7565b80601f016020809104026020016040519081016040528092919081815260200182805461050d90610ce7565b801561055a5780601f1061052f5761010080835404028352916020019161055a565b820191906000526020600020905b81548152906001019060200180831161053d57829003601f168201915b5050505050815260200190600101906104c2565b50505050905090565b600c546001600160a01b031633146106075760405162461bcd60e51b815260206004820152604760248201527f596f7520617265206e6f74207468652070656e64696e674f776e6572206f662060448201527f74686973206974656d20616e64207468657265666f72652063616e6e6f7420636064820152661b185a5b481a5d60ca1b608482015260a401610486565b600e546040516302a7930960e11b81526001600160a01b038581166004830152336024830152306044830152606482018490529091169063054f261290608401600060405180830381600087803b15801561066157600080fd5b505af1158015610675573d6000803e3d6000fd5b5050600e5460405163923ae89d60e01b81523360048201523060248201526001600160a01b03909116925063923ae89d9150604401600060405180830381600087803b1580156106c457600080fd5b505af11580156106d8573d6000803e3d6000fd5b5050600c80546001600160a01b0319168082559092506014915061070890600160a01b900463ffffffff16610d1c565b82546101009290920a63ffffffff8181021990931691831602179091556040805160808101825233808252600c54600160a01b90819004851660208085018281528587018a8152606087018a81526000948552600193849052938890209651875492516001600160a01b039182166001600160c01b0319909416939093179290991690940217855591519184019190915551600290920191909155600d546007549251632142170760e11b8152878516600482015260248101929092526201000090920461ffff1660448201529116906342842e0e90606401600060405180830381600087803b1580156107fb57600080fd5b505af115801561080f573d6000803e3d6000fd5b50505050505050565b600c5463ffffffff600160a01b909104166000908152600160205260409020546001600160a01b031633148061086757503361085c6000546001600160a01b031690565b6001600160a01b0316145b6108a95760405162461bcd60e51b81526020600482015260136024820152721bdb9b1e505d5d1a1bdc9a5e99590819985a5b606a1b6044820152606401610486565b600c80546001600160a01b0319166001600160a01b03838116918217909255600e54604051637e7675cf60e11b815260048101929092523060248301529091169063fceceb9e90604401600060405180830381600087803b15801561090d57600080fd5b505af1158015610921573d6000803e3d6000fd5b5050505050565b6000546001600160a01b031633146109825760405162461bcd60e51b815260206004820181905260248201527f4f776e61626c653a2063616c6c6572206973206e6f7420746865206f776e65726044820152606401610486565b6001600160a01b0381166109e75760405162461bcd60e51b815260206004820152602660248201527f4f776e61626c653a206e6577206f776e657220697320746865207a65726f206160448201526564647265737360d01b6064820152608401610486565b6109f0816109f3565b50565b600080546001600160a01b038381166001600160a01b0319831681178455604051919092169283917f8be0079c531659141344cd1fd0a4f28419497f9722a3daafe3b4186f6b6457e09190a35050565b600060208284031215610a5557600080fd5b813563ffffffff81168114610a6957600080fd5b9392505050565b60038110610a8e57634e487b7160e01b600052602160045260246000fd5b9052565b60208101610aa08284610a70565b92915050565b60c08101610ab48289610a70565b60208201969096526040810194909452606084019290925261ffff90811660808401521660a090910152919050565b602080825282518282018190526000919060409081850190868401855b82811015610b4957815180516001600160a01b031685528681015163ffffffff168786015285810151868601526060908101519085015260809093019290850190600101610b00565b5091979650505050505050565b6000602080830181845280855180835260408601915060408160051b87010192508387016000805b83811015610be357888603603f1901855282518051808852835b81811015610bb3578281018a01518982018b01528901610b98565b81811115610bc357848a838b0101525b50601f01601f191696909601870195509386019391860191600101610b7e565b509398975050505050505050565b80356001600160a01b0381168114610c0857600080fd5b919050565b600080600060608486031215610c2257600080fd5b610c2b84610bf1565b95602085013595506040909401359392505050565b600060208284031215610c5257600080fd5b610a6982610bf1565b634e487b7160e01b600052601160045260246000fd5b600063ffffffff808316818516808303821115610c9057610c90610c5b565b01949350505050565b634e487b7160e01b600052604160045260246000fd5b634e487b7160e01b600052603260045260246000fd5b600061ffff80831681811415610cdd57610cdd610c5b565b6001019392505050565b600181811c90821680610cfb57607f821691505b6020821081141561042a57634e487b7160e01b600052602260045260246000fd5b600063ffffffff80831681811415610cdd57610cdd610c5b56fea2646970667358221220eb531dc6398b99f7810470dea3ea1de7778926f3056b7bc6aa5600937575917964736f6c634300080a0033",
  "linkReferences": {},
  "deployedLinkReferences": {}
}