{
  "_format": "hh-sol-artifact-1",
  "contractName": "Provenance",
  "sourceName": "contracts/Provenance.sol",
  "abi": [
    {
      "inputs": [
        {
          "internalType": "enum Provenance.Types",
          "name": "enumType",
          "type": "uint8"
        },
        {
          "internalType": "bytes32",
          "name": "_serial",
          "type": "bytes32"
        },
        {
          "internalType": "bytes32",
          "name": "_brand",
          "type": "bytes32"
        },
        {
          "internalType": "bytes32",
          "name": "_model",
          "type": "bytes32"
        },
        {
          "internalType": "uint16",
          "name": "_year",
          "type": "uint16"
        },
        {
          "internalType": "uint16",
          "name": "_instrumentDeedToken",
          "type": "uint16"
        },
        {
          "internalType": "bytes32",
          "name": "_date",
          "type": "bytes32"
        },
        {
          "internalType": "string",
          "name": "_verificationPhotoHash",
          "type": "string"
        },
        {
          "internalType": "string[]",
          "name": "_instrumentPhotoHashes",
          "type": "string[]"
        },
        {
          "internalType": "address",
          "name": "_mothershipAddress",
          "type": "address"
        },
        {
          "internalType": "address",
          "name": "_deedTokenAddress",
          "type": "address"
        }
      ],
      "stateMutability": "nonpayable",
      "type": "constructor"
    },
    {
      "anonymous": false,
      "inputs": [
        {
          "indexed": false,
          "internalType": "address",
          "name": "buyer",
          "type": "address"
        },
        {
          "indexed": false,
          "internalType": "uint256",
          "name": "amount",
          "type": "uint256"
        }
      ],
      "name": "OfferMade",
      "type": "event"
    },
    {
      "anonymous": false,
      "inputs": [
        {
          "indexed": true,
          "internalType": "address",
          "name": "previousOwner",
          "type": "address"
        },
        {
          "indexed": true,
          "internalType": "address",
          "name": "newOwner",
          "type": "address"
        }
      ],
      "name": "OwnershipTransferred",
      "type": "event"
    },
    {
      "inputs": [],
      "name": "acceptOffer",
      "outputs": [],
      "stateMutability": "payable",
      "type": "function"
    },
    {
      "inputs": [],
      "name": "cancelOffer",
      "outputs": [],
      "stateMutability": "nonpayable",
      "type": "function"
    },
    {
      "inputs": [
        {
          "internalType": "address",
          "name": "_seller",
          "type": "address"
        },
        {
          "internalType": "string",
          "name": "_verificationPhotoHash",
          "type": "string"
        },
        {
          "internalType": "bytes32",
          "name": "date",
          "type": "bytes32"
        }
      ],
      "name": "claimOwnership",
      "outputs": [],
      "stateMutability": "nonpayable",
      "type": "function"
    },
    {
      "inputs": [],
      "name": "currentOffer",
      "outputs": [
        {
          "internalType": "address",
          "name": "buyer",
          "type": "address"
        },
        {
          "internalType": "uint256",
          "name": "offer",
          "type": "uint256"
        }
      ],
      "stateMutability": "view",
      "type": "function"
    },
    {
      "inputs": [],
      "name": "getItemPics",
      "outputs": [
        {
          "internalType": "string[]",
          "name": "",
          "type": "string[]"
        }
      ],
      "stateMutability": "view",
      "type": "function"
    },
    {
      "inputs": [],
      "name": "getOwnershipHistory",
      "outputs": [
        {
          "components": [
            {
              "internalType": "address",
              "name": "ownerAddress",
              "type": "address"
            },
            {
              "internalType": "uint32",
              "name": "ownerCount",
              "type": "uint32"
            },
            {
              "internalType": "string",
              "name": "verificationPhotoHash",
              "type": "string"
            },
            {
              "internalType": "bytes32",
              "name": "date",
              "type": "bytes32"
            }
          ],
          "internalType": "struct Provenance.Owner[]",
          "name": "",
          "type": "tuple[]"
        }
      ],
      "stateMutability": "view",
      "type": "function"
    },
    {
      "inputs": [],
      "name": "instrument",
      "outputs": [
        {
          "internalType": "enum Provenance.Types",
          "name": "typeOfProvenance",
          "type": "uint8"
        },
        {
          "internalType": "bytes32",
          "name": "serial",
          "type": "bytes32"
        },
        {
          "internalType": "bytes32",
          "name": "brand",
          "type": "bytes32"
        },
        {
          "internalType": "bytes32",
          "name": "model",
          "type": "bytes32"
        },
        {
          "internalType": "uint16",
          "name": "year",
          "type": "uint16"
        },
        {
          "internalType": "uint16",
          "name": "instrumentDeedToken",
          "type": "uint16"
        }
      ],
      "stateMutability": "view",
      "type": "function"
    },
    {
      "inputs": [],
      "name": "instrumentDeedTokenContract",
      "outputs": [
        {
          "internalType": "contract InstrumentDeedToken",
          "name": "",
          "type": "address"
        }
      ],
      "stateMutability": "view",
      "type": "function"
    },
    {
      "inputs": [],
      "name": "instrumentOwner",
      "outputs": [
        {
          "internalType": "address",
          "name": "ownerAddress",
          "type": "address"
        },
        {
          "internalType": "uint32",
          "name": "ownerCount",
          "type": "uint32"
        },
        {
          "internalType": "string",
          "name": "verificationPhotoHash",
          "type": "string"
        },
        {
          "internalType": "bytes32",
          "name": "date",
          "type": "bytes32"
        }
      ],
      "stateMutability": "view",
      "type": "function"
    },
    {
      "inputs": [],
      "name": "makeOffer",
      "outputs": [],
      "stateMutability": "payable",
      "type": "function"
    },
    {
      "inputs": [],
      "name": "mothershipContract",
      "outputs": [
        {
          "internalType": "contract Mothership",
          "name": "",
          "type": "address"
        }
      ],
      "stateMutability": "view",
      "type": "function"
    },
    {
      "inputs": [],
      "name": "owner",
      "outputs": [
        {
          "internalType": "address",
          "name": "",
          "type": "address"
        }
      ],
      "stateMutability": "view",
      "type": "function"
    },
    {
      "inputs": [],
      "name": "ownerCount",
      "outputs": [
        {
          "internalType": "uint32",
          "name": "",
          "type": "uint32"
        }
      ],
      "stateMutability": "view",
      "type": "function"
    },
    {
      "inputs": [
        {
          "internalType": "uint32",
          "name": "",
          "type": "uint32"
        }
      ],
      "name": "ownerProvenance",
      "outputs": [
        {
          "internalType": "address",
          "name": "ownerAddress",
          "type": "address"
        },
        {
          "internalType": "uint32",
          "name": "ownerCount",
          "type": "uint32"
        },
        {
          "internalType": "string",
          "name": "verificationPhotoHash",
          "type": "string"
        },
        {
          "internalType": "bytes32",
          "name": "date",
          "type": "bytes32"
        }
      ],
      "stateMutability": "view",
      "type": "function"
    },
    {
      "inputs": [],
      "name": "pendingOwner",
      "outputs": [
        {
          "internalType": "address",
          "name": "",
          "type": "address"
        }
      ],
      "stateMutability": "view",
      "type": "function"
    },
    {
      "inputs": [],
      "name": "renounceOwnership",
      "outputs": [],
      "stateMutability": "nonpayable",
      "type": "function"
    },
    {
      "inputs": [
        {
          "internalType": "address",
          "name": "buyer",
          "type": "address"
        }
      ],
      "name": "setPendingOwner",
      "outputs": [],
      "stateMutability": "nonpayable",
      "type": "function"
    },
    {
      "inputs": [
        {
          "internalType": "string",
          "name": "source",
          "type": "string"
        }
      ],
      "name": "stringToBytes32",
      "outputs": [
        {
          "internalType": "bytes32",
          "name": "result",
          "type": "bytes32"
        }
      ],
      "stateMutability": "pure",
      "type": "function"
    },
    {
      "inputs": [
        {
          "internalType": "address",
          "name": "newOwner",
          "type": "address"
        }
      ],
      "name": "transferOwnership",
      "outputs": [],
      "stateMutability": "nonpayable",
      "type": "function"
    },
    {
      "inputs": [],
      "name": "typeOfProvenance",
      "outputs": [
        {
          "internalType": "enum Provenance.Types",
          "name": "",
          "type": "uint8"
        }
      ],
      "stateMutability": "view",
      "type": "function"
    }
  ],
  "bytecode": "0x60806040523480156200001157600080fd5b506040516200210038038062002100833981016040819052620000349162000596565b6200003f3362000215565b601080546001600160a01b038085166001600160a01b031992831617909255600f805492841692909116919091179055600380548c919060ff191660018360028111156200009157620000916200068e565b021790555060048a9055600589905560068890556007805461ffff888116620100000263ffffffff19909216908a16171790558251620000d990600890602086019062000265565b50600e805463ffffffff60a01b1916600160a01b179055604080516080810191829052600f546331a9108f60e11b90925261ffff881660848201529081906001600160a01b0316636352211e60a48301602060405180830381865afa15801562000147573d6000803e3d6000fd5b505050506040513d601f19601f820116820180604052508101906200016d9190620006a4565b6001600160a01b039081168252600e54600160a01b9081900463ffffffff908116602080860182905260408087018c905260609096018c905260009182526001808252918690208751815489840151919097166001600160c01b03199097169690961795909316909302939093178155928401518051620001f6938501929190910190620002c9565b5060608201518160020155905050505050505050505050505062000706565b600080546001600160a01b038381166001600160a01b0319831681178455604051919092169283917f8be0079c531659141344cd1fd0a4f28419497f9722a3daafe3b4186f6b6457e09190a35050565b828054828255906000526020600020908101928215620002b7579160200282015b82811115620002b75782518051620002a6918491602090910190620002c9565b509160200191906001019062000286565b50620002c592915062000354565b5090565b828054620002d790620006c9565b90600052602060002090601f016020900481019282620002fb576000855562000346565b82601f106200031657805160ff191683800117855562000346565b8280016001018555821562000346579182015b828111156200034657825182559160200191906001019062000329565b50620002c592915062000375565b80821115620002c55760006200036b82826200038c565b5060010162000354565b5b80821115620002c5576000815560010162000376565b5080546200039a90620006c9565b6000825580601f10620003ab575050565b601f016020900490600052602060002090810190620003cb919062000375565b50565b805160038110620003de57600080fd5b919050565b805161ffff81168114620003de57600080fd5b634e487b7160e01b600052604160045260246000fd5b604051601f8201601f191681016001600160401b0381118282101715620004375762000437620003f6565b604052919050565b600082601f8301126200045157600080fd5b81516001600160401b038111156200046d576200046d620003f6565b602062000483601f8301601f191682016200040c565b82815285828487010111156200049857600080fd5b60005b83811015620004b85785810183015182820184015282016200049b565b83811115620004ca5760008385840101525b5095945050505050565b600082601f830112620004e657600080fd5b815160206001600160401b0380831115620005055762000505620003f6565b8260051b620005168382016200040c565b93845285810183019383810190888611156200053157600080fd5b84880192505b858310156200057257825184811115620005515760008081fd5b620005618a87838c01016200043f565b835250918401919084019062000537565b98975050505050505050565b80516001600160a01b0381168114620003de57600080fd5b60008060008060008060008060008060006101608c8e031215620005b957600080fd5b620005c48c620003ce565b9a5060208c0151995060408c0151985060608c01519750620005e960808d01620003e3565b9650620005f960a08d01620003e3565b60c08d015160e08e015191975095506001600160401b038111156200061d57600080fd5b6200062b8e828f016200043f565b6101008e015190955090506001600160401b038111156200064b57600080fd5b620006598e828f01620004d4565b9350506200066b6101208d016200057e565b91506200067c6101408d016200057e565b90509295989b509295989b9093969950565b634e487b7160e01b600052602160045260246000fd5b600060208284031215620006b757600080fd5b620006c2826200057e565b9392505050565b600181811c90821680620006de57607f821691505b602082108114156200070057634e487b7160e01b600052602260045260246000fd5b50919050565b6119ea80620007166000396000f3fe60806040526004361061011f5760003560e01c80638da5cb5b116100a0578063eb62df6111610064578063eb62df611461035f578063f023f22214610367578063f2fde38b1461037c578063fa4e28f61461039c578063fcf3e555146103df57600080fd5b80638da5cb5b146102b157806399e84ba2146102cf578063c42069ec146102f1578063cfb5192814610311578063e30c39781461033f57600080fd5b80634e1b623e116100e75780634e1b623e146102135780635767d5341461021b57806362d05c78146102655780636f4cf1831461027a578063715018a61461029c57600080fd5b806305dbb161146101245780630db02622146101465780630ee2c448146101845780631fc45b00146101b45780633a5e8a06146101ec575b600080fd5b34801561013057600080fd5b5061014461013f366004611491565b6103ff565b005b34801561015257600080fd5b50600e5461016a90600160a01b900463ffffffff1681565b60405163ffffffff90911681526020015b60405180910390f35b34801561019057600080fd5b506101a461019f36600461151a565b610719565b60405161017b9493929190611594565b3480156101c057600080fd5b50600f546101d4906001600160a01b031681565b6040516001600160a01b03909116815260200161017b565b3480156101f857600080fd5b506002546102069060ff1681565b60405161017b91906115f7565b6101446107de565b34801561022757600080fd5b506003546004546005546006546007546102539460ff169392919061ffff808216916201000090041686565b60405161017b9695949392919061160b565b34801561027157600080fd5b50610144610975565b34801561028657600080fd5b5061028f610a81565b60405161017b9190611648565b3480156102a857600080fd5b50610144610c4d565b3480156102bd57600080fd5b506000546001600160a01b03166101d4565b3480156102db57600080fd5b506102e4610cb3565b60405161017b91906116e5565b3480156102fd57600080fd5b5061014461030c366004611747565b610d8f565b34801561031d57600080fd5b5061033161032c366004611778565b610e9f565b60405190815260200161017b565b34801561034b57600080fd5b50600e546101d4906001600160a01b031681565b610144610ebc565b34801561037357600080fd5b506101a461116b565b34801561038857600080fd5b50610144610397366004611747565b611198565b3480156103a857600080fd5b50600c54600d546103c0916001600160a01b03169082565b604080516001600160a01b03909316835260208301919091520161017b565b3480156103eb57600080fd5b506010546101d4906001600160a01b031681565b600e546001600160a01b031633146104945760405162461bcd60e51b815260206004820152604760248201527f596f7520617265206e6f74207468652070656e64696e674f776e6572206f662060448201527f74686973206974656d20616e64207468657265666f72652063616e6e6f7420636064820152661b185a5b481a5d60ca1b608482015260a4015b60405180910390fd5b6010546040516302a7930960e11b81526001600160a01b038681166004830152336024830152306044830152606482018490529091169063054f261290608401600060405180830381600087803b1580156104ee57600080fd5b505af1158015610502573d6000803e3d6000fd5b505060105460405163923ae89d60e01b81523360048201523060248201526001600160a01b03909116925063923ae89d9150604401600060405180830381600087803b15801561055157600080fd5b505af1158015610565573d6000803e3d6000fd5b5050600e80546001600160a01b0319168082559092506014915061059590600160a01b900463ffffffff1661183f565b91906101000a81548163ffffffff021916908363ffffffff1602179055506040518060800160405280336001600160a01b03168152602001600e60149054906101000a900463ffffffff1663ffffffff16815260200184848080601f01602080910402602001604051908101604052809392919081815260200183838082843760009201829052509385525050506020918201849052600e54600160a01b9081900463ffffffff9081168352600180855260409384902086518154888801516001600160a01b039092166001600160c01b0319909116179316909302919091178255918401518051919361068e938501929101906113dc565b5060609190910151600290910155600f54600754604051632142170760e11b81526001600160a01b0387811660048301523360248301526201000090920461ffff1660448201529116906342842e0e90606401600060405180830381600087803b1580156106fb57600080fd5b505af115801561070f573d6000803e3d6000fd5b5050505050505050565b6001602081905260009182526040909120805491810180546001600160a01b03841693600160a01b900463ffffffff1692919061075590611863565b80601f016020809104026020016040519081016040528092919081815260200182805461078190611863565b80156107ce5780601f106107a3576101008083540402835291602001916107ce565b820191906000526020600020905b8154815290600101906020018083116107b157829003601f168201915b5050505050908060020154905084565b600e5463ffffffff600160a01b909104166000908152600160205260409020546001600160a01b03163314156108665760405162461bcd60e51b815260206004820152602760248201527f596f752063616e6e6f7420707572636861736520796f7572206f776e2050726f60448201526676656e616e636560c81b606482015260840161048b565b600034116108b65760405162461bcd60e51b815260206004820152601960248201527f4f66666572206d7573742062652061626f766520302077656900000000000000604482015260640161048b565b600d54341161091e5760405162461bcd60e51b815260206004820152602e60248201527f4f66666572206d7573742067726561746572207468616e2063757272656e742060448201526d39ba30b73234b7339037b33332b960911b606482015260840161048b565b600c80546001600160a01b0319163390811790915534600d8190556040805192835260208301919091527fa0370a2f3ad08320e6280ae547e0f0d71569780fe26a66ff112424459d4f6a59910160405180910390a1565b600c546001600160a01b03163314806109b45750600e54600160a01b900463ffffffff166000908152600160205260409020546001600160a01b031633145b6109bd57600080fd5b600d8054600c80546001600160a01b0319811690915560009283905560405191926001600160a01b0390911691829084908381818185875af1925050503d8060008114610a26576040519150601f19603f3d011682016040523d82523d6000602084013e610a2b565b606091505b5050905080610a7c5760405162461bcd60e51b815260206004820152601960248201527f72657475726e207472616e73616374696f6e206661696c656400000000000000604482015260640161048b565b505050565b600e54606090600090610aa290600160a01b900463ffffffff166001611898565b63ffffffff1667ffffffffffffffff811115610ac057610ac0611762565b604051908082528060200260200182016040528015610b1357816020015b60408051608081018252600080825260208083018290526060938301849052928201528252600019909201910181610ade5790505b50905060015b600e54600160a01b900463ffffffff1661ffff821611610c475761ffff8116600090815260016020818152604092839020835160808101855281546001600160a01b0381168252600160a01b900463ffffffff169281019290925291820180549193840191610b8790611863565b80601f0160208091040260200160405190810160405280929190818152602001828054610bb390611863565b8015610c005780601f10610bd557610100808354040283529160200191610c00565b820191906000526020600020905b815481529060010190602001808311610be357829003601f168201915b50505050508152602001600282015481525050828261ffff1681518110610c2957610c296118c0565b60200260200101819052508080610c3f906118d6565b915050610b19565b50919050565b6000546001600160a01b03163314610ca75760405162461bcd60e51b815260206004820181905260248201527f4f776e61626c653a2063616c6c6572206973206e6f7420746865206f776e6572604482015260640161048b565b610cb16000611263565b565b60606003600501805480602002602001604051908101604052809291908181526020016000905b82821015610d86578382906000526020600020018054610cf990611863565b80601f0160208091040260200160405190810160405280929190818152602001828054610d2590611863565b8015610d725780601f10610d4757610100808354040283529160200191610d72565b820191906000526020600020905b815481529060010190602001808311610d5557829003601f168201915b505050505081526020019060010190610cda565b50505050905090565b600e5463ffffffff600160a01b909104166000908152600160205260409020546001600160a01b0316331480610dde575033610dd36000546001600160a01b031690565b6001600160a01b0316145b610e205760405162461bcd60e51b81526020600482015260136024820152721bdb9b1e505d5d1a1bdc9a5e99590819985a5b606a1b604482015260640161048b565b600e80546001600160a01b0319166001600160a01b03838116918217909255601054604051637e7675cf60e11b815260048101929092523060248301529091169063fceceb9e90604401600060405180830381600087803b158015610e8457600080fd5b505af1158015610e98573d6000803e3d6000fd5b5050505050565b80516000908290610eb35750600092915050565b50506020015190565b600e54600160a01b900463ffffffff166000908152600160205260409020546001600160a01b03163314610eef57600080fd5b600d54610f355760405162461bcd60e51b815260206004820152601460248201527304f666665722069732063757272656e746c7920360641b604482015260640161048b565b601054600c546001600160a01b039182169163054f26129133911630610f5d61032c426112b3565b6040516001600160e01b031960e087901b1681526001600160a01b0394851660048201529284166024840152921660448201526064810191909152608401600060405180830381600087803b158015610fb557600080fd5b505af1158015610fc9573d6000803e3d6000fd5b50505050600e601481819054906101000a900463ffffffff16610feb9061183f565b82546101009290920a63ffffffff81810219909316918316021790915560408051608081018252600c546001600160a01b03168152600e54600160a01b90049092166020808401919091528151606081018352602e80825292840192909161198790830139815260200161106161032c426112b3565b9052600e54600160a01b9081900463ffffffff90811660009081526001602081815260409283902086518154888401516001600160a01b039092166001600160c01b03199091161795169095029390931784559084015180516110cc939285019291909101906113dc565b5060609190910151600290910155600f54600c54600754604051632142170760e11b81523360048201526001600160a01b0392831660248201526201000090910461ffff1660448201529116906342842e0e90606401600060405180830381600087803b15801561113c57600080fd5b505af1158015611150573d6000803e3d6000fd5b5050600c80546001600160a01b031916905550506000600d55565b60098054600a80546001600160a01b03831693600160a01b90930463ffffffff1692919061075590611863565b6000546001600160a01b031633146111f25760405162461bcd60e51b815260206004820181905260248201527f4f776e61626c653a2063616c6c6572206973206e6f7420746865206f776e6572604482015260640161048b565b6001600160a01b0381166112575760405162461bcd60e51b815260206004820152602660248201527f4f776e61626c653a206e6577206f776e657220697320746865207a65726f206160448201526564647265737360d01b606482015260840161048b565b61126081611263565b50565b600080546001600160a01b038381166001600160a01b0319831681178455604051919092169283917f8be0079c531659141344cd1fd0a4f28419497f9722a3daafe3b4186f6b6457e09190a35050565b6060816112d75750506040805180820190915260018152600360fc1b602082015290565b8160005b811561130157806112eb816118ee565b91506112fa9050600a83611909565b91506112db565b60008167ffffffffffffffff81111561131c5761131c611762565b6040519080825280601f01601f191660200182016040528015611346576020820181803683370190505b509050815b85156113d35761135c60018261192b565b9050600061136b600a88611909565b61137690600a611942565b611380908861192b565b61138b906030611961565b905060008160f81b9050808484815181106113a8576113a86118c0565b60200101906001600160f81b031916908160001a9053506113ca600a89611909565b9750505061134b565b50949350505050565b8280546113e890611863565b90600052602060002090601f01602090048101928261140a5760008555611450565b82601f1061142357805160ff1916838001178555611450565b82800160010185558215611450579182015b82811115611450578251825591602001919060010190611435565b5061145c929150611460565b5090565b5b8082111561145c5760008155600101611461565b80356001600160a01b038116811461148c57600080fd5b919050565b600080600080606085870312156114a757600080fd5b6114b085611475565b9350602085013567ffffffffffffffff808211156114cd57600080fd5b818701915087601f8301126114e157600080fd5b8135818111156114f057600080fd5b88602082850101111561150257600080fd5b95986020929092019750949560400135945092505050565b60006020828403121561152c57600080fd5b813563ffffffff8116811461154057600080fd5b9392505050565b6000815180845260005b8181101561156d57602081850181015186830182015201611551565b8181111561157f576000602083870101525b50601f01601f19169290920160200192915050565b6001600160a01b038516815263ffffffff841660208201526080604082018190526000906115c490830185611547565b905082606083015295945050505050565b600381106115f357634e487b7160e01b600052602160045260246000fd5b9052565b6020810161160582846115d5565b92915050565b60c0810161161982896115d5565b60208201969096526040810194909452606084019290925261ffff90811660808401521660a090910152919050565b60006020808301818452808551808352604092508286019150828160051b87010184880160005b838110156116d757888303603f19018552815180516001600160a01b031684528781015163ffffffff1688850152868101516080888601819052906116b682870182611547565b6060938401519690930195909552509487019492509086019060010161166f565b509098975050505050505050565b6000602080830181845280855180835260408601915060408160051b870101925083870160005b8281101561173a57603f19888603018452611728858351611547565b9450928501929085019060010161170c565b5092979650505050505050565b60006020828403121561175957600080fd5b61154082611475565b634e487b7160e01b600052604160045260246000fd5b60006020828403121561178a57600080fd5b813567ffffffffffffffff808211156117a257600080fd5b818401915084601f8301126117b657600080fd5b8135818111156117c8576117c8611762565b604051601f8201601f19908116603f011681019083821181831017156117f0576117f0611762565b8160405282815287602084870101111561180957600080fd5b826020860160208301376000928101602001929092525095945050505050565b634e487b7160e01b600052601160045260246000fd5b600063ffffffff8083168181141561185957611859611829565b6001019392505050565b600181811c9082168061187757607f821691505b60208210811415610c4757634e487b7160e01b600052602260045260246000fd5b600063ffffffff8083168185168083038211156118b7576118b7611829565b01949350505050565b634e487b7160e01b600052603260045260246000fd5b600061ffff8083168181141561185957611859611829565b600060001982141561190257611902611829565b5060010190565b60008261192657634e487b7160e01b600052601260045260246000fd5b500490565b60008282101561193d5761193d611829565b500390565b600081600019048311821515161561195c5761195c611829565b500290565b600060ff821660ff84168060ff0382111561197e5761197e611829565b01939250505056fe516d50684e6d3668696b4e5754535836416748756631426b625a6273586d4b4b456b4451526a52636477374b5a6ba2646970667358221220611d7f71dee756d806b29cd4abec51c33c75998cb99f8765954aeeb8f902212564736f6c634300080a0033",
  "linkReferences": {},
  "deployedLinkReferences": {}
}