{
  "_format": "hh-sol-artifact-1",
  "contractName": "Provenance",
  "sourceName": "contracts/Provenance.sol",
  "abi": [
    {
      "inputs": [
        {
          "internalType": "enum Provenance.Types",
          "name": "enumType",
          "type": "uint8"
        },
        {
          "internalType": "string",
          "name": "_serial",
          "type": "string"
        },
        {
          "internalType": "string",
          "name": "_brand",
          "type": "string"
        },
        {
          "internalType": "string",
          "name": "_model",
          "type": "string"
        },
        {
          "internalType": "uint16",
          "name": "_year",
          "type": "uint16"
        },
        {
          "internalType": "uint256",
          "name": "_instrumentDeedToken",
          "type": "uint256"
        },
        {
          "internalType": "string",
          "name": "_verificationPhotoHash",
          "type": "string"
        },
        {
          "internalType": "string",
          "name": "_firstOwner",
          "type": "string"
        },
        {
          "internalType": "string[]",
          "name": "_instrumentPhotoHashes",
          "type": "string[]"
        },
        {
          "internalType": "address",
          "name": "_mothershipAddress",
          "type": "address"
        },
        {
          "internalType": "address",
          "name": "_deedTokenAddress",
          "type": "address"
        }
      ],
      "stateMutability": "nonpayable",
      "type": "constructor"
    },
    {
      "anonymous": false,
      "inputs": [
        {
          "indexed": true,
          "internalType": "address",
          "name": "previousOwner",
          "type": "address"
        },
        {
          "indexed": true,
          "internalType": "address",
          "name": "newOwner",
          "type": "address"
        }
      ],
      "name": "OwnershipTransferred",
      "type": "event"
    },
    {
      "inputs": [
        {
          "internalType": "string",
          "name": "instrumentPhotoHash",
          "type": "string"
        }
      ],
      "name": "addNewInstrumentPhoto",
      "outputs": [],
      "stateMutability": "nonpayable",
      "type": "function"
    },
    {
      "inputs": [
        {
          "internalType": "address",
          "name": "_seller",
          "type": "address"
        },
        {
          "internalType": "string",
          "name": "_verificationPhotoHash",
          "type": "string"
        }
      ],
      "name": "claimOwnership",
      "outputs": [],
      "stateMutability": "nonpayable",
      "type": "function"
    },
    {
      "inputs": [],
      "name": "getItemPics",
      "outputs": [
        {
          "internalType": "string[]",
          "name": "",
          "type": "string[]"
        }
      ],
      "stateMutability": "view",
      "type": "function"
    },
    {
      "inputs": [],
      "name": "getPreviousOwners",
      "outputs": [],
      "stateMutability": "view",
      "type": "function"
    },
    {
      "inputs": [],
      "name": "instrument",
      "outputs": [
        {
          "internalType": "enum Provenance.Types",
          "name": "typeOfProvenance",
          "type": "uint8"
        },
        {
          "internalType": "string",
          "name": "serial",
          "type": "string"
        },
        {
          "internalType": "string",
          "name": "brand",
          "type": "string"
        },
        {
          "internalType": "string",
          "name": "model",
          "type": "string"
        },
        {
          "internalType": "uint16",
          "name": "year",
          "type": "uint16"
        },
        {
          "internalType": "uint256",
          "name": "instrumentDeedToken",
          "type": "uint256"
        }
      ],
      "stateMutability": "view",
      "type": "function"
    },
    {
      "inputs": [],
      "name": "instrumentDeedTokenContract",
      "outputs": [
        {
          "internalType": "contract InstrumentDeedToken",
          "name": "",
          "type": "address"
        }
      ],
      "stateMutability": "view",
      "type": "function"
    },
    {
      "inputs": [],
      "name": "instrumentOwner",
      "outputs": [
        {
          "internalType": "uint16",
          "name": "ownerCount",
          "type": "uint16"
        },
        {
          "internalType": "address",
          "name": "ownerAddress",
          "type": "address"
        },
        {
          "internalType": "string",
          "name": "name",
          "type": "string"
        },
        {
          "internalType": "string",
          "name": "verificationPhotoHash",
          "type": "string"
        }
      ],
      "stateMutability": "view",
      "type": "function"
    },
    {
      "inputs": [],
      "name": "mothershipContract",
      "outputs": [
        {
          "internalType": "contract Mothership",
          "name": "",
          "type": "address"
        }
      ],
      "stateMutability": "view",
      "type": "function"
    },
    {
      "inputs": [],
      "name": "owner",
      "outputs": [
        {
          "internalType": "address",
          "name": "",
          "type": "address"
        }
      ],
      "stateMutability": "view",
      "type": "function"
    },
    {
      "inputs": [],
      "name": "ownerCount",
      "outputs": [
        {
          "internalType": "uint8",
          "name": "",
          "type": "uint8"
        }
      ],
      "stateMutability": "view",
      "type": "function"
    },
    {
      "inputs": [
        {
          "internalType": "uint16",
          "name": "",
          "type": "uint16"
        }
      ],
      "name": "ownerProvenance",
      "outputs": [
        {
          "internalType": "uint16",
          "name": "ownerCount",
          "type": "uint16"
        },
        {
          "internalType": "address",
          "name": "ownerAddress",
          "type": "address"
        },
        {
          "internalType": "string",
          "name": "name",
          "type": "string"
        },
        {
          "internalType": "string",
          "name": "verificationPhotoHash",
          "type": "string"
        }
      ],
      "stateMutability": "view",
      "type": "function"
    },
    {
      "inputs": [],
      "name": "pendingOwner",
      "outputs": [
        {
          "internalType": "address",
          "name": "",
          "type": "address"
        }
      ],
      "stateMutability": "view",
      "type": "function"
    },
    {
      "inputs": [],
      "name": "renounceOwnership",
      "outputs": [],
      "stateMutability": "nonpayable",
      "type": "function"
    },
    {
      "inputs": [
        {
          "internalType": "string",
          "name": "instrumentPhotoHash",
          "type": "string"
        }
      ],
      "name": "setNewVerificationPhoto",
      "outputs": [],
      "stateMutability": "nonpayable",
      "type": "function"
    },
    {
      "inputs": [
        {
          "internalType": "address",
          "name": "buyer",
          "type": "address"
        }
      ],
      "name": "setPendingOwner",
      "outputs": [],
      "stateMutability": "nonpayable",
      "type": "function"
    },
    {
      "inputs": [
        {
          "internalType": "address",
          "name": "newOwner",
          "type": "address"
        }
      ],
      "name": "transferOwnership",
      "outputs": [],
      "stateMutability": "nonpayable",
      "type": "function"
    },
    {
      "inputs": [],
      "name": "typeOfProvenance",
      "outputs": [
        {
          "internalType": "enum Provenance.Types",
          "name": "",
          "type": "uint8"
        }
      ],
      "stateMutability": "view",
      "type": "function"
    }
  ],
  "bytecode": "0x60806040523480156200001157600080fd5b50604051620029cf380380620029cf833981810160405281019062000037919062000981565b620000576200004b6200039060201b60201c565b6200039860201b60201c565b81600f60006101000a81548173ffffffffffffffffffffffffffffffffffffffff021916908373ffffffffffffffffffffffffffffffffffffffff16021790555080600e60006101000a81548173ffffffffffffffffffffffffffffffffffffffff021916908373ffffffffffffffffffffffffffffffffffffffff1602179055508a600360000160006101000a81548160ff0219169083600281111562000104576200010362000b48565b5b02179055508960036001019080519060200190620001249291906200045c565b508860036002019080519060200190620001409291906200045c565b50876003800190805190602001906200015b9291906200045c565b5086600360040160006101000a81548161ffff021916908361ffff160217905550856003600501819055508260036006019080519060200190620001a1929190620004ed565b506001600d60146101000a81548160ff021916908360ff1602179055506040518060800160405280600d60149054906101000a900460ff1660ff1661ffff168152602001600e60009054906101000a900473ffffffffffffffffffffffffffffffffffffffff1673ffffffffffffffffffffffffffffffffffffffff16636352211e896040518263ffffffff1660e01b815260040162000242919062000b88565b602060405180830381865afa15801562000260573d6000803e3d6000fd5b505050506040513d601f19601f8201168201806040525081019062000286919062000ba5565b73ffffffffffffffffffffffffffffffffffffffff1681526020018581526020018681525060016000600d60149054906101000a900460ff1660ff1661ffff16815260200190815260200160002060008201518160000160006101000a81548161ffff021916908361ffff16021790555060208201518160000160026101000a81548173ffffffffffffffffffffffffffffffffffffffff021916908373ffffffffffffffffffffffffffffffffffffffff16021790555060408201518160010190805190602001906200035c9291906200045c565b5060608201518160020190805190602001906200037b9291906200045c565b50905050505050505050505050505062000c3c565b600033905090565b60008060009054906101000a900473ffffffffffffffffffffffffffffffffffffffff169050816000806101000a81548173ffffffffffffffffffffffffffffffffffffffff021916908373ffffffffffffffffffffffffffffffffffffffff1602179055508173ffffffffffffffffffffffffffffffffffffffff168173ffffffffffffffffffffffffffffffffffffffff167f8be0079c531659141344cd1fd0a4f28419497f9722a3daafe3b4186f6b6457e060405160405180910390a35050565b8280546200046a9062000c06565b90600052602060002090601f0160209004810192826200048e5760008555620004da565b82601f10620004a957805160ff1916838001178555620004da565b82800160010185558215620004da579182015b82811115620004d9578251825591602001919060010190620004bc565b5b509050620004e9919062000554565b5090565b82805482825590600052602060002090810192821562000541579160200282015b82811115620005405782518290805190602001906200052f9291906200045c565b50916020019190600101906200050e565b5b50905062000550919062000573565b5090565b5b808211156200056f57600081600090555060010162000555565b5090565b5b808211156200059757600081816200058d91906200059b565b5060010162000574565b5090565b508054620005a99062000c06565b6000825580601f10620005bd5750620005de565b601f016020900490600052602060002090810190620005dd919062000554565b5b50565b6000604051905090565b600080fd5b600080fd5b600381106200060357600080fd5b50565b6000815190506200061781620005f5565b92915050565b600080fd5b600080fd5b6000601f19601f8301169050919050565b7f4e487b7100000000000000000000000000000000000000000000000000000000600052604160045260246000fd5b620006728262000627565b810181811067ffffffffffffffff8211171562000694576200069362000638565b5b80604052505050565b6000620006a9620005e1565b9050620006b7828262000667565b919050565b600067ffffffffffffffff821115620006da57620006d962000638565b5b620006e58262000627565b9050602081019050919050565b60005b8381101562000712578082015181840152602081019050620006f5565b8381111562000722576000848401525b50505050565b60006200073f6200073984620006bc565b6200069d565b9050828152602081018484840111156200075e576200075d62000622565b5b6200076b848285620006f2565b509392505050565b600082601f8301126200078b576200078a6200061d565b5b81516200079d84826020860162000728565b91505092915050565b600061ffff82169050919050565b620007bf81620007a6565b8114620007cb57600080fd5b50565b600081519050620007df81620007b4565b92915050565b6000819050919050565b620007fa81620007e5565b81146200080657600080fd5b50565b6000815190506200081a81620007ef565b92915050565b600067ffffffffffffffff8211156200083e576200083d62000638565b5b602082029050602081019050919050565b600080fd5b60006200086b620008658462000820565b6200069d565b905080838252602082019050602084028301858111156200089157620008906200084f565b5b835b81811015620008df57805167ffffffffffffffff811115620008ba57620008b96200061d565b5b808601620008c9898262000773565b8552602085019450505060208101905062000893565b5050509392505050565b600082601f8301126200090157620009006200061d565b5b81516200091384826020860162000854565b91505092915050565b600073ffffffffffffffffffffffffffffffffffffffff82169050919050565b600062000949826200091c565b9050919050565b6200095b816200093c565b81146200096757600080fd5b50565b6000815190506200097b8162000950565b92915050565b60008060008060008060008060008060006101608c8e031215620009aa57620009a9620005eb565b5b6000620009ba8e828f0162000606565b9b505060208c015167ffffffffffffffff811115620009de57620009dd620005f0565b5b620009ec8e828f0162000773565b9a505060408c015167ffffffffffffffff81111562000a105762000a0f620005f0565b5b62000a1e8e828f0162000773565b99505060608c015167ffffffffffffffff81111562000a425762000a41620005f0565b5b62000a508e828f0162000773565b985050608062000a638e828f01620007ce565b97505060a062000a768e828f0162000809565b96505060c08c015167ffffffffffffffff81111562000a9a5762000a99620005f0565b5b62000aa88e828f0162000773565b95505060e08c015167ffffffffffffffff81111562000acc5762000acb620005f0565b5b62000ada8e828f0162000773565b9450506101008c015167ffffffffffffffff81111562000aff5762000afe620005f0565b5b62000b0d8e828f01620008e9565b93505061012062000b218e828f016200096a565b92505061014062000b358e828f016200096a565b9150509295989b509295989b9093969950565b7f4e487b7100000000000000000000000000000000000000000000000000000000600052602160045260246000fd5b62000b8281620007e5565b82525050565b600060208201905062000b9f600083018462000b77565b92915050565b60006020828403121562000bbe5762000bbd620005eb565b5b600062000bce848285016200096a565b91505092915050565b7f4e487b7100000000000000000000000000000000000000000000000000000000600052602260045260246000fd5b6000600282049050600182168062000c1f57607f821691505b6020821081141562000c365762000c3562000bd7565b5b50919050565b611d838062000c4c6000396000f3fe608060405234801561001057600080fd5b506004361061010b5760003560e01c806399e84ba2116100a2578063debc241911610071578063debc24191461024d578063e30c397814610280578063f023f2221461029e578063f2fde38b146102bf578063fcf3e555146102db5761010b565b806399e84ba2146101db5780639d55e41a146101f9578063a60913c514610215578063c42069ec146102315761010b565b8063715018a6116100de578063715018a61461018d5780637f6f9c241461019757806388cb18fd146101a15780638da5cb5b146101bd5761010b565b80630db02622146101105780631fc45b001461012e5780633a5e8a061461014c5780635767d5341461016a575b600080fd5b6101186102f9565b6040516101259190611294565b60405180910390f35b61013661030c565b604051610143919061132e565b60405180910390f35b610154610332565b60405161016191906113c0565b60405180910390f35b610172610345565b604051610184969594939291906114aa565b60405180910390f35b610195610522565b005b61019f6105aa565b005b6101bb60048036038101906101b69190611669565b6105ac565b005b6101c561062b565b6040516101d291906116d3565b60405180910390f35b6101e3610654565b6040516101f091906117fa565b60405180910390f35b610213600480360381019061020e9190611669565b610730565b005b61022f600480360381019061022a9190611848565b6107af565b005b61024b600480360381019061024691906118a4565b610b31565b005b610267600480360381019061026291906118fd565b610cfb565b604051610277949392919061192a565b60405180910390f35b610288610e69565b60405161029591906116d3565b60405180910390f35b6102a6610e8f565b6040516102b6949392919061192a565b60405180910390f35b6102d960048036038101906102d491906118a4565b610feb565b005b6102e36110e3565b6040516102f0919061199e565b60405180910390f35b600d60149054906101000a900460ff1681565b600e60009054906101000a900473ffffffffffffffffffffffffffffffffffffffff1681565b600260009054906101000a900460ff1681565b60038060000160009054906101000a900460ff1690806001018054610369906119e8565b80601f0160208091040260200160405190810160405280929190818152602001828054610395906119e8565b80156103e25780601f106103b7576101008083540402835291602001916103e2565b820191906000526020600020905b8154815290600101906020018083116103c557829003601f168201915b5050505050908060020180546103f7906119e8565b80601f0160208091040260200160405190810160405280929190818152602001828054610423906119e8565b80156104705780601f1061044557610100808354040283529160200191610470565b820191906000526020600020905b81548152906001019060200180831161045357829003601f168201915b505050505090806003018054610485906119e8565b80601f01602080910402602001604051908101604052809291908181526020018280546104b1906119e8565b80156104fe5780601f106104d3576101008083540402835291602001916104fe565b820191906000526020600020905b8154815290600101906020018083116104e157829003601f168201915b5050505050908060040160009054906101000a900461ffff16908060050154905086565b61052a611109565b73ffffffffffffffffffffffffffffffffffffffff1661054861062b565b73ffffffffffffffffffffffffffffffffffffffff161461059e576040517f08c379a000000000000000000000000000000000000000000000000000000000815260040161059590611a66565b60405180910390fd5b6105a86000611111565b565b565b6105b4611109565b73ffffffffffffffffffffffffffffffffffffffff166105d261062b565b73ffffffffffffffffffffffffffffffffffffffff1614610628576040517f08c379a000000000000000000000000000000000000000000000000000000000815260040161061f90611a66565b60405180910390fd5b50565b60008060009054906101000a900473ffffffffffffffffffffffffffffffffffffffff16905090565b60606003600601805480602002602001604051908101604052809291908181526020016000905b8282101561072757838290600052602060002001805461069a906119e8565b80601f01602080910402602001604051908101604052809291908181526020018280546106c6906119e8565b80156107135780601f106106e857610100808354040283529160200191610713565b820191906000526020600020905b8154815290600101906020018083116106f657829003601f168201915b50505050508152602001906001019061067b565b50505050905090565b610738611109565b73ffffffffffffffffffffffffffffffffffffffff1661075661062b565b73ffffffffffffffffffffffffffffffffffffffff16146107ac576040517f08c379a00000000000000000000000000000000000000000000000000000000081526004016107a390611a66565b60405180910390fd5b50565b600d60009054906101000a900473ffffffffffffffffffffffffffffffffffffffff1673ffffffffffffffffffffffffffffffffffffffff163373ffffffffffffffffffffffffffffffffffffffff161461083f576040517f08c379a000000000000000000000000000000000000000000000000000000000815260040161083690611b1e565b60405180910390fd5b600f60009054906101000a900473ffffffffffffffffffffffffffffffffffffffff1673ffffffffffffffffffffffffffffffffffffffff166346811b838333306040518463ffffffff1660e01b815260040161089e93929190611b5f565b600060405180830381600087803b1580156108b857600080fd5b505af11580156108cc573d6000803e3d6000fd5b505050506000600d60006101000a81548173ffffffffffffffffffffffffffffffffffffffff021916908373ffffffffffffffffffffffffffffffffffffffff160217905550600d601481819054906101000a900460ff1661092d90611bc5565b91906101000a81548160ff021916908360ff1602179055506040518060800160405280600d60149054906101000a900460ff1660ff1661ffff1681526020013373ffffffffffffffffffffffffffffffffffffffff1681526020016040518060400160405280601081526020017f706c616365686f6c646572206e616d650000000000000000000000000000000081525081526020018281525060016000600d60149054906101000a900460ff1660ff1661ffff16815260200190815260200160002060008201518160000160006101000a81548161ffff021916908361ffff16021790555060208201518160000160026101000a81548173ffffffffffffffffffffffffffffffffffffffff021916908373ffffffffffffffffffffffffffffffffffffffff1602179055506040820151816001019080519060200190610a769291906111d5565b506060820151816002019080519060200190610a939291906111d5565b50905050600e60009054906101000a900473ffffffffffffffffffffffffffffffffffffffff1673ffffffffffffffffffffffffffffffffffffffff166342842e0e83336003600501546040518463ffffffff1660e01b8152600401610afb93929190611bef565b600060405180830381600087803b158015610b1557600080fd5b505af1158015610b29573d6000803e3d6000fd5b505050505050565b3373ffffffffffffffffffffffffffffffffffffffff1660016000600d60149054906101000a900460ff1660ff1661ffff16815260200190815260200160002060000160029054906101000a900473ffffffffffffffffffffffffffffffffffffffff1673ffffffffffffffffffffffffffffffffffffffff161480610be957503373ffffffffffffffffffffffffffffffffffffffff16610bd161062b565b73ffffffffffffffffffffffffffffffffffffffff16145b610c28576040517f08c379a0000000000000000000000000000000000000000000000000000000008152600401610c1f90611c72565b60405180910390fd5b80600d60006101000a81548173ffffffffffffffffffffffffffffffffffffffff021916908373ffffffffffffffffffffffffffffffffffffffff160217905550600f60009054906101000a900473ffffffffffffffffffffffffffffffffffffffff1673ffffffffffffffffffffffffffffffffffffffff1663fceceb9e82306040518363ffffffff1660e01b8152600401610cc6929190611c92565b600060405180830381600087803b158015610ce057600080fd5b505af1158015610cf4573d6000803e3d6000fd5b5050505050565b60016020528060005260406000206000915090508060000160009054906101000a900461ffff16908060000160029054906101000a900473ffffffffffffffffffffffffffffffffffffffff1690806001018054610d58906119e8565b80601f0160208091040260200160405190810160405280929190818152602001828054610d84906119e8565b8015610dd15780601f10610da657610100808354040283529160200191610dd1565b820191906000526020600020905b815481529060010190602001808311610db457829003601f168201915b505050505090806002018054610de6906119e8565b80601f0160208091040260200160405190810160405280929190818152602001828054610e12906119e8565b8015610e5f5780601f10610e3457610100808354040283529160200191610e5f565b820191906000526020600020905b815481529060010190602001808311610e4257829003601f168201915b5050505050905084565b600d60009054906101000a900473ffffffffffffffffffffffffffffffffffffffff1681565b600a8060000160009054906101000a900461ffff16908060000160029054906101000a900473ffffffffffffffffffffffffffffffffffffffff1690806001018054610eda906119e8565b80601f0160208091040260200160405190810160405280929190818152602001828054610f06906119e8565b8015610f535780601f10610f2857610100808354040283529160200191610f53565b820191906000526020600020905b815481529060010190602001808311610f3657829003601f168201915b505050505090806002018054610f68906119e8565b80601f0160208091040260200160405190810160405280929190818152602001828054610f94906119e8565b8015610fe15780601f10610fb657610100808354040283529160200191610fe1565b820191906000526020600020905b815481529060010190602001808311610fc457829003601f168201915b5050505050905084565b610ff3611109565b73ffffffffffffffffffffffffffffffffffffffff1661101161062b565b73ffffffffffffffffffffffffffffffffffffffff1614611067576040517f08c379a000000000000000000000000000000000000000000000000000000000815260040161105e90611a66565b60405180910390fd5b600073ffffffffffffffffffffffffffffffffffffffff168173ffffffffffffffffffffffffffffffffffffffff1614156110d7576040517f08c379a00000000000000000000000000000000000000000000000000000000081526004016110ce90611d2d565b60405180910390fd5b6110e081611111565b50565b600f60009054906101000a900473ffffffffffffffffffffffffffffffffffffffff1681565b600033905090565b60008060009054906101000a900473ffffffffffffffffffffffffffffffffffffffff169050816000806101000a81548173ffffffffffffffffffffffffffffffffffffffff021916908373ffffffffffffffffffffffffffffffffffffffff1602179055508173ffffffffffffffffffffffffffffffffffffffff168173ffffffffffffffffffffffffffffffffffffffff167f8be0079c531659141344cd1fd0a4f28419497f9722a3daafe3b4186f6b6457e060405160405180910390a35050565b8280546111e1906119e8565b90600052602060002090601f016020900481019282611203576000855561124a565b82601f1061121c57805160ff191683800117855561124a565b8280016001018555821561124a579182015b8281111561124957825182559160200191906001019061122e565b5b509050611257919061125b565b5090565b5b8082111561127457600081600090555060010161125c565b5090565b600060ff82169050919050565b61128e81611278565b82525050565b60006020820190506112a96000830184611285565b92915050565b600073ffffffffffffffffffffffffffffffffffffffff82169050919050565b6000819050919050565b60006112f46112ef6112ea846112af565b6112cf565b6112af565b9050919050565b6000611306826112d9565b9050919050565b6000611318826112fb565b9050919050565b6113288161130d565b82525050565b6000602082019050611343600083018461131f565b92915050565b7f4e487b7100000000000000000000000000000000000000000000000000000000600052602160045260246000fd5b6003811061138957611388611349565b5b50565b600081905061139a82611378565b919050565b60006113aa8261138c565b9050919050565b6113ba8161139f565b82525050565b60006020820190506113d560008301846113b1565b92915050565b600081519050919050565b600082825260208201905092915050565b60005b838110156114155780820151818401526020810190506113fa565b83811115611424576000848401525b50505050565b6000601f19601f8301169050919050565b6000611446826113db565b61145081856113e6565b93506114608185602086016113f7565b6114698161142a565b840191505092915050565b600061ffff82169050919050565b61148b81611474565b82525050565b6000819050919050565b6114a481611491565b82525050565b600060c0820190506114bf60008301896113b1565b81810360208301526114d1818861143b565b905081810360408301526114e5818761143b565b905081810360608301526114f9818661143b565b90506115086080830185611482565b61151560a083018461149b565b979650505050505050565b6000604051905090565b600080fd5b600080fd5b600080fd5b600080fd5b7f4e487b7100000000000000000000000000000000000000000000000000000000600052604160045260246000fd5b6115768261142a565b810181811067ffffffffffffffff821117156115955761159461153e565b5b80604052505050565b60006115a8611520565b90506115b4828261156d565b919050565b600067ffffffffffffffff8211156115d4576115d361153e565b5b6115dd8261142a565b9050602081019050919050565b82818337600083830152505050565b600061160c611607846115b9565b61159e565b90508281526020810184848401111561162857611627611539565b5b6116338482856115ea565b509392505050565b600082601f8301126116505761164f611534565b5b81356116608482602086016115f9565b91505092915050565b60006020828403121561167f5761167e61152a565b5b600082013567ffffffffffffffff81111561169d5761169c61152f565b5b6116a98482850161163b565b91505092915050565b60006116bd826112af565b9050919050565b6116cd816116b2565b82525050565b60006020820190506116e860008301846116c4565b92915050565b600081519050919050565b600082825260208201905092915050565b6000819050602082019050919050565b600082825260208201905092915050565b6000611736826113db565b611740818561171a565b93506117508185602086016113f7565b6117598161142a565b840191505092915050565b6000611770838361172b565b905092915050565b6000602082019050919050565b6000611790826116ee565b61179a81856116f9565b9350836020820285016117ac8561170a565b8060005b858110156117e857848403895281516117c98582611764565b94506117d483611778565b925060208a019950506001810190506117b0565b50829750879550505050505092915050565b600060208201905081810360008301526118148184611785565b905092915050565b611825816116b2565b811461183057600080fd5b50565b6000813590506118428161181c565b92915050565b6000806040838503121561185f5761185e61152a565b5b600061186d85828601611833565b925050602083013567ffffffffffffffff81111561188e5761188d61152f565b5b61189a8582860161163b565b9150509250929050565b6000602082840312156118ba576118b961152a565b5b60006118c884828501611833565b91505092915050565b6118da81611474565b81146118e557600080fd5b50565b6000813590506118f7816118d1565b92915050565b6000602082840312156119135761191261152a565b5b6000611921848285016118e8565b91505092915050565b600060808201905061193f6000830187611482565b61194c60208301866116c4565b818103604083015261195e818561143b565b90508181036060830152611972818461143b565b905095945050505050565b6000611988826112fb565b9050919050565b6119988161197d565b82525050565b60006020820190506119b3600083018461198f565b92915050565b7f4e487b7100000000000000000000000000000000000000000000000000000000600052602260045260246000fd5b60006002820490506001821680611a0057607f821691505b60208210811415611a1457611a136119b9565b5b50919050565b7f4f776e61626c653a2063616c6c6572206973206e6f7420746865206f776e6572600082015250565b6000611a506020836113e6565b9150611a5b82611a1a565b602082019050919050565b60006020820190508181036000830152611a7f81611a43565b9050919050565b7f596f7520617265206e6f74207468652070656e64696e674f776e6572206f662060008201527f74686973206974656d20616e64207468657265666f72652063616e6e6f74206360208201527f6c61696d20697400000000000000000000000000000000000000000000000000604082015250565b6000611b086047836113e6565b9150611b1382611a86565b606082019050919050565b60006020820190508181036000830152611b3781611afb565b9050919050565b6000611b49826112fb565b9050919050565b611b5981611b3e565b82525050565b6000606082019050611b7460008301866116c4565b611b8160208301856116c4565b611b8e6040830184611b50565b949350505050565b7f4e487b7100000000000000000000000000000000000000000000000000000000600052601160045260246000fd5b6000611bd082611278565b915060ff821415611be457611be3611b96565b5b600182019050919050565b6000606082019050611c0460008301866116c4565b611c1160208301856116c4565b611c1e604083018461149b565b949350505050565b7f6f6e6c79417574686f72697a6564206661696c00000000000000000000000000600082015250565b6000611c5c6013836113e6565b9150611c6782611c26565b602082019050919050565b60006020820190508181036000830152611c8b81611c4f565b9050919050565b6000604082019050611ca760008301856116c4565b611cb460208301846116c4565b9392505050565b7f4f776e61626c653a206e6577206f776e657220697320746865207a65726f206160008201527f6464726573730000000000000000000000000000000000000000000000000000602082015250565b6000611d176026836113e6565b9150611d2282611cbb565b604082019050919050565b60006020820190508181036000830152611d4681611d0a565b905091905056fea26469706673582212205601be85ed1b90c71137a7e173e66a7461d6efae29b22ee27981a8b519d5574b64736f6c634300080a0033",
  "linkReferences": {},
  "deployedLinkReferences": {}
}