{
  "_format": "hh-sol-artifact-1",
  "contractName": "Provenance",
  "sourceName": "contracts/Provenance.sol",
  "abi": [
    {
      "inputs": [
        {
          "internalType": "enum Provenance.Types",
          "name": "enumType",
          "type": "uint8"
        },
        {
          "internalType": "string",
          "name": "_serial",
          "type": "string"
        },
        {
          "internalType": "string",
          "name": "_brand",
          "type": "string"
        },
        {
          "internalType": "string",
          "name": "_model",
          "type": "string"
        },
        {
          "internalType": "uint16",
          "name": "_year",
          "type": "uint16"
        },
        {
          "internalType": "uint256",
          "name": "_instrumentDeedToken",
          "type": "uint256"
        },
        {
          "internalType": "string",
          "name": "_date",
          "type": "string"
        },
        {
          "internalType": "string",
          "name": "_verificationPhotoHash",
          "type": "string"
        },
        {
          "internalType": "string[]",
          "name": "_instrumentPhotoHashes",
          "type": "string[]"
        },
        {
          "internalType": "address",
          "name": "_mothershipAddress",
          "type": "address"
        },
        {
          "internalType": "address",
          "name": "_deedTokenAddress",
          "type": "address"
        }
      ],
      "stateMutability": "nonpayable",
      "type": "constructor"
    },
    {
      "anonymous": false,
      "inputs": [
        {
          "indexed": true,
          "internalType": "address",
          "name": "previousOwner",
          "type": "address"
        },
        {
          "indexed": true,
          "internalType": "address",
          "name": "newOwner",
          "type": "address"
        }
      ],
      "name": "OwnershipTransferred",
      "type": "event"
    },
    {
      "inputs": [],
      "name": "acceptOffer",
      "outputs": [],
      "stateMutability": "payable",
      "type": "function"
    },
    {
      "inputs": [
        {
          "internalType": "string",
          "name": "instrumentPhotoHash",
          "type": "string"
        }
      ],
      "name": "addNewInstrumentPhoto",
      "outputs": [],
      "stateMutability": "nonpayable",
      "type": "function"
    },
    {
      "inputs": [],
      "name": "cancelOffer",
      "outputs": [],
      "stateMutability": "nonpayable",
      "type": "function"
    },
    {
      "inputs": [
        {
          "internalType": "address",
          "name": "_seller",
          "type": "address"
        },
        {
          "internalType": "string",
          "name": "_verificationPhotoHash",
          "type": "string"
        },
        {
          "internalType": "string",
          "name": "date",
          "type": "string"
        }
      ],
      "name": "claimOwnership",
      "outputs": [],
      "stateMutability": "nonpayable",
      "type": "function"
    },
    {
      "inputs": [],
      "name": "currentOffer",
      "outputs": [
        {
          "internalType": "address",
          "name": "buyer",
          "type": "address"
        },
        {
          "internalType": "uint256",
          "name": "offer",
          "type": "uint256"
        }
      ],
      "stateMutability": "view",
      "type": "function"
    },
    {
      "inputs": [],
      "name": "getItemPics",
      "outputs": [
        {
          "internalType": "string[]",
          "name": "",
          "type": "string[]"
        }
      ],
      "stateMutability": "view",
      "type": "function"
    },
    {
      "inputs": [],
      "name": "getOwnershipHistory",
      "outputs": [
        {
          "components": [
            {
              "internalType": "uint16",
              "name": "ownerCount",
              "type": "uint16"
            },
            {
              "internalType": "address",
              "name": "ownerAddress",
              "type": "address"
            },
            {
              "internalType": "string",
              "name": "verificationPhotoHash",
              "type": "string"
            },
            {
              "internalType": "string",
              "name": "date",
              "type": "string"
            }
          ],
          "internalType": "struct Provenance.Owner[]",
          "name": "",
          "type": "tuple[]"
        }
      ],
      "stateMutability": "view",
      "type": "function"
    },
    {
      "inputs": [],
      "name": "instrument",
      "outputs": [
        {
          "internalType": "enum Provenance.Types",
          "name": "typeOfProvenance",
          "type": "uint8"
        },
        {
          "internalType": "string",
          "name": "serial",
          "type": "string"
        },
        {
          "internalType": "string",
          "name": "brand",
          "type": "string"
        },
        {
          "internalType": "string",
          "name": "model",
          "type": "string"
        },
        {
          "internalType": "uint16",
          "name": "year",
          "type": "uint16"
        },
        {
          "internalType": "uint256",
          "name": "instrumentDeedToken",
          "type": "uint256"
        }
      ],
      "stateMutability": "view",
      "type": "function"
    },
    {
      "inputs": [],
      "name": "instrumentDeedTokenContract",
      "outputs": [
        {
          "internalType": "contract InstrumentDeedToken",
          "name": "",
          "type": "address"
        }
      ],
      "stateMutability": "view",
      "type": "function"
    },
    {
      "inputs": [],
      "name": "makeOffer",
      "outputs": [],
      "stateMutability": "payable",
      "type": "function"
    },
    {
      "inputs": [],
      "name": "mothershipContract",
      "outputs": [
        {
          "internalType": "contract Mothership",
          "name": "",
          "type": "address"
        }
      ],
      "stateMutability": "view",
      "type": "function"
    },
    {
      "inputs": [],
      "name": "owner",
      "outputs": [
        {
          "internalType": "address",
          "name": "",
          "type": "address"
        }
      ],
      "stateMutability": "view",
      "type": "function"
    },
    {
      "inputs": [],
      "name": "ownerCount",
      "outputs": [
        {
          "internalType": "uint8",
          "name": "",
          "type": "uint8"
        }
      ],
      "stateMutability": "view",
      "type": "function"
    },
    {
      "inputs": [
        {
          "internalType": "uint16",
          "name": "",
          "type": "uint16"
        }
      ],
      "name": "ownerProvenance",
      "outputs": [
        {
          "internalType": "uint16",
          "name": "ownerCount",
          "type": "uint16"
        },
        {
          "internalType": "address",
          "name": "ownerAddress",
          "type": "address"
        },
        {
          "internalType": "string",
          "name": "verificationPhotoHash",
          "type": "string"
        },
        {
          "internalType": "string",
          "name": "date",
          "type": "string"
        }
      ],
      "stateMutability": "view",
      "type": "function"
    },
    {
      "inputs": [],
      "name": "pendingOwner",
      "outputs": [
        {
          "internalType": "address",
          "name": "",
          "type": "address"
        }
      ],
      "stateMutability": "view",
      "type": "function"
    },
    {
      "inputs": [],
      "name": "renounceOwnership",
      "outputs": [],
      "stateMutability": "nonpayable",
      "type": "function"
    },
    {
      "inputs": [
        {
          "internalType": "string",
          "name": "instrumentPhotoHash",
          "type": "string"
        }
      ],
      "name": "setNewVerificationPhoto",
      "outputs": [],
      "stateMutability": "nonpayable",
      "type": "function"
    },
    {
      "inputs": [
        {
          "internalType": "address",
          "name": "buyer",
          "type": "address"
        }
      ],
      "name": "setPendingOwner",
      "outputs": [],
      "stateMutability": "nonpayable",
      "type": "function"
    },
    {
      "inputs": [
        {
          "internalType": "address",
          "name": "newOwner",
          "type": "address"
        }
      ],
      "name": "transferOwnership",
      "outputs": [],
      "stateMutability": "nonpayable",
      "type": "function"
    },
    {
      "inputs": [],
      "name": "typeOfProvenance",
      "outputs": [
        {
          "internalType": "enum Provenance.Types",
          "name": "",
          "type": "uint8"
        }
      ],
      "stateMutability": "view",
      "type": "function"
    }
  ],
  "bytecode": "0x60806040523480156200001157600080fd5b5060405162002398380380620023988339810160408190526200003491620005bb565b6200003f336200023a565b600d80546001600160a01b038085166001600160a01b031992831617909255600c805492841692909116919091179055600180548c919060ff19168183600281111562000090576200009062000741565b02179055508951620000aa9060029060208d01906200028a565b508851620000c09060039060208c01906200028a565b508751620000d69060049060208b01906200028a565b506005805461ffff191661ffff8916179055600686905582516200010290600790602086019062000319565b506009805460ff1916600190811790915560408051608081018252918252600c5490516331a9108f60e11b81526004810189905260208301916001600160a01b031690636352211e90602401602060405180830381865afa1580156200016c573d6000803e3d6000fd5b505050506040513d601f19601f8201168201806040525081019062000192919062000757565b6001600160a01b0390811682526020808301889052604092830189905260095460ff16600090815260088252839020845181548684015190941662010000026001600160b01b031990941661ffff9190911617929092178255918301518051919262000207926001850192909101906200028a565b5060608201518051620002259160028401916020909101906200028a565b509050505050505050505050505050620007b9565b600080546001600160a01b038381166001600160a01b0319831681178455604051919092169283917f8be0079c531659141344cd1fd0a4f28419497f9722a3daafe3b4186f6b6457e09190a35050565b82805462000298906200077c565b90600052602060002090601f016020900481019282620002bc576000855562000307565b82601f10620002d757805160ff191683800117855562000307565b8280016001018555821562000307579182015b8281111562000307578251825591602001919060010190620002ea565b506200031592915062000379565b5090565b8280548282559060005260206000209081019282156200036b579160200282015b828111156200036b57825180516200035a9184916020909101906200028a565b50916020019190600101906200033a565b506200031592915062000390565b5b808211156200031557600081556001016200037a565b8082111562000315576000620003a78282620003b1565b5060010162000390565b508054620003bf906200077c565b6000825580601f10620003d0575050565b601f016020900490600052602060002090810190620003f0919062000379565b50565b8051600381106200040357600080fd5b919050565b634e487b7160e01b600052604160045260246000fd5b604051601f8201601f191681016001600160401b038111828210171562000449576200044962000408565b604052919050565b600082601f8301126200046357600080fd5b81516001600160401b038111156200047f576200047f62000408565b602062000495601f8301601f191682016200041e565b8281528582848701011115620004aa57600080fd5b60005b83811015620004ca578581018301518282018401528201620004ad565b83811115620004dc5760008385840101525b5095945050505050565b805161ffff811681146200040357600080fd5b600082601f8301126200050b57600080fd5b815160206001600160401b03808311156200052a576200052a62000408565b8260051b6200053b8382016200041e565b93845285810183019383810190888611156200055657600080fd5b84880192505b858310156200059757825184811115620005765760008081fd5b620005868a87838c010162000451565b83525091840191908401906200055c565b98975050505050505050565b80516001600160a01b03811681146200040357600080fd5b60008060008060008060008060008060006101608c8e031215620005de57600080fd5b620005e98c620003f3565b60208d0151909b506001600160401b038111156200060657600080fd5b620006148e828f0162000451565b60408e0151909b5090506001600160401b038111156200063357600080fd5b620006418e828f0162000451565b60608e0151909a5090506001600160401b038111156200066057600080fd5b6200066e8e828f0162000451565b9850506200067f60808d01620004e6565b60a08d015160c08e015191985096506001600160401b03811115620006a357600080fd5b620006b18e828f0162000451565b60e08e015190965090506001600160401b03811115620006d057600080fd5b620006de8e828f0162000451565b6101008e015190955090506001600160401b03811115620006fe57600080fd5b6200070c8e828f01620004f9565b9350506200071e6101208d01620005a3565b91506200072f6101408d01620005a3565b90509295989b509295989b9093969950565b634e487b7160e01b600052602160045260246000fd5b6000602082840312156200076a57600080fd5b6200077582620005a3565b9392505050565b600181811c908216806200079157607f821691505b60208210811415620007b357634e487b7160e01b600052602260045260246000fd5b50919050565b611bcf80620007c96000396000f3fe60806040526004361061011f5760003560e01c806399e84ba2116100a0578063ea66eb3811610064578063ea66eb381461030d578063eb62df611461032d578063f2fde38b14610335578063fa4e28f614610355578063fcf3e5551461039857600080fd5b806399e84ba2146102765780639d55e41a14610238578063c42069ec14610298578063debc2419146102b8578063e30c3978146102e857600080fd5b806362d05c78116100e757806362d05c78146101ec5780636f4cf18314610201578063715018a61461022357806388cb18fd146102385780638da5cb5b1461025857600080fd5b80630db02622146101245780631fc45b00146101555780633a5e8a061461018d5780634e1b623e146101bb5780635767d534146101c5575b600080fd5b34801561013057600080fd5b5060095461013e9060ff1681565b60405160ff90911681526020015b60405180910390f35b34801561016157600080fd5b50600c54610175906001600160a01b031681565b6040516001600160a01b03909116815260200161014c565b34801561019957600080fd5b506000546101ae90600160a01b900460ff1681565b60405161014c919061161c565b6101c36103b8565b005b3480156101d157600080fd5b506101da610510565b60405161014c9695949392919061167d565b3480156101f857600080fd5b506101c36106d8565b34801561020d57600080fd5b506102166107e0565b60405161014c91906116dd565b34801561022f57600080fd5b506101c3610a28565b34801561024457600080fd5b506101c361025336600461182b565b610a5e565b34801561026457600080fd5b506000546001600160a01b0316610175565b34801561028257600080fd5b5061028b610a8b565b60405161014c9190611868565b3480156102a457600080fd5b506101c36102b33660046118e6565b610b67565b3480156102c457600080fd5b506102d86102d3366004611908565b610c78565b60405161014c949392919061192c565b3480156102f457600080fd5b506009546101759061010090046001600160a01b031681565b34801561031957600080fd5b506101c3610328366004611977565b610dc1565b6101c361106c565b34801561034157600080fd5b506101c36103503660046118e6565b6112ea565b34801561036157600080fd5b50600a54600b54610379916001600160a01b03169082565b604080516001600160a01b03909316835260208301919091520161014c565b3480156103a457600080fd5b50600d54610175906001600160a01b031681565b60095460ff166000908152600860205260409020546201000090046001600160a01b03163314156104405760405162461bcd60e51b815260206004820152602760248201527f596f752063616e6e6f7420707572636861736520796f7572206f776e2050726f60448201526676656e616e636560c81b60648201526084015b60405180910390fd5b600034116104905760405162461bcd60e51b815260206004820152601960248201527f4f66666572206d7573742062652061626f7665203020776569000000000000006044820152606401610437565b600b5434116104f85760405162461bcd60e51b815260206004820152602e60248201527f4f66666572206d7573742067726561746572207468616e2063757272656e742060448201526d39ba30b73234b7339037b33332b960911b6064820152608401610437565b600a80546001600160a01b0319163317905534600b55565b600180546002805460ff9092169291610528906119eb565b80601f0160208091040260200160405190810160405280929190818152602001828054610554906119eb565b80156105a15780601f10610576576101008083540402835291602001916105a1565b820191906000526020600020905b81548152906001019060200180831161058457829003601f168201915b5050505050908060020180546105b6906119eb565b80601f01602080910402602001604051908101604052809291908181526020018280546105e2906119eb565b801561062f5780601f106106045761010080835404028352916020019161062f565b820191906000526020600020905b81548152906001019060200180831161061257829003601f168201915b505050505090806003018054610644906119eb565b80601f0160208091040260200160405190810160405280929190818152602001828054610670906119eb565b80156106bd5780601f10610692576101008083540402835291602001916106bd565b820191906000526020600020905b8154815290600101906020018083116106a057829003601f168201915b505050506004830154600590930154919261ffff1691905086565b600a546001600160a01b0316331480610713575060095460ff166000908152600860205260409020546201000090046001600160a01b031633145b61071c57600080fd5b600b8054600a80546001600160a01b0319811690915560009283905560405191926001600160a01b0390911691829084908381818185875af1925050503d8060008114610785576040519150601f19603f3d011682016040523d82523d6000602084013e61078a565b606091505b50509050806107db5760405162461bcd60e51b815260206004820152601960248201527f72657475726e207472616e73616374696f6e206661696c6564000000000000006044820152606401610437565b505050565b6009546060906000906107f79060ff166001611a36565b60ff1667ffffffffffffffff81111561081257610812611788565b60405190808252806020026020018201604052801561086657816020015b60408051608081018252600080825260208201526060918101829052818101919091528152602001906001900390816108305790505b50905060015b60095460ff1661ffff821611610a225761ffff818116600090815260086020908152604091829020825160808101845281549485168152620100009094046001600160a01b03169184019190915260018101805491928401916108ce906119eb565b80601f01602080910402602001604051908101604052809291908181526020018280546108fa906119eb565b80156109475780601f1061091c57610100808354040283529160200191610947565b820191906000526020600020905b81548152906001019060200180831161092a57829003601f168201915b50505050508152602001600282018054610960906119eb565b80601f016020809104026020016040519081016040528092919081815260200182805461098c906119eb565b80156109d95780601f106109ae576101008083540402835291602001916109d9565b820191906000526020600020905b8154815290600101906020018083116109bc57829003601f168201915b505050505081525050828261ffff16815181106109f8576109f8611a5b565b6020026020010181905250610a108161ffff16611382565b80610a1a81611a71565b91505061086c565b50919050565b6000546001600160a01b03163314610a525760405162461bcd60e51b815260040161043790611a93565b610a5c60006113c7565b565b6000546001600160a01b03163314610a885760405162461bcd60e51b815260040161043790611a93565b50565b60606001600601805480602002602001604051908101604052809291908181526020016000905b82821015610b5e578382906000526020600020018054610ad1906119eb565b80601f0160208091040260200160405190810160405280929190818152602001828054610afd906119eb565b8015610b4a5780601f10610b1f57610100808354040283529160200191610b4a565b820191906000526020600020905b815481529060010190602001808311610b2d57829003601f168201915b505050505081526020019060010190610ab2565b50505050905090565b60095460ff166000908152600860205260409020546201000090046001600160a01b0316331480610bb1575033610ba66000546001600160a01b031690565b6001600160a01b0316145b610bf35760405162461bcd60e51b81526020600482015260136024820152721bdb9b1e505d5d1a1bdc9a5e99590819985a5b606a1b6044820152606401610437565b60098054610100600160a81b0319166101006001600160a01b0384811691820292909217909255600d54604051637e7675cf60e11b81526004810193909352306024840152169063fceceb9e90604401600060405180830381600087803b158015610c5d57600080fd5b505af1158015610c71573d6000803e3d6000fd5b5050505050565b6008602052600090815260409020805460018201805461ffff831693620100009093046001600160a01b0316929190610cb0906119eb565b80601f0160208091040260200160405190810160405280929190818152602001828054610cdc906119eb565b8015610d295780601f10610cfe57610100808354040283529160200191610d29565b820191906000526020600020905b815481529060010190602001808311610d0c57829003601f168201915b505050505090806002018054610d3e906119eb565b80601f0160208091040260200160405190810160405280929190818152602001828054610d6a906119eb565b8015610db75780601f10610d8c57610100808354040283529160200191610db7565b820191906000526020600020905b815481529060010190602001808311610d9a57829003601f168201915b5050505050905084565b60095461010090046001600160a01b03163314610e565760405162461bcd60e51b815260206004820152604760248201527f596f7520617265206e6f74207468652070656e64696e674f776e6572206f662060448201527f74686973206974656d20616e64207468657265666f72652063616e6e6f7420636064820152661b185a5b481a5d60ca1b608482015260a401610437565b600d5460405163f62ef2f360e01b81526001600160a01b039091169063f62ef2f390610e8c908690339030908790600401611ac8565b600060405180830381600087803b158015610ea657600080fd5b505af1158015610eba573d6000803e3d6000fd5b5050600d5460405163923ae89d60e01b81523360048201523060248201526001600160a01b03909116925063923ae89d9150604401600060405180830381600087803b158015610f0957600080fd5b505af1158015610f1d573d6000803e3d6000fd5b505060098054610100600160a81b03198116825590925060009150610f449060ff16611b06565b825460ff9182166101009390930a9283029282021916919091179091556040805160808101825260095490921680835233602080850191825284840187815260608601879052600093845260088252939092208451815492516001600160a01b031662010000026001600160b01b031990931661ffff919091161791909117815591518051610fd99260018501920190611561565b5060608201518051610ff5916002840191602090910190611561565b5050600c54600654604051632142170760e11b81526001600160a01b0387811660048301523360248301526044820192909252911691506342842e0e90606401600060405180830381600087803b15801561104f57600080fd5b505af1158015611063573d6000803e3d6000fd5b50505050505050565b60095460ff166000908152600860205260409020546201000090046001600160a01b0316331461109b57600080fd5b600b546110e15760405162461bcd60e51b815260206004820152601460248201527304f666665722069732063757272656e746c7920360641b6044820152606401610437565b600d54600a546001600160a01b039182169163f62ef2f3913391163061110642611417565b6040518563ffffffff1660e01b81526004016111259493929190611ac8565b600060405180830381600087803b15801561113f57600080fd5b505af1158015611153573d6000803e3d6000fd5b5050600980549092506000915061116c9060ff16611b06565b82546101009290920a60ff818102199093169183160217909155604080516080810182526009549092168252600a546001600160a01b031660208084019190915281518083018352600e81526d1cdd1a5b1b081c995c5d5a5c995960921b9181019190915290820152606081016111e242611417565b905260095460ff1660009081526008602090815260409182902083518154858401516001600160a01b031662010000026001600160b01b031990911661ffff92909216919091171781559183015180516112429260018501920190611561565b506060820151805161125e916002840191602090910190611561565b5050600c54600a54600654604051632142170760e11b81523360048201526001600160a01b0392831660248201526044810191909152911691506342842e0e90606401600060405180830381600087803b1580156112bb57600080fd5b505af11580156112cf573d6000803e3d6000fd5b5050600a80546001600160a01b031916905550506000600b55565b6000546001600160a01b031633146113145760405162461bcd60e51b815260040161043790611a93565b6001600160a01b0381166113795760405162461bcd60e51b815260206004820152602660248201527f4f776e61626c653a206e6577206f776e657220697320746865207a65726f206160448201526564647265737360d01b6064820152608401610437565b610a88816113c7565b610a888160405160240161139891815260200190565b60408051601f198184030181529190526020810180516001600160e01b031663f5b1bba960e01b179052611540565b600080546001600160a01b038381166001600160a01b0319831681178455604051919092169283917f8be0079c531659141344cd1fd0a4f28419497f9722a3daafe3b4186f6b6457e09190a35050565b60608161143b5750506040805180820190915260018152600360fc1b602082015290565b8160005b8115611465578061144f81611b26565b915061145e9050600a83611b41565b915061143f565b60008167ffffffffffffffff81111561148057611480611788565b6040519080825280601f01601f1916602001820160405280156114aa576020820181803683370190505b509050815b8515611537576114c0600182611b63565b905060006114cf600a88611b41565b6114da90600a611b7a565b6114e49088611b63565b6114ef906030611a36565b905060008160f81b90508084848151811061150c5761150c611a5b565b60200101906001600160f81b031916908160001a90535061152e600a89611b41565b975050506114af565b50949350505050565b80516a636f6e736f6c652e6c6f67602083016000808483855afa5050505050565b82805461156d906119eb565b90600052602060002090601f01602090048101928261158f57600085556115d5565b82601f106115a857805160ff19168380011785556115d5565b828001600101855582156115d5579182015b828111156115d55782518255916020019190600101906115ba565b506115e19291506115e5565b5090565b5b808211156115e157600081556001016115e6565b6003811061161857634e487b7160e01b600052602160045260246000fd5b9052565b6020810161162a82846115fa565b92915050565b6000815180845260005b818110156116565760208185018101518683018201520161163a565b81811115611668576000602083870101525b50601f01601f19169290920160200192915050565b61168781886115fa565b60c06020820152600061169d60c0830188611630565b82810360408401526116af8188611630565b905082810360608401526116c38187611630565b61ffff959095166080840152505060a00152949350505050565b60006020808301818452808551808352604092508286019150828160051b87010184880160005b8381101561177a57888303603f190185528151805161ffff168452878101516001600160a01b0316888501528681015160808886018190529061174982870182611630565b915050606080830151925085820381870152506117668183611630565b968901969450505090860190600101611704565b509098975050505050505050565b634e487b7160e01b600052604160045260246000fd5b600082601f8301126117af57600080fd5b813567ffffffffffffffff808211156117ca576117ca611788565b604051601f8301601f19908116603f011681019082821181831017156117f2576117f2611788565b8160405283815286602085880101111561180b57600080fd5b836020870160208301376000602085830101528094505050505092915050565b60006020828403121561183d57600080fd5b813567ffffffffffffffff81111561185457600080fd5b6118608482850161179e565b949350505050565b6000602080830181845280855180835260408601915060408160051b870101925083870160005b828110156118bd57603f198886030184526118ab858351611630565b9450928501929085019060010161188f565b5092979650505050505050565b80356001600160a01b03811681146118e157600080fd5b919050565b6000602082840312156118f857600080fd5b611901826118ca565b9392505050565b60006020828403121561191a57600080fd5b813561ffff8116811461190157600080fd5b61ffff851681526001600160a01b038416602082015260806040820181905260009061195a90830185611630565b828103606084015261196c8185611630565b979650505050505050565b60008060006060848603121561198c57600080fd5b611995846118ca565b9250602084013567ffffffffffffffff808211156119b257600080fd5b6119be8783880161179e565b935060408601359150808211156119d457600080fd5b506119e18682870161179e565b9150509250925092565b600181811c908216806119ff57607f821691505b60208210811415610a2257634e487b7160e01b600052602260045260246000fd5b634e487b7160e01b600052601160045260246000fd5b600060ff821660ff84168060ff03821115611a5357611a53611a20565b019392505050565b634e487b7160e01b600052603260045260246000fd5b600061ffff80831681811415611a8957611a89611a20565b6001019392505050565b6020808252818101527f4f776e61626c653a2063616c6c6572206973206e6f7420746865206f776e6572604082015260600190565b6001600160a01b038581168252848116602083015283166040820152608060608201819052600090611afc90830184611630565b9695505050505050565b600060ff821660ff811415611b1d57611b1d611a20565b60010192915050565b6000600019821415611b3a57611b3a611a20565b5060010190565b600082611b5e57634e487b7160e01b600052601260045260246000fd5b500490565b600082821015611b7557611b75611a20565b500390565b6000816000190483118215151615611b9457611b94611a20565b50029056fea26469706673582212203d169a0c5e87429ac2ab94f549b978d8742237063da6a6521e593e50b839297764736f6c634300080a0033",
  "linkReferences": {},
  "deployedLinkReferences": {}
}