{
  "_format": "hh-sol-artifact-1",
  "contractName": "Provenance",
  "sourceName": "contracts/Provenance.sol",
  "abi": [
    {
      "inputs": [
        {
          "internalType": "enum Provenance.Types",
          "name": "enumType",
          "type": "uint8"
        },
        {
          "internalType": "string",
          "name": "_serial",
          "type": "string"
        },
        {
          "internalType": "string",
          "name": "_brand",
          "type": "string"
        },
        {
          "internalType": "string",
          "name": "_model",
          "type": "string"
        },
        {
          "internalType": "uint16",
          "name": "_year",
          "type": "uint16"
        },
        {
          "internalType": "uint256",
          "name": "_instrumentDeedToken",
          "type": "uint256"
        },
        {
          "internalType": "string",
          "name": "_date",
          "type": "string"
        },
        {
          "internalType": "string",
          "name": "_verificationPhotoHash",
          "type": "string"
        },
        {
          "internalType": "string[]",
          "name": "_instrumentPhotoHashes",
          "type": "string[]"
        },
        {
          "internalType": "address",
          "name": "_mothershipAddress",
          "type": "address"
        },
        {
          "internalType": "address",
          "name": "_deedTokenAddress",
          "type": "address"
        }
      ],
      "stateMutability": "nonpayable",
      "type": "constructor"
    },
    {
      "anonymous": false,
      "inputs": [
        {
          "indexed": true,
          "internalType": "address",
          "name": "previousOwner",
          "type": "address"
        },
        {
          "indexed": true,
          "internalType": "address",
          "name": "newOwner",
          "type": "address"
        }
      ],
      "name": "OwnershipTransferred",
      "type": "event"
    },
    {
      "inputs": [
        {
          "internalType": "string",
          "name": "instrumentPhotoHash",
          "type": "string"
        }
      ],
      "name": "addNewInstrumentPhoto",
      "outputs": [],
      "stateMutability": "nonpayable",
      "type": "function"
    },
    {
      "inputs": [
        {
          "internalType": "address",
          "name": "_seller",
          "type": "address"
        },
        {
          "internalType": "string",
          "name": "_verificationPhotoHash",
          "type": "string"
        },
        {
          "internalType": "string",
          "name": "date",
          "type": "string"
        }
      ],
      "name": "claimOwnership",
      "outputs": [],
      "stateMutability": "nonpayable",
      "type": "function"
    },
    {
      "inputs": [],
      "name": "getItemPics",
      "outputs": [
        {
          "internalType": "string[]",
          "name": "",
          "type": "string[]"
        }
      ],
      "stateMutability": "view",
      "type": "function"
    },
    {
      "inputs": [],
      "name": "getOwnershipHistory",
      "outputs": [
        {
          "components": [
            {
              "internalType": "uint16",
              "name": "ownerCount",
              "type": "uint16"
            },
            {
              "internalType": "address",
              "name": "ownerAddress",
              "type": "address"
            },
            {
              "internalType": "string",
              "name": "verificationPhotoHash",
              "type": "string"
            },
            {
              "internalType": "string",
              "name": "date",
              "type": "string"
            }
          ],
          "internalType": "struct Provenance.Owner[]",
          "name": "",
          "type": "tuple[]"
        }
      ],
      "stateMutability": "view",
      "type": "function"
    },
    {
      "inputs": [],
      "name": "instrument",
      "outputs": [
        {
          "internalType": "enum Provenance.Types",
          "name": "typeOfProvenance",
          "type": "uint8"
        },
        {
          "internalType": "string",
          "name": "serial",
          "type": "string"
        },
        {
          "internalType": "string",
          "name": "brand",
          "type": "string"
        },
        {
          "internalType": "string",
          "name": "model",
          "type": "string"
        },
        {
          "internalType": "uint16",
          "name": "year",
          "type": "uint16"
        },
        {
          "internalType": "uint256",
          "name": "instrumentDeedToken",
          "type": "uint256"
        }
      ],
      "stateMutability": "view",
      "type": "function"
    },
    {
      "inputs": [],
      "name": "instrumentDeedTokenContract",
      "outputs": [
        {
          "internalType": "contract InstrumentDeedToken",
          "name": "",
          "type": "address"
        }
      ],
      "stateMutability": "view",
      "type": "function"
    },
    {
      "inputs": [],
      "name": "instrumentOwner",
      "outputs": [
        {
          "internalType": "uint16",
          "name": "ownerCount",
          "type": "uint16"
        },
        {
          "internalType": "address",
          "name": "ownerAddress",
          "type": "address"
        },
        {
          "internalType": "string",
          "name": "verificationPhotoHash",
          "type": "string"
        },
        {
          "internalType": "string",
          "name": "date",
          "type": "string"
        }
      ],
      "stateMutability": "view",
      "type": "function"
    },
    {
      "inputs": [],
      "name": "mothershipContract",
      "outputs": [
        {
          "internalType": "contract Mothership",
          "name": "",
          "type": "address"
        }
      ],
      "stateMutability": "view",
      "type": "function"
    },
    {
      "inputs": [],
      "name": "owner",
      "outputs": [
        {
          "internalType": "address",
          "name": "",
          "type": "address"
        }
      ],
      "stateMutability": "view",
      "type": "function"
    },
    {
      "inputs": [],
      "name": "ownerCount",
      "outputs": [
        {
          "internalType": "uint8",
          "name": "",
          "type": "uint8"
        }
      ],
      "stateMutability": "view",
      "type": "function"
    },
    {
      "inputs": [
        {
          "internalType": "uint16",
          "name": "",
          "type": "uint16"
        }
      ],
      "name": "ownerProvenance",
      "outputs": [
        {
          "internalType": "uint16",
          "name": "ownerCount",
          "type": "uint16"
        },
        {
          "internalType": "address",
          "name": "ownerAddress",
          "type": "address"
        },
        {
          "internalType": "string",
          "name": "verificationPhotoHash",
          "type": "string"
        },
        {
          "internalType": "string",
          "name": "date",
          "type": "string"
        }
      ],
      "stateMutability": "view",
      "type": "function"
    },
    {
      "inputs": [],
      "name": "pendingOwner",
      "outputs": [
        {
          "internalType": "address",
          "name": "",
          "type": "address"
        }
      ],
      "stateMutability": "view",
      "type": "function"
    },
    {
      "inputs": [],
      "name": "renounceOwnership",
      "outputs": [],
      "stateMutability": "nonpayable",
      "type": "function"
    },
    {
      "inputs": [
        {
          "internalType": "string",
          "name": "instrumentPhotoHash",
          "type": "string"
        }
      ],
      "name": "setNewVerificationPhoto",
      "outputs": [],
      "stateMutability": "nonpayable",
      "type": "function"
    },
    {
      "inputs": [
        {
          "internalType": "address",
          "name": "buyer",
          "type": "address"
        }
      ],
      "name": "setPendingOwner",
      "outputs": [],
      "stateMutability": "nonpayable",
      "type": "function"
    },
    {
      "inputs": [
        {
          "internalType": "address",
          "name": "newOwner",
          "type": "address"
        }
      ],
      "name": "transferOwnership",
      "outputs": [],
      "stateMutability": "nonpayable",
      "type": "function"
    },
    {
      "inputs": [],
      "name": "typeOfProvenance",
      "outputs": [
        {
          "internalType": "enum Provenance.Types",
          "name": "",
          "type": "uint8"
        }
      ],
      "stateMutability": "view",
      "type": "function"
    }
  ],
  "bytecode": "0x60806040523480156200001157600080fd5b506040516200313d3803806200313d833981810160405281019062000037919062000981565b620000576200004b6200039060201b60201c565b6200039860201b60201c565b81600f60006101000a81548173ffffffffffffffffffffffffffffffffffffffff021916908373ffffffffffffffffffffffffffffffffffffffff16021790555080600e60006101000a81548173ffffffffffffffffffffffffffffffffffffffff021916908373ffffffffffffffffffffffffffffffffffffffff1602179055508a600360000160006101000a81548160ff0219169083600281111562000104576200010362000b48565b5b02179055508960036001019080519060200190620001249291906200045c565b508860036002019080519060200190620001409291906200045c565b50876003800190805190602001906200015b9291906200045c565b5086600360040160006101000a81548161ffff021916908361ffff160217905550856003600501819055508260036006019080519060200190620001a1929190620004ed565b506001600d60146101000a81548160ff021916908360ff1602179055506040518060800160405280600d60149054906101000a900460ff1660ff1661ffff168152602001600e60009054906101000a900473ffffffffffffffffffffffffffffffffffffffff1673ffffffffffffffffffffffffffffffffffffffff16636352211e896040518263ffffffff1660e01b815260040162000242919062000b88565b602060405180830381865afa15801562000260573d6000803e3d6000fd5b505050506040513d601f19601f8201168201806040525081019062000286919062000ba5565b73ffffffffffffffffffffffffffffffffffffffff1681526020018581526020018681525060016000600d60149054906101000a900460ff1660ff1661ffff16815260200190815260200160002060008201518160000160006101000a81548161ffff021916908361ffff16021790555060208201518160000160026101000a81548173ffffffffffffffffffffffffffffffffffffffff021916908373ffffffffffffffffffffffffffffffffffffffff16021790555060408201518160010190805190602001906200035c9291906200045c565b5060608201518160020190805190602001906200037b9291906200045c565b50905050505050505050505050505062000c3c565b600033905090565b60008060009054906101000a900473ffffffffffffffffffffffffffffffffffffffff169050816000806101000a81548173ffffffffffffffffffffffffffffffffffffffff021916908373ffffffffffffffffffffffffffffffffffffffff1602179055508173ffffffffffffffffffffffffffffffffffffffff168173ffffffffffffffffffffffffffffffffffffffff167f8be0079c531659141344cd1fd0a4f28419497f9722a3daafe3b4186f6b6457e060405160405180910390a35050565b8280546200046a9062000c06565b90600052602060002090601f0160209004810192826200048e5760008555620004da565b82601f10620004a957805160ff1916838001178555620004da565b82800160010185558215620004da579182015b82811115620004d9578251825591602001919060010190620004bc565b5b509050620004e9919062000554565b5090565b82805482825590600052602060002090810192821562000541579160200282015b82811115620005405782518290805190602001906200052f9291906200045c565b50916020019190600101906200050e565b5b50905062000550919062000573565b5090565b5b808211156200056f57600081600090555060010162000555565b5090565b5b808211156200059757600081816200058d91906200059b565b5060010162000574565b5090565b508054620005a99062000c06565b6000825580601f10620005bd5750620005de565b601f016020900490600052602060002090810190620005dd919062000554565b5b50565b6000604051905090565b600080fd5b600080fd5b600381106200060357600080fd5b50565b6000815190506200061781620005f5565b92915050565b600080fd5b600080fd5b6000601f19601f8301169050919050565b7f4e487b7100000000000000000000000000000000000000000000000000000000600052604160045260246000fd5b620006728262000627565b810181811067ffffffffffffffff8211171562000694576200069362000638565b5b80604052505050565b6000620006a9620005e1565b9050620006b7828262000667565b919050565b600067ffffffffffffffff821115620006da57620006d962000638565b5b620006e58262000627565b9050602081019050919050565b60005b8381101562000712578082015181840152602081019050620006f5565b8381111562000722576000848401525b50505050565b60006200073f6200073984620006bc565b6200069d565b9050828152602081018484840111156200075e576200075d62000622565b5b6200076b848285620006f2565b509392505050565b600082601f8301126200078b576200078a6200061d565b5b81516200079d84826020860162000728565b91505092915050565b600061ffff82169050919050565b620007bf81620007a6565b8114620007cb57600080fd5b50565b600081519050620007df81620007b4565b92915050565b6000819050919050565b620007fa81620007e5565b81146200080657600080fd5b50565b6000815190506200081a81620007ef565b92915050565b600067ffffffffffffffff8211156200083e576200083d62000638565b5b602082029050602081019050919050565b600080fd5b60006200086b620008658462000820565b6200069d565b905080838252602082019050602084028301858111156200089157620008906200084f565b5b835b81811015620008df57805167ffffffffffffffff811115620008ba57620008b96200061d565b5b808601620008c9898262000773565b8552602085019450505060208101905062000893565b5050509392505050565b600082601f8301126200090157620009006200061d565b5b81516200091384826020860162000854565b91505092915050565b600073ffffffffffffffffffffffffffffffffffffffff82169050919050565b600062000949826200091c565b9050919050565b6200095b816200093c565b81146200096757600080fd5b50565b6000815190506200097b8162000950565b92915050565b60008060008060008060008060008060006101608c8e031215620009aa57620009a9620005eb565b5b6000620009ba8e828f0162000606565b9b505060208c015167ffffffffffffffff811115620009de57620009dd620005f0565b5b620009ec8e828f0162000773565b9a505060408c015167ffffffffffffffff81111562000a105762000a0f620005f0565b5b62000a1e8e828f0162000773565b99505060608c015167ffffffffffffffff81111562000a425762000a41620005f0565b5b62000a508e828f0162000773565b985050608062000a638e828f01620007ce565b97505060a062000a768e828f0162000809565b96505060c08c015167ffffffffffffffff81111562000a9a5762000a99620005f0565b5b62000aa88e828f0162000773565b95505060e08c015167ffffffffffffffff81111562000acc5762000acb620005f0565b5b62000ada8e828f0162000773565b9450506101008c015167ffffffffffffffff81111562000aff5762000afe620005f0565b5b62000b0d8e828f01620008e9565b93505061012062000b218e828f016200096a565b92505061014062000b358e828f016200096a565b9150509295989b509295989b9093969950565b7f4e487b7100000000000000000000000000000000000000000000000000000000600052602160045260246000fd5b62000b8281620007e5565b82525050565b600060208201905062000b9f600083018462000b77565b92915050565b60006020828403121562000bbe5762000bbd620005eb565b5b600062000bce848285016200096a565b91505092915050565b7f4e487b7100000000000000000000000000000000000000000000000000000000600052602260045260246000fd5b6000600282049050600182168062000c1f57607f821691505b6020821081141562000c365762000c3562000bd7565b5b50919050565b6124f18062000c4c6000396000f3fe608060405234801561001057600080fd5b506004361061010b5760003560e01c806399e84ba2116100a2578063e30c397811610071578063e30c397814610278578063ea66eb3814610296578063f023f222146102b2578063f2fde38b146102d3578063fcf3e555146102ef5761010b565b806399e84ba2146101ef5780639d55e41a1461020d578063c42069ec14610229578063debc2419146102455761010b565b80636f4cf183116100de5780636f4cf1831461018d578063715018a6146101ab57806388cb18fd146101b55780638da5cb5b146101d15761010b565b80630db02622146101105780631fc45b001461012e5780633a5e8a061461014c5780635767d5341461016a575b600080fd5b61011861030d565b6040516101259190611784565b60405180910390f35b610136610320565b604051610143919061181e565b60405180910390f35b610154610346565b60405161016191906118b0565b60405180910390f35b610172610359565b6040516101849695949392919061199a565b60405180910390f35b610195610536565b6040516101a29190611bb6565b60405180910390f35b6101b361081a565b005b6101cf60048036038101906101ca9190611d21565b6108a2565b005b6101d9610921565b6040516101e69190611d79565b60405180910390f35b6101f761094a565b6040516102049190611e56565b60405180910390f35b61022760048036038101906102229190611d21565b610a26565b005b610243600480360381019061023e9190611ea4565b610aa5565b005b61025f600480360381019061025a9190611efd565b610c6f565b60405161026f9493929190611f2a565b60405180910390f35b610280610ddd565b60405161028d9190611d79565b60405180910390f35b6102b060048036038101906102ab9190611f7d565b610e03565b005b6102ba6111e2565b6040516102ca9493929190611f2a565b60405180910390f35b6102ed60048036038101906102e89190611ea4565b61133e565b005b6102f7611436565b6040516103049190612029565b60405180910390f35b600d60149054906101000a900460ff1681565b600e60009054906101000a900473ffffffffffffffffffffffffffffffffffffffff1681565b600260009054906101000a900460ff1681565b60038060000160009054906101000a900460ff169080600101805461037d90612073565b80601f01602080910402602001604051908101604052809291908181526020018280546103a990612073565b80156103f65780601f106103cb576101008083540402835291602001916103f6565b820191906000526020600020905b8154815290600101906020018083116103d957829003601f168201915b50505050509080600201805461040b90612073565b80601f016020809104026020016040519081016040528092919081815260200182805461043790612073565b80156104845780601f1061045957610100808354040283529160200191610484565b820191906000526020600020905b81548152906001019060200180831161046757829003601f168201915b50505050509080600301805461049990612073565b80601f01602080910402602001604051908101604052809291908181526020018280546104c590612073565b80156105125780601f106104e757610100808354040283529160200191610512565b820191906000526020600020905b8154815290600101906020018083116104f557829003601f168201915b5050505050908060040160009054906101000a900461ffff16908060050154905086565b606060006001600d60149054906101000a900460ff1661055691906120d4565b60ff1667ffffffffffffffff81111561057257610571611bf6565b5b6040519080825280602002602001820160405280156105ab57816020015b610598611683565b8152602001906001900390816105905790505b5090506000600190505b600d60149054906101000a900460ff1660ff168161ffff1611610812576106106040518060400160405280600781526020017f68697474696e670000000000000000000000000000000000000000000000000081525061145c565b600160008261ffff1661ffff1681526020019081526020016000206040518060800160405290816000820160009054906101000a900461ffff1661ffff1661ffff1681526020016000820160029054906101000a900473ffffffffffffffffffffffffffffffffffffffff1673ffffffffffffffffffffffffffffffffffffffff1673ffffffffffffffffffffffffffffffffffffffff1681526020016001820180546106bc90612073565b80601f01602080910402602001604051908101604052809291908181526020018280546106e890612073565b80156107355780601f1061070a57610100808354040283529160200191610735565b820191906000526020600020905b81548152906001019060200180831161071857829003601f168201915b5050505050815260200160028201805461074e90612073565b80601f016020809104026020016040519081016040528092919081815260200182805461077a90612073565b80156107c75780601f1061079c576101008083540402835291602001916107c7565b820191906000526020600020905b8154815290600101906020018083116107aa57829003601f168201915b505050505081525050828261ffff16815181106107e7576107e661210b565b5b60200260200101819052506107ff8161ffff166114f5565b808061080a9061213a565b9150506105b5565b508091505090565b61082261158e565b73ffffffffffffffffffffffffffffffffffffffff16610840610921565b73ffffffffffffffffffffffffffffffffffffffff1614610896576040517f08c379a000000000000000000000000000000000000000000000000000000000815260040161088d906121b1565b60405180910390fd5b6108a06000611596565b565b6108aa61158e565b73ffffffffffffffffffffffffffffffffffffffff166108c8610921565b73ffffffffffffffffffffffffffffffffffffffff161461091e576040517f08c379a0000000000000000000000000000000000000000000000000000000008152600401610915906121b1565b60405180910390fd5b50565b60008060009054906101000a900473ffffffffffffffffffffffffffffffffffffffff16905090565b60606003600601805480602002602001604051908101604052809291908181526020016000905b82821015610a1d57838290600052602060002001805461099090612073565b80601f01602080910402602001604051908101604052809291908181526020018280546109bc90612073565b8015610a095780601f106109de57610100808354040283529160200191610a09565b820191906000526020600020905b8154815290600101906020018083116109ec57829003601f168201915b505050505081526020019060010190610971565b50505050905090565b610a2e61158e565b73ffffffffffffffffffffffffffffffffffffffff16610a4c610921565b73ffffffffffffffffffffffffffffffffffffffff1614610aa2576040517f08c379a0000000000000000000000000000000000000000000000000000000008152600401610a99906121b1565b60405180910390fd5b50565b3373ffffffffffffffffffffffffffffffffffffffff1660016000600d60149054906101000a900460ff1660ff1661ffff16815260200190815260200160002060000160029054906101000a900473ffffffffffffffffffffffffffffffffffffffff1673ffffffffffffffffffffffffffffffffffffffff161480610b5d57503373ffffffffffffffffffffffffffffffffffffffff16610b45610921565b73ffffffffffffffffffffffffffffffffffffffff16145b610b9c576040517f08c379a0000000000000000000000000000000000000000000000000000000008152600401610b939061221d565b60405180910390fd5b80600d60006101000a81548173ffffffffffffffffffffffffffffffffffffffff021916908373ffffffffffffffffffffffffffffffffffffffff160217905550600f60009054906101000a900473ffffffffffffffffffffffffffffffffffffffff1673ffffffffffffffffffffffffffffffffffffffff1663fceceb9e82306040518363ffffffff1660e01b8152600401610c3a92919061223d565b600060405180830381600087803b158015610c5457600080fd5b505af1158015610c68573d6000803e3d6000fd5b5050505050565b60016020528060005260406000206000915090508060000160009054906101000a900461ffff16908060000160029054906101000a900473ffffffffffffffffffffffffffffffffffffffff1690806001018054610ccc90612073565b80601f0160208091040260200160405190810160405280929190818152602001828054610cf890612073565b8015610d455780601f10610d1a57610100808354040283529160200191610d45565b820191906000526020600020905b815481529060010190602001808311610d2857829003601f168201915b505050505090806002018054610d5a90612073565b80601f0160208091040260200160405190810160405280929190818152602001828054610d8690612073565b8015610dd35780601f10610da857610100808354040283529160200191610dd3565b820191906000526020600020905b815481529060010190602001808311610db657829003601f168201915b5050505050905084565b600d60009054906101000a900473ffffffffffffffffffffffffffffffffffffffff1681565b600d60009054906101000a900473ffffffffffffffffffffffffffffffffffffffff1673ffffffffffffffffffffffffffffffffffffffff163373ffffffffffffffffffffffffffffffffffffffff1614610e93576040517f08c379a0000000000000000000000000000000000000000000000000000000008152600401610e8a906122fe565b60405180910390fd5b600f60009054906101000a900473ffffffffffffffffffffffffffffffffffffffff1673ffffffffffffffffffffffffffffffffffffffff1663f62ef2f3843330856040518563ffffffff1660e01b8152600401610ef4949392919061233f565b600060405180830381600087803b158015610f0e57600080fd5b505af1158015610f22573d6000803e3d6000fd5b50505050600f60009054906101000a900473ffffffffffffffffffffffffffffffffffffffff1673ffffffffffffffffffffffffffffffffffffffff1663923ae89d33306040518363ffffffff1660e01b8152600401610f8392919061223d565b600060405180830381600087803b158015610f9d57600080fd5b505af1158015610fb1573d6000803e3d6000fd5b505050506000600d60006101000a81548173ffffffffffffffffffffffffffffffffffffffff021916908373ffffffffffffffffffffffffffffffffffffffff160217905550600d601481819054906101000a900460ff166110129061238b565b91906101000a81548160ff021916908360ff1602179055506040518060800160405280600d60149054906101000a900460ff1660ff1661ffff1681526020013373ffffffffffffffffffffffffffffffffffffffff1681526020018381526020018281525060016000600d60149054906101000a900460ff1660ff1661ffff16815260200190815260200160002060008201518160000160006101000a81548161ffff021916908361ffff16021790555060208201518160000160026101000a81548173ffffffffffffffffffffffffffffffffffffffff021916908373ffffffffffffffffffffffffffffffffffffffff16021790555060408201518160010190805190602001906111269291906116c5565b5060608201518160020190805190602001906111439291906116c5565b50905050600e60009054906101000a900473ffffffffffffffffffffffffffffffffffffffff1673ffffffffffffffffffffffffffffffffffffffff166342842e0e84336003600501546040518463ffffffff1660e01b81526004016111ab939291906123b5565b600060405180830381600087803b1580156111c557600080fd5b505af11580156111d9573d6000803e3d6000fd5b50505050505050565b600a8060000160009054906101000a900461ffff16908060000160029054906101000a900473ffffffffffffffffffffffffffffffffffffffff169080600101805461122d90612073565b80601f016020809104026020016040519081016040528092919081815260200182805461125990612073565b80156112a65780601f1061127b576101008083540402835291602001916112a6565b820191906000526020600020905b81548152906001019060200180831161128957829003601f168201915b5050505050908060020180546112bb90612073565b80601f01602080910402602001604051908101604052809291908181526020018280546112e790612073565b80156113345780601f1061130957610100808354040283529160200191611334565b820191906000526020600020905b81548152906001019060200180831161131757829003601f168201915b5050505050905084565b61134661158e565b73ffffffffffffffffffffffffffffffffffffffff16611364610921565b73ffffffffffffffffffffffffffffffffffffffff16146113ba576040517f08c379a00000000000000000000000000000000000000000000000000000000081526004016113b1906121b1565b60405180910390fd5b600073ffffffffffffffffffffffffffffffffffffffff168173ffffffffffffffffffffffffffffffffffffffff16141561142a576040517f08c379a00000000000000000000000000000000000000000000000000000000081526004016114219061245e565b60405180910390fd5b61143381611596565b50565b600f60009054906101000a900473ffffffffffffffffffffffffffffffffffffffff1681565b6114f281604051602401611470919061247e565b6040516020818303038152906040527f41304fac000000000000000000000000000000000000000000000000000000007bffffffffffffffffffffffffffffffffffffffffffffffffffffffff19166020820180517bffffffffffffffffffffffffffffffffffffffffffffffffffffffff838183161783525050505061165a565b50565b61158b8160405160240161150991906124a0565b6040516020818303038152906040527ff5b1bba9000000000000000000000000000000000000000000000000000000007bffffffffffffffffffffffffffffffffffffffffffffffffffffffff19166020820180517bffffffffffffffffffffffffffffffffffffffffffffffffffffffff838183161783525050505061165a565b50565b600033905090565b60008060009054906101000a900473ffffffffffffffffffffffffffffffffffffffff169050816000806101000a81548173ffffffffffffffffffffffffffffffffffffffff021916908373ffffffffffffffffffffffffffffffffffffffff1602179055508173ffffffffffffffffffffffffffffffffffffffff168173ffffffffffffffffffffffffffffffffffffffff167f8be0079c531659141344cd1fd0a4f28419497f9722a3daafe3b4186f6b6457e060405160405180910390a35050565b60008151905060006a636f6e736f6c652e6c6f679050602083016000808483855afa5050505050565b6040518060800160405280600061ffff168152602001600073ffffffffffffffffffffffffffffffffffffffff16815260200160608152602001606081525090565b8280546116d190612073565b90600052602060002090601f0160209004810192826116f3576000855561173a565b82601f1061170c57805160ff191683800117855561173a565b8280016001018555821561173a579182015b8281111561173957825182559160200191906001019061171e565b5b509050611747919061174b565b5090565b5b8082111561176457600081600090555060010161174c565b5090565b600060ff82169050919050565b61177e81611768565b82525050565b60006020820190506117996000830184611775565b92915050565b600073ffffffffffffffffffffffffffffffffffffffff82169050919050565b6000819050919050565b60006117e46117df6117da8461179f565b6117bf565b61179f565b9050919050565b60006117f6826117c9565b9050919050565b6000611808826117eb565b9050919050565b611818816117fd565b82525050565b6000602082019050611833600083018461180f565b92915050565b7f4e487b7100000000000000000000000000000000000000000000000000000000600052602160045260246000fd5b6003811061187957611878611839565b5b50565b600081905061188a82611868565b919050565b600061189a8261187c565b9050919050565b6118aa8161188f565b82525050565b60006020820190506118c560008301846118a1565b92915050565b600081519050919050565b600082825260208201905092915050565b60005b838110156119055780820151818401526020810190506118ea565b83811115611914576000848401525b50505050565b6000601f19601f8301169050919050565b6000611936826118cb565b61194081856118d6565b93506119508185602086016118e7565b6119598161191a565b840191505092915050565b600061ffff82169050919050565b61197b81611964565b82525050565b6000819050919050565b61199481611981565b82525050565b600060c0820190506119af60008301896118a1565b81810360208301526119c1818861192b565b905081810360408301526119d5818761192b565b905081810360608301526119e9818661192b565b90506119f86080830185611972565b611a0560a083018461198b565b979650505050505050565b600081519050919050565b600082825260208201905092915050565b6000819050602082019050919050565b611a4581611964565b82525050565b6000611a568261179f565b9050919050565b611a6681611a4b565b82525050565b600082825260208201905092915050565b6000611a88826118cb565b611a928185611a6c565b9350611aa28185602086016118e7565b611aab8161191a565b840191505092915050565b6000608083016000830151611ace6000860182611a3c565b506020830151611ae16020860182611a5d565b5060408301518482036040860152611af98282611a7d565b91505060608301518482036060860152611b138282611a7d565b9150508091505092915050565b6000611b2c8383611ab6565b905092915050565b6000602082019050919050565b6000611b4c82611a10565b611b568185611a1b565b935083602082028501611b6885611a2c565b8060005b85811015611ba45784840389528151611b858582611b20565b9450611b9083611b34565b925060208a01995050600181019050611b6c565b50829750879550505050505092915050565b60006020820190508181036000830152611bd08184611b41565b905092915050565b6000604051905090565b600080fd5b600080fd5b600080fd5b600080fd5b7f4e487b7100000000000000000000000000000000000000000000000000000000600052604160045260246000fd5b611c2e8261191a565b810181811067ffffffffffffffff82111715611c4d57611c4c611bf6565b5b80604052505050565b6000611c60611bd8565b9050611c6c8282611c25565b919050565b600067ffffffffffffffff821115611c8c57611c8b611bf6565b5b611c958261191a565b9050602081019050919050565b82818337600083830152505050565b6000611cc4611cbf84611c71565b611c56565b905082815260208101848484011115611ce057611cdf611bf1565b5b611ceb848285611ca2565b509392505050565b600082601f830112611d0857611d07611bec565b5b8135611d18848260208601611cb1565b91505092915050565b600060208284031215611d3757611d36611be2565b5b600082013567ffffffffffffffff811115611d5557611d54611be7565b5b611d6184828501611cf3565b91505092915050565b611d7381611a4b565b82525050565b6000602082019050611d8e6000830184611d6a565b92915050565b600081519050919050565b600082825260208201905092915050565b6000819050602082019050919050565b6000611dcc8383611a7d565b905092915050565b6000602082019050919050565b6000611dec82611d94565b611df68185611d9f565b935083602082028501611e0885611db0565b8060005b85811015611e445784840389528151611e258582611dc0565b9450611e3083611dd4565b925060208a01995050600181019050611e0c565b50829750879550505050505092915050565b60006020820190508181036000830152611e708184611de1565b905092915050565b611e8181611a4b565b8114611e8c57600080fd5b50565b600081359050611e9e81611e78565b92915050565b600060208284031215611eba57611eb9611be2565b5b6000611ec884828501611e8f565b91505092915050565b611eda81611964565b8114611ee557600080fd5b50565b600081359050611ef781611ed1565b92915050565b600060208284031215611f1357611f12611be2565b5b6000611f2184828501611ee8565b91505092915050565b6000608082019050611f3f6000830187611972565b611f4c6020830186611d6a565b8181036040830152611f5e818561192b565b90508181036060830152611f72818461192b565b905095945050505050565b600080600060608486031215611f9657611f95611be2565b5b6000611fa486828701611e8f565b935050602084013567ffffffffffffffff811115611fc557611fc4611be7565b5b611fd186828701611cf3565b925050604084013567ffffffffffffffff811115611ff257611ff1611be7565b5b611ffe86828701611cf3565b9150509250925092565b6000612013826117eb565b9050919050565b61202381612008565b82525050565b600060208201905061203e600083018461201a565b92915050565b7f4e487b7100000000000000000000000000000000000000000000000000000000600052602260045260246000fd5b6000600282049050600182168061208b57607f821691505b6020821081141561209f5761209e612044565b5b50919050565b7f4e487b7100000000000000000000000000000000000000000000000000000000600052601160045260246000fd5b60006120df82611768565b91506120ea83611768565b92508260ff03821115612100576120ff6120a5565b5b828201905092915050565b7f4e487b7100000000000000000000000000000000000000000000000000000000600052603260045260246000fd5b600061214582611964565b915061ffff82141561215a576121596120a5565b5b600182019050919050565b7f4f776e61626c653a2063616c6c6572206973206e6f7420746865206f776e6572600082015250565b600061219b6020836118d6565b91506121a682612165565b602082019050919050565b600060208201905081810360008301526121ca8161218e565b9050919050565b7f6f6e6c79417574686f72697a6564206661696c00000000000000000000000000600082015250565b60006122076013836118d6565b9150612212826121d1565b602082019050919050565b60006020820190508181036000830152612236816121fa565b9050919050565b60006040820190506122526000830185611d6a565b61225f6020830184611d6a565b9392505050565b7f596f7520617265206e6f74207468652070656e64696e674f776e6572206f662060008201527f74686973206974656d20616e64207468657265666f72652063616e6e6f74206360208201527f6c61696d20697400000000000000000000000000000000000000000000000000604082015250565b60006122e86047836118d6565b91506122f382612266565b606082019050919050565b60006020820190508181036000830152612317816122db565b9050919050565b6000612329826117eb565b9050919050565b6123398161231e565b82525050565b60006080820190506123546000830187611d6a565b6123616020830186611d6a565b61236e6040830185612330565b8181036060830152612380818461192b565b905095945050505050565b600061239682611768565b915060ff8214156123aa576123a96120a5565b5b600182019050919050565b60006060820190506123ca6000830186611d6a565b6123d76020830185611d6a565b6123e4604083018461198b565b949350505050565b7f4f776e61626c653a206e6577206f776e657220697320746865207a65726f206160008201527f6464726573730000000000000000000000000000000000000000000000000000602082015250565b60006124486026836118d6565b9150612453826123ec565b604082019050919050565b600060208201905081810360008301526124778161243b565b9050919050565b60006020820190508181036000830152612498818461192b565b905092915050565b60006020820190506124b5600083018461198b565b9291505056fea2646970667358221220690f290a51f306e1f560a44104065f7e6cf8585cb265c798ac1fe1325eadc39464736f6c634300080a0033",
  "linkReferences": {},
  "deployedLinkReferences": {}
}