{
  "_format": "hh-sol-artifact-1",
  "contractName": "Provenance",
  "sourceName": "contracts/Provenance.sol",
  "abi": [
    {
      "inputs": [
        {
          "internalType": "enum Provenance.Types",
          "name": "enumType",
          "type": "uint8"
        },
        {
          "internalType": "string",
          "name": "_serial",
          "type": "string"
        },
        {
          "internalType": "string",
          "name": "_brand",
          "type": "string"
        },
        {
          "internalType": "string",
          "name": "_model",
          "type": "string"
        },
        {
          "internalType": "uint16",
          "name": "_year",
          "type": "uint16"
        },
        {
          "internalType": "uint256",
          "name": "_instrumentDeedToken",
          "type": "uint256"
        },
        {
          "internalType": "string",
          "name": "_verificationPhotoHash",
          "type": "string"
        },
        {
          "internalType": "string",
          "name": "_firstOwner",
          "type": "string"
        },
        {
          "internalType": "string[]",
          "name": "_instrumentPhotoHashes",
          "type": "string[]"
        },
        {
          "internalType": "address",
          "name": "_mothershipAddress",
          "type": "address"
        },
        {
          "internalType": "address",
          "name": "_deedTokenAddress",
          "type": "address"
        }
      ],
      "stateMutability": "nonpayable",
      "type": "constructor"
    },
    {
      "anonymous": false,
      "inputs": [
        {
          "indexed": true,
          "internalType": "address",
          "name": "previousOwner",
          "type": "address"
        },
        {
          "indexed": true,
          "internalType": "address",
          "name": "newOwner",
          "type": "address"
        }
      ],
      "name": "OwnershipTransferred",
      "type": "event"
    },
    {
      "inputs": [
        {
          "internalType": "string",
          "name": "instrumentPhotoHash",
          "type": "string"
        }
      ],
      "name": "addNewInstrumentPhoto",
      "outputs": [],
      "stateMutability": "nonpayable",
      "type": "function"
    },
    {
      "inputs": [],
      "name": "getItemPics",
      "outputs": [
        {
          "internalType": "string[]",
          "name": "",
          "type": "string[]"
        }
      ],
      "stateMutability": "view",
      "type": "function"
    },
    {
      "inputs": [],
      "name": "getPreviousOwners",
      "outputs": [],
      "stateMutability": "view",
      "type": "function"
    },
    {
      "inputs": [],
      "name": "instrument",
      "outputs": [
        {
          "internalType": "enum Provenance.Types",
          "name": "typeOfProvenance",
          "type": "uint8"
        },
        {
          "internalType": "string",
          "name": "serial",
          "type": "string"
        },
        {
          "internalType": "string",
          "name": "brand",
          "type": "string"
        },
        {
          "internalType": "string",
          "name": "model",
          "type": "string"
        },
        {
          "internalType": "uint16",
          "name": "year",
          "type": "uint16"
        },
        {
          "internalType": "uint256",
          "name": "instrumentDeedToken",
          "type": "uint256"
        }
      ],
      "stateMutability": "view",
      "type": "function"
    },
    {
      "inputs": [],
      "name": "instrumentDeedTokenContract",
      "outputs": [
        {
          "internalType": "contract InstrumentDeedToken",
          "name": "",
          "type": "address"
        }
      ],
      "stateMutability": "view",
      "type": "function"
    },
    {
      "inputs": [],
      "name": "instrumentOwner",
      "outputs": [
        {
          "internalType": "uint16",
          "name": "ownerCount",
          "type": "uint16"
        },
        {
          "internalType": "address",
          "name": "ownerAddress",
          "type": "address"
        },
        {
          "internalType": "string",
          "name": "name",
          "type": "string"
        },
        {
          "internalType": "string",
          "name": "verificationPhotoHash",
          "type": "string"
        }
      ],
      "stateMutability": "view",
      "type": "function"
    },
    {
      "inputs": [],
      "name": "mothershipContract",
      "outputs": [
        {
          "internalType": "contract Mothership",
          "name": "",
          "type": "address"
        }
      ],
      "stateMutability": "view",
      "type": "function"
    },
    {
      "inputs": [],
      "name": "owner",
      "outputs": [
        {
          "internalType": "address",
          "name": "",
          "type": "address"
        }
      ],
      "stateMutability": "view",
      "type": "function"
    },
    {
      "inputs": [],
      "name": "ownerCount",
      "outputs": [
        {
          "internalType": "uint8",
          "name": "",
          "type": "uint8"
        }
      ],
      "stateMutability": "view",
      "type": "function"
    },
    {
      "inputs": [
        {
          "internalType": "uint16",
          "name": "",
          "type": "uint16"
        }
      ],
      "name": "ownerProvenance",
      "outputs": [
        {
          "internalType": "uint16",
          "name": "ownerCount",
          "type": "uint16"
        },
        {
          "internalType": "address",
          "name": "ownerAddress",
          "type": "address"
        },
        {
          "internalType": "string",
          "name": "name",
          "type": "string"
        },
        {
          "internalType": "string",
          "name": "verificationPhotoHash",
          "type": "string"
        }
      ],
      "stateMutability": "view",
      "type": "function"
    },
    {
      "inputs": [],
      "name": "renounceOwnership",
      "outputs": [],
      "stateMutability": "nonpayable",
      "type": "function"
    },
    {
      "inputs": [
        {
          "internalType": "address",
          "name": "_to",
          "type": "address"
        },
        {
          "internalType": "string",
          "name": "_name",
          "type": "string"
        },
        {
          "internalType": "string",
          "name": "_verificationPhotoHash",
          "type": "string"
        }
      ],
      "name": "sale",
      "outputs": [],
      "stateMutability": "nonpayable",
      "type": "function"
    },
    {
      "inputs": [
        {
          "internalType": "string",
          "name": "instrumentPhotoHash",
          "type": "string"
        }
      ],
      "name": "setNewVerificationPhoto",
      "outputs": [],
      "stateMutability": "nonpayable",
      "type": "function"
    },
    {
      "inputs": [
        {
          "internalType": "address",
          "name": "newOwner",
          "type": "address"
        }
      ],
      "name": "transferOwnership",
      "outputs": [],
      "stateMutability": "nonpayable",
      "type": "function"
    },
    {
      "inputs": [],
      "name": "typeOfProvenance",
      "outputs": [
        {
          "internalType": "enum Provenance.Types",
          "name": "",
          "type": "uint8"
        }
      ],
      "stateMutability": "view",
      "type": "function"
    }
  ],
  "bytecode": "0x60806040523480156200001157600080fd5b506040516200284f3803806200284f833981810160405281019062000037919062000981565b620000576200004b6200039060201b60201c565b6200039860201b60201c565b81600e60006101000a81548173ffffffffffffffffffffffffffffffffffffffff021916908373ffffffffffffffffffffffffffffffffffffffff16021790555080600d60016101000a81548173ffffffffffffffffffffffffffffffffffffffff021916908373ffffffffffffffffffffffffffffffffffffffff1602179055508a600360000160006101000a81548160ff0219169083600281111562000104576200010362000b48565b5b02179055508960036001019080519060200190620001249291906200045c565b508860036002019080519060200190620001409291906200045c565b50876003800190805190602001906200015b9291906200045c565b5086600360040160006101000a81548161ffff021916908361ffff160217905550856003600501819055508260036006019080519060200190620001a1929190620004ed565b506001600d60006101000a81548160ff021916908360ff1602179055506040518060800160405280600d60009054906101000a900460ff1660ff1661ffff168152602001600d60019054906101000a900473ffffffffffffffffffffffffffffffffffffffff1673ffffffffffffffffffffffffffffffffffffffff16636352211e896040518263ffffffff1660e01b815260040162000242919062000b88565b602060405180830381865afa15801562000260573d6000803e3d6000fd5b505050506040513d601f19601f8201168201806040525081019062000286919062000ba5565b73ffffffffffffffffffffffffffffffffffffffff1681526020018581526020018681525060016000600d60009054906101000a900460ff1660ff1661ffff16815260200190815260200160002060008201518160000160006101000a81548161ffff021916908361ffff16021790555060208201518160000160026101000a81548173ffffffffffffffffffffffffffffffffffffffff021916908373ffffffffffffffffffffffffffffffffffffffff16021790555060408201518160010190805190602001906200035c9291906200045c565b5060608201518160020190805190602001906200037b9291906200045c565b50905050505050505050505050505062000c3c565b600033905090565b60008060009054906101000a900473ffffffffffffffffffffffffffffffffffffffff169050816000806101000a81548173ffffffffffffffffffffffffffffffffffffffff021916908373ffffffffffffffffffffffffffffffffffffffff1602179055508173ffffffffffffffffffffffffffffffffffffffff168173ffffffffffffffffffffffffffffffffffffffff167f8be0079c531659141344cd1fd0a4f28419497f9722a3daafe3b4186f6b6457e060405160405180910390a35050565b8280546200046a9062000c06565b90600052602060002090601f0160209004810192826200048e5760008555620004da565b82601f10620004a957805160ff1916838001178555620004da565b82800160010185558215620004da579182015b82811115620004d9578251825591602001919060010190620004bc565b5b509050620004e9919062000554565b5090565b82805482825590600052602060002090810192821562000541579160200282015b82811115620005405782518290805190602001906200052f9291906200045c565b50916020019190600101906200050e565b5b50905062000550919062000573565b5090565b5b808211156200056f57600081600090555060010162000555565b5090565b5b808211156200059757600081816200058d91906200059b565b5060010162000574565b5090565b508054620005a99062000c06565b6000825580601f10620005bd5750620005de565b601f016020900490600052602060002090810190620005dd919062000554565b5b50565b6000604051905090565b600080fd5b600080fd5b600381106200060357600080fd5b50565b6000815190506200061781620005f5565b92915050565b600080fd5b600080fd5b6000601f19601f8301169050919050565b7f4e487b7100000000000000000000000000000000000000000000000000000000600052604160045260246000fd5b620006728262000627565b810181811067ffffffffffffffff8211171562000694576200069362000638565b5b80604052505050565b6000620006a9620005e1565b9050620006b7828262000667565b919050565b600067ffffffffffffffff821115620006da57620006d962000638565b5b620006e58262000627565b9050602081019050919050565b60005b8381101562000712578082015181840152602081019050620006f5565b8381111562000722576000848401525b50505050565b60006200073f6200073984620006bc565b6200069d565b9050828152602081018484840111156200075e576200075d62000622565b5b6200076b848285620006f2565b509392505050565b600082601f8301126200078b576200078a6200061d565b5b81516200079d84826020860162000728565b91505092915050565b600061ffff82169050919050565b620007bf81620007a6565b8114620007cb57600080fd5b50565b600081519050620007df81620007b4565b92915050565b6000819050919050565b620007fa81620007e5565b81146200080657600080fd5b50565b6000815190506200081a81620007ef565b92915050565b600067ffffffffffffffff8211156200083e576200083d62000638565b5b602082029050602081019050919050565b600080fd5b60006200086b620008658462000820565b6200069d565b905080838252602082019050602084028301858111156200089157620008906200084f565b5b835b81811015620008df57805167ffffffffffffffff811115620008ba57620008b96200061d565b5b808601620008c9898262000773565b8552602085019450505060208101905062000893565b5050509392505050565b600082601f8301126200090157620009006200061d565b5b81516200091384826020860162000854565b91505092915050565b600073ffffffffffffffffffffffffffffffffffffffff82169050919050565b600062000949826200091c565b9050919050565b6200095b816200093c565b81146200096757600080fd5b50565b6000815190506200097b8162000950565b92915050565b60008060008060008060008060008060006101608c8e031215620009aa57620009a9620005eb565b5b6000620009ba8e828f0162000606565b9b505060208c015167ffffffffffffffff811115620009de57620009dd620005f0565b5b620009ec8e828f0162000773565b9a505060408c015167ffffffffffffffff81111562000a105762000a0f620005f0565b5b62000a1e8e828f0162000773565b99505060608c015167ffffffffffffffff81111562000a425762000a41620005f0565b5b62000a508e828f0162000773565b985050608062000a638e828f01620007ce565b97505060a062000a768e828f0162000809565b96505060c08c015167ffffffffffffffff81111562000a9a5762000a99620005f0565b5b62000aa88e828f0162000773565b95505060e08c015167ffffffffffffffff81111562000acc5762000acb620005f0565b5b62000ada8e828f0162000773565b9450506101008c015167ffffffffffffffff81111562000aff5762000afe620005f0565b5b62000b0d8e828f01620008e9565b93505061012062000b218e828f016200096a565b92505061014062000b358e828f016200096a565b9150509295989b509295989b9093969950565b7f4e487b7100000000000000000000000000000000000000000000000000000000600052602160045260246000fd5b62000b8281620007e5565b82525050565b600060208201905062000b9f600083018462000b77565b92915050565b60006020828403121562000bbe5762000bbd620005eb565b5b600062000bce848285016200096a565b91505092915050565b7f4e487b7100000000000000000000000000000000000000000000000000000000600052602260045260246000fd5b6000600282049050600182168062000c1f57607f821691505b6020821081141562000c365762000c3562000bd7565b5b50919050565b611c038062000c4c6000396000f3fe608060405234801561001057600080fd5b50600436106100f55760003560e01c80638da5cb5b11610097578063debc241911610066578063debc24191461021b578063f023f2221461024e578063f2fde38b1461026f578063fcf3e5551461028b576100f5565b80638da5cb5b146101a757806399e84ba2146101c55780639d55e41a146101e3578063bcb40de9146101ff576100f5565b80635767d534116100d35780635767d53414610154578063715018a6146101775780637f6f9c241461018157806388cb18fd1461018b576100f5565b80630db02622146100fa5780631fc45b00146101185780633a5e8a0614610136575b600080fd5b6101026102a9565b60405161010f919061111d565b60405180910390f35b6101206102bc565b60405161012d91906111b7565b60405180910390f35b61013e6102e2565b60405161014b9190611249565b60405180910390f35b61015c6102f5565b60405161016e96959493929190611333565b60405180910390f35b61017f6104d2565b005b61018961055a565b005b6101a560048036038101906101a091906114f2565b61055c565b005b6101af6105db565b6040516101bc919061155c565b60405180910390f35b6101cd610604565b6040516101da9190611683565b60405180910390f35b6101fd60048036038101906101f891906114f2565b6106e0565b005b610219600480360381019061021491906116d1565b61075f565b005b61023560048036038101906102309190611788565b610baa565b60405161024594939291906117b5565b60405180910390f35b610256610d18565b60405161026694939291906117b5565b60405180910390f35b61028960048036038101906102849190611808565b610e74565b005b610293610f6c565b6040516102a09190611856565b60405180910390f35b600d60009054906101000a900460ff1681565b600d60019054906101000a900473ffffffffffffffffffffffffffffffffffffffff1681565b600260009054906101000a900460ff1681565b60038060000160009054906101000a900460ff1690806001018054610319906118a0565b80601f0160208091040260200160405190810160405280929190818152602001828054610345906118a0565b80156103925780601f1061036757610100808354040283529160200191610392565b820191906000526020600020905b81548152906001019060200180831161037557829003601f168201915b5050505050908060020180546103a7906118a0565b80601f01602080910402602001604051908101604052809291908181526020018280546103d3906118a0565b80156104205780601f106103f557610100808354040283529160200191610420565b820191906000526020600020905b81548152906001019060200180831161040357829003601f168201915b505050505090806003018054610435906118a0565b80601f0160208091040260200160405190810160405280929190818152602001828054610461906118a0565b80156104ae5780601f10610483576101008083540402835291602001916104ae565b820191906000526020600020905b81548152906001019060200180831161049157829003601f168201915b5050505050908060040160009054906101000a900461ffff16908060050154905086565b6104da610f92565b73ffffffffffffffffffffffffffffffffffffffff166104f86105db565b73ffffffffffffffffffffffffffffffffffffffff161461054e576040517f08c379a00000000000000000000000000000000000000000000000000000000081526004016105459061191e565b60405180910390fd5b6105586000610f9a565b565b565b610564610f92565b73ffffffffffffffffffffffffffffffffffffffff166105826105db565b73ffffffffffffffffffffffffffffffffffffffff16146105d8576040517f08c379a00000000000000000000000000000000000000000000000000000000081526004016105cf9061191e565b60405180910390fd5b50565b60008060009054906101000a900473ffffffffffffffffffffffffffffffffffffffff16905090565b60606003600601805480602002602001604051908101604052809291908181526020016000905b828210156106d757838290600052602060002001805461064a906118a0565b80601f0160208091040260200160405190810160405280929190818152602001828054610676906118a0565b80156106c35780601f10610698576101008083540402835291602001916106c3565b820191906000526020600020905b8154815290600101906020018083116106a657829003601f168201915b50505050508152602001906001019061062b565b50505050905090565b6106e8610f92565b73ffffffffffffffffffffffffffffffffffffffff166107066105db565b73ffffffffffffffffffffffffffffffffffffffff161461075c576040517f08c379a00000000000000000000000000000000000000000000000000000000081526004016107539061191e565b60405180910390fd5b50565b3373ffffffffffffffffffffffffffffffffffffffff1660016000600d60009054906101000a900460ff1660ff1661ffff16815260200190815260200160002060000160029054906101000a900473ffffffffffffffffffffffffffffffffffffffff1673ffffffffffffffffffffffffffffffffffffffff16148061081757503373ffffffffffffffffffffffffffffffffffffffff166107ff6105db565b73ffffffffffffffffffffffffffffffffffffffff16145b61082057600080fd5b600d60019054906101000a900473ffffffffffffffffffffffffffffffffffffffff1673ffffffffffffffffffffffffffffffffffffffff16636352211e6003600501546040518263ffffffff1660e01b8152600401610880919061193e565b602060405180830381865afa15801561089d573d6000803e3d6000fd5b505050506040513d601f19601f820116820180604052508101906108c1919061196e565b73ffffffffffffffffffffffffffffffffffffffff163373ffffffffffffffffffffffffffffffffffffffff161461092e576040517f08c379a000000000000000000000000000000000000000000000000000000000815260040161092590611a33565b60405180910390fd5b600e60009054906101000a900473ffffffffffffffffffffffffffffffffffffffff1673ffffffffffffffffffffffffffffffffffffffff166346811b833385306040518463ffffffff1660e01b815260040161098d93929190611a74565b600060405180830381600087803b1580156109a757600080fd5b505af11580156109bb573d6000803e3d6000fd5b50505050600d600081819054906101000a900460ff166109da90611ada565b91906101000a81548160ff021916908360ff1602179055506040518060800160405280600d60009054906101000a900460ff1660ff1661ffff1681526020018473ffffffffffffffffffffffffffffffffffffffff1681526020018381526020018281525060016000600d60009054906101000a900460ff1660ff1661ffff16815260200190815260200160002060008201518160000160006101000a81548161ffff021916908361ffff16021790555060208201518160000160026101000a81548173ffffffffffffffffffffffffffffffffffffffff021916908373ffffffffffffffffffffffffffffffffffffffff1602179055506040820151816001019080519060200190610aee92919061105e565b506060820151816002019080519060200190610b0b92919061105e565b50905050600d60019054906101000a900473ffffffffffffffffffffffffffffffffffffffff1673ffffffffffffffffffffffffffffffffffffffff166342842e0e33856003600501546040518463ffffffff1660e01b8152600401610b7393929190611b04565b600060405180830381600087803b158015610b8d57600080fd5b505af1158015610ba1573d6000803e3d6000fd5b50505050505050565b60016020528060005260406000206000915090508060000160009054906101000a900461ffff16908060000160029054906101000a900473ffffffffffffffffffffffffffffffffffffffff1690806001018054610c07906118a0565b80601f0160208091040260200160405190810160405280929190818152602001828054610c33906118a0565b8015610c805780601f10610c5557610100808354040283529160200191610c80565b820191906000526020600020905b815481529060010190602001808311610c6357829003601f168201915b505050505090806002018054610c95906118a0565b80601f0160208091040260200160405190810160405280929190818152602001828054610cc1906118a0565b8015610d0e5780601f10610ce357610100808354040283529160200191610d0e565b820191906000526020600020905b815481529060010190602001808311610cf157829003601f168201915b5050505050905084565b600a8060000160009054906101000a900461ffff16908060000160029054906101000a900473ffffffffffffffffffffffffffffffffffffffff1690806001018054610d63906118a0565b80601f0160208091040260200160405190810160405280929190818152602001828054610d8f906118a0565b8015610ddc5780601f10610db157610100808354040283529160200191610ddc565b820191906000526020600020905b815481529060010190602001808311610dbf57829003601f168201915b505050505090806002018054610df1906118a0565b80601f0160208091040260200160405190810160405280929190818152602001828054610e1d906118a0565b8015610e6a5780601f10610e3f57610100808354040283529160200191610e6a565b820191906000526020600020905b815481529060010190602001808311610e4d57829003601f168201915b5050505050905084565b610e7c610f92565b73ffffffffffffffffffffffffffffffffffffffff16610e9a6105db565b73ffffffffffffffffffffffffffffffffffffffff1614610ef0576040517f08c379a0000000000000000000000000000000000000000000000000000000008152600401610ee79061191e565b60405180910390fd5b600073ffffffffffffffffffffffffffffffffffffffff168173ffffffffffffffffffffffffffffffffffffffff161415610f60576040517f08c379a0000000000000000000000000000000000000000000000000000000008152600401610f5790611bad565b60405180910390fd5b610f6981610f9a565b50565b600e60009054906101000a900473ffffffffffffffffffffffffffffffffffffffff1681565b600033905090565b60008060009054906101000a900473ffffffffffffffffffffffffffffffffffffffff169050816000806101000a81548173ffffffffffffffffffffffffffffffffffffffff021916908373ffffffffffffffffffffffffffffffffffffffff1602179055508173ffffffffffffffffffffffffffffffffffffffff168173ffffffffffffffffffffffffffffffffffffffff167f8be0079c531659141344cd1fd0a4f28419497f9722a3daafe3b4186f6b6457e060405160405180910390a35050565b82805461106a906118a0565b90600052602060002090601f01602090048101928261108c57600085556110d3565b82601f106110a557805160ff19168380011785556110d3565b828001600101855582156110d3579182015b828111156110d25782518255916020019190600101906110b7565b5b5090506110e091906110e4565b5090565b5b808211156110fd5760008160009055506001016110e5565b5090565b600060ff82169050919050565b61111781611101565b82525050565b6000602082019050611132600083018461110e565b92915050565b600073ffffffffffffffffffffffffffffffffffffffff82169050919050565b6000819050919050565b600061117d61117861117384611138565b611158565b611138565b9050919050565b600061118f82611162565b9050919050565b60006111a182611184565b9050919050565b6111b181611196565b82525050565b60006020820190506111cc60008301846111a8565b92915050565b7f4e487b7100000000000000000000000000000000000000000000000000000000600052602160045260246000fd5b60038110611212576112116111d2565b5b50565b600081905061122382611201565b919050565b600061123382611215565b9050919050565b61124381611228565b82525050565b600060208201905061125e600083018461123a565b92915050565b600081519050919050565b600082825260208201905092915050565b60005b8381101561129e578082015181840152602081019050611283565b838111156112ad576000848401525b50505050565b6000601f19601f8301169050919050565b60006112cf82611264565b6112d9818561126f565b93506112e9818560208601611280565b6112f2816112b3565b840191505092915050565b600061ffff82169050919050565b611314816112fd565b82525050565b6000819050919050565b61132d8161131a565b82525050565b600060c082019050611348600083018961123a565b818103602083015261135a81886112c4565b9050818103604083015261136e81876112c4565b9050818103606083015261138281866112c4565b9050611391608083018561130b565b61139e60a0830184611324565b979650505050505050565b6000604051905090565b600080fd5b600080fd5b600080fd5b600080fd5b7f4e487b7100000000000000000000000000000000000000000000000000000000600052604160045260246000fd5b6113ff826112b3565b810181811067ffffffffffffffff8211171561141e5761141d6113c7565b5b80604052505050565b60006114316113a9565b905061143d82826113f6565b919050565b600067ffffffffffffffff82111561145d5761145c6113c7565b5b611466826112b3565b9050602081019050919050565b82818337600083830152505050565b600061149561149084611442565b611427565b9050828152602081018484840111156114b1576114b06113c2565b5b6114bc848285611473565b509392505050565b600082601f8301126114d9576114d86113bd565b5b81356114e9848260208601611482565b91505092915050565b600060208284031215611508576115076113b3565b5b600082013567ffffffffffffffff811115611526576115256113b8565b5b611532848285016114c4565b91505092915050565b600061154682611138565b9050919050565b6115568161153b565b82525050565b6000602082019050611571600083018461154d565b92915050565b600081519050919050565b600082825260208201905092915050565b6000819050602082019050919050565b600082825260208201905092915050565b60006115bf82611264565b6115c981856115a3565b93506115d9818560208601611280565b6115e2816112b3565b840191505092915050565b60006115f983836115b4565b905092915050565b6000602082019050919050565b600061161982611577565b6116238185611582565b93508360208202850161163585611593565b8060005b85811015611671578484038952815161165285826115ed565b945061165d83611601565b925060208a01995050600181019050611639565b50829750879550505050505092915050565b6000602082019050818103600083015261169d818461160e565b905092915050565b6116ae8161153b565b81146116b957600080fd5b50565b6000813590506116cb816116a5565b92915050565b6000806000606084860312156116ea576116e96113b3565b5b60006116f8868287016116bc565b935050602084013567ffffffffffffffff811115611719576117186113b8565b5b611725868287016114c4565b925050604084013567ffffffffffffffff811115611746576117456113b8565b5b611752868287016114c4565b9150509250925092565b611765816112fd565b811461177057600080fd5b50565b6000813590506117828161175c565b92915050565b60006020828403121561179e5761179d6113b3565b5b60006117ac84828501611773565b91505092915050565b60006080820190506117ca600083018761130b565b6117d7602083018661154d565b81810360408301526117e981856112c4565b905081810360608301526117fd81846112c4565b905095945050505050565b60006020828403121561181e5761181d6113b3565b5b600061182c848285016116bc565b91505092915050565b600061184082611184565b9050919050565b61185081611835565b82525050565b600060208201905061186b6000830184611847565b92915050565b7f4e487b7100000000000000000000000000000000000000000000000000000000600052602260045260246000fd5b600060028204905060018216806118b857607f821691505b602082108114156118cc576118cb611871565b5b50919050565b7f4f776e61626c653a2063616c6c6572206973206e6f7420746865206f776e6572600082015250565b600061190860208361126f565b9150611913826118d2565b602082019050919050565b60006020820190508181036000830152611937816118fb565b9050919050565b60006020820190506119536000830184611324565b92915050565b600081519050611968816116a5565b92915050565b600060208284031215611984576119836113b3565b5b600061199284828501611959565b91505092915050565b7f596f7520617265206e6f7420746865206f776e6572206f66207468652044656560008201527f6420546f6b656e20666f72207468697320696e737472756d656e7420616e642060208201527f7468657265666f72652063616e6e6f742073656c6c2069740000000000000000604082015250565b6000611a1d60588361126f565b9150611a288261199b565b606082019050919050565b60006020820190508181036000830152611a4c81611a10565b9050919050565b6000611a5e82611184565b9050919050565b611a6e81611a53565b82525050565b6000606082019050611a89600083018661154d565b611a96602083018561154d565b611aa36040830184611a65565b949350505050565b7f4e487b7100000000000000000000000000000000000000000000000000000000600052601160045260246000fd5b6000611ae582611101565b915060ff821415611af957611af8611aab565b5b600182019050919050565b6000606082019050611b19600083018661154d565b611b26602083018561154d565b611b336040830184611324565b949350505050565b7f4f776e61626c653a206e6577206f776e657220697320746865207a65726f206160008201527f6464726573730000000000000000000000000000000000000000000000000000602082015250565b6000611b9760268361126f565b9150611ba282611b3b565b604082019050919050565b60006020820190508181036000830152611bc681611b8a565b905091905056fea2646970667358221220ea0977ebc7bab273223a706e7550e72cc4c907025a16872a33898f3308074b6964736f6c634300080a0033",
  "linkReferences": {},
  "deployedLinkReferences": {}
}