{
  "_format": "hh-sol-artifact-1",
  "contractName": "MothershipOptimization",
  "sourceName": "contracts/MothershipOptimization.sol",
  "abi": [
    {
      "inputs": [
        {
          "internalType": "address",
          "name": "_tokenAddress",
          "type": "address"
        }
      ],
      "stateMutability": "nonpayable",
      "type": "constructor"
    },
    {
      "anonymous": false,
      "inputs": [
        {
          "indexed": true,
          "internalType": "address",
          "name": "previousOwner",
          "type": "address"
        },
        {
          "indexed": true,
          "internalType": "address",
          "name": "newOwner",
          "type": "address"
        }
      ],
      "name": "OwnershipTransferred",
      "type": "event"
    },
    {
      "anonymous": false,
      "inputs": [
        {
          "indexed": false,
          "internalType": "enum ProvenanceOptimization.Types",
          "name": "_enumType",
          "type": "uint8"
        },
        {
          "indexed": false,
          "internalType": "address",
          "name": "childAddress",
          "type": "address"
        },
        {
          "indexed": false,
          "internalType": "bytes32",
          "name": "serial",
          "type": "bytes32"
        },
        {
          "indexed": false,
          "internalType": "bytes32",
          "name": "brand",
          "type": "bytes32"
        },
        {
          "indexed": false,
          "internalType": "bytes32",
          "name": "model",
          "type": "bytes32"
        },
        {
          "indexed": false,
          "internalType": "uint16",
          "name": "year",
          "type": "uint16"
        },
        {
          "indexed": false,
          "internalType": "uint256",
          "name": "instrumentDeedToken",
          "type": "uint256"
        },
        {
          "indexed": false,
          "internalType": "bytes32",
          "name": "date",
          "type": "bytes32"
        },
        {
          "indexed": false,
          "internalType": "bytes32",
          "name": "verificationPhotoHash",
          "type": "bytes32"
        },
        {
          "indexed": false,
          "internalType": "bytes32[]",
          "name": "instrumentPhotoHashes",
          "type": "bytes32[]"
        }
      ],
      "name": "ProvenanceCreated",
      "type": "event"
    },
    {
      "anonymous": false,
      "inputs": [
        {
          "indexed": false,
          "internalType": "address",
          "name": "seller",
          "type": "address"
        },
        {
          "indexed": false,
          "internalType": "address",
          "name": "buyer",
          "type": "address"
        },
        {
          "indexed": false,
          "internalType": "address",
          "name": "provenanaceAddress",
          "type": "address"
        },
        {
          "indexed": false,
          "internalType": "bytes32",
          "name": "date",
          "type": "bytes32"
        }
      ],
      "name": "ProvenanceSale",
      "type": "event"
    },
    {
      "inputs": [
        {
          "internalType": "enum ProvenanceOptimization.Types",
          "name": "_enumType",
          "type": "uint8"
        },
        {
          "internalType": "bytes32",
          "name": "_serial",
          "type": "bytes32"
        },
        {
          "internalType": "bytes32",
          "name": "_brand",
          "type": "bytes32"
        },
        {
          "internalType": "bytes32",
          "name": "_model",
          "type": "bytes32"
        },
        {
          "internalType": "uint16",
          "name": "_year",
          "type": "uint16"
        },
        {
          "internalType": "uint256",
          "name": "_instrumentDeedToken",
          "type": "uint256"
        },
        {
          "internalType": "bytes32",
          "name": "_date",
          "type": "bytes32"
        },
        {
          "internalType": "bytes32",
          "name": "_verificationPhotoHash",
          "type": "bytes32"
        },
        {
          "internalType": "bytes32[]",
          "name": "_instrumentPhotoHashes",
          "type": "bytes32[]"
        }
      ],
      "name": "createNewProvenance",
      "outputs": [
        {
          "internalType": "address",
          "name": "",
          "type": "address"
        }
      ],
      "stateMutability": "nonpayable",
      "type": "function"
    },
    {
      "inputs": [],
      "name": "getOwners",
      "outputs": [
        {
          "internalType": "address[]",
          "name": "",
          "type": "address[]"
        }
      ],
      "stateMutability": "view",
      "type": "function"
    },
    {
      "inputs": [],
      "name": "getOwnersInstruments",
      "outputs": [
        {
          "internalType": "contract ProvenanceOptimization[]",
          "name": "",
          "type": "address[]"
        }
      ],
      "stateMutability": "view",
      "type": "function"
    },
    {
      "inputs": [
        {
          "internalType": "address",
          "name": "buyer",
          "type": "address"
        }
      ],
      "name": "getPendingTransfersOfBuyer",
      "outputs": [
        {
          "internalType": "address[]",
          "name": "",
          "type": "address[]"
        }
      ],
      "stateMutability": "view",
      "type": "function"
    },
    {
      "inputs": [],
      "name": "instrumentDeedTokenContract",
      "outputs": [
        {
          "internalType": "contract InstrumentDeedToken",
          "name": "",
          "type": "address"
        }
      ],
      "stateMutability": "view",
      "type": "function"
    },
    {
      "inputs": [],
      "name": "owner",
      "outputs": [
        {
          "internalType": "address",
          "name": "",
          "type": "address"
        }
      ],
      "stateMutability": "view",
      "type": "function"
    },
    {
      "inputs": [
        {
          "internalType": "uint256",
          "name": "",
          "type": "uint256"
        }
      ],
      "name": "ownerArray",
      "outputs": [
        {
          "internalType": "address",
          "name": "",
          "type": "address"
        }
      ],
      "stateMutability": "view",
      "type": "function"
    },
    {
      "inputs": [
        {
          "internalType": "address",
          "name": "",
          "type": "address"
        },
        {
          "internalType": "uint256",
          "name": "",
          "type": "uint256"
        }
      ],
      "name": "ownersToAxes",
      "outputs": [
        {
          "internalType": "contract ProvenanceOptimization",
          "name": "",
          "type": "address"
        }
      ],
      "stateMutability": "view",
      "type": "function"
    },
    {
      "inputs": [
        {
          "internalType": "address",
          "name": "",
          "type": "address"
        },
        {
          "internalType": "uint256",
          "name": "",
          "type": "uint256"
        }
      ],
      "name": "pendingTransfers",
      "outputs": [
        {
          "internalType": "address",
          "name": "",
          "type": "address"
        }
      ],
      "stateMutability": "view",
      "type": "function"
    },
    {
      "inputs": [
        {
          "internalType": "address",
          "name": "",
          "type": "address"
        }
      ],
      "name": "provenanceVerify",
      "outputs": [
        {
          "internalType": "bool",
          "name": "",
          "type": "bool"
        }
      ],
      "stateMutability": "view",
      "type": "function"
    },
    {
      "inputs": [],
      "name": "removeDuplicateProvenance",
      "outputs": [],
      "stateMutability": "nonpayable",
      "type": "function"
    },
    {
      "inputs": [
        {
          "internalType": "address",
          "name": "buyer",
          "type": "address"
        },
        {
          "internalType": "address",
          "name": "provenance",
          "type": "address"
        }
      ],
      "name": "removePendingTransfer",
      "outputs": [],
      "stateMutability": "nonpayable",
      "type": "function"
    },
    {
      "inputs": [],
      "name": "renounceOwnership",
      "outputs": [],
      "stateMutability": "nonpayable",
      "type": "function"
    },
    {
      "inputs": [],
      "name": "setExistingProvenance",
      "outputs": [],
      "stateMutability": "nonpayable",
      "type": "function"
    },
    {
      "inputs": [
        {
          "internalType": "address",
          "name": "buyer",
          "type": "address"
        },
        {
          "internalType": "address",
          "name": "provenanceAddress",
          "type": "address"
        }
      ],
      "name": "setPendingTransfer",
      "outputs": [],
      "stateMutability": "nonpayable",
      "type": "function"
    },
    {
      "inputs": [
        {
          "internalType": "address",
          "name": "newOwner",
          "type": "address"
        }
      ],
      "name": "transferOwnership",
      "outputs": [],
      "stateMutability": "nonpayable",
      "type": "function"
    },
    {
      "inputs": [
        {
          "internalType": "address",
          "name": "seller",
          "type": "address"
        },
        {
          "internalType": "address",
          "name": "buyer",
          "type": "address"
        },
        {
          "internalType": "contract ProvenanceOptimization",
          "name": "provenanceSold",
          "type": "address"
        },
        {
          "internalType": "bytes32",
          "name": "date",
          "type": "bytes32"
        }
      ],
      "name": "updateOnProvenanceSale",
      "outputs": [],
      "stateMutability": "nonpayable",
      "type": "function"
    }
  ],
  "bytecode": "0x60806040523480156200001157600080fd5b5060405162004e7238038062004e728339818101604052810190620000379190620001d5565b620000576200004b6200009f60201b60201c565b620000a760201b60201c565b80600560006101000a81548173ffffffffffffffffffffffffffffffffffffffff021916908373ffffffffffffffffffffffffffffffffffffffff1602179055505062000207565b600033905090565b60008060009054906101000a900473ffffffffffffffffffffffffffffffffffffffff169050816000806101000a81548173ffffffffffffffffffffffffffffffffffffffff021916908373ffffffffffffffffffffffffffffffffffffffff1602179055508173ffffffffffffffffffffffffffffffffffffffff168173ffffffffffffffffffffffffffffffffffffffff167f8be0079c531659141344cd1fd0a4f28419497f9722a3daafe3b4186f6b6457e060405160405180910390a35050565b600080fd5b600073ffffffffffffffffffffffffffffffffffffffff82169050919050565b60006200019d8262000170565b9050919050565b620001af8162000190565b8114620001bb57600080fd5b50565b600081519050620001cf81620001a4565b92915050565b600060208284031215620001ee57620001ed6200016b565b5b6000620001fe84828501620001be565b91505092915050565b614c5b80620002176000396000f3fe60806040523480156200001157600080fd5b5060043610620001245760003560e01c80638da5cb5b11620000b157806399288e7b116200007b57806399288e7b14620002f55780639ec67aca1462000301578063a0e67e2b1462000337578063f2fde38b1462000359578063fceceb9e14620003795762000124565b80638da5cb5b146200025b578063923ae89d146200027d57806393645109146200029d57806396a5f1f614620002d35762000124565b806352c0ece311620000f357806352c0ece314620001ad57806353d01fcb14620001e3578063686cfb9e1462000219578063715018a6146200024f5762000124565b8063054f2612146200012957806312bdb2b214620001495780631fc45b00146200015557806320c908551462000177575b600080fd5b620001476004803603810190620001419190620017f6565b62000399565b005b620001536200049b565b005b6200015f62000520565b6040516200016e9190620018d3565b60405180910390f35b6200019560048036038101906200018f9190620018f0565b62000546565b604051620001a49190620019f0565b60405180910390f35b620001cb6004803603810190620001c5919062001a4f565b62000615565b604051620001da919062001abb565b60405180910390f35b620002016004803603810190620001fb9190620018f0565b62000664565b60405162000210919062001af5565b60405180910390f35b62000237600480360381019062000231919062001b12565b62000684565b60405162000246919062001b55565b60405180910390f35b62000259620006c4565b005b6200026562000755565b60405162000274919062001b55565b60405180910390f35b6200029b600480360381019062000295919062001b72565b6200077e565b005b620002bb6004803603810190620002b5919062001d95565b62000864565b604051620002ca919062001b55565b60405180910390f35b620002dd62000ba1565b604051620002ec919062001f50565b60405180910390f35b620002ff62000c6e565b005b6200031f600480360381019062000319919062001a4f565b62000cf3565b6040516200032e919062001b55565b60405180910390f35b6200034162000d42565b604051620003509190620019f0565b60405180910390f35b620003776004803603810190620003719190620018f0565b62000dd2565b005b62000397600480360381019062000391919062001b72565b62000ed6565b005b600160008473ffffffffffffffffffffffffffffffffffffffff1673ffffffffffffffffffffffffffffffffffffffff168152602001908152602001600020829080600181540180825580915050600190039060005260206000200160009091909190916101000a81548173ffffffffffffffffffffffffffffffffffffffff021916908373ffffffffffffffffffffffffffffffffffffffff160217905550600062000447858462000f7a565b9050620004558582620010a3565b7f398fe58587df897ff852c7189d2caf6550e3c4667eaa2f798fca06ac8fb5a80b338585856040516200048c949392919062001f85565b60405180910390a15050505050565b620004a56200131f565b73ffffffffffffffffffffffffffffffffffffffff16620004c562000755565b73ffffffffffffffffffffffffffffffffffffffff16146200051e576040517f08c379a0000000000000000000000000000000000000000000000000000000008152600401620005159062002033565b60405180910390fd5b565b600560009054906101000a900473ffffffffffffffffffffffffffffffffffffffff1681565b6060600360008373ffffffffffffffffffffffffffffffffffffffff1673ffffffffffffffffffffffffffffffffffffffff1681526020019081526020016000208054806020026020016040519081016040528092919081815260200182805480156200060957602002820191906000526020600020905b8160009054906101000a900473ffffffffffffffffffffffffffffffffffffffff1673ffffffffffffffffffffffffffffffffffffffff1681526020019060010190808311620005be575b50505050509050919050565b600160205281600052604060002081815481106200063257600080fd5b906000526020600020016000915091509054906101000a900473ffffffffffffffffffffffffffffffffffffffff1681565b60026020528060005260406000206000915054906101000a900460ff1681565b600481815481106200069557600080fd5b906000526020600020016000915054906101000a900473ffffffffffffffffffffffffffffffffffffffff1681565b620006ce6200131f565b73ffffffffffffffffffffffffffffffffffffffff16620006ee62000755565b73ffffffffffffffffffffffffffffffffffffffff161462000747576040517f08c379a00000000000000000000000000000000000000000000000000000000081526004016200073e9062002033565b60405180910390fd5b62000753600062001327565b565b60008060009054906101000a900473ffffffffffffffffffffffffffffffffffffffff16905090565b600062000851600360008573ffffffffffffffffffffffffffffffffffffffff1673ffffffffffffffffffffffffffffffffffffffff1681526020019081526020016000208054806020026020016040519081016040528092919081815260200182805480156200084557602002820191906000526020600020905b8160009054906101000a900473ffffffffffffffffffffffffffffffffffffffff1673ffffffffffffffffffffffffffffffffffffffff1681526020019060010190808311620007fa575b505050505083620013eb565b90506200085f838262001472565b505050565b6000600560009054906101000a900473ffffffffffffffffffffffffffffffffffffffff1673ffffffffffffffffffffffffffffffffffffffff16636352211e866040518263ffffffff1660e01b8152600401620008c3919062002066565b602060405180830381865afa158015620008e1573d6000803e3d6000fd5b505050506040513d601f19601f820116820180604052508101906200090791906200209a565b73ffffffffffffffffffffffffffffffffffffffff163373ffffffffffffffffffffffffffffffffffffffff161462000977576040517f08c379a00000000000000000000000000000000000000000000000000000000081526004016200096e9062002142565b60405180910390fd5b60008a8a8a8a8a8a8a8a8a30600560009054906101000a900473ffffffffffffffffffffffffffffffffffffffff16604051620009b490620016ef565b620009ca9b9a99989796959493929190620022c3565b604051809103906000f080158015620009e7573d6000803e3d6000fd5b509050600160003373ffffffffffffffffffffffffffffffffffffffff1673ffffffffffffffffffffffffffffffffffffffff168152602001908152602001600020819080600181540180825580915050600190039060005260206000200160009091909190916101000a81548173ffffffffffffffffffffffffffffffffffffffff021916908373ffffffffffffffffffffffffffffffffffffffff1602179055506004339080600181540180825580915050600190039060005260206000200160009091909190916101000a81548173ffffffffffffffffffffffffffffffffffffffff021916908373ffffffffffffffffffffffffffffffffffffffff1602179055506001600260008373ffffffffffffffffffffffffffffffffffffffff1673ffffffffffffffffffffffffffffffffffffffff16815260200190815260200160002060006101000a81548160ff0219169083151502179055507f795006bee96477db7e20cf55f42fa66110a6c2cbca583129d374fcb47113e5ab8b828c8c8c8c8c8c8c8c60405162000b889a999897969594939291906200238b565b60405180910390a1809150509998505050505050505050565b6060600160003373ffffffffffffffffffffffffffffffffffffffff1673ffffffffffffffffffffffffffffffffffffffff16815260200190815260200160002080548060200260200160405190810160405280929190818152602001828054801562000c6457602002820191906000526020600020905b8160009054906101000a900473ffffffffffffffffffffffffffffffffffffffff1673ffffffffffffffffffffffffffffffffffffffff168152602001906001019080831162000c19575b5050505050905090565b62000c786200131f565b73ffffffffffffffffffffffffffffffffffffffff1662000c9862000755565b73ffffffffffffffffffffffffffffffffffffffff161462000cf1576040517f08c379a000000000000000000000000000000000000000000000000000000000815260040162000ce89062002033565b60405180910390fd5b565b6003602052816000526040600020818154811062000d1057600080fd5b906000526020600020016000915091509054906101000a900473ffffffffffffffffffffffffffffffffffffffff1681565b6060600480548060200260200160405190810160405280929190818152602001828054801562000dc857602002820191906000526020600020905b8160009054906101000a900473ffffffffffffffffffffffffffffffffffffffff1673ffffffffffffffffffffffffffffffffffffffff168152602001906001019080831162000d7d575b5050505050905090565b62000ddc6200131f565b73ffffffffffffffffffffffffffffffffffffffff1662000dfc62000755565b73ffffffffffffffffffffffffffffffffffffffff161462000e55576040517f08c379a000000000000000000000000000000000000000000000000000000000815260040162000e4c9062002033565b60405180910390fd5b600073ffffffffffffffffffffffffffffffffffffffff168173ffffffffffffffffffffffffffffffffffffffff16141562000ec8576040517f08c379a000000000000000000000000000000000000000000000000000000000815260040162000ebf90620024b8565b60405180910390fd5b62000ed38162001327565b50565b600360008373ffffffffffffffffffffffffffffffffffffffff1673ffffffffffffffffffffffffffffffffffffffff168152602001908152602001600020819080600181540180825580915050600190039060005260206000200160009091909190916101000a81548173ffffffffffffffffffffffffffffffffffffffff021916908373ffffffffffffffffffffffffffffffffffffffff1602179055505050565b60008060005b600160008673ffffffffffffffffffffffffffffffffffffffff1673ffffffffffffffffffffffffffffffffffffffff1681526020019081526020016000208054905081101562001098578373ffffffffffffffffffffffffffffffffffffffff16600160008773ffffffffffffffffffffffffffffffffffffffff1673ffffffffffffffffffffffffffffffffffffffff1681526020019081526020016000208281548110620010365762001035620024da565b5b9060005260206000200160009054906101000a900473ffffffffffffffffffffffffffffffffffffffff1673ffffffffffffffffffffffffffffffffffffffff16141562001082578091505b80806200108f9062002538565b91505062000f80565b508091505092915050565b600160008373ffffffffffffffffffffffffffffffffffffffff1673ffffffffffffffffffffffffffffffffffffffff1681526020019081526020016000208054905081106200112a576040517f08c379a00000000000000000000000000000000000000000000000000000000081526004016200112190620025d6565b60405180910390fd5b600160008373ffffffffffffffffffffffffffffffffffffffff1673ffffffffffffffffffffffffffffffffffffffff16815260200190815260200160002060018060008573ffffffffffffffffffffffffffffffffffffffff1673ffffffffffffffffffffffffffffffffffffffff16815260200190815260200160002080549050620011b99190620025f8565b81548110620011cd57620011cc620024da565b5b9060005260206000200160009054906101000a900473ffffffffffffffffffffffffffffffffffffffff16600160008473ffffffffffffffffffffffffffffffffffffffff1673ffffffffffffffffffffffffffffffffffffffff16815260200190815260200160002082815481106200124c576200124b620024da565b5b9060005260206000200160006101000a81548173ffffffffffffffffffffffffffffffffffffffff021916908373ffffffffffffffffffffffffffffffffffffffff160217905550600160008373ffffffffffffffffffffffffffffffffffffffff1673ffffffffffffffffffffffffffffffffffffffff168152602001908152602001600020805480620012e657620012e562002633565b5b6001900381819060005260206000200160006101000a81549073ffffffffffffffffffffffffffffffffffffffff021916905590555050565b600033905090565b60008060009054906101000a900473ffffffffffffffffffffffffffffffffffffffff169050816000806101000a81548173ffffffffffffffffffffffffffffffffffffffff021916908373ffffffffffffffffffffffffffffffffffffffff1602179055508173ffffffffffffffffffffffffffffffffffffffff168173ffffffffffffffffffffffffffffffffffffffff167f8be0079c531659141344cd1fd0a4f28419497f9722a3daafe3b4186f6b6457e060405160405180910390a35050565b60008060005b845181101562001467578373ffffffffffffffffffffffffffffffffffffffff16858281518110620014285762001427620024da565b5b602002602001015173ffffffffffffffffffffffffffffffffffffffff16141562001451578091505b80806200145e9062002538565b915050620013f1565b508091505092915050565b600360008373ffffffffffffffffffffffffffffffffffffffff1673ffffffffffffffffffffffffffffffffffffffff168152602001908152602001600020805490508110620014f9576040517f08c379a0000000000000000000000000000000000000000000000000000000008152600401620014f090620025d6565b60405180910390fd5b600360008373ffffffffffffffffffffffffffffffffffffffff1673ffffffffffffffffffffffffffffffffffffffff1681526020019081526020016000206001600360008573ffffffffffffffffffffffffffffffffffffffff1673ffffffffffffffffffffffffffffffffffffffff16815260200190815260200160002080549050620015899190620025f8565b815481106200159d576200159c620024da565b5b9060005260206000200160009054906101000a900473ffffffffffffffffffffffffffffffffffffffff16600360008473ffffffffffffffffffffffffffffffffffffffff1673ffffffffffffffffffffffffffffffffffffffff16815260200190815260200160002082815481106200161c576200161b620024da565b5b9060005260206000200160006101000a81548173ffffffffffffffffffffffffffffffffffffffff021916908373ffffffffffffffffffffffffffffffffffffffff160217905550600360008373ffffffffffffffffffffffffffffffffffffffff1673ffffffffffffffffffffffffffffffffffffffff168152602001908152602001600020805480620016b657620016b562002633565b5b6001900381819060005260206000200160006101000a81549073ffffffffffffffffffffffffffffffffffffffff021916905590555050565b6125c3806200266383390190565b6000604051905090565b600080fd5b600080fd5b600073ffffffffffffffffffffffffffffffffffffffff82169050919050565b60006200173e8262001711565b9050919050565b620017508162001731565b81146200175c57600080fd5b50565b600081359050620017708162001745565b92915050565b6000620017838262001731565b9050919050565b620017958162001776565b8114620017a157600080fd5b50565b600081359050620017b5816200178a565b92915050565b6000819050919050565b620017d081620017bb565b8114620017dc57600080fd5b50565b600081359050620017f081620017c5565b92915050565b6000806000806080858703121562001813576200181262001707565b5b600062001823878288016200175f565b945050602062001836878288016200175f565b93505060406200184987828801620017a4565b92505060606200185c87828801620017df565b91505092959194509250565b6000819050919050565b6000620018936200188d620018878462001711565b62001868565b62001711565b9050919050565b6000620018a78262001872565b9050919050565b6000620018bb826200189a565b9050919050565b620018cd81620018ae565b82525050565b6000602082019050620018ea6000830184620018c2565b92915050565b60006020828403121562001909576200190862001707565b5b600062001919848285016200175f565b91505092915050565b600081519050919050565b600082825260208201905092915050565b6000819050602082019050919050565b620019598162001731565b82525050565b60006200196d83836200194e565b60208301905092915050565b6000602082019050919050565b6000620019938262001922565b6200199f81856200192d565b9350620019ac836200193e565b8060005b83811015620019e3578151620019c788826200195f565b9750620019d48362001979565b925050600181019050620019b0565b5085935050505092915050565b6000602082019050818103600083015262001a0c818462001986565b905092915050565b6000819050919050565b62001a298162001a14565b811462001a3557600080fd5b50565b60008135905062001a498162001a1e565b92915050565b6000806040838503121562001a695762001a6862001707565b5b600062001a79858286016200175f565b925050602062001a8c8582860162001a38565b9150509250929050565b600062001aa3826200189a565b9050919050565b62001ab58162001a96565b82525050565b600060208201905062001ad2600083018462001aaa565b92915050565b60008115159050919050565b62001aef8162001ad8565b82525050565b600060208201905062001b0c600083018462001ae4565b92915050565b60006020828403121562001b2b5762001b2a62001707565b5b600062001b3b8482850162001a38565b91505092915050565b62001b4f8162001731565b82525050565b600060208201905062001b6c600083018462001b44565b92915050565b6000806040838503121562001b8c5762001b8b62001707565b5b600062001b9c858286016200175f565b925050602062001baf858286016200175f565b9150509250929050565b6003811062001bc757600080fd5b50565b60008135905062001bdb8162001bb9565b92915050565b600061ffff82169050919050565b62001bfa8162001be1565b811462001c0657600080fd5b50565b60008135905062001c1a8162001bef565b92915050565b600080fd5b6000601f19601f8301169050919050565b7f4e487b7100000000000000000000000000000000000000000000000000000000600052604160045260246000fd5b62001c708262001c25565b810181811067ffffffffffffffff8211171562001c925762001c9162001c36565b5b80604052505050565b600062001ca7620016fd565b905062001cb5828262001c65565b919050565b600067ffffffffffffffff82111562001cd85762001cd762001c36565b5b602082029050602081019050919050565b600080fd5b600062001d0562001cff8462001cba565b62001c9b565b9050808382526020820190506020840283018581111562001d2b5762001d2a62001ce9565b5b835b8181101562001d58578062001d438882620017df565b84526020840193505060208101905062001d2d565b5050509392505050565b600082601f83011262001d7a5762001d7962001c20565b5b813562001d8c84826020860162001cee565b91505092915050565b60008060008060008060008060006101208a8c03121562001dbb5762001dba62001707565b5b600062001dcb8c828d0162001bca565b995050602062001dde8c828d01620017df565b985050604062001df18c828d01620017df565b975050606062001e048c828d01620017df565b965050608062001e178c828d0162001c09565b95505060a062001e2a8c828d0162001a38565b94505060c062001e3d8c828d01620017df565b93505060e062001e508c828d01620017df565b9250506101008a013567ffffffffffffffff81111562001e755762001e746200170c565b5b62001e838c828d0162001d62565b9150509295985092959850929598565b600081519050919050565b6000819050602082019050919050565b62001eb98162001a96565b82525050565b600062001ecd838362001eae565b60208301905092915050565b6000602082019050919050565b600062001ef38262001e93565b62001eff81856200192d565b935062001f0c8362001e9e565b8060005b8381101562001f4357815162001f27888262001ebf565b975062001f348362001ed9565b92505060018101905062001f10565b5085935050505092915050565b6000602082019050818103600083015262001f6c818462001ee6565b905092915050565b62001f7f81620017bb565b82525050565b600060808201905062001f9c600083018762001b44565b62001fab602083018662001b44565b62001fba604083018562001b44565b62001fc9606083018462001f74565b95945050505050565b600082825260208201905092915050565b7f4f776e61626c653a2063616c6c6572206973206e6f7420746865206f776e6572600082015250565b60006200201b60208362001fd2565b9150620020288262001fe3565b602082019050919050565b600060208201905081810360008301526200204e816200200c565b9050919050565b620020608162001a14565b82525050565b60006020820190506200207d600083018462002055565b92915050565b600081519050620020948162001745565b92915050565b600060208284031215620020b357620020b262001707565b5b6000620020c38482850162002083565b91505092915050565b7f596f7520617265206e6f7420746865206f776e6572206f66207468652044656560008201527f6420546f6b656e20666f72207468697320696e737472756d656e740000000000602082015250565b60006200212a603b8362001fd2565b91506200213782620020cc565b604082019050919050565b600060208201905081810360008301526200215d816200211b565b9050919050565b7f4e487b7100000000000000000000000000000000000000000000000000000000600052602160045260246000fd5b60038110620021a757620021a662002164565b5b50565b6000819050620021ba8262002193565b919050565b6000620021cc82620021aa565b9050919050565b620021de81620021bf565b82525050565b620021ef8162001be1565b82525050565b600081519050919050565b600082825260208201905092915050565b6000819050602082019050919050565b6200222c81620017bb565b82525050565b600062002240838362002221565b60208301905092915050565b6000602082019050919050565b60006200226682620021f5565b62002272818562002200565b93506200227f8362002211565b8060005b83811015620022b65781516200229a888262002232565b9750620022a7836200224c565b92505060018101905062002283565b5085935050505092915050565b600061016082019050620022db600083018e620021d3565b620022ea602083018d62001f74565b620022f9604083018c62001f74565b62002308606083018b62001f74565b62002317608083018a620021e4565b6200232660a083018962002055565b6200233560c083018862001f74565b6200234460e083018762001f74565b81810361010083015262002359818662002259565b90506200236b61012083018562001b44565b6200237b61014083018462001b44565b9c9b505050505050505050505050565b600061014082019050620023a3600083018d620021d3565b620023b2602083018c62001b44565b620023c1604083018b62001f74565b620023d0606083018a62001f74565b620023df608083018962001f74565b620023ee60a0830188620021e4565b620023fd60c083018762002055565b6200240c60e083018662001f74565b6200241c61010083018562001f74565b81810361012083015262002431818462002259565b90509b9a5050505050505050505050565b7f4f776e61626c653a206e6577206f776e657220697320746865207a65726f206160008201527f6464726573730000000000000000000000000000000000000000000000000000602082015250565b6000620024a060268362001fd2565b9150620024ad8262002442565b604082019050919050565b60006020820190508181036000830152620024d38162002491565b9050919050565b7f4e487b7100000000000000000000000000000000000000000000000000000000600052603260045260246000fd5b7f4e487b7100000000000000000000000000000000000000000000000000000000600052601160045260246000fd5b6000620025458262001a14565b91507fffffffffffffffffffffffffffffffffffffffffffffffffffffffffffffffff8214156200257b576200257a62002509565b5b600182019050919050565b7f6275726e206661696c656420696e207265717569726500000000000000000000600082015250565b6000620025be60168362001fd2565b9150620025cb8262002586565b602082019050919050565b60006020820190508181036000830152620025f181620025af565b9050919050565b6000620026058262001a14565b9150620026128362001a14565b92508282101562002628576200262762002509565b5b828203905092915050565b7f4e487b7100000000000000000000000000000000000000000000000000000000600052603160045260246000fdfe60806040523480156200001157600080fd5b50604051620025c3380380620025c3833981810160405281019062000037919062000738565b620000576200004b6200033060201b60201c565b6200033860201b60201c565b81600f60006101000a81548173ffffffffffffffffffffffffffffffffffffffff021916908373ffffffffffffffffffffffffffffffffffffffff16021790555080600e60006101000a81548173ffffffffffffffffffffffffffffffffffffffff021916908373ffffffffffffffffffffffffffffffffffffffff1602179055508a600360000160006101000a81548160ff0219169083600281111562000104576200010362000864565b5b0217905550896003600101819055508860036002018190555087600380018190555086600360040160006101000a81548161ffff021916908361ffff1602179055508560036005018190555082600360060190805190602001906200016b929190620003fc565b506001600d60146101000a81548160ff021916908360ff1602179055506040518060800160405280600d60149054906101000a900460ff1660ff1661ffff168152602001600e60009054906101000a900473ffffffffffffffffffffffffffffffffffffffff1673ffffffffffffffffffffffffffffffffffffffff16636352211e896040518263ffffffff1660e01b81526004016200020c9190620008a4565b602060405180830381865afa1580156200022a573d6000803e3d6000fd5b505050506040513d601f19601f82011682018060405250810190620002509190620008c1565b73ffffffffffffffffffffffffffffffffffffffff1681526020018581526020018681525060016000600d60149054906101000a900460ff1660ff1661ffff16815260200190815260200160002060008201518160000160006101000a81548161ffff021916908361ffff16021790555060208201518160000160026101000a81548173ffffffffffffffffffffffffffffffffffffffff021916908373ffffffffffffffffffffffffffffffffffffffff16021790555060408201518160010155606082015181600201559050505050505050505050505050620008f3565b600033905090565b60008060009054906101000a900473ffffffffffffffffffffffffffffffffffffffff169050816000806101000a81548173ffffffffffffffffffffffffffffffffffffffff021916908373ffffffffffffffffffffffffffffffffffffffff1602179055508173ffffffffffffffffffffffffffffffffffffffff168173ffffffffffffffffffffffffffffffffffffffff167f8be0079c531659141344cd1fd0a4f28419497f9722a3daafe3b4186f6b6457e060405160405180910390a35050565b8280548282559060005260206000209081019282156200043b579160200282015b828111156200043a5782518255916020019190600101906200041d565b5b5090506200044a91906200044e565b5090565b5b80821115620004695760008160009055506001016200044f565b5090565b6000604051905090565b600080fd5b600080fd5b600381106200048f57600080fd5b50565b600081519050620004a38162000481565b92915050565b6000819050919050565b620004be81620004a9565b8114620004ca57600080fd5b50565b600081519050620004de81620004b3565b92915050565b600061ffff82169050919050565b620004fd81620004e4565b81146200050957600080fd5b50565b6000815190506200051d81620004f2565b92915050565b6000819050919050565b620005388162000523565b81146200054457600080fd5b50565b60008151905062000558816200052d565b92915050565b600080fd5b6000601f19601f8301169050919050565b7f4e487b7100000000000000000000000000000000000000000000000000000000600052604160045260246000fd5b620005ae8262000563565b810181811067ffffffffffffffff82111715620005d057620005cf62000574565b5b80604052505050565b6000620005e56200046d565b9050620005f38282620005a3565b919050565b600067ffffffffffffffff82111562000616576200061562000574565b5b602082029050602081019050919050565b600080fd5b6000620006436200063d84620005f8565b620005d9565b9050808382526020820190506020840283018581111562000669576200066862000627565b5b835b81811015620006965780620006818882620004cd565b8452602084019350506020810190506200066b565b5050509392505050565b600082601f830112620006b857620006b76200055e565b5b8151620006ca8482602086016200062c565b91505092915050565b600073ffffffffffffffffffffffffffffffffffffffff82169050919050565b60006200070082620006d3565b9050919050565b6200071281620006f3565b81146200071e57600080fd5b50565b600081519050620007328162000707565b92915050565b60008060008060008060008060008060006101608c8e03121562000761576200076062000477565b5b6000620007718e828f0162000492565b9b50506020620007848e828f01620004cd565b9a50506040620007978e828f01620004cd565b9950506060620007aa8e828f01620004cd565b9850506080620007bd8e828f016200050c565b97505060a0620007d08e828f0162000547565b96505060c0620007e38e828f01620004cd565b95505060e0620007f68e828f01620004cd565b9450506101008c015167ffffffffffffffff8111156200081b576200081a6200047c565b5b620008298e828f01620006a0565b9350506101206200083d8e828f0162000721565b925050610140620008518e828f0162000721565b9150509295989b509295989b9093969950565b7f4e487b7100000000000000000000000000000000000000000000000000000000600052602160045260246000fd5b6200089e8162000523565b82525050565b6000602082019050620008bb600083018462000893565b92915050565b600060208284031215620008da57620008d962000477565b5b6000620008ea8482850162000721565b91505092915050565b611cc080620009036000396000f3fe608060405234801561001057600080fd5b506004361061010b5760003560e01c806399e84ba2116100a2578063debc241911610071578063debc241914610261578063e30c397814610294578063f023f222146102b2578063f2fde38b146102d3578063fcf3e555146102ef5761010b565b806399e84ba2146101ef578063b7083ca61461020d578063c0d62b3014610229578063c42069ec146102455761010b565b80635767d534116100de5780635767d534146101865780636f4cf183146101a9578063715018a6146101c75780638da5cb5b146101d15761010b565b80630db02622146101105780631fc45b001461012e5780633a5e8a061461014c578063462f67d91461016a575b600080fd5b61011861030d565b6040516101259190611178565b60405180910390f35b610136610320565b6040516101439190611212565b60405180910390f35b610154610346565b60405161016191906112a4565b60405180910390f35b610184600480360381019061017f91906112fa565b610359565b005b61018e6103d8565b6040516101a09695949392919061136c565b60405180910390f35b6101b161041d565b6040516101be9190611510565b60405180910390f35b6101cf6105f1565b005b6101d9610679565b6040516101e69190611541565b60405180910390f35b6101f76106a2565b604051610204919061160b565b60405180910390f35b610227600480360381019061022291906112fa565b6106fd565b005b610243600480360381019061023e9190611659565b61077c565b005b61025f600480360381019061025a91906116ac565b610b35565b005b61027b60048036038101906102769190611705565b610cff565b60405161028b9493929190611732565b60405180910390f35b61029c610d5d565b6040516102a99190611541565b60405180910390f35b6102ba610d83565b6040516102ca9493929190611732565b60405180910390f35b6102ed60048036038101906102e891906116ac565b610dcf565b005b6102f7610ec7565b6040516103049190611798565b60405180910390f35b600d60149054906101000a900460ff1681565b600e60009054906101000a900473ffffffffffffffffffffffffffffffffffffffff1681565b600260009054906101000a900460ff1681565b610361610eed565b73ffffffffffffffffffffffffffffffffffffffff1661037f610679565b73ffffffffffffffffffffffffffffffffffffffff16146103d5576040517f08c379a00000000000000000000000000000000000000000000000000000000081526004016103cc90611810565b60405180910390fd5b50565b60038060000160009054906101000a900460ff16908060010154908060020154908060030154908060040160009054906101000a900461ffff16908060050154905086565b606060006001600d60149054906101000a900460ff1661043d919061185f565b60ff1667ffffffffffffffff81111561045957610458611896565b5b60405190808252806020026020018201604052801561049257816020015b61047f611114565b8152602001906001900390816104775790505b5090506000600190505b600d60149054906101000a900460ff1660ff168161ffff16116105e9576104f76040518060400160405280600781526020017f68697474696e6700000000000000000000000000000000000000000000000000815250610ef5565b600160008261ffff1661ffff1681526020019081526020016000206040518060800160405290816000820160009054906101000a900461ffff1661ffff1661ffff1681526020016000820160029054906101000a900473ffffffffffffffffffffffffffffffffffffffff1673ffffffffffffffffffffffffffffffffffffffff1673ffffffffffffffffffffffffffffffffffffffff16815260200160018201548152602001600282015481525050828261ffff16815181106105be576105bd6118c5565b5b60200260200101819052506105d68161ffff16610f8e565b80806105e1906118f4565b91505061049c565b508091505090565b6105f9610eed565b73ffffffffffffffffffffffffffffffffffffffff16610617610679565b73ffffffffffffffffffffffffffffffffffffffff161461066d576040517f08c379a000000000000000000000000000000000000000000000000000000000815260040161066490611810565b60405180910390fd5b6106776000611027565b565b60008060009054906101000a900473ffffffffffffffffffffffffffffffffffffffff16905090565b606060036006018054806020026020016040519081016040528092919081815260200182805480156106f357602002820191906000526020600020905b8154815260200190600101908083116106df575b5050505050905090565b610705610eed565b73ffffffffffffffffffffffffffffffffffffffff16610723610679565b73ffffffffffffffffffffffffffffffffffffffff1614610779576040517f08c379a000000000000000000000000000000000000000000000000000000000815260040161077090611810565b60405180910390fd5b50565b600d60009054906101000a900473ffffffffffffffffffffffffffffffffffffffff1673ffffffffffffffffffffffffffffffffffffffff163373ffffffffffffffffffffffffffffffffffffffff161461080c576040517f08c379a0000000000000000000000000000000000000000000000000000000008152600401610803906119b7565b60405180910390fd5b600f60009054906101000a900473ffffffffffffffffffffffffffffffffffffffff1673ffffffffffffffffffffffffffffffffffffffff1663054f2612843330856040518563ffffffff1660e01b815260040161086d94939291906119f8565b600060405180830381600087803b15801561088757600080fd5b505af115801561089b573d6000803e3d6000fd5b50505050600f60009054906101000a900473ffffffffffffffffffffffffffffffffffffffff1673ffffffffffffffffffffffffffffffffffffffff1663923ae89d33306040518363ffffffff1660e01b81526004016108fc929190611a3d565b600060405180830381600087803b15801561091657600080fd5b505af115801561092a573d6000803e3d6000fd5b505050506000600d60006101000a81548173ffffffffffffffffffffffffffffffffffffffff021916908373ffffffffffffffffffffffffffffffffffffffff160217905550600d601481819054906101000a900460ff1661098b90611a66565b91906101000a81548160ff021916908360ff1602179055506040518060800160405280600d60149054906101000a900460ff1660ff1661ffff1681526020013373ffffffffffffffffffffffffffffffffffffffff1681526020018381526020018281525060016000600d60149054906101000a900460ff1660ff1661ffff16815260200190815260200160002060008201518160000160006101000a81548161ffff021916908361ffff16021790555060208201518160000160026101000a81548173ffffffffffffffffffffffffffffffffffffffff021916908373ffffffffffffffffffffffffffffffffffffffff1602179055506040820151816001015560608201518160020155905050600e60009054906101000a900473ffffffffffffffffffffffffffffffffffffffff1673ffffffffffffffffffffffffffffffffffffffff166342842e0e84336003600501546040518463ffffffff1660e01b8152600401610afe93929190611a90565b600060405180830381600087803b158015610b1857600080fd5b505af1158015610b2c573d6000803e3d6000fd5b50505050505050565b3373ffffffffffffffffffffffffffffffffffffffff1660016000600d60149054906101000a900460ff1660ff1661ffff16815260200190815260200160002060000160029054906101000a900473ffffffffffffffffffffffffffffffffffffffff1673ffffffffffffffffffffffffffffffffffffffff161480610bed57503373ffffffffffffffffffffffffffffffffffffffff16610bd5610679565b73ffffffffffffffffffffffffffffffffffffffff16145b610c2c576040517f08c379a0000000000000000000000000000000000000000000000000000000008152600401610c2390611b13565b60405180910390fd5b80600d60006101000a81548173ffffffffffffffffffffffffffffffffffffffff021916908373ffffffffffffffffffffffffffffffffffffffff160217905550600f60009054906101000a900473ffffffffffffffffffffffffffffffffffffffff1673ffffffffffffffffffffffffffffffffffffffff1663fceceb9e82306040518363ffffffff1660e01b8152600401610cca929190611a3d565b600060405180830381600087803b158015610ce457600080fd5b505af1158015610cf8573d6000803e3d6000fd5b5050505050565b60016020528060005260406000206000915090508060000160009054906101000a900461ffff16908060000160029054906101000a900473ffffffffffffffffffffffffffffffffffffffff16908060010154908060020154905084565b600d60009054906101000a900473ffffffffffffffffffffffffffffffffffffffff1681565b600a8060000160009054906101000a900461ffff16908060000160029054906101000a900473ffffffffffffffffffffffffffffffffffffffff16908060010154908060020154905084565b610dd7610eed565b73ffffffffffffffffffffffffffffffffffffffff16610df5610679565b73ffffffffffffffffffffffffffffffffffffffff1614610e4b576040517f08c379a0000000000000000000000000000000000000000000000000000000008152600401610e4290611810565b60405180910390fd5b600073ffffffffffffffffffffffffffffffffffffffff168173ffffffffffffffffffffffffffffffffffffffff161415610ebb576040517f08c379a0000000000000000000000000000000000000000000000000000000008152600401610eb290611ba5565b60405180910390fd5b610ec481611027565b50565b600f60009054906101000a900473ffffffffffffffffffffffffffffffffffffffff1681565b600033905090565b610f8b81604051602401610f099190611c4d565b6040516020818303038152906040527f41304fac000000000000000000000000000000000000000000000000000000007bffffffffffffffffffffffffffffffffffffffffffffffffffffffff19166020820180517bffffffffffffffffffffffffffffffffffffffffffffffffffffffff83818316178352505050506110eb565b50565b61102481604051602401610fa29190611c6f565b6040516020818303038152906040527ff5b1bba9000000000000000000000000000000000000000000000000000000007bffffffffffffffffffffffffffffffffffffffffffffffffffffffff19166020820180517bffffffffffffffffffffffffffffffffffffffffffffffffffffffff83818316178352505050506110eb565b50565b60008060009054906101000a900473ffffffffffffffffffffffffffffffffffffffff169050816000806101000a81548173ffffffffffffffffffffffffffffffffffffffff021916908373ffffffffffffffffffffffffffffffffffffffff1602179055508173ffffffffffffffffffffffffffffffffffffffff168173ffffffffffffffffffffffffffffffffffffffff167f8be0079c531659141344cd1fd0a4f28419497f9722a3daafe3b4186f6b6457e060405160405180910390a35050565b60008151905060006a636f6e736f6c652e6c6f679050602083016000808483855afa5050505050565b6040518060800160405280600061ffff168152602001600073ffffffffffffffffffffffffffffffffffffffff16815260200160008019168152602001600080191681525090565b600060ff82169050919050565b6111728161115c565b82525050565b600060208201905061118d6000830184611169565b92915050565b600073ffffffffffffffffffffffffffffffffffffffff82169050919050565b6000819050919050565b60006111d86111d36111ce84611193565b6111b3565b611193565b9050919050565b60006111ea826111bd565b9050919050565b60006111fc826111df565b9050919050565b61120c816111f1565b82525050565b60006020820190506112276000830184611203565b92915050565b7f4e487b7100000000000000000000000000000000000000000000000000000000600052602160045260246000fd5b6003811061126d5761126c61122d565b5b50565b600081905061127e8261125c565b919050565b600061128e82611270565b9050919050565b61129e81611283565b82525050565b60006020820190506112b96000830184611295565b92915050565b600080fd5b6000819050919050565b6112d7816112c4565b81146112e257600080fd5b50565b6000813590506112f4816112ce565b92915050565b6000602082840312156113105761130f6112bf565b5b600061131e848285016112e5565b91505092915050565b611330816112c4565b82525050565b600061ffff82169050919050565b61134d81611336565b82525050565b6000819050919050565b61136681611353565b82525050565b600060c0820190506113816000830189611295565b61138e6020830188611327565b61139b6040830187611327565b6113a86060830186611327565b6113b56080830185611344565b6113c260a083018461135d565b979650505050505050565b600081519050919050565b600082825260208201905092915050565b6000819050602082019050919050565b61140281611336565b82525050565b600061141382611193565b9050919050565b61142381611408565b82525050565b611432816112c4565b82525050565b60808201600082015161144e60008501826113f9565b506020820151611461602085018261141a565b5060408201516114746040850182611429565b5060608201516114876060850182611429565b50505050565b60006114998383611438565b60808301905092915050565b6000602082019050919050565b60006114bd826113cd565b6114c781856113d8565b93506114d2836113e9565b8060005b838110156115035781516114ea888261148d565b97506114f5836114a5565b9250506001810190506114d6565b5085935050505092915050565b6000602082019050818103600083015261152a81846114b2565b905092915050565b61153b81611408565b82525050565b60006020820190506115566000830184611532565b92915050565b600081519050919050565b600082825260208201905092915050565b6000819050602082019050919050565b60006115948383611429565b60208301905092915050565b6000602082019050919050565b60006115b88261155c565b6115c28185611567565b93506115cd83611578565b8060005b838110156115fe5781516115e58882611588565b97506115f0836115a0565b9250506001810190506115d1565b5085935050505092915050565b6000602082019050818103600083015261162581846115ad565b905092915050565b61163681611408565b811461164157600080fd5b50565b6000813590506116538161162d565b92915050565b600080600060608486031215611672576116716112bf565b5b600061168086828701611644565b9350506020611691868287016112e5565b92505060406116a2868287016112e5565b9150509250925092565b6000602082840312156116c2576116c16112bf565b5b60006116d084828501611644565b91505092915050565b6116e281611336565b81146116ed57600080fd5b50565b6000813590506116ff816116d9565b92915050565b60006020828403121561171b5761171a6112bf565b5b6000611729848285016116f0565b91505092915050565b60006080820190506117476000830187611344565b6117546020830186611532565b6117616040830185611327565b61176e6060830184611327565b95945050505050565b6000611782826111df565b9050919050565b61179281611777565b82525050565b60006020820190506117ad6000830184611789565b92915050565b600082825260208201905092915050565b7f4f776e61626c653a2063616c6c6572206973206e6f7420746865206f776e6572600082015250565b60006117fa6020836117b3565b9150611805826117c4565b602082019050919050565b60006020820190508181036000830152611829816117ed565b9050919050565b7f4e487b7100000000000000000000000000000000000000000000000000000000600052601160045260246000fd5b600061186a8261115c565b91506118758361115c565b92508260ff0382111561188b5761188a611830565b5b828201905092915050565b7f4e487b7100000000000000000000000000000000000000000000000000000000600052604160045260246000fd5b7f4e487b7100000000000000000000000000000000000000000000000000000000600052603260045260246000fd5b60006118ff82611336565b915061ffff82141561191457611913611830565b5b600182019050919050565b7f596f7520617265206e6f74207468652070656e64696e674f776e6572206f662060008201527f74686973206974656d20616e64207468657265666f72652063616e6e6f74206360208201527f6c61696d20697400000000000000000000000000000000000000000000000000604082015250565b60006119a16047836117b3565b91506119ac8261191f565b606082019050919050565b600060208201905081810360008301526119d081611994565b9050919050565b60006119e2826111df565b9050919050565b6119f2816119d7565b82525050565b6000608082019050611a0d6000830187611532565b611a1a6020830186611532565b611a2760408301856119e9565b611a346060830184611327565b95945050505050565b6000604082019050611a526000830185611532565b611a5f6020830184611532565b9392505050565b6000611a718261115c565b915060ff821415611a8557611a84611830565b5b600182019050919050565b6000606082019050611aa56000830186611532565b611ab26020830185611532565b611abf604083018461135d565b949350505050565b7f6f6e6c79417574686f72697a6564206661696c00000000000000000000000000600082015250565b6000611afd6013836117b3565b9150611b0882611ac7565b602082019050919050565b60006020820190508181036000830152611b2c81611af0565b9050919050565b7f4f776e61626c653a206e6577206f776e657220697320746865207a65726f206160008201527f6464726573730000000000000000000000000000000000000000000000000000602082015250565b6000611b8f6026836117b3565b9150611b9a82611b33565b604082019050919050565b60006020820190508181036000830152611bbe81611b82565b9050919050565b600081519050919050565b60005b83811015611bee578082015181840152602081019050611bd3565b83811115611bfd576000848401525b50505050565b6000601f19601f8301169050919050565b6000611c1f82611bc5565b611c2981856117b3565b9350611c39818560208601611bd0565b611c4281611c03565b840191505092915050565b60006020820190508181036000830152611c678184611c14565b905092915050565b6000602082019050611c84600083018461135d565b9291505056fea2646970667358221220f61a564cd0cacde387a28dc21df9e899353d09cb3bdc7128e9eb76f19a99972664736f6c634300080a0033a2646970667358221220cd6143dda6c1d25e688a8f129a17141b5d30693d2649adb709f7be81fd91612264736f6c634300080a0033",
  "linkReferences": {},
  "deployedLinkReferences": {}
}